{
 "cells": [
  {
   "cell_type": "markdown",
   "id": "89ea26c8-ee2f-489f-ac16-45109bae477c",
   "metadata": {},
   "source": [
    "# Creating the First Commitment Transaction\n",
    "\n",
    "In this section we'll create the First Commitment transaction of a Lightning Channel from scratch in python. We'll go through each part of the transaction, how it's constructed, signed, and the message the peers exchange to send and get the needed information from each other to make it happen. We'll test it using bitcoin core in regtest mode.\n",
    "\n",
    "## Prerequisite knowledge\n",
    "- For all notebooks:\n",
    "    - A high level understanding of the bitcoin. e.g. [Mastering Bitcoin](https://github.com/bitcoinbook/bitcoinbook) by Andreas Antonopoulos UTXO model, in particular [Chapter 6](https://github.com/bitcoinbook/bitcoinbook/blob/develop/ch06.asciidoc).\n",
    "    - A high level understanding of the Lightning Network. e.g. [Mastering Lightning](https://github.com/bitcoinbook/bitcoinbook) TODO Get the chapter to point it here\n",
    "    - A conceptual understanding of [hash functions](https://www.thesslstore.com/blog/what-is-a-hash-function-in-cryptography-a-beginners-guide).\n",
    "    - [Hexadecimal notation](https://inst.eecs.berkeley.edu/~cs61bl/r//cur/bits/decimal-binary-hex.html?topic=lab28.topic&step=2&course=) and [endianness](https://www.freecodecamp.org/news/what-is-endianness-big-endian-vs-little-endian/).\n",
    "\n",
    "- Specific to this notebook:\n",
    "    - SHA256, HASH256, HASH160 - '[Hash Functions chapter](https://github.com/MPins/lightning-tx-tutorial/blob/main/appendix/hash-functions.ipynb)'\n",
    "    - Bech32 addresses - '[Addresses chapter](https://github.com/MPins/lightning-tx-tutorial/blob/main/appendix/Addresses.ipynb)'\n",
    "    - Bitcoin Script basics - '[Bitcoin Script chapter](https://github.com/MPins/lightning-tx-tutorial/blob/main/appendix/Bitcoin%20Script.ipynb)'\n",
    "    - Lightning Network BOLT #2: '[Peer Protocol for Channel Management](https://github.com/lightning/bolts/blob/master/02-peer-protocol.md#channel-establishment-v1)'"
   ]
  },
  {
   "cell_type": "markdown",
   "id": "651d0b70-8dcf-420e-9977-89be2a362590",
   "metadata": {},
   "source": [
    "## Commitment Transactions\n",
    "\n",
    "The Basis of Lightning Technology ([BOLT](https://github.com/lightning/bolts/blob/master/03-transactions.md))  details the exact format of on-chain transactions, which both sides need to agree on to ensure signatures are valid. This consists of the funding transaction output script, the commitment transactions, and the HTLC transactions.\n",
    "\n",
    "This notebook will focus on commitment transactions.\n",
    "\n",
    "    +-----------+                              +---------+\n",
    "    |           |--(1)---  open_channel  ----->|         |\n",
    "    |           |<-(2)--  accept_channel  -----|         |\n",
    "    |           |                              |         |\n",
    "    |   Alice   |--(3)--  funding_created  --->|   Bob   |\n",
    "    |           |<-(4)--  funding_signed  -----|         |\n",
    "    |           |                              |         |\n",
    "    |           |--(5)---  channel_ready  ---->|         |\n",
    "    |           |<-(6)---  channel_ready  -----|         |\n",
    "    +-----------+                              +---------+\n",
    "\n",
    "    - where node Alice is 'funder' and node Bob is 'fundee'"
   ]
  },
  {
   "cell_type": "markdown",
   "id": "c00c2b0e-2fc4-49e6-aa8f-95ee6a95e49c",
   "metadata": {},
   "source": [
    "Alice send the `open_channel` message to Bob. This message define many channel operational criterias, here we are going to focus on the information that are used in the commitment transaction:\n",
    "* push_msat\n",
    "* dust_limit_satoshis\n",
    "* feerate_per_kw\n",
    "* to_self_delay\n",
    "* funding_pubkey\n",
    "* revocation_basepoint\n",
    "* payment_basepoint\n",
    "* delayed_payment_basepoint\n",
    "* htlc_basepoint\n",
    "* first_per_commitment_point"
   ]
  },
  {
   "cell_type": "markdown",
   "id": "c60104b2-4058-4a72-9b6f-4ae5c13942ad",
   "metadata": {},
   "source": [
    "If Bob does not agree with the criterias sent into the `open_channel` message he send a [`error_message`](https://github.com/lightning/bolts/blob/master/01-messaging.md#the-error-and-warning-messages) back to Alice, otherwise he sends the [`accept_channel`](https://github.com/lightning/bolts/blob/master/02-peer-protocol.md#the-accept_channel-message) message, containing some operational criterias from your side, here we are going to focus on the information that are used in the commitment transaction:\n",
    "* dust_limit_satoshis\n",
    "* to_self_delay\n",
    "* funding_pubkey\n",
    "* revocation_basepoint\n",
    "* payment_basepoint\n",
    "* delayed_payment_basepoint\n",
    "* htlc_basepoint\n",
    "* first_per_commitment_point"
   ]
  },
  {
   "cell_type": "markdown",
   "id": "a08513cc-5fbe-48c6-af2f-54fdd8f7904a",
   "metadata": {},
   "source": [
    "## Setup\n",
    "### Requirements\n",
    "\n",
    "For this exercise we'll run the previous notebook to create the channel funding transaction beetween Alice and Bob.\n",
    "\n",
    "Below, run the notebook:\n",
    "\n",
    "**You'll need to edit these next line for your local setup.**"
   ]
  },
  {
   "cell_type": "code",
   "execution_count": 1,
   "id": "3d2a8a29-35ce-4dca-baa1-f7db714c820c",
   "metadata": {},
   "outputs": [
    {
     "name": "stdout",
     "output_type": "stream",
     "text": [
      "Stored 'alice_funding_address' (str)\n",
      "Alice's pubkey: 037685b7e0a23a1b58540e6af6f60550e2ed6705e858817d92df23170a65e4a4c1\n",
      "Alice's funding p2wpkh address: bcrt1qk7k7fzan0wfn6tf3y4vylujlvcrs2s5v4d2ngm\n",
      "Alice's change p2wpkh address: bcrt1qhm34rrrhcntahx9cg8dzsgxeq9xymnkh8rgcrk\n",
      "2025-01-10T00:28:59.508000Z TestFramework (INFO): PRNG seed is: 7924491002478819837\n",
      "2025-01-10T00:28:59.510000Z TestFramework (INFO): Initializing test directory /tmp/bitcoin_func_test_mttc2el3\n",
      "txid_to_spent: 72811350a969df6ddf8acf7b2675f5a78c289676e97c921ca621feb0b642c0ab, 0\n",
      "Bob's pubkey: 03e81dfa1a26011178a4c5e8a704e5909015a51558deb011c43d98fd94c63b1223\n",
      "Alice pubkey is lexicographically lesser than Bob pubkey:\n",
      "037685b7e0a23a1b58540e6af6f60550e2ed6705e858817d92df23170a65e4a4c1 < 03e81dfa1a26011178a4c5e8a704e5909015a51558deb011c43d98fd94c63b1223\n",
      "Redeem Script:\n",
      "5221037685b7e0a23a1b58540e6af6f60550e2ed6705e858817d92df23170a65e4a4c12103e81dfa1a26011178a4c5e8a704e5909015a51558deb011c43d98fd94c63b122352ae\n",
      "channel_address:  bcrt1qg7zgfcvz9eneugzh9df8gc2wek3rfyf3t3vjuw06q8d7jtz7h5eqdjlj5l\n",
      "unsigned_tx:  0200000001abc042b6b0fe21a61c927ce97696288ca7f575267bcf8adf6ddf69a9501381720000000000ffffffff02c0e1e40000000000160014bee3518c77c4d7db98b841da2820d9014c4dced7404b4c0000000000220020478484e1822e679e20572b5274614ecda23491315c592e39fa01dbe92c5ebd3200000000\n",
      "{\n",
      "  \"txid\": \"d357c0610cee698937043f24684c289c3d1bb59124ae74595d30c8e8250563f3\",\n",
      "  \"hash\": \"d357c0610cee698937043f24684c289c3d1bb59124ae74595d30c8e8250563f3\",\n",
      "  \"version\": 2,\n",
      "  \"size\": 125,\n",
      "  \"vsize\": 125,\n",
      "  \"weight\": 500,\n",
      "  \"locktime\": 0,\n",
      "  \"vin\": [\n",
      "    {\n",
      "      \"txid\": \"72811350a969df6ddf8acf7b2675f5a78c289676e97c921ca621feb0b642c0ab\",\n",
      "      \"vout\": 0,\n",
      "      \"scriptSig\": {\n",
      "        \"asm\": \"\",\n",
      "        \"hex\": \"\"\n",
      "      },\n",
      "      \"sequence\": 4294967295\n",
      "    }\n",
      "  ],\n",
      "  \"vout\": [\n",
      "    {\n",
      "      \"value\": \"0.15000000\",\n",
      "      \"n\": 0,\n",
      "      \"scriptPubKey\": {\n",
      "        \"asm\": \"0 bee3518c77c4d7db98b841da2820d9014c4dced7\",\n",
      "        \"desc\": \"addr(bcrt1qhm34rrrhcntahx9cg8dzsgxeq9xymnkh8rgcrk)#va63jkv7\",\n",
      "        \"hex\": \"0014bee3518c77c4d7db98b841da2820d9014c4dced7\",\n",
      "        \"address\": \"bcrt1qhm34rrrhcntahx9cg8dzsgxeq9xymnkh8rgcrk\",\n",
      "        \"type\": \"witness_v0_keyhash\"\n",
      "      }\n",
      "    },\n",
      "    {\n",
      "      \"value\": \"0.05000000\",\n",
      "      \"n\": 1,\n",
      "      \"scriptPubKey\": {\n",
      "        \"asm\": \"0 478484e1822e679e20572b5274614ecda23491315c592e39fa01dbe92c5ebd32\",\n",
      "        \"desc\": \"addr(bcrt1qg7zgfcvz9eneugzh9df8gc2wek3rfyf3t3vjuw06q8d7jtz7h5eqdjlj5l)#ry0jtllc\",\n",
      "        \"hex\": \"0020478484e1822e679e20572b5274614ecda23491315c592e39fa01dbe92c5ebd32\",\n",
      "        \"address\": \"bcrt1qg7zgfcvz9eneugzh9df8gc2wek3rfyf3t3vjuw06q8d7jtz7h5eqdjlj5l\",\n",
      "        \"type\": \"witness_v0_scripthash\"\n",
      "      }\n",
      "    }\n",
      "  ]\n",
      "}\n",
      "tx_digest_preimage:  0200000014b64a99c3016988149d1861488e16764b6a8e64f9cf9e96d5cb9d335570f59a3bb13029ce7b1f559ef5e747fcac439f1455a2ec7c5f09b72290795e70665044abc042b6b0fe21a61c927ce97696288ca7f575267bcf8adf6ddf69a950138172000000001976a914b7ade48bb37b933d2d3125584ff25f660705428c88aca0b3320100000000ffffffff51866cfa9f65fdad1ed67d665903fa1d186e8408b49b05f10d00723c9904856e0000000001000000\n",
      "signed transaction:  02000000000101abc042b6b0fe21a61c927ce97696288ca7f575267bcf8adf6ddf69a9501381720000000000ffffffff02c0e1e40000000000160014bee3518c77c4d7db98b841da2820d9014c4dced7404b4c0000000000220020478484e1822e679e20572b5274614ecda23491315c592e39fa01dbe92c5ebd3202483045022100981507d79f2bc59b690e4a4c1b97a43192fc3a31ce93ff3758629c74b3896fd7022036cd1e563fc96777d26ce7d6930008693c6cf9fe1818ac95a4321d80f4804e640121037685b7e0a23a1b58540e6af6f60550e2ed6705e858817d92df23170a65e4a4c100000000\n",
      "[{'txid': 'd357c0610cee698937043f24684c289c3d1bb59124ae74595d30c8e8250563f3', 'wtxid': 'ad8de3fd8bb7669d4eec1e21046ebdecf409198a44bccfdea4501cd4c9a36c65', 'allowed': True, 'vsize': 153, 'fees': {'base': Decimal('0.00100000'), 'effective-feerate': Decimal('0.00653594'), 'effective-includes': ['ad8de3fd8bb7669d4eec1e21046ebdecf409198a44bccfdea4501cd4c9a36c65']}}]\n"
     ]
    }
   ],
   "source": [
    "# run notebook\n",
    "%run \"/home/pins-dev/Projects/lightning-tx-tutorial/Chapter 1 - Funding Transactions/Funding-Transaction.ipynb\""
   ]
  },
  {
   "cell_type": "markdown",
   "id": "5e3f8704-7c56-412c-905d-d345076b4bad",
   "metadata": {},
   "source": [
    "### Creating the Commitment Transactions\n",
    "\n",
    "Note that the funding transaction was not published yet, as without the commitment transaction signed by Bob, Alice would have to trust Bob to get back her funds from the multisig UTXO.\n",
    "\n",
    "Now we can start creating Alice unsigned commitment transaction. What makes a transaction 'unsigned' is that the witness field is empty.\n",
    "\n",
    "#### The Commitment Number\n",
    "To more easily allow both sides to keep track of the commitment numbers, each commitment actually encodes the number of the commitment within the lock time and sequence fields of the commitment transaction. Within the protocol, this special encoding is referred to as **state hints**. Assuming a party knows the current commitment number, they’re able to use the state hints to easily recognize if a broadcasted commitment was a revoked one. Rather than encode the state hint in plain sight, an obfuscated state hint is used in its place. This obfuscation is achieved by first XORing the current commitment number with a set of random bytes generated deterministically using the funding public keys of both sides of the channel. A total of 6 bytes (48 bits) across the lock time and sequence (24 bits of the locktime and 24 bits of the sequence) are used to encode the state hint within the commitment transaction, so 6 random bytes are needed to use for XORing. To obtain these 6 bytes, both sides obtain the SHA-256 hash of the initiator’s funding key concatenated to the responder’s funding key."
   ]
  },
  {
   "cell_type": "code",
   "execution_count": 2,
   "id": "f45cbcde-6d97-4050-933e-c84aabb3dc1f",
   "metadata": {},
   "outputs": [],
   "source": [
    "# The 48-bit commitment number is obscured by XOR with the lower 48 bits of\n",
    "# SHA256(payment_basepoint from open_channel || payment_basepoint from accept_channel)\n",
    "\n",
    "# Commitment number on the opening channel \n",
    "commitment_number = 0 \n",
    "\n",
    "to_obscure = sha256(alice_funding_pubkey + bob_funding_pubkey)\n",
    "to_obscure_int = int.from_bytes(to_obscure, byteorder='big')\n",
    "# Extract lower 48 bits\n",
    "to_obscure_int_lower48 = to_obscure_int & 0xFFFFFFFFFFFF\n",
    "# obscured commitment number is result of xor operation \n",
    "commitment_number_obscured = to_obscure_int_lower48 ^ commitment_number"
   ]
  },
  {
   "cell_type": "code",
   "execution_count": 3,
   "id": "8d42afee-1700-42a6-b6e8-f9dd4069df04",
   "metadata": {},
   "outputs": [],
   "source": [
    "# VERSION\n",
    "# version '2' indicates that we may use relative timelocks (BIP68)\n",
    "version = bytes.fromhex(\"0200 0000\")\n",
    "\n",
    "# MARKER\n",
    "marker = bytes.fromhex(\"00\")\n",
    "\n",
    "# FLAG\n",
    "flag = bytes.fromhex(\"01\")\n",
    "\n",
    "# INPUTS\n",
    "# We have just 1 input\n",
    "input_count = bytes.fromhex(\"01\")\n",
    "\n",
    "# Calculate the txid of the funding channel tx created on the previous notebook\n",
    "funding_channel_txid = hash256(unsigned_tx)\n",
    "# The index of the funding channel tx createt on the previous notebook\n",
    "funding_channel_txindex = 1\n",
    "# Convert txid and index to bytes (little endian)\n",
    "funding_channel_txid = (funding_channel_txid)[::-1]\n",
    "funding_channel_txindex = funding_channel_txindex.to_bytes(4, byteorder=\"little\", signed=False)\n",
    "\n",
    "# For the unsigned transaction we use an empty scriptSig\n",
    "scriptsig = bytes.fromhex(\"\")\n",
    "\n",
    "# sequence: upper 8 bits are 0x80, lower 24 bits are upper 24 bits of the obscured commitment number\n",
    "# Extract the upper 24 bits of the obscured commitment number\n",
    "upper_24_bits = (commitment_number_obscured >> 24) & 0xFFFFFF\n",
    "# Combine the upper 8 bits (0x80) with the lower 24 bits (upper 24 of obscured number)\n",
    "sequence = (0x80 << 24) | upper_24_bits\n",
    "# Convert to bytes (1 byte, big-endian)\n",
    "sequence = sequence.to_bytes(4, byteorder='big')\n",
    "\n",
    "inputs = (\n",
    "    txid\n",
    "    + index\n",
    "    + varint_len(scriptsig)\n",
    "    + scriptsig\n",
    "    + sequence\n",
    ")"
   ]
  },
  {
   "cell_type": "markdown",
   "id": "5aad8deb-d1b4-485f-a315-c7ee19938db4",
   "metadata": {},
   "source": [
    "### Transaction Outputs\n",
    "\n",
    "The Basis of Lightning Technology ([BOLT](https://github.com/lightning/bolts/blob/master/03-transactions.md)) defines the outputs as following:\n",
    "\n",
    "* For every offered HTLC, if it is not trimmed, add an offered HTLC output.\n",
    "* For every received HTLC, if it is not trimmed, add an received HTLC output.\n",
    "* If the to_local amount is greater or equal to dust_limit_satoshis, add a to_local output.\n",
    "* If the to_remote amount is greater or equal to dust_limit_satoshis, add a to_remote output.\n",
    "* If option_anchors applies to the commitment transaction:\n",
    "    * if to_local exists or there are untrimmed HTLCs, add a to_local_anchor output\n",
    "    * if to_remote exists or there are untrimmed HTLCs, add a to_remote_anchor output\n",
    "\n",
    "As this is the first commitment transaction it will have no outputs to Bob, because Alice was the funder of the channel and she is not sending any Sats to Bob, if she wanted to do that she could use the field `push_msat` on `open_channel` message and define the value in mili satoshis. As the channel was not openned yet, there is no offered or received HTLC, so none HTLC outputs will be created also. So the first Commitment Transaction outputs for Alice and Bob will be the following.\n",
    "\n",
    "Alice first Commitment Transaction will have two outputs:\n",
    "* to_local_anchor_output\n",
    "* to_local_output\n",
    "\n",
    "Bob first Commitment Transaction will have two outputs:\n",
    "* to_remote_anchor_output\n",
    "* to_remote_output\n",
    "\n",
    "The Basis of Lightning Technology ([BOLT](https://github.com/lightning/bolts/blob/master/03-transactions.md))  defines that outputs in transactions are always sorted first according to their value, this way the to_local_anchor_outuput is the first one, as its amount output is fixed at 330 sats, the default dust limit for P2WSH.\n",
    "\n",
    "**anchor outputs** exists to prevent a malicious peer from attaching child transactions with a low fee density to an anchor and thereby blocking the victim from getting the commit tx confirmed in time. This defense is supported by a change in Bitcoin core 0.19: [bitcoin/bitcoin#15681](https://github.com/bitcoin/bitcoin/pull/15681). This is also the reason that every non-anchor output on the commit tx is CSV locked. The feature is optional and can be enabled if both peers in a channel support it. But [Eclair v0.11.0](https://github.com/ACINQ/eclair/blob/master/docs/release-notes/eclair-v0.11.0.md) stop accepting channels that don't support anchor outputs."
   ]
  },
  {
   "cell_type": "markdown",
   "id": "75f76e7c-3384-472b-a842-e2a57034597a",
   "metadata": {},
   "source": [
    "### Key Derivations\n",
    "\n",
    "Each commitment transaction uses a unique localpubkey, local_delayedpubkey and revocationpubkey. Those are changed for every transaction based on the per_commitment_point.\n",
    "\n",
    "\n",
    "The **localdelayed** pubkeys are simply generated by addition from their base points. As definet at Basis of Lightning Technology ([BOLT](https://github.com/lightning/bolts/blob/master/03-transactions.md#key-derivation)):\n",
    "\n",
    "```\n",
    "pubkey = basepoint + SHA256(per_commitment_point || basepoint) * G\n",
    "```\n",
    "\n",
    "The **revocationpubkey** is a blinded key, Alice uses its own `revocation_basepoint` and the Bob node's `first_commitment_point`, sent into `accept_channel` message, to derive the revocationpubkey for the commitment. As definet at Basis of Lightning Technology ([BOLT](https://github.com/lightning/bolts/blob/master/03-transactions.md#revocationpubkey-derivation)):\n",
    "\n",
    "```\n",
    "revocationpubkey = revocation_basepoint * SHA256(revocation_basepoint || per_commitment_point) + per_commitment_point * SHA256(per_commitment_point || revocation_basepoint)\n",
    "```\n",
    "\n"
   ]
  },
  {
   "cell_type": "code",
   "execution_count": 4,
   "id": "41b72c9e-c947-4bca-9eb0-e40eab4e0e7c",
   "metadata": {},
   "outputs": [
    {
     "name": "stdout",
     "output_type": "stream",
     "text": [
      "efbf7ba5a074276701798376950a64a90f698997cce0dff4d24a6d2785d20963\n"
     ]
    }
   ],
   "source": [
    "# ALICE DELAYED PUBKEY\n",
    "# alice_delayed_pubkey = alice_delayed_payment_basepoint + SHA256(per_commitment_point || alice_delayed_payment_basepoint) * G\n",
    "# alice_delayed_payment_basepoint is generate by alice and sent into the `open_channel` message\n",
    "alice_delayed_payment_basepoint_compressed = \"036d6caac248af96f6afa7f904f550253a0f3ef3f5aa2fe6838a95b216691468e2\"\n",
    "alice_delayed_payment_basepoint = decompress_point(alice_delayed_payment_basepoint_compressed)\n",
    "# per_commitment_point is generated by alice and sent into the `open_channel` message\n",
    "alice_per_commitment_point_compressed = \"025f7117a78150fe2ef97db7cfc83bd57b2e2c0d0dd25eaf467a4a1c2a45ce1486\"\n",
    "alice_per_commitment_point = decompress_point(alice_per_commitment_point_compressed)\n",
    "# # Compute SHA256(per_commitment_point || basepoint) \n",
    "sha_output = sha256(bytes.fromhex(alice_per_commitment_point_compressed) + bytes.fromhex(alice_delayed_payment_basepoint_compressed))\n",
    "sha_int = int.from_bytes(sha_output, 'big') % n\n",
    "# do the math to get the alice_delayed_pubkey\n",
    "alice_delayed_pubkey_point = alice_delayed_payment_basepoint +  sha_int * G\n",
    "alice_delayed_pubkey = compress_pubkey(alice_delayed_pubkey_point)\n",
    "\n",
    "# BOB REVOGATION PUBKEY\n",
    "# revocationpubkey = revocation_basepoint * SHA256(revocation_basepoint || per_commitment_point) + per_commitment_point * SHA256(per_commitment_point || revocation_basepoint)\n",
    "# bob_revocation_basepoint is generate by bob and sent into the `accept_channel` message\n",
    "bob_revocation_basepoint_compressed = \"036d6caac248af96f6afa7f904f550253a0f3ef3f5aa2fe6838a95b216691468e2\"\n",
    "bob_revocation_basepoint = decompress_point(bob_revocation_basepoint_compressed)\n",
    "# per_commitment_point is generated by bob and sent into the `accept_channel` message\n",
    "bob_per_commitment_point_compressed = \"025f7117a78150fe2ef97db7cfc83bd57b2e2c0d0dd25eaf467a4a1c2a45ce1486\"\n",
    "bob_per_commitment_point = decompress_point(bob_per_commitment_point_compressed)\n",
    "# Compute SHA256(revocation_basepoint || per_commitment_point)\n",
    "sha1_output = sha256(bytes.fromhex(bob_revocation_basepoint_compressed) + bytes.fromhex(bob_per_commitment_point_compressed))\n",
    "print(sha1_output.hex())\n",
    "sha1_int = int.from_bytes(sha1_output, 'big') % n\n",
    "# now multiply it by revocation_basepoint\n",
    "part1 = bob_revocation_basepoint * sha1_int\n",
    "# Compute SHA256(per_commitment_point || revocation_basepoint)\n",
    "sha2_output = sha256(bytes.fromhex(bob_per_commitment_point_compressed) + bytes.fromhex(bob_revocation_basepoint_compressed))\n",
    "sha2_int = int.from_bytes(sha2_output, 'big') % n\n",
    "# multiply it by per_commitment_point\n",
    "part2 = bob_per_commitment_point * sha2_int\n",
    "# sum the results\n",
    "bob_revocation_pubkey_point = part1 + part2\n",
    "bob_revocation_pubkey = compress_pubkey(bob_revocation_pubkey_point)"
   ]
  },
  {
   "cell_type": "code",
   "execution_count": 5,
   "id": "88498a28-c647-462d-bdf2-d42c84e57ce7",
   "metadata": {},
   "outputs": [],
   "source": [
    "# OUTPUTS FOR ALICE\n",
    "# 0x02 for out two outputs\n",
    "output_count = bytes.fromhex(\"02\")\n",
    "\n",
    "# ANCHOR AMOUNT OUTPUT\n",
    "anchor_output_value = 330\n",
    "\n",
    "# ANCHOR OUTPUT  \n",
    "alice_anchor_output_value = anchor_output_value.to_bytes(8, byteorder=\"little\", signed=True)\n",
    "# ANCHOR P2WSH\n",
    "# <local_funding_pubkey/remote_funding_pubkey> OP_CHECKSIG OP_IFDUP\n",
    "# OP_NOTIF\n",
    "#     OP_16 OP_CHECKSEQUENCEVERIFY\n",
    "# OP_ENDIF\n",
    "to_alice_anchor_redeemScript = bytes.fromhex(\n",
    "    \"21\"\n",
    "    + alice_funding_pubkey.hex()\n",
    "    + \"ac\"  # OP_CHECKSIG\n",
    "    + \"73\"  # OP_IFDUP\n",
    "    + \"64\"  # OP_NOTIF\n",
    "    + \"60\"  # OP_16\n",
    "    + \"B2\"  # OP_CHECKSEQUENCEVERIFY\n",
    "    + \"68\") # OP_ENDIF\n",
    "\n",
    "to_alice_anchor_script_hash = sha256(to_alice_anchor_redeemScript)\n",
    "to_alice_anchor_output_spk = bytes.fromhex(\"0020\") + to_alice_anchor_script_hash\n",
    "\n",
    "# TO_LOCAL OUTPUT\n",
    "# This output sends funds back to the owner of this commitment transaction and thus must be timelocked\n",
    "# using OP_CHECKSEQUENCEVERIFY. It can be claimed, without delay, by the other party if they know the\n",
    "# revocation private key. The output is a version-0 P2WSH, with the witness script below:\n",
    "# OP_IF\n",
    "    # Penalty transaction\n",
    "#    <revocationpubkey>\n",
    "# OP_ELSE\n",
    "#    `to_self_delay`\n",
    "#    OP_CHECKSEQUENCEVERIFY\n",
    "#    OP_DROP\n",
    "#    <local_delayedpubkey>\n",
    "# OP_ENDIF\n",
    "# OP_CHECKSIG\n",
    "to_alice_redeemScript = bytes.fromhex(\n",
    "    \"63\"   # OP_IF\n",
    "    + \"21\"\n",
    "    + bob_revocation_pubkey\n",
    "    + \"67\"   # OP_ELSE\n",
    "    + \"02\"   \n",
    "    + \"9000\" # to_self_delay of 144 blocks\n",
    "    + \"b2\"   # OP_CHECKSEQUENCEVERIFY\n",
    "    + \"75\"   # OP_DROP\n",
    "    + \"21\"\n",
    "    + alice_delayed_pubkey\n",
    "    + \"68\"  # OP_ENDIF\n",
    "    + \"ac\") # OP_CHECKSIG\n",
    "\n",
    "to_alice_script_hash = sha256(to_alice_redeemScript)\n",
    "to_alice_output_spk = bytes.fromhex(\"0020\") + to_alice_anchor_script_hash\n",
    "\n"
   ]
  },
  {
   "cell_type": "markdown",
   "id": "e5936ed3-5131-4bff-a799-04f48a0ca96f",
   "metadata": {},
   "source": [
    "### Fee Calculation\n",
    "\n",
    "The fee calculation for commitment transactions  is based on the current `feerate_per_kw` sent by Alice into the `open_channel` message and the **expected** weight of the transaction.\n",
    "\n",
    "The Basis of Lightning Technology [BOLT](https://github.com/lightning/bolts/blob/master/03-transactions.md#fees) defines the following for the expected weights:\n",
    "* Commitment weight (no option_anchors):   724 + 172 * num-untrimmed-htlc-outputs\n",
    "* Commitment weight (option_anchors):     1124 + 172 * num-untrimmed-htlc-outputs\n",
    "* HTLC-timeout weight (no option_anchors): 663\n",
    "* HTLC-timeout weight (option_anchors): 666\n",
    "* HTLC-success weight (no option_anchors): 703\n",
    "* HTLC-success weight (option_anchors): 706"
   ]
  },
  {
   "cell_type": "code",
   "execution_count": 6,
   "id": "5eb4b16d-9f4c-48b0-ba6d-f5e7f626bc7d",
   "metadata": {},
   "outputs": [
    {
     "name": "stdout",
     "output_type": "stream",
     "text": [
      "unsigned_tx:  0200000001abc042b6b0fe21a61c927ce97696288ca7f575267bcf8adf6ddf69a950138172000000000080df65d3024a01000000000000220020b3df32d74b2af549738f79129baa882f081dbf6d2807a2ee11f0f8bdc72366261a084c0000000000220020b3df32d74b2af549738f79129baa882f081dbf6d2807a2ee11f0f8bdc723662620a8cf93\n"
     ]
    }
   ],
   "source": [
    "commitment_weight = 1124\n",
    "\n",
    "# data from open_channel message\n",
    "feerate_per_kw = 15000\n",
    "funding_satoshis = 5000000\n",
    "\n",
    "commitment_fee_rate = int(commitment_weight * feerate_per_kw / 1000)\n",
    "\n",
    "# TODO double check if we always subtract two times the anchor value or just one time when there is just one anchor output\n",
    "alice_output_value = funding_satoshis - anchor_output_value - commitment_fee_rate\n",
    "\n",
    "to_alice_output_value = alice_output_value.to_bytes(8, byteorder=\"little\", signed=True)\n",
    "\n",
    "outputs = (\n",
    "    alice_anchor_output_value\n",
    "    + varint_len(to_alice_anchor_output_spk)\n",
    "    + to_alice_anchor_output_spk\n",
    "    + to_alice_output_value\n",
    "    + varint_len(to_alice_output_spk)\n",
    "    + to_alice_output_spk\n",
    ")\n",
    "\n",
    "# Locktime: upper 8 bits are 0x20, lower 24 bits are the lower 24 bits of the obscured commitment number\n",
    "# Extract the lower 24 bits of the obscured commitment number\n",
    "lower_24_bits = commitment_number_obscured & 0xFFFFFF\n",
    "# Combine the upper 8 bits (0x20) with the lower 24 bits (lower 24 of obscured number)\n",
    "locktime = (0x20 << 24) | lower_24_bits\n",
    "# Convert to bytes (1 byte, big-endian)\n",
    "locktime = locktime.to_bytes(4, byteorder='big')\n",
    "\n",
    "unsigned_tx = (\n",
    "    version\n",
    "    + input_count\n",
    "    + inputs\n",
    "    + output_count\n",
    "    + outputs\n",
    "    + locktime\n",
    ")\n",
    "\n",
    "print(\"unsigned_tx: \", unsigned_tx.hex())\n",
    "\n"
   ]
  },
  {
   "cell_type": "markdown",
   "id": "61700beb-4115-431a-b0fc-4e5c1414dc37",
   "metadata": {},
   "source": [
    "We can decode this raw transaction to inspect it and see that it has all the information we need apart from the segwit fields (version, marker, and witness)."
   ]
  },
  {
   "cell_type": "code",
   "execution_count": 7,
   "id": "6d38cd76-78fd-4bc9-943c-ccf05da98106",
   "metadata": {},
   "outputs": [
    {
     "name": "stdout",
     "output_type": "stream",
     "text": [
      "tx_digest_preimage:  02000000f8c8ea018d732ac305ddbf55447d3bce804a858deeae49c4188261d782af15ad47ae0af8eac80f67217697e18453f362ba3c3762640334d3d27997487d1933a6d357c0610cee698937043f24684c289c3d1bb59124ae74595d30c8e8250563f301000000475221037685b7e0a23a1b58540e6af6f60550e2ed6705e858817d92df23170a65e4a4c12103e81dfa1a26011178a4c5e8a704e5909015a51558deb011c43d98fd94c63b122352ae404b4c000000000080df65d326c6d2e9c66f034fb4ff172631258cf0854b291fd158c835b1535a883a37281120a8cf9301000000\n"
     ]
    }
   ],
   "source": [
    "# value of the funding channel output transaction (Output2)\n",
    "value = output2_value_sat.to_bytes(8, byteorder=\"little\", signed=False)\n",
    "\n",
    "hashPrevOuts = hash256(funding_channel_txid + funding_channel_txindex)\n",
    "hashSequence = hash256(sequence)\n",
    "hashOutputs = hash256(outputs)\n",
    "sighash_type = bytes.fromhex(\"0100 0000\") # SIGHASH_ALL\n",
    "\n",
    "tx_digest_preimage = (\n",
    "    version\n",
    "    + hashPrevOuts\n",
    "    + hashSequence\n",
    "    + funding_channel_txid\n",
    "    + funding_channel_txindex\n",
    "    + varint_len(redeemScript) # size of scriptcode\n",
    "    + redeemScript             # scriptcode is the redeemscript of the Output2 (channel funding)\n",
    "    + value\n",
    "    + sequence\n",
    "    + hashOutputs\n",
    "    + locktime\n",
    "    + sighash_type\n",
    ")\n",
    "print(\"tx_digest_preimage: \",tx_digest_preimage.hex())"
   ]
  },
  {
   "cell_type": "code",
   "execution_count": 8,
   "id": "69d73c82-86a4-4996-9363-b93c3cff8459",
   "metadata": {},
   "outputs": [
    {
     "name": "stdout",
     "output_type": "stream",
     "text": [
      "{\n",
      "  \"txid\": \"7b9a9db238e7f17195fe2434e0e00ef716b5905521fcabf687d835661b52d96f\",\n",
      "  \"hash\": \"7b9a9db238e7f17195fe2434e0e00ef716b5905521fcabf687d835661b52d96f\",\n",
      "  \"version\": 2,\n",
      "  \"size\": 137,\n",
      "  \"vsize\": 137,\n",
      "  \"weight\": 548,\n",
      "  \"locktime\": 2479859744,\n",
      "  \"vin\": [\n",
      "    {\n",
      "      \"txid\": \"72811350a969df6ddf8acf7b2675f5a78c289676e97c921ca621feb0b642c0ab\",\n",
      "      \"vout\": 0,\n",
      "      \"scriptSig\": {\n",
      "        \"asm\": \"\",\n",
      "        \"hex\": \"\"\n",
      "      },\n",
      "      \"sequence\": 3546668928\n",
      "    }\n",
      "  ],\n",
      "  \"vout\": [\n",
      "    {\n",
      "      \"value\": \"0.00000330\",\n",
      "      \"n\": 0,\n",
      "      \"scriptPubKey\": {\n",
      "        \"asm\": \"0 b3df32d74b2af549738f79129baa882f081dbf6d2807a2ee11f0f8bdc7236626\",\n",
      "        \"desc\": \"addr(bcrt1qk00n946t9t65juu00yffh25g9uypm0md9qr69ms37rutm3ervcnqf2fdxd)#hcj6kqjf\",\n",
      "        \"hex\": \"0020b3df32d74b2af549738f79129baa882f081dbf6d2807a2ee11f0f8bdc7236626\",\n",
      "        \"address\": \"bcrt1qk00n946t9t65juu00yffh25g9uypm0md9qr69ms37rutm3ervcnqf2fdxd\",\n",
      "        \"type\": \"witness_v0_scripthash\"\n",
      "      }\n",
      "    },\n",
      "    {\n",
      "      \"value\": \"0.04982810\",\n",
      "      \"n\": 1,\n",
      "      \"scriptPubKey\": {\n",
      "        \"asm\": \"0 b3df32d74b2af549738f79129baa882f081dbf6d2807a2ee11f0f8bdc7236626\",\n",
      "        \"desc\": \"addr(bcrt1qk00n946t9t65juu00yffh25g9uypm0md9qr69ms37rutm3ervcnqf2fdxd)#hcj6kqjf\",\n",
      "        \"hex\": \"0020b3df32d74b2af549738f79129baa882f081dbf6d2807a2ee11f0f8bdc7236626\",\n",
      "        \"address\": \"bcrt1qk00n946t9t65juu00yffh25g9uypm0md9qr69ms37rutm3ervcnqf2fdxd\",\n",
      "        \"type\": \"witness_v0_scripthash\"\n",
      "      }\n",
      "    }\n",
      "  ]\n",
      "}\n"
     ]
    }
   ],
   "source": [
    "decoded = node.decoderawtransaction(unsigned_tx.hex())\n",
    "print(json.dumps(decoded, indent=2, default=str))"
   ]
  },
  {
   "cell_type": "markdown",
   "id": "8774edb7-ef97-49bd-912e-e803bc6bc27a",
   "metadata": {},
   "source": [
    "Segwit transactions have a signing scheme described in [BIP143](https://github.com/bitcoin/bips/blob/master/bip-0143.mediawiki)"
   ]
  },
  {
   "cell_type": "code",
   "execution_count": 9,
   "id": "cfe8ea9f-eaae-4667-8abb-ef37cb1559ca",
   "metadata": {},
   "outputs": [
    {
     "name": "stdout",
     "output_type": "stream",
     "text": [
      "signed commitment transaction:  02000000000101abc042b6b0fe21a61c927ce97696288ca7f575267bcf8adf6ddf69a950138172000000000080df65d3024a01000000000000220020b3df32d74b2af549738f79129baa882f081dbf6d2807a2ee11f0f8bdc72366261a084c0000000000220020b3df32d74b2af549738f79129baa882f081dbf6d2807a2ee11f0f8bdc7236626040047304402203951a1ccf8d191d62d55df22509a9589dc5fb40f5de578546e083c2d1a1e97c402203139529282e186115fd3868d5ae7561fcafa4897d3608713cf92297e98958c0601483045022100cab8f78a1e04280f45df0b966d2bc11ee31294d07321faed8674fed2b370307002200b1fa64d984572d15f264402f043df8db12f16a12f107f506c3d412a8a9db14b01475221037685b7e0a23a1b58540e6af6f60550e2ed6705e858817d92df23170a65e4a4c12103e81dfa1a26011178a4c5e8a704e5909015a51558deb011c43d98fd94c63b122352ae20a8cf93\n"
     ]
    }
   ],
   "source": [
    "# Create sigHash to be signed\n",
    "sighash = hash256(tx_digest_preimage)\n",
    "\n",
    "# Sign the sigHash with the input privkey1\n",
    "signing_key1 = ecdsa.SigningKey.from_string(alice_funding_privkey, curve=ecdsa.SECP256k1) \n",
    "signature1 = signing_key1.sign_digest(sighash, sigencode=ecdsa.util.sigencode_der_canonize)\n",
    "\n",
    "# Append SIGHASH_ALL to the signature\n",
    "signature1 = signature1 + bytes.fromhex(\"01\")\n",
    "\n",
    "# Sign the sigHash with the input privkey2\n",
    "signing_key2 = ecdsa.SigningKey.from_string(bob_funding_privkey, curve=ecdsa.SECP256k1) \n",
    "signature2 = signing_key2.sign_digest(sighash, sigencode=ecdsa.util.sigencode_der_canonize)\n",
    "\n",
    "# Append SIGHASH_ALL to the signature\n",
    "signature2 = signature2 + bytes.fromhex(\"01\")\n",
    "\n",
    "# Combine the signatures into the final scriptSig\n",
    "witness = (\n",
    "    # indicate the number of stack items\n",
    "    bytes.fromhex(\"04\")\n",
    "    + bytes.fromhex(\"00\") # Add an extra \"00\" for the CheckMultiSig bug\n",
    "    + varint_len(signature1)\n",
    "    + signature1\n",
    "    + varint_len(signature2)\n",
    "    + signature2\n",
    "    + varint_len(redeemScript)\n",
    "    + redeemScript\n",
    ")\n",
    "\n",
    "# the final signed transaction\n",
    "signed_commitment_tx = (\n",
    "    version\n",
    "    + marker\n",
    "    + flag\n",
    "    + input_count\n",
    "    + inputs\n",
    "    + output_count\n",
    "    + outputs\n",
    "    + witness\n",
    "    + locktime\n",
    ")\n",
    "\n",
    "print(\"signed commitment transaction: \",signed_commitment_tx.hex())"
   ]
  },
  {
   "cell_type": "code",
   "execution_count": 10,
   "id": "d7433fb9-78e5-420a-a589-89f499cbf75f",
   "metadata": {},
   "outputs": [
    {
     "name": "stdout",
     "output_type": "stream",
     "text": [
      "d357c0610cee698937043f24684c289c3d1bb59124ae74595d30c8e8250563f3\n",
      "[{'txid': '7b9a9db238e7f17195fe2434e0e00ef716b5905521fcabf687d835661b52d96f', 'wtxid': '388e7eabe75e5e3d794596f3bb7a2888c1a4b7f73c679f956de56c5141581d72', 'allowed': False, 'reject-reason': 'non-final'}]\n"
     ]
    }
   ],
   "source": [
    "new_tx_txid = node.sendrawtransaction(signed_tx.hex())\n",
    "# result = node.testmempoolaccept(rawtxs=[signed_tx.hex()])\n",
    "print(new_tx_txid)\n",
    "result = node.testmempoolaccept(rawtxs=[signed_commitment_tx.hex()])\n",
    "print(result)"
   ]
  },
  {
   "cell_type": "code",
   "execution_count": null,
   "id": "d825a385-62db-41f8-ba4b-b60ea79638aa",
   "metadata": {},
   "outputs": [],
   "source": []
  }
 ],
 "metadata": {
  "kernelspec": {
   "display_name": "Python 3 (ipykernel)",
   "language": "python",
   "name": "python3"
  },
  "language_info": {
   "codemirror_mode": {
    "name": "ipython",
    "version": 3
   },
   "file_extension": ".py",
   "mimetype": "text/x-python",
   "name": "python",
   "nbconvert_exporter": "python",
   "pygments_lexer": "ipython3",
   "version": "3.12.3"
  }
 },
 "nbformat": 4,
 "nbformat_minor": 5
}
