{
 "cells": [
  {
   "attachments": {},
   "cell_type": "markdown",
   "id": "f26a2a97-51aa-44d2-99d9-78b029685ab3",
   "metadata": {},
   "source": [
    "# Creating Commitment Transactions with HTLC\n",
    "\n",
    "In this section, we'll create the Commitment Transactions with HTLC in transit from scratch using Python. We'll break down each part of the transaction, explain how it's constructed and signed, and detail the messages exchanged between peers to share the necessary information. Finally, we'll test everything using Bitcoin Core in regtest mode.\n",
    "\n",
    "## Prerequisite knowledge\n",
    "### For all notebooks\n",
    "- A high level understanding of the bitcoin e.g. [Mastering Bitcoin](https://github.com/bitcoinbook/bitcoinbook), in particular [Chapter 6](https://github.com/bitcoinbook/bitcoinbook/blob/develop/ch06.asciidoc).\n",
    "- A conceptual understanding of [hash functions](https://www.thesslstore.com/blog/what-is-a-hash-function-in-cryptography-a-beginners-guide).\n",
    "- [Hexadecimal notation](https://inst.eecs.berkeley.edu/~cs61bl/r//cur/bits/decimal-binary-hex.html?topic=lab28.topic&step=2&course=) and [endianness](https://www.freecodecamp.org/news/what-is-endianness-big-endian-vs-little-endian/).\n",
    "- A high level understanding of the lightning e.g. [Mastering Lightning Network](https://github.com/lnbook/lnbook), in particular [Chapter7](https://github.com/lnbook/lnbook/blob/develop/07_payment_channels.asciidoc), [Chapter 8](https://github.com/lnbook/lnbook/blob/develop/08_routing_htlcs.asciidoc) and [Chapter 9](https://github.com/lnbook/lnbook/blob/develop/09_channel_operation.asciidoc).\n",
    "\n",
    "### Specific to this notebook\n",
    "- SHA256, HASH256, HASH160 - '[Hash Functions chapter](https://github.com/MPins/lightning-tx-tutorial/blob/main/appendix/hash-functions.ipynb)'\n",
    "- Bech32 addresses - '[Addresses chapter](https://github.com/MPins/lightning-tx-tutorial/blob/main/appendix/Addresses.ipynb)'\n",
    "- Bitcoin Script basics - '[Bitcoin Script chapter](https://github.com/MPins/lightning-tx-tutorial/blob/main/appendix/Bitcoin%20Script.ipynb)'\n",
    "- Lightning Network BOLT #2: '[Peer Protocol for Channel Management](https://github.com/lightning/bolts/blob/master/02-peer-protocol.md#channel-establishment-v1)'\n",
    "- Lightning Network BOLT #3: '[Commitment Transactions](https://github.com/lightning/bolts/blob/master/03-transactions.md#commitment-transaction)'\n",
    "- Finite Fields, Elliptic Curves and Serialization e.g. [Programming Bitcoin](https://github.com/jimmysong/programmingbitcoin), in particular [Chapter 1](https://github.com/jimmysong/programmingbitcoin/blob/master/ch01.asciidoc), [Chapter2](https://github.com/jimmysong/programmingbitcoin/blob/master/ch02.asciidoc), [Chapter 3](https://github.com/jimmysong/programmingbitcoin/blob/master/ch03.asciidoc) and [Chapter 4](https://github.com/jimmysong/programmingbitcoin/blob/master/ch04.asciidoc).\n",
    "\n",
    "## HTLC (Hashed Time Locked Contracts)\n",
    "\n",
    "Once the channel was stablished, the channel can be used to make payments via HTLCs (Hashed Time Locked Contracts).\n",
    "\n",
    "Changes are sent in batches: one or more `update_ messages` are sent before a `commitment_signed` message. In the following diagram we are presenting just one `update_message` per `commitment_signed` just to keep it simple:\n",
    "\n",
    "    +-----------+                            +-----------+\n",
    "    |           |------ update_add_htlc ---->|           |\n",
    "    |           |----- commitment_signed --->|           |\n",
    "    |   Alice   |                            |    Bob    |\n",
    "    |           |<----- revoke_and_ack ------|           |\n",
    "    |           |                            |           |\n",
    "    +-----------+                            +-----------+\n",
    "\n",
    "    The messages are defined in the [BOLT 2](https://github.com/lightning/bolts/blob/master/02-peer-protocol.md#adding-an-htlc-update_add_htlc).\n",
    "\n",
    "### The `update_add_htlc` Message\n",
    "\n",
    "Alice sends the `update_add_htlc`  message to Bob:\n",
    "- channel_id\n",
    "- id (htlc counter starting in zero)\n",
    "- amount_msat\n",
    "- payment_hash\n",
    "- cltv_expiry\n",
    "- onion_routing_packet\n",
    "\n",
    "### The `commitment_signed` Message\n",
    "\n",
    "Shortly after sending the `update_add_htlc` message, she will commit to the new state of the channel, so that the HTLC can be safely added by Bob. Bob has the HTLC information and has constructed a new commitment but does not yet have this new commitment signed by Alice.\n",
    "\n",
    "Alice sends `commitment_signed` to Bob, with the signature for the new commitment and for the HTLC within: \n",
    "\n",
    "- channel_id\n",
    "- signature\n",
    "- num_htlcs\n",
    "- htlc_signature\n",
    "\n",
    "### The `revoke_and_ack` Message\n",
    "\n",
    "Now that Bob has a new signed commitment, he needs to acknowledge it and revoke the old commitment. He does so by sending the `revoke_and_ack message`:\n",
    "\n",
    "- channel_id\n",
    "- per_commitment_secret\n",
    "- next_per_commitment_point\n",
    "\n",
    "## Setup\n",
    "### Requirements\n",
    "\n",
    "For this exercise we'll run the previous notebook to create the channel funding transaction beetween Alice and Bob.\n",
    "\n",
    "**You'll need to edit these next line for your local setup.**"
   ]
  },
  {
   "cell_type": "code",
   "execution_count": 2,
   "id": "c3963914-5692-4f9e-af97-1db4f524e483",
   "metadata": {},
   "outputs": [
    {
     "name": "stdout",
     "output_type": "stream",
     "text": [
      "Alice Per Commitment Seed 34b581ec20bf2c6cae3d4d4dcbfddc8a3727a1e9a57c55f3520e770607898c06\n",
      "Bob Per Commitment Seed 89c994b3ddad4698acee71e42d8bcace48eea739caaba371eb110e77663ec56d\n",
      "Alice Revocation Basepoint Private Key: c17ac3952ca414190074d1e59ea03fbae253196173908dc8b131af6bd2cc8161\n",
      "Alice Revocation Basepoint Public Key: 03649c4f865bec74b0a186deef4defad51cfdc141443e38074ea05a7835a953a49\n",
      "Alice HTLC Basepoint Private Key: 763ae49a20e6668c88602c782716dd83ba6c4cc0333b38810e2bcd7b22c871ac\n",
      "Alice HTLC Basepoint Public Key: 02816fde4150e4dfcac94eff0b821448fb70f57a56148ba2206cd9b2fd0cc20bdf\n",
      "Alice Payment Basepoint Private Key: 72d8c12971b58076a1f27eb7938ca442f0b210762b23637443ac2e99dac352a6\n",
      "Alice Payment Basepoint Public Key: 025f892a06124391e2f38ce35d943cdc09f63e203330dbd9cb6113a903e0738458\n",
      "Alice Delayed Payment Basepoint Private Key: 7cafce00c54e7241894dcc7c3beaca29dd354139fdb6182198d6c5f1063bfe8d\n",
      "Alice Delayed Payment Basepoint Public Key: 034aa35219136bb238e072341b20a4bf8fb44a83cdb73dd2bd973c123ac2dfd7ff\n",
      "Bob Revocation Basepoint Private Key: fa526e09b9ff7425552db1803d7e12cf4475d060db4cfb812adb07219a54baa0\n",
      "Bob Revocation Basepoint Public Key: 02536407aada57068f30b53c4126062d235967c3636147433e72b21ff93c8acdbf\n",
      "Bob HTLC Basepoint Private Key: 06d61bb059eef194a3d223992a028fbd31f2e8b289d5a10acd343671c9322155\n",
      "Bob HTLC Basepoint Public Key: 0306b11436efa058a86f997df6596ea4579241f3909175772d77df38a5255f52f4\n",
      "Bob Payment Basepoint Private Key: 5046024e716c479599350b7aee8139304d942360733d8dd79793917f9e33a334\n",
      "Bob Payment Basepoint Public Key: 02f98efd3f2b2fbe7bd83c419f5f64f8280798b8a9175fdb77c0091bbb95c79506\n",
      "Bob Delayed Payment Basepoint Private Key: d764d4c083cac97d34913bdf123c3dfef5379db9e9b0652897783e0d01880bb3\n",
      "Bob Delayed Payment Basepoint Public Key: 032a5869ac5eb30ba1e9c9addd3740822dac6f45a8de9b3d4e171f14c3abce2dae\n",
      "Alice Funding Private Key: ccd60731893309bb59a6030a581fc80984fa96129e10cf8342c0b0b800ffb51c\n",
      "Alice Funding Public Key: 02245c997231079146616f70eae46dd43461b530cb55df50cac8ef321127adb963\n",
      "Alice Change Private Key: 6c2bda7af1291da770d0041794bbc891ac27c2fbe6a8a825a8f14f3b904b1f4e\n",
      "Alice Change Public Key: 02f0006732c6db9e73522b31168bda043cbf7759c46e553eae9dede26ccd08a39b\n",
      "Bob Funding Private Key: ca62b96f01783d13a48be4e8a2ca9c48093f62b64537d4c3c33d45d7cb53a0a7\n",
      "Bob Funding Public Key: 032b057a643c7b928b7dc30e1f76c2a777a213fe3a7462215d10220844befe77c3\n",
      "Alice's funding p2wpkh address: bcrt1qt0vq5dj8qa720lfx3hhzyu9ygsng9js3g02lnl\n",
      "Alice's change p2wpkh address: bcrt1qt6ax8rh20h6zts0dcqmzdy9kte3pds4lrzwl6s\n",
      "2025-02-11T20:33:45.968000Z TestFramework (INFO): PRNG seed is: 9180970086599545978\n",
      "2025-02-11T20:33:45.969000Z TestFramework (INFO): Initializing test directory /tmp/bitcoin_func_test_xdjkv7wh\n",
      "txid_to_spent: f7e6c8b7af20c86cd73ca20b7e3518dd54ebacec7b1182efecd4c73a2480220a, 1\n",
      "Alice pubkey is lexicographically lesser than Bob pubkey:\n",
      "02245c997231079146616f70eae46dd43461b530cb55df50cac8ef321127adb963 < 032b057a643c7b928b7dc30e1f76c2a777a213fe3a7462215d10220844befe77c3\n",
      "Redeem Script:\n",
      "522102245c997231079146616f70eae46dd43461b530cb55df50cac8ef321127adb96321032b057a643c7b928b7dc30e1f76c2a777a213fe3a7462215d10220844befe77c352ae\n",
      "channel_address:  bcrt1qhsn37ekwjgxlajuavyzne28yrahkyesgnr6qhxvzlw3807ttcjeqhcl6mc\n",
      "unsigned_channel_funding_tx:  02000000010a2280243ac7d4ecef82117becaceb54dd18357e0ba23cd76cc820afb7c8e6f70100000000ffffffff02c0e1e400000000001600145eba638eea7df425c1edc0362690b65e6216c2bf404b4c0000000000220020bc271f66ce920dfecb9d61053ca8e41f6f62660898f40b9982fba277f96bc4b200000000\n",
      "{\n",
      "  \"txid\": \"412dee2d29e5a23c075e67608f494aba74bbbe38d38e061a272c701bbab478bf\",\n",
      "  \"hash\": \"412dee2d29e5a23c075e67608f494aba74bbbe38d38e061a272c701bbab478bf\",\n",
      "  \"version\": 2,\n",
      "  \"size\": 125,\n",
      "  \"vsize\": 125,\n",
      "  \"weight\": 500,\n",
      "  \"locktime\": 0,\n",
      "  \"vin\": [\n",
      "    {\n",
      "      \"txid\": \"f7e6c8b7af20c86cd73ca20b7e3518dd54ebacec7b1182efecd4c73a2480220a\",\n",
      "      \"vout\": 1,\n",
      "      \"scriptSig\": {\n",
      "        \"asm\": \"\",\n",
      "        \"hex\": \"\"\n",
      "      },\n",
      "      \"sequence\": 4294967295\n",
      "    }\n",
      "  ],\n",
      "  \"vout\": [\n",
      "    {\n",
      "      \"value\": \"0.15000000\",\n",
      "      \"n\": 0,\n",
      "      \"scriptPubKey\": {\n",
      "        \"asm\": \"0 5eba638eea7df425c1edc0362690b65e6216c2bf\",\n",
      "        \"desc\": \"addr(bcrt1qt6ax8rh20h6zts0dcqmzdy9kte3pds4lrzwl6s)#s9wdm0cm\",\n",
      "        \"hex\": \"00145eba638eea7df425c1edc0362690b65e6216c2bf\",\n",
      "        \"address\": \"bcrt1qt6ax8rh20h6zts0dcqmzdy9kte3pds4lrzwl6s\",\n",
      "        \"type\": \"witness_v0_keyhash\"\n",
      "      }\n",
      "    },\n",
      "    {\n",
      "      \"value\": \"0.05000000\",\n",
      "      \"n\": 1,\n",
      "      \"scriptPubKey\": {\n",
      "        \"asm\": \"0 bc271f66ce920dfecb9d61053ca8e41f6f62660898f40b9982fba277f96bc4b2\",\n",
      "        \"desc\": \"addr(bcrt1qhsn37ekwjgxlajuavyzne28yrahkyesgnr6qhxvzlw3807ttcjeqhcl6mc)#q3fvp06p\",\n",
      "        \"hex\": \"0020bc271f66ce920dfecb9d61053ca8e41f6f62660898f40b9982fba277f96bc4b2\",\n",
      "        \"address\": \"bcrt1qhsn37ekwjgxlajuavyzne28yrahkyesgnr6qhxvzlw3807ttcjeqhcl6mc\",\n",
      "        \"type\": \"witness_v0_scripthash\"\n",
      "      }\n",
      "    }\n",
      "  ]\n",
      "}\n",
      "tx_digest_preimage:  020000001dab1f6ede725432c30074d985947ce319c093c5b29c70022fb5ca0576d3e6223bb13029ce7b1f559ef5e747fcac439f1455a2ec7c5f09b72290795e706650440a2280243ac7d4ecef82117becaceb54dd18357e0ba23cd76cc820afb7c8e6f7010000001976a9145bd80a3647077ca7fd268dee2270a4442682ca1188aca0b3320100000000fffffffff024a453c206730b975be44da5987693c127c508aada9aabadc9455fb74b5fc60000000001000000\n",
      "Channel Funding Signed Transaction:  020000000001010a2280243ac7d4ecef82117becaceb54dd18357e0ba23cd76cc820afb7c8e6f70100000000ffffffff02c0e1e400000000001600145eba638eea7df425c1edc0362690b65e6216c2bf404b4c0000000000220020bc271f66ce920dfecb9d61053ca8e41f6f62660898f40b9982fba277f96bc4b202483045022100e314c082069fed67808216f3f69701e530e09532d8d52a9f073679b4f09e77a0022003381ba27b3f041639443f2d9d03da585f41c4fb0444e04d34685f1700ccb8b1012102245c997231079146616f70eae46dd43461b530cb55df50cac8ef321127adb96300000000\n",
      "[{'txid': '412dee2d29e5a23c075e67608f494aba74bbbe38d38e061a272c701bbab478bf', 'wtxid': '470c77e9c36b1430e45d195d6572e0e6b0c8d15ac7235b50f8a18411cea882d4', 'allowed': True, 'vsize': 153, 'fees': {'base': Decimal('0.00100000'), 'effective-feerate': Decimal('0.00653594'), 'effective-includes': ['470c77e9c36b1430e45d195d6572e0e6b0c8d15ac7235b50f8a18411cea882d4']}}]\n",
      "Alice First Per Commitment Secret: 739d879e3b2502146546b9d6d51b1e05feb362397b7cf7ba13c7719b0a889dd9\n",
      "Alice First Per Commitment Point: 0368081a0a30ec118e662b71d222c383c5c9f495b4821fd0252452abf659250237\n",
      "Bob First Per Commitment Secret: 203f2c3e5cd6004ef0ea26e82c2ffeb2dc80036cedca92c210010cd73facd38a\n",
      "Bob First Per Commitment Point: 03ac685c74c0970c62f0e69ad332b6a5f6d61d3650128ef2a18e011cfd28d177b4\n",
      "Commitment Number Obscured: 0xb433fd43a66f\n",
      "Inputs: bf78b4ba1b702c271a068ed338bebb74ba4a498f60675e073ca2e5292dee2d410100000000fd33b480\n",
      "Alice Delayed Pubkey: 03d6363615b3d00361158c0f48a4ef81ea12e214e8d56e24098759f6b4267dca8b\n",
      "Bob Revocation Pubkey: 03a0596fefba4b53489629115e8b360a95b900f1884306edb98428d5377478b9ac\n",
      "Alice Anchor Output SPK: 002034391c79ba78d594262aa91410f49d7200ef55e7551441659412aac47b543f04\n",
      "Alice Delayed Output SPK: 002010af48dee0428972563ba131e3d8aa35fd92537953d4755a84bc2a09c2bb53a5\n",
      "Alice Remote Output SPK: 0020f0447296bbb031d3f362b223a0ba7281bfcfeca9061820c9bdee400411fc01be\n",
      "Unsigned Alice Commitment Transaction:  0200000001bf78b4ba1b702c271a068ed338bebb74ba4a498f60675e073ca2e5292dee2d410100000000fd33b480024a0100000000000022002034391c79ba78d594262aa91410f49d7200ef55e7551441659412aac47b543f041a084c000000000022002010af48dee0428972563ba131e3d8aa35fd92537953d4755a84bc2a09c2bb53a56fa64320\n",
      "Unsigned Bob Commitment Transaction:  0200000001bf78b4ba1b702c271a068ed338bebb74ba4a498f60675e073ca2e5292dee2d410100000000fd33b480024a0100000000000022002034391c79ba78d594262aa91410f49d7200ef55e7551441659412aac47b543f041a084c0000000000220020f0447296bbb031d3f362b223a0ba7281bfcfeca9061820c9bdee400411fc01be6fa64320\n",
      "Alice Unsigned Commitment transaction\n",
      "{\n",
      "  \"txid\": \"9b8ec31b3037a8144e13ab524dde09111394f3ce781bdac048c351f02cfdba66\",\n",
      "  \"hash\": \"9b8ec31b3037a8144e13ab524dde09111394f3ce781bdac048c351f02cfdba66\",\n",
      "  \"version\": 2,\n",
      "  \"size\": 137,\n",
      "  \"vsize\": 137,\n",
      "  \"weight\": 548,\n",
      "  \"locktime\": 541304431,\n",
      "  \"vin\": [\n",
      "    {\n",
      "      \"txid\": \"412dee2d29e5a23c075e67608f494aba74bbbe38d38e061a272c701bbab478bf\",\n",
      "      \"vout\": 1,\n",
      "      \"scriptSig\": {\n",
      "        \"asm\": \"\",\n",
      "        \"hex\": \"\"\n",
      "      },\n",
      "      \"sequence\": 2159293437\n",
      "    }\n",
      "  ],\n",
      "  \"vout\": [\n",
      "    {\n",
      "      \"value\": \"0.00000330\",\n",
      "      \"n\": 0,\n",
      "      \"scriptPubKey\": {\n",
      "        \"asm\": \"0 34391c79ba78d594262aa91410f49d7200ef55e7551441659412aac47b543f04\",\n",
      "        \"desc\": \"addr(bcrt1qxsu3c7d60r2egf324y2ppayawgqw7408252yzev5z24vg7658uzqwq2zs5)#62txjpcp\",\n",
      "        \"hex\": \"002034391c79ba78d594262aa91410f49d7200ef55e7551441659412aac47b543f04\",\n",
      "        \"address\": \"bcrt1qxsu3c7d60r2egf324y2ppayawgqw7408252yzev5z24vg7658uzqwq2zs5\",\n",
      "        \"type\": \"witness_v0_scripthash\"\n",
      "      }\n",
      "    },\n",
      "    {\n",
      "      \"value\": \"0.04982810\",\n",
      "      \"n\": 1,\n",
      "      \"scriptPubKey\": {\n",
      "        \"asm\": \"0 10af48dee0428972563ba131e3d8aa35fd92537953d4755a84bc2a09c2bb53a5\",\n",
      "        \"desc\": \"addr(bcrt1qzzh53hhqg2yhy43m5yc78k92xh7ey5me20282k5yhs4qns4m2wjsfkpzye)#fhg3my0v\",\n",
      "        \"hex\": \"002010af48dee0428972563ba131e3d8aa35fd92537953d4755a84bc2a09c2bb53a5\",\n",
      "        \"address\": \"bcrt1qzzh53hhqg2yhy43m5yc78k92xh7ey5me20282k5yhs4qns4m2wjsfkpzye\",\n",
      "        \"type\": \"witness_v0_scripthash\"\n",
      "      }\n",
      "    }\n",
      "  ]\n",
      "}\n",
      "Bob Unsigned Commitment transaction\n",
      "{\n",
      "  \"txid\": \"db6ad406b5e134751f8ba363dd9d5d10fba9ac19d393dec93f3f62d4f4647b88\",\n",
      "  \"hash\": \"db6ad406b5e134751f8ba363dd9d5d10fba9ac19d393dec93f3f62d4f4647b88\",\n",
      "  \"version\": 2,\n",
      "  \"size\": 137,\n",
      "  \"vsize\": 137,\n",
      "  \"weight\": 548,\n",
      "  \"locktime\": 541304431,\n",
      "  \"vin\": [\n",
      "    {\n",
      "      \"txid\": \"412dee2d29e5a23c075e67608f494aba74bbbe38d38e061a272c701bbab478bf\",\n",
      "      \"vout\": 1,\n",
      "      \"scriptSig\": {\n",
      "        \"asm\": \"\",\n",
      "        \"hex\": \"\"\n",
      "      },\n",
      "      \"sequence\": 2159293437\n",
      "    }\n",
      "  ],\n",
      "  \"vout\": [\n",
      "    {\n",
      "      \"value\": \"0.00000330\",\n",
      "      \"n\": 0,\n",
      "      \"scriptPubKey\": {\n",
      "        \"asm\": \"0 34391c79ba78d594262aa91410f49d7200ef55e7551441659412aac47b543f04\",\n",
      "        \"desc\": \"addr(bcrt1qxsu3c7d60r2egf324y2ppayawgqw7408252yzev5z24vg7658uzqwq2zs5)#62txjpcp\",\n",
      "        \"hex\": \"002034391c79ba78d594262aa91410f49d7200ef55e7551441659412aac47b543f04\",\n",
      "        \"address\": \"bcrt1qxsu3c7d60r2egf324y2ppayawgqw7408252yzev5z24vg7658uzqwq2zs5\",\n",
      "        \"type\": \"witness_v0_scripthash\"\n",
      "      }\n",
      "    },\n",
      "    {\n",
      "      \"value\": \"0.04982810\",\n",
      "      \"n\": 1,\n",
      "      \"scriptPubKey\": {\n",
      "        \"asm\": \"0 f0447296bbb031d3f362b223a0ba7281bfcfeca9061820c9bdee400411fc01be\",\n",
      "        \"desc\": \"addr(bcrt1q7pz8994mkqca8umzkg36pwnjsxlulm9fqcvzpjdaaeqqgy0uqxlqphvsda)#f8xgy4gn\",\n",
      "        \"hex\": \"0020f0447296bbb031d3f362b223a0ba7281bfcfeca9061820c9bdee400411fc01be\",\n",
      "        \"address\": \"bcrt1q7pz8994mkqca8umzkg36pwnjsxlulm9fqcvzpjdaaeqqgy0uqxlqphvsda\",\n",
      "        \"type\": \"witness_v0_scripthash\"\n",
      "      }\n",
      "    }\n",
      "  ]\n",
      "}\n",
      "alice_tx_digest_preimage:  0200000080ba1c46853fbd5d820d323d1971b7826bb11c9ec3cd48a02d8cf33af7d0ed1ec6067e2ccbba74d4f24cc174be97c1ea7514cf7a20d616fbc7587a48964b2c95bf78b4ba1b702c271a068ed338bebb74ba4a498f60675e073ca2e5292dee2d410100000047522102245c997231079146616f70eae46dd43461b530cb55df50cac8ef321127adb96321032b057a643c7b928b7dc30e1f76c2a777a213fe3a7462215d10220844befe77c352ae404b4c0000000000fd33b48095e26024f731d6ea5e1e1698c7a24bcb4453535c9f06b0e5cbeb259a12693f096fa6432001000000\n",
      "bob_tx_digest_preimage:  0200000080ba1c46853fbd5d820d323d1971b7826bb11c9ec3cd48a02d8cf33af7d0ed1ec6067e2ccbba74d4f24cc174be97c1ea7514cf7a20d616fbc7587a48964b2c95bf78b4ba1b702c271a068ed338bebb74ba4a498f60675e073ca2e5292dee2d410100000047522102245c997231079146616f70eae46dd43461b530cb55df50cac8ef321127adb96321032b057a643c7b928b7dc30e1f76c2a777a213fe3a7462215d10220844befe77c352ae404b4c0000000000fd33b480cb541070b4f791ea30c33859048fe351357b6e71305de479d36b3b6dfd7c41396fa6432001000000\n",
      "Alice Signed Commitment Transaction:  02000000000101bf78b4ba1b702c271a068ed338bebb74ba4a498f60675e073ca2e5292dee2d410100000000fd33b480024a0100000000000022002034391c79ba78d594262aa91410f49d7200ef55e7551441659412aac47b543f041a084c000000000022002010af48dee0428972563ba131e3d8aa35fd92537953d4755a84bc2a09c2bb53a50400473044022050fff9968d6147fad474ac71a6a49fc236d502c11f444727f7e3eb754a2f46bd022013212270a12a171210ea25571b04c940a12bcc062c4c164482eb01bc012792e601483045022100e686b07177cd6202e54de2511479f3e9c0634e8ab0f4d09df7c8d5f74a270aeb0220462caffba12a93dd194268ee505f57eea32310f87799356c67274dd5a3b198d70147522102245c997231079146616f70eae46dd43461b530cb55df50cac8ef321127adb96321032b057a643c7b928b7dc30e1f76c2a777a213fe3a7462215d10220844befe77c352ae6fa64320\n",
      "Bob Signed Commitment Transaction:  02000000000101bf78b4ba1b702c271a068ed338bebb74ba4a498f60675e073ca2e5292dee2d410100000000fd33b480024a0100000000000022002034391c79ba78d594262aa91410f49d7200ef55e7551441659412aac47b543f041a084c0000000000220020f0447296bbb031d3f362b223a0ba7281bfcfeca9061820c9bdee400411fc01be0400483045022100c6798dbf6e5c7e728bbaffeec82b0d1d81b8d6f3223c1f9716e41138052dfdb0022059355387ab9bcb9731c28e8046ea6c74fa1e1b527bc2a10ceea775e5910a526401483045022100800159fa80c88d5a9fb2855829acf36a7f1606e18394ed5f9bbb35d32b844bce02200c64b782a8daecaf05e6fe0d1027b7d1e0778d73a1237423ed6ec77f9d49a1d30147522102245c997231079146616f70eae46dd43461b530cb55df50cac8ef321127adb96321032b057a643c7b928b7dc30e1f76c2a777a213fe3a7462215d10220844befe77c352ae6fa64320\n",
      "[{'txid': '9b8ec31b3037a8144e13ab524dde09111394f3ce781bdac048c351f02cfdba66', 'wtxid': '58fd4321cb5b0c3b48e5bdfdb381a712c2d27004a6611e128cb77e97dafbf5ee', 'allowed': True, 'vsize': 193, 'fees': {'base': Decimal('0.00016860'), 'effective-feerate': Decimal('0.00087357'), 'effective-includes': ['58fd4321cb5b0c3b48e5bdfdb381a712c2d27004a6611e128cb77e97dafbf5ee']}}]\n",
      "[{'txid': 'db6ad406b5e134751f8ba363dd9d5d10fba9ac19d393dec93f3f62d4f4647b88', 'wtxid': '65b43aa96d9ec72767babfddd74ba2c57afbfa4c2fb7dc70a5d1e5ec1e6b0c0b', 'allowed': True, 'vsize': 193, 'fees': {'base': Decimal('0.00016860'), 'effective-feerate': Decimal('0.00087357'), 'effective-includes': ['65b43aa96d9ec72767babfddd74ba2c57afbfa4c2fb7dc70a5d1e5ec1e6b0c0b']}}]\n"
     ]
    }
   ],
   "source": [
    "# run notebook\n",
    "%run \"/home/pins-dev/Projects/lightning-tx-tutorial/Chapter 2 - Commitment Transactions/First Commitment Transactions.ipynb\""
   ]
  },
  {
   "cell_type": "markdown",
   "id": "2ae3a1f3-573a-4b99-b7e2-f2936ec314b2",
   "metadata": {},
   "source": [
    "## Transaction Inputs\n",
    "\n",
    "Now we can start creating Alice and Bob second commitment transactions. As they are spending the same channel funding transaction, the inputs for all the commitment transactions are almost the same. There only difference comes from the obscured commitment number, remember that to more easily allow both sides to keep track of the commitment numbers, each commitment actually encodes the number of the commitment within the lock time and sequence fields of the commitment transaction. "
   ]
  },
  {
   "cell_type": "code",
   "execution_count": 4,
   "id": "555c9cd8-31cc-40f4-92e2-a3875fc60e4f",
   "metadata": {},
   "outputs": [
    {
     "name": "stdout",
     "output_type": "stream",
     "text": [
      "Commitment Number Obscured: 0xb433fd43a66e\n",
      "Inputs: bf78b4ba1b702c271a068ed338bebb74ba4a498f60675e073ca2e5292dee2d410100000000fd33b480\n"
     ]
    }
   ],
   "source": [
    "# Second Commitment number\n",
    "commitment_number = 1 \n",
    "\n",
    "# Obscured commitment number is result of xor operation \n",
    "commitment_number_obscured = to_obscure_int_lower48 ^ commitment_number\n",
    "print(\"Commitment Number Obscured: \" + hex(commitment_number_obscured))\n",
    "\n",
    "# Combine the upper 8 bits (0x80) with the lower 24 bits (upper 24 of obscured number)\n",
    "sequence = (0x80 << 24) | upper_24_bits\n",
    "# Convert to bytes (1 byte, big-endian)\n",
    "sequence = sequence.to_bytes(4, byteorder='big')\n",
    "sequence = sequence[::-1]\n",
    "inputs = (\n",
    "    channel_funding_txid\n",
    "    + channel_funding_txindex\n",
    "    + varint_len(scriptsig)\n",
    "    + scriptsig\n",
    "    + sequence\n",
    ")\n",
    "print(\"Inputs: \" + inputs.hex())"
   ]
  },
  {
   "cell_type": "code",
   "execution_count": null,
   "id": "26c42979-3827-4ece-8641-bbbbbc378ff9",
   "metadata": {},
   "outputs": [],
   "source": []
  }
 ],
 "metadata": {
  "kernelspec": {
   "display_name": "Python 3 (ipykernel)",
   "language": "python",
   "name": "python3"
  },
  "language_info": {
   "codemirror_mode": {
    "name": "ipython",
    "version": 3
   },
   "file_extension": ".py",
   "mimetype": "text/x-python",
   "name": "python",
   "nbconvert_exporter": "python",
   "pygments_lexer": "ipython3",
   "version": "3.12.3"
  }
 },
 "nbformat": 4,
 "nbformat_minor": 5
}
