{
 "cells": [
  {
   "attachments": {},
   "cell_type": "markdown",
   "id": "818c7266-14d2-48f1-9de1-acbbf3217e24",
   "metadata": {},
   "source": [
    "# Creating the First Commitment Transactions\n",
    "\n",
    "In this section we'll create the First Commitment transactions of a Lightning Channel from scratch in python. We'll go through each part of the transaction, how it's constructed, signed, and the message the peers exchange to send and get the needed information from each other to make it happen. We'll test it using bitcoin core in regtest mode.\n",
    "\n",
    "## Prerequisite knowledge\n",
    "### For all notebooks\n",
    "- A high level understanding of the bitcoin. e.g. [Mastering Bitcoin](https://github.com/bitcoinbook/bitcoinbook), in particular [Chapter 6](https://github.com/bitcoinbook/bitcoinbook/blob/develop/ch06.asciidoc).\n",
    "- A conceptual understanding of [hash functions](https://www.thesslstore.com/blog/what-is-a-hash-function-in-cryptography-a-beginners-guide).\n",
    "- [Hexadecimal notation](https://inst.eecs.berkeley.edu/~cs61bl/r//cur/bits/decimal-binary-hex.html?topic=lab28.topic&step=2&course=) and [endianness](https://www.freecodecamp.org/news/what-is-endianness-big-endian-vs-little-endian/).\n",
    "- A high level understanding of the lightning e.g. [Mastering Lightning Network](https://github.com/lnbook/lnbook), in particular [Chapter7](https://github.com/lnbook/lnbook/blob/develop/07_payment_channels.asciidoc), [Chapter 8](https://github.com/lnbook/lnbook/blob/develop/08_routing_htlcs.asciidoc) and [Chapter 9](https://github.com/lnbook/lnbook/blob/develop/09_channel_operation.asciidoc).\n",
    "\n",
    "### Specific to this notebook\n",
    "- SHA256, HASH256, HASH160 - '[Hash Functions chapter](https://github.com/MPins/lightning-tx-tutorial/blob/main/appendix/hash-functions.ipynb)'\n",
    "- Bech32 addresses - '[Addresses chapter](https://github.com/MPins/lightning-tx-tutorial/blob/main/appendix/Addresses.ipynb)'\n",
    "- Bitcoin Script basics - '[Bitcoin Script chapter](https://github.com/MPins/lightning-tx-tutorial/blob/main/appendix/Bitcoin%20Script.ipynb)'\n",
    "- Lightning Network BOLT #2: '[Peer Protocol for Channel Management](https://github.com/lightning/bolts/blob/master/02-peer-protocol.md#channel-establishment-v1)'\n",
    "- Lightning Network BOLT #3: '[Commitment Transactions](https://github.com/lightning/bolts/blob/master/03-transactions.md#commitment-transaction)'\n",
    "\n",
    "## Commitment Transactions\n",
    "\n",
    "The Basis of Lightning Technology ([BOLT](https://github.com/lightning/bolts/blob/master/03-transactions.md))  details the exact format of on-chain transactions, which both sides need to agree on to ensure signatures are valid. This consists of the funding transaction output script, the commitment transactions, and the HTLC transactions.\n",
    "\n",
    "This notebook will focus on commitment transactions.\n",
    "\n",
    "    +-----------+                              +---------+\n",
    "    |           |--(1)---  open_channel  ----->|         |\n",
    "    |           |<-(2)--  accept_channel  -----|         |\n",
    "    |           |                              |         |\n",
    "    |   Alice   |--(3)--  funding_created  --->|   Bob   |\n",
    "    |           |<-(4)--  funding_signed  -----|         |\n",
    "    |           |                              |         |\n",
    "    |           |--(5)---  channel_ready  ---->|         |\n",
    "    |           |<-(6)---  channel_ready  -----|         |\n",
    "    +-----------+                              +---------+\n",
    "\n",
    "    - where node Alice is 'funder' and node Bob is 'fundee'\n",
    "\n",
    "Alice send the `open_channel` message to Bob. This message define many channel operational criterias, here we are going to focus on the information that are used in the commitment transaction:\n",
    "* push_msat\n",
    "* dust_limit_satoshis\n",
    "* feerate_per_kw\n",
    "* to_self_delay\n",
    "* funding_pubkey\n",
    "* revocation_basepoint\n",
    "* payment_basepoint\n",
    "* delayed_payment_basepoint\n",
    "* htlc_basepoint\n",
    "* first_per_commitment_point\n",
    "\n",
    "If Bob does not agree with the criterias sent into the `open_channel` message he send a [`error_message`](https://github.com/lightning/bolts/blob/master/01-messaging.md#the-error-and-warning-messages) back to Alice, otherwise he sends the [`accept_channel`](https://github.com/lightning/bolts/blob/master/02-peer-protocol.md#the-accept_channel-message) message, containing some operational criterias from your side, here we are going to focus on the information that are used in the commitment transaction:\n",
    "* dust_limit_satoshis\n",
    "* to_self_delay\n",
    "* funding_pubkey\n",
    "* revocation_basepoint\n",
    "* payment_basepoint\n",
    "* delayed_payment_basepoint\n",
    "* htlc_basepoint\n",
    "* first_per_commitment_point\n",
    "\n",
    "## Setup\n",
    "### Requirements\n",
    "\n",
    "For this exercise we'll run the previous notebook to create the channel funding transaction beetween Alice and Bob.\n",
    "\n",
    "**You'll need to edit these next line for your local setup.**"
   ]
  },
  {
   "cell_type": "code",
   "execution_count": 5,
   "id": "3d2a8a29-35ce-4dca-baa1-f7db714c820c",
   "metadata": {},
   "outputs": [
    {
     "name": "stdout",
     "output_type": "stream",
     "text": [
      "Alice Per Commitment Seed 34b581ec20bf2c6cae3d4d4dcbfddc8a3727a1e9a57c55f3520e770607898c06\n",
      "Bob Per Commitment Seed 89c994b3ddad4698acee71e42d8bcace48eea739caaba371eb110e77663ec56d\n",
      "Alice Revocation Basepoint Private Key: c17ac3952ca414190074d1e59ea03fbae253196173908dc8b131af6bd2cc8161\n",
      "Alice Revocation Basepoint Public Key: 03649c4f865bec74b0a186deef4defad51cfdc141443e38074ea05a7835a953a49\n",
      "Alice HTLC Basepoint Private Key: 763ae49a20e6668c88602c782716dd83ba6c4cc0333b38810e2bcd7b22c871ac\n",
      "Alice HTLC Basepoint Public Key: 02816fde4150e4dfcac94eff0b821448fb70f57a56148ba2206cd9b2fd0cc20bdf\n",
      "Alice Payment Basepoint Private Key: 72d8c12971b58076a1f27eb7938ca442f0b210762b23637443ac2e99dac352a6\n",
      "Alice Payment Basepoint Public Key: 025f892a06124391e2f38ce35d943cdc09f63e203330dbd9cb6113a903e0738458\n",
      "Alice Delayed Payment Basepoint Private Key: 7cafce00c54e7241894dcc7c3beaca29dd354139fdb6182198d6c5f1063bfe8d\n",
      "Alice Delayed Payment Basepoint Public Key: 034aa35219136bb238e072341b20a4bf8fb44a83cdb73dd2bd973c123ac2dfd7ff\n",
      "Bob Revocation Basepoint Private Key: fa526e09b9ff7425552db1803d7e12cf4475d060db4cfb812adb07219a54baa0\n",
      "Bob Revocation Basepoint Public Key: 02536407aada57068f30b53c4126062d235967c3636147433e72b21ff93c8acdbf\n",
      "Bob HTLC Basepoint Private Key: 06d61bb059eef194a3d223992a028fbd31f2e8b289d5a10acd343671c9322155\n",
      "Bob HTLC Basepoint Public Key: 0306b11436efa058a86f997df6596ea4579241f3909175772d77df38a5255f52f4\n",
      "Bob Payment Basepoint Private Key: 5046024e716c479599350b7aee8139304d942360733d8dd79793917f9e33a334\n",
      "Bob Payment Basepoint Public Key: 02f98efd3f2b2fbe7bd83c419f5f64f8280798b8a9175fdb77c0091bbb95c79506\n",
      "Bob Delayed Payment Basepoint Private Key: d764d4c083cac97d34913bdf123c3dfef5379db9e9b0652897783e0d01880bb3\n",
      "Bob Delayed Payment Basepoint Public Key: 032a5869ac5eb30ba1e9c9addd3740822dac6f45a8de9b3d4e171f14c3abce2dae\n",
      "Alice Funding Private Key: ccd60731893309bb59a6030a581fc80984fa96129e10cf8342c0b0b800ffb51c\n",
      "Alice Funding Public Key: 02245c997231079146616f70eae46dd43461b530cb55df50cac8ef321127adb963\n",
      "Alice Change Private Key: 6c2bda7af1291da770d0041794bbc891ac27c2fbe6a8a825a8f14f3b904b1f4e\n",
      "Alice Change Public Key: 02f0006732c6db9e73522b31168bda043cbf7759c46e553eae9dede26ccd08a39b\n",
      "Bob Private Key: ca62b96f01783d13a48be4e8a2ca9c48093f62b64537d4c3c33d45d7cb53a0a7\n",
      "Bob Public Key: 032b057a643c7b928b7dc30e1f76c2a777a213fe3a7462215d10220844befe77c3\n",
      "Alice's funding p2wpkh address: bcrt1qt0vq5dj8qa720lfx3hhzyu9ygsng9js3g02lnl\n",
      "Alice's change p2wpkh address: bcrt1qt6ax8rh20h6zts0dcqmzdy9kte3pds4lrzwl6s\n",
      "2025-02-03T19:30:59.813000Z TestFramework (INFO): PRNG seed is: 1636522156493725214\n",
      "2025-02-03T19:30:59.815000Z TestFramework (INFO): Initializing test directory /tmp/bitcoin_func_test_d4dl10as\n",
      "txid_to_spent: 1c62135fb2317bcb5ab02552ac761a7ef575b7d3529da3660ab1858db2bbcaf1, 1\n",
      "Alice pubkey is lexicographically lesser than Bob pubkey:\n",
      "02245c997231079146616f70eae46dd43461b530cb55df50cac8ef321127adb963 < 032b057a643c7b928b7dc30e1f76c2a777a213fe3a7462215d10220844befe77c3\n",
      "Redeem Script:\n",
      "522102245c997231079146616f70eae46dd43461b530cb55df50cac8ef321127adb96321032b057a643c7b928b7dc30e1f76c2a777a213fe3a7462215d10220844befe77c352ae\n",
      "channel_address:  bcrt1qhsn37ekwjgxlajuavyzne28yrahkyesgnr6qhxvzlw3807ttcjeqhcl6mc\n",
      "unsigned_tx:  0200000001f1cabbb28d85b10a66a39d52d3b775f57e1a76ac5225b05acb7b31b25f13621c0100000000ffffffff02c0e1e400000000001600145eba638eea7df425c1edc0362690b65e6216c2bf404b4c0000000000220020bc271f66ce920dfecb9d61053ca8e41f6f62660898f40b9982fba277f96bc4b200000000\n",
      "tx_digest_preimage:  02000000cd3c3ef4f936ccff300bd32b9f06294f8de1d2c1cfca000b871a1547b27974ec3bb13029ce7b1f559ef5e747fcac439f1455a2ec7c5f09b72290795e70665044f1cabbb28d85b10a66a39d52d3b775f57e1a76ac5225b05acb7b31b25f13621c010000001976a9145bd80a3647077ca7fd268dee2270a4442682ca1188aca0b3320100000000fffffffff024a453c206730b975be44da5987693c127c508aada9aabadc9455fb74b5fc60000000001000000\n",
      "signed transaction:  02000000000101f1cabbb28d85b10a66a39d52d3b775f57e1a76ac5225b05acb7b31b25f13621c0100000000ffffffff02c0e1e400000000001600145eba638eea7df425c1edc0362690b65e6216c2bf404b4c0000000000220020bc271f66ce920dfecb9d61053ca8e41f6f62660898f40b9982fba277f96bc4b202483045022100cd04cda5c12622c4677647faf63abb43f4c418d9ad06373d64dca5b06e294965022010832bae1c7ff4defe05ffae1fddb4613a68cbe1eac2a578fbdba8d2d40642f4012102245c997231079146616f70eae46dd43461b530cb55df50cac8ef321127adb96300000000\n",
      "[{'txid': '829c5b655dd991e451b58e44e644704fc33332952bbf10ce71ab258007572443', 'wtxid': 'fdc6b3a06d485231ed2750a3e0b9914f296edaac3080decc323637387c34cb31', 'allowed': True, 'vsize': 153, 'fees': {'base': Decimal('0.00100000'), 'effective-feerate': Decimal('0.00653594'), 'effective-includes': ['fdc6b3a06d485231ed2750a3e0b9914f296edaac3080decc323637387c34cb31']}}]\n"
     ]
    }
   ],
   "source": [
    "# run notebook\n",
    "%run \"/home/pins-dev/Projects/lightning-tx-tutorial/Chapter 1 - Funding Transactions/Funding-Transaction.ipynb\""
   ]
  },
  {
   "cell_type": "markdown",
   "id": "c5ba0661-e76c-4984-a162-339eb3142ff9",
   "metadata": {},
   "source": [
    "## The First Per Commitment Point\n",
    "The I'th per commitment secret must match the output of this algorithm:\n",
    "```\n",
    "generate_from_seed(seed, I):\n",
    "    P = seed\n",
    "    for B in 47 down to 0:\n",
    "        if B set in I:\n",
    "            flip(B) in P\n",
    "            P = SHA256(P)\n",
    "    return P\n",
    "```\n",
    "Where \"flip(B)\" alternates the (B mod 8) bit of the (B div 8) byte of the value. The first secret used must be index 281474976710655 (0xFFFFFFFFFFFF), and from there, the index is decremented.\n",
    "\n",
    "The per_commitment_point is generated using elliptic-curve multiplication:\n",
    "\n",
    "```\n",
    "per_commitment_point = per_commitment_secret * G\n",
    "```"
   ]
  },
  {
   "cell_type": "code",
   "execution_count": 26,
   "id": "a97489cf-d0e5-48b9-b2e1-31121d5a69e3",
   "metadata": {},
   "outputs": [
    {
     "name": "stdout",
     "output_type": "stream",
     "text": [
      "Alice First Per Commitment Secret: 739d879e3b2502146546b9d6d51b1e05feb362397b7cf7ba13c7719b0a889dd9\n",
      "Alice First Per Commitment Point: 0368081a0a30ec118e662b71d222c383c5c9f495b4821fd0252452abf659250237\n",
      "Bob First Per Commitment Secret: 203f2c3e5cd6004ef0ea26e82c2ffeb2dc80036cedca92c210010cd73facd38a\n",
      "Bob First Per Commitment Point: 03ac685c74c0970c62f0e69ad332b6a5f6d61d3650128ef2a18e011cfd28d177b4\n"
     ]
    }
   ],
   "source": [
    "import hashlib\n",
    "# Flip the (bit_index % 8) bit of the (bit_index // 8) byte in value.\n",
    "def flip_bit(value: bytearray, bit_index: int):\n",
    "    byte_index = bit_index // 8  # Get the byte index\n",
    "    bit_position = bit_index % 8  # Get the bit position within the byte\n",
    "    value[byte_index] ^= (1 << bit_position)  # Flip the bit using XOR\n",
    "\n",
    "# Generate a derived value P from a seed and an integer I\n",
    "# param seed: 32-byte initial seed.\n",
    "# param I: Index whose set bits determine which bits in P get flipped.\n",
    "# return: 32-byte derived value P.\n",
    "def generate_from_seed(seed: bytes, I: int) -> bytes:\n",
    "    P = bytearray(seed)  # Convert to mutable bytearray\n",
    "\n",
    "    for B in range(47, -1, -1):  # Iterate from 47 down to 0\n",
    "        if (I & (1 << B)) != 0:  # Check if bit B is set in I\n",
    "            flip_bit(P, B)  # Flip the corresponding bit in P\n",
    "            P = bytearray(hashlib.sha256(P).digest())  # Hash P and convert back to bytearray\n",
    "\n",
    "    return bytes(P)  # Convert back to bytes before returning\n",
    "\n",
    "alice_first_per_commitment_secret = generate_from_seed(alice_per_commitment_seed, 281474976710655)\n",
    "alice_first_per_commitment_point_uncompressed = int.from_bytes(alice_first_per_commitment_secret, byteorder=\"big\") * G\n",
    "alice_first_per_commitment_point = compress_pubkey(alice_first_per_commitment_point_uncompressed)\n",
    "\n",
    "print(f\"Alice First Per Commitment Secret: {alice_first_per_commitment_secret.hex()}\")\n",
    "print(f\"Alice First Per Commitment Point: {alice_first_per_commitment_point}\")\n",
    "\n",
    "\n",
    "bob_first_per_commitment_secret = generate_from_seed(bob_per_commitment_seed, 281474976710655)\n",
    "bob_first_per_commitment_point_uncompressed = int.from_bytes(bob_first_per_commitment_secret, byteorder=\"big\") * G\n",
    "bob_first_per_commitment_point = compress_pubkey(bob_first_per_commitment_point_uncompressed)\n",
    "\n",
    "print(f\"Bob First Per Commitment Secret: {bob_first_per_commitment_secret.hex()}\")\n",
    "print(f\"Bob First Per Commitment Point: {bob_first_per_commitment_point}\")\n"
   ]
  },
  {
   "cell_type": "markdown",
   "id": "70130a28-4acf-4f69-abe8-0f21ed1c7846",
   "metadata": {},
   "source": [
    "## The Obscured Commitment Number\n",
    "To more easily allow both sides to keep track of the commitment numbers, each commitment actually encodes the number of the commitment within the lock time and sequence fields of the commitment transaction. Within the protocol, this special encoding is referred to as **state hints**. Assuming a party knows the current commitment number, they’re able to use the state hints to easily recognize if a broadcasted commitment was a revoked one. Rather than encode the state hint in plain sight, an obfuscated state hint is used in its place. This obfuscation is achieved by first XORing the current commitment number with a set of random bytes generated deterministically using the payment basepoint of both sides of the channel. A total of 6 bytes (48 bits) across the [locktime](https://github.com/lightning/bolts/blob/master/03-transactions.md#commitment-transaction) and [sequence]((https://github.com/lightning/bolts/blob/master/03-transactions.md#commitment-transaction)) (24 bits of the locktime and 24 bits of the sequence) are used to encode the state hint within the commitment transaction, so 6 random bytes are needed to use for XORing. To obtain these 6 bytes, both sides obtain the SHA-256 hash of the initiator’s payment_basepoint concatenated to the responder’s payment_basepoint.\n",
    "```\n",
    "SHA256(payment_basepoint from open_channel || payment_basepoint from accept_channel)\n",
    "```"
   ]
  },
  {
   "cell_type": "code",
   "execution_count": 27,
   "id": "f45cbcde-6d97-4050-933e-c84aabb3dc1f",
   "metadata": {},
   "outputs": [
    {
     "name": "stdout",
     "output_type": "stream",
     "text": [
      "Commitment Number Obscured: 0x62a8021ceabd\n"
     ]
    }
   ],
   "source": [
    "# The 48-bit commitment number is obscured by XOR with the lower 48 bits of\n",
    "# SHA256(payment_basepoint from open_channel || payment_basepoint from accept_channel)\n",
    "\n",
    "# Commitment number on the opening channel \n",
    "commitment_number = 0 \n",
    "\n",
    "# TODO define the payment_base_point\n",
    "to_obscure = sha256(bytes.fromhex(alice_payment_basepoint_pubkey) + bytes.fromhex(alice_payment_basepoint_pubkey))\n",
    "to_obscure_int = int.from_bytes(to_obscure, byteorder='big')\n",
    "# Extract lower 48 bits\n",
    "to_obscure_int_lower48 = to_obscure_int & 0xFFFFFFFFFFFF\n",
    "# obscured commitment number is result of xor operation \n",
    "commitment_number_obscured = to_obscure_int_lower48 ^ commitment_number\n",
    "print(\"Commitment Number Obscured: \" + hex(commitment_number_obscured))"
   ]
  },
  {
   "cell_type": "markdown",
   "id": "85ecd391-ebba-4659-a1a4-cd45d29885bc",
   "metadata": {},
   "source": [
    "## Transaction Inputs\n",
    "Now we can start creating Alice unsigned commitment transaction. "
   ]
  },
  {
   "cell_type": "code",
   "execution_count": 28,
   "id": "8d42afee-1700-42a6-b6e8-f9dd4069df04",
   "metadata": {},
   "outputs": [
    {
     "name": "stdout",
     "output_type": "stream",
     "text": [
      "Inputs: f1cabbb28d85b10a66a39d52d3b775f57e1a76ac5225b05acb7b31b25f13621c01000000008062a802\n"
     ]
    }
   ],
   "source": [
    "# VERSION\n",
    "# version '2' indicates that we may use relative timelocks (BIP68)\n",
    "version = bytes.fromhex(\"0200 0000\")\n",
    "\n",
    "# MARKER\n",
    "marker = bytes.fromhex(\"00\")\n",
    "\n",
    "# FLAG\n",
    "flag = bytes.fromhex(\"01\")\n",
    "\n",
    "# INPUTS\n",
    "# We have just 1 input\n",
    "input_count = bytes.fromhex(\"01\")\n",
    "\n",
    "# Calculate the txid of the funding channel tx created on the previous notebook\n",
    "funding_channel_txid = hash256(unsigned_tx)\n",
    "# The index of the funding channel tx createt on the previous notebook\n",
    "funding_channel_txindex = 1\n",
    "# Convert txid and index to bytes (little endian)\n",
    "funding_channel_txid = (funding_channel_txid)[::-1]\n",
    "funding_channel_txindex = funding_channel_txindex.to_bytes(4, byteorder=\"little\", signed=False)\n",
    "\n",
    "# For the unsigned transaction we use an empty scriptSig\n",
    "scriptsig = bytes.fromhex(\"\")\n",
    "\n",
    "# sequence: upper 8 bits are 0x80, lower 24 bits are upper 24 bits of the obscured commitment number\n",
    "# Extract the upper 24 bits of the obscured commitment number\n",
    "upper_24_bits = (commitment_number_obscured >> 24) & 0xFFFFFF\n",
    "# Combine the upper 8 bits (0x80) with the lower 24 bits (upper 24 of obscured number)\n",
    "sequence = (0x80 << 24) | upper_24_bits\n",
    "# Convert to bytes (1 byte, big-endian)\n",
    "sequence = sequence.to_bytes(4, byteorder='big')\n",
    "\n",
    "inputs = (\n",
    "    txid\n",
    "    + index\n",
    "    + varint_len(scriptsig)\n",
    "    + scriptsig\n",
    "    + sequence\n",
    ")\n",
    "print(\"Inputs: \" + inputs.hex())"
   ]
  },
  {
   "cell_type": "markdown",
   "id": "75f76e7c-3384-472b-a842-e2a57034597a",
   "metadata": {},
   "source": [
    "## Key Derivations\n",
    "\n",
    "Each commitment transaction uses a unique localpubkey, local_delayedpubkey and revocationpubkey. Those are changed for every transaction based on the per_commitment_point.\n",
    "\n",
    "\n",
    "The **localdelayed** pubkeys are simply generated by addition from their base points. As definet at Basis of Lightning Technology ([BOLT](https://github.com/lightning/bolts/blob/master/03-transactions.md#key-derivation)):\n",
    "\n",
    "```\n",
    "pubkey = basepoint + SHA256(per_commitment_point || basepoint) * G\n",
    "```\n",
    "\n",
    "The **revocationpubkey** is a blinded key, Alice uses its own `revocation_basepoint` and the Bob node's `first_commitment_point`, sent into `accept_channel` message, to derive the revocationpubkey for the commitment. As definet at Basis of Lightning Technology ([BOLT](https://github.com/lightning/bolts/blob/master/03-transactions.md#revocationpubkey-derivation)):\n",
    "\n",
    "```\n",
    "revocationpubkey = revocation_basepoint * SHA256(revocation_basepoint || per_commitment_point) + per_commitment_point * SHA256(per_commitment_point || revocation_basepoint)\n",
    "```\n",
    "\n"
   ]
  },
  {
   "cell_type": "markdown",
   "id": "5aad8deb-d1b4-485f-a315-c7ee19938db4",
   "metadata": {},
   "source": [
    "## Transaction Outputs\n",
    "\n",
    "The Basis of Lightning Technology ([BOLT](https://github.com/lightning/bolts/blob/master/03-transactions.md)) defines the outputs as following:\n",
    "\n",
    "* For every offered HTLC, if it is not trimmed, add an offered HTLC output.\n",
    "* For every received HTLC, if it is not trimmed, add an received HTLC output.\n",
    "* If the to_local amount is greater or equal to dust_limit_satoshis, add a to_local output.\n",
    "* If the to_remote amount is greater or equal to dust_limit_satoshis, add a to_remote output.\n",
    "* If option_anchors applies to the commitment transaction:\n",
    "    * if to_local exists or there are untrimmed HTLCs, add a to_local_anchor output\n",
    "    * if to_remote exists or there are untrimmed HTLCs, add a to_remote_anchor output\n",
    "\n",
    "As this is the first commitment transaction it will have no outputs to Bob, because Alice was the funder of the channel and she is not sending any Sats to Bob, if she wanted to do that she could use the field `push_msat` on `open_channel` message and define the value in mili satoshis. As the channel was not openned yet, there is no offered or received HTLC, so none HTLC outputs will be created also. So the first Commitment Transaction outputs for Alice and Bob will be the following.\n",
    "\n",
    "Alice first Commitment Transaction will have two outputs:\n",
    "* to_local_anchor_output\n",
    "* to_local_output\n",
    "\n",
    "Bob first Commitment Transaction will have two outputs:\n",
    "* to_remote_anchor_output\n",
    "* to_remote_output\n",
    "\n",
    "The Basis of Lightning Technology ([BOLT](https://github.com/lightning/bolts/blob/master/03-transactions.md))  defines that outputs in transactions are always sorted first according to their value, this way the to_local_anchor_outuput is the first one, as its amount output is fixed at 330 sats, the default dust limit for P2WSH.\n",
    "\n",
    "**anchor outputs** exists to prevent a malicious peer from attaching child transactions with a low fee density to an anchor and thereby blocking the victim from getting the commit tx confirmed in time. This defense is supported by a change in Bitcoin core 0.19: [bitcoin/bitcoin#15681](https://github.com/bitcoin/bitcoin/pull/15681). This is also the reason that every non-anchor output on the commit tx is CSV locked. The feature is optional and can be enabled if both peers in a channel support it. But [Eclair v0.11.0](https://github.com/ACINQ/eclair/blob/master/docs/release-notes/eclair-v0.11.0.md) stop accepting channels that don't support anchor outputs."
   ]
  },
  {
   "cell_type": "code",
   "execution_count": 32,
   "id": "41b72c9e-c947-4bca-9eb0-e40eab4e0e7c",
   "metadata": {},
   "outputs": [
    {
     "name": "stdout",
     "output_type": "stream",
     "text": [
      "Alice Delayed Pubkey: 03d6363615b3d00361158c0f48a4ef81ea12e214e8d56e24098759f6b4267dca8b\n",
      "Bob Revocation Pubkey: 03a0596fefba4b53489629115e8b360a95b900f1884306edb98428d5377478b9ac\n"
     ]
    }
   ],
   "source": [
    "# ALICE DELAYED PUBKEY\n",
    "# alice_delayed_pubkey = alice_delayed_payment_basepoint + SHA256(per_commitment_point || alice_delayed_payment_basepoint) * G\n",
    "# alice_delayed_payment_basepoint is generate by alice and sent into the `open_channel` message\n",
    "# per_commitment_point is generated by alice and sent into the `open_channel` message\n",
    "# Compute SHA256(per_commitment_point || basepoint)\n",
    "sha_output = sha256(bytes.fromhex(alice_first_per_commitment_point) + bytes.fromhex(alice_delayed_payment_basepoint_pubkey))\n",
    "sha_int = int.from_bytes(sha_output, 'big') % n\n",
    "# do the math to get the alice_delayed_pubkey\n",
    "alice_delayed_pubkey_point = decompress_point(alice_delayed_payment_basepoint_pubkey) + sha_int * G\n",
    "alice_delayed_pubkey = compress_pubkey(alice_delayed_pubkey_point)\n",
    "print(f\"Alice Delayed Pubkey: {alice_delayed_pubkey }\")\n",
    "\n",
    "# BOB REVOGATION PUBKEY\n",
    "# revocationpubkey = revocation_basepoint * SHA256(revocation_basepoint || per_commitment_point) + per_commitment_point * SHA256(per_commitment_point || revocation_basepoint)\n",
    "# bob_revocation_basepoint is generate by bob and sent into the `accept_channel` message\n",
    "# per_commitment_point is generated by bob and sent into the `accept_channel` message\n",
    "# Compute SHA256(revocation_basepoint || per_commitment_point)\n",
    "sha_output = sha256(bytes.fromhex(bob_revocation_basepoint_pubkey) + bytes.fromhex(bob_first_per_commitment_point))\n",
    "sha_int = int.from_bytes(sha_output, 'big') % n\n",
    "# now multiply it by revocation_basepoint\n",
    "part1 = decompress_point(bob_revocation_basepoint_pubkey) * sha_int\n",
    "# Compute SHA256(per_commitment_point || revocation_basepoint)\n",
    "sha_output = sha256(bytes.fromhex(bob_first_per_commitment_point) + bytes.fromhex(bob_revocation_basepoint_pubkey))\n",
    "sha_int = int.from_bytes(sha_output, 'big') % n\n",
    "# multiply it by per_commitment_point\n",
    "part2 = decompress_point(bob_first_per_commitment_point) * sha_int\n",
    "# sum the results\n",
    "bob_revocation_pubkey_point = part1 + part2\n",
    "bob_revocation_pubkey = compress_pubkey(bob_revocation_pubkey_point)\n",
    "print(f\"Bob Revocation Pubkey: {bob_revocation_pubkey }\")"
   ]
  },
  {
   "cell_type": "code",
   "execution_count": 34,
   "id": "88498a28-c647-462d-bdf2-d42c84e57ce7",
   "metadata": {},
   "outputs": [],
   "source": [
    "# OUTPUTS FOR ALICE\n",
    "# 0x02 for out two outputs\n",
    "output_count = bytes.fromhex(\"02\")\n",
    "\n",
    "# ANCHOR AMOUNT OUTPUT\n",
    "anchor_output_value = 330\n",
    "\n",
    "# ANCHOR OUTPUT  \n",
    "alice_anchor_output_value = anchor_output_value.to_bytes(8, byteorder=\"little\", signed=True)\n",
    "# ANCHOR P2WSH\n",
    "# <local_funding_pubkey/remote_funding_pubkey> OP_CHECKSIG OP_IFDUP\n",
    "# OP_NOTIF\n",
    "#     OP_16 OP_CHECKSEQUENCEVERIFY\n",
    "# OP_ENDIF\n",
    "to_alice_anchor_redeemScript = bytes.fromhex(\n",
    "    \"21\"\n",
    "    + alice_funding_pubkey\n",
    "    + \"ac\"  # OP_CHECKSIG\n",
    "    + \"73\"  # OP_IFDUP\n",
    "    + \"64\"  # OP_NOTIF\n",
    "    + \"60\"  # OP_16\n",
    "    + \"B2\"  # OP_CHECKSEQUENCEVERIFY\n",
    "    + \"68\") # OP_ENDIF\n",
    "\n",
    "to_alice_anchor_script_hash = sha256(to_alice_anchor_redeemScript)\n",
    "to_alice_anchor_output_spk = bytes.fromhex(\"0020\") + to_alice_anchor_script_hash\n",
    "\n",
    "# TO_LOCAL OUTPUT\n",
    "# This output sends funds back to the owner of this commitment transaction and thus must be timelocked\n",
    "# using OP_CHECKSEQUENCEVERIFY. It can be claimed, without delay, by the other party if they know the\n",
    "# revocation private key. The output is a version-0 P2WSH, with the witness script below:\n",
    "# OP_IF\n",
    "    # Penalty transaction\n",
    "#    <revocationpubkey>\n",
    "# OP_ELSE\n",
    "#    `to_self_delay`\n",
    "#    OP_CHECKSEQUENCEVERIFY\n",
    "#    OP_DROP\n",
    "#    <local_delayedpubkey>\n",
    "# OP_ENDIF\n",
    "# OP_CHECKSIG\n",
    "to_alice_redeemScript = bytes.fromhex(\n",
    "    \"63\"   # OP_IF\n",
    "    + \"21\"\n",
    "    + bob_revocation_pubkey\n",
    "    + \"67\"   # OP_ELSE\n",
    "    + \"02\"   \n",
    "    + \"9000\" # to_self_delay of 144 blocks\n",
    "    + \"b2\"   # OP_CHECKSEQUENCEVERIFY\n",
    "    + \"75\"   # OP_DROP\n",
    "    + \"21\"\n",
    "    + alice_delayed_pubkey\n",
    "    + \"68\"  # OP_ENDIF\n",
    "    + \"ac\") # OP_CHECKSIG\n",
    "\n",
    "to_alice_script_hash = sha256(to_alice_redeemScript)\n",
    "to_alice_output_spk = bytes.fromhex(\"0020\") + to_alice_anchor_script_hash\n",
    "\n"
   ]
  },
  {
   "cell_type": "markdown",
   "id": "e5936ed3-5131-4bff-a799-04f48a0ca96f",
   "metadata": {},
   "source": [
    "### Fee Calculation\n",
    "\n",
    "The fee calculation for commitment transactions  is based on the current `feerate_per_kw` sent by Alice into the `open_channel` message and the **expected** weight of the transaction.\n",
    "\n",
    "The Basis of Lightning Technology [BOLT](https://github.com/lightning/bolts/blob/master/03-transactions.md#fees) defines the following for the expected weights:\n",
    "* Commitment weight (no option_anchors):   724 + 172 * num-untrimmed-htlc-outputs\n",
    "* Commitment weight (option_anchors):     1124 + 172 * num-untrimmed-htlc-outputs\n",
    "* HTLC-timeout weight (no option_anchors): 663\n",
    "* HTLC-timeout weight (option_anchors): 666\n",
    "* HTLC-success weight (no option_anchors): 703\n",
    "* HTLC-success weight (option_anchors): 706"
   ]
  },
  {
   "cell_type": "code",
   "execution_count": 35,
   "id": "5eb4b16d-9f4c-48b0-ba6d-f5e7f626bc7d",
   "metadata": {},
   "outputs": [
    {
     "name": "stdout",
     "output_type": "stream",
     "text": [
      "unsigned_tx:  0200000001f1cabbb28d85b10a66a39d52d3b775f57e1a76ac5225b05acb7b31b25f13621c01000000008062a802024a0100000000000022002034391c79ba78d594262aa91410f49d7200ef55e7551441659412aac47b543f041a084c000000000022002034391c79ba78d594262aa91410f49d7200ef55e7551441659412aac47b543f04201ceabd\n"
     ]
    }
   ],
   "source": [
    "commitment_weight = 1124\n",
    "\n",
    "# data from open_channel message\n",
    "feerate_per_kw = 15000\n",
    "funding_satoshis = 5000000\n",
    "\n",
    "commitment_fee_rate = int(commitment_weight * feerate_per_kw / 1000)\n",
    "\n",
    "# TODO double check if we always subtract two times the anchor value or just one time when there is just one anchor output\n",
    "alice_output_value = funding_satoshis - anchor_output_value - commitment_fee_rate\n",
    "\n",
    "to_alice_output_value = alice_output_value.to_bytes(8, byteorder=\"little\", signed=True)\n",
    "\n",
    "outputs = (\n",
    "    alice_anchor_output_value\n",
    "    + varint_len(to_alice_anchor_output_spk)\n",
    "    + to_alice_anchor_output_spk\n",
    "    + to_alice_output_value\n",
    "    + varint_len(to_alice_output_spk)\n",
    "    + to_alice_output_spk\n",
    ")\n",
    "\n",
    "# Locktime: upper 8 bits are 0x20, lower 24 bits are the lower 24 bits of the obscured commitment number\n",
    "# Extract the lower 24 bits of the obscured commitment number\n",
    "lower_24_bits = commitment_number_obscured & 0xFFFFFF\n",
    "# Combine the upper 8 bits (0x20) with the lower 24 bits (lower 24 of obscured number)\n",
    "locktime = (0x20 << 24) | lower_24_bits\n",
    "# Convert to bytes (1 byte, big-endian)\n",
    "locktime = locktime.to_bytes(4, byteorder='big')\n",
    "\n",
    "unsigned_tx = (\n",
    "    version\n",
    "    + input_count\n",
    "    + inputs\n",
    "    + output_count\n",
    "    + outputs\n",
    "    + locktime\n",
    ")\n",
    "\n",
    "print(\"unsigned_tx: \", unsigned_tx.hex())\n",
    "\n"
   ]
  },
  {
   "cell_type": "markdown",
   "id": "61700beb-4115-431a-b0fc-4e5c1414dc37",
   "metadata": {},
   "source": [
    "We can decode this raw transaction to inspect it and see that it has all the information we need apart from the segwit fields (version, marker, and witness)."
   ]
  },
  {
   "cell_type": "code",
   "execution_count": 36,
   "id": "f0cc5464-bedb-47c7-afbf-df3d6d462694",
   "metadata": {},
   "outputs": [
    {
     "name": "stdout",
     "output_type": "stream",
     "text": [
      "{\n",
      "  \"txid\": \"a9e10d298bdb129e06c974aa0140034688222ae37415cc80a50d3e50073730bf\",\n",
      "  \"hash\": \"a9e10d298bdb129e06c974aa0140034688222ae37415cc80a50d3e50073730bf\",\n",
      "  \"version\": 2,\n",
      "  \"size\": 137,\n",
      "  \"vsize\": 137,\n",
      "  \"weight\": 548,\n",
      "  \"locktime\": 3186236448,\n",
      "  \"vin\": [\n",
      "    {\n",
      "      \"txid\": \"1c62135fb2317bcb5ab02552ac761a7ef575b7d3529da3660ab1858db2bbcaf1\",\n",
      "      \"vout\": 1,\n",
      "      \"scriptSig\": {\n",
      "        \"asm\": \"\",\n",
      "        \"hex\": \"\"\n",
      "      },\n",
      "      \"sequence\": 44589696\n",
      "    }\n",
      "  ],\n",
      "  \"vout\": [\n",
      "    {\n",
      "      \"value\": \"0.00000330\",\n",
      "      \"n\": 0,\n",
      "      \"scriptPubKey\": {\n",
      "        \"asm\": \"0 34391c79ba78d594262aa91410f49d7200ef55e7551441659412aac47b543f04\",\n",
      "        \"desc\": \"addr(bcrt1qxsu3c7d60r2egf324y2ppayawgqw7408252yzev5z24vg7658uzqwq2zs5)#62txjpcp\",\n",
      "        \"hex\": \"002034391c79ba78d594262aa91410f49d7200ef55e7551441659412aac47b543f04\",\n",
      "        \"address\": \"bcrt1qxsu3c7d60r2egf324y2ppayawgqw7408252yzev5z24vg7658uzqwq2zs5\",\n",
      "        \"type\": \"witness_v0_scripthash\"\n",
      "      }\n",
      "    },\n",
      "    {\n",
      "      \"value\": \"0.04982810\",\n",
      "      \"n\": 1,\n",
      "      \"scriptPubKey\": {\n",
      "        \"asm\": \"0 34391c79ba78d594262aa91410f49d7200ef55e7551441659412aac47b543f04\",\n",
      "        \"desc\": \"addr(bcrt1qxsu3c7d60r2egf324y2ppayawgqw7408252yzev5z24vg7658uzqwq2zs5)#62txjpcp\",\n",
      "        \"hex\": \"002034391c79ba78d594262aa91410f49d7200ef55e7551441659412aac47b543f04\",\n",
      "        \"address\": \"bcrt1qxsu3c7d60r2egf324y2ppayawgqw7408252yzev5z24vg7658uzqwq2zs5\",\n",
      "        \"type\": \"witness_v0_scripthash\"\n",
      "      }\n",
      "    }\n",
      "  ]\n",
      "}\n"
     ]
    }
   ],
   "source": [
    "decoded = node.decoderawtransaction(unsigned_tx.hex())\n",
    "print(json.dumps(decoded, indent=2, default=str))"
   ]
  },
  {
   "cell_type": "code",
   "execution_count": 37,
   "id": "6d38cd76-78fd-4bc9-943c-ccf05da98106",
   "metadata": {},
   "outputs": [
    {
     "name": "stdout",
     "output_type": "stream",
     "text": [
      "tx_digest_preimage:  020000004bb018024043e71ae572dd27d5789a578f01a44667780644a62b43c6100734c3962d31fc29d366db3d2423f79104c6a4d71c11443cd43891d59dedf8ece7a977829c5b655dd991e451b58e44e644704fc33332952bbf10ce71ab2580075724430100000047522102245c997231079146616f70eae46dd43461b530cb55df50cac8ef321127adb96321032b057a643c7b928b7dc30e1f76c2a777a213fe3a7462215d10220844befe77c352ae404b4c00000000008062a802e23c914d5f22c5c348bd6ba3b30b6034d348dd97a03c8dc0a39e8decca9154e7201ceabd01000000\n"
     ]
    }
   ],
   "source": [
    "# value of the funding channel output transaction (Output2)\n",
    "value = output2_value_sat.to_bytes(8, byteorder=\"little\", signed=False)\n",
    "\n",
    "hashPrevOuts = hash256(funding_channel_txid + funding_channel_txindex)\n",
    "hashSequence = hash256(sequence)\n",
    "hashOutputs = hash256(outputs)\n",
    "sighash_type = bytes.fromhex(\"0100 0000\") # SIGHASH_ALL\n",
    "\n",
    "tx_digest_preimage = (\n",
    "    version\n",
    "    + hashPrevOuts\n",
    "    + hashSequence\n",
    "    + funding_channel_txid\n",
    "    + funding_channel_txindex\n",
    "    + varint_len(redeemScript) # size of scriptcode\n",
    "    + redeemScript             # scriptcode is the redeemscript of the Output2 (channel funding)\n",
    "    + value\n",
    "    + sequence\n",
    "    + hashOutputs\n",
    "    + locktime\n",
    "    + sighash_type\n",
    ")\n",
    "print(\"tx_digest_preimage: \",tx_digest_preimage.hex())"
   ]
  },
  {
   "cell_type": "markdown",
   "id": "8774edb7-ef97-49bd-912e-e803bc6bc27a",
   "metadata": {},
   "source": [
    "Segwit transactions have a signing scheme described in [BIP143](https://github.com/bitcoin/bips/blob/master/bip-0143.mediawiki)"
   ]
  },
  {
   "cell_type": "code",
   "execution_count": 39,
   "id": "cfe8ea9f-eaae-4667-8abb-ef37cb1559ca",
   "metadata": {},
   "outputs": [
    {
     "name": "stdout",
     "output_type": "stream",
     "text": [
      "signed commitment transaction:  02000000000101f1cabbb28d85b10a66a39d52d3b775f57e1a76ac5225b05acb7b31b25f13621c01000000008062a802024a0100000000000022002034391c79ba78d594262aa91410f49d7200ef55e7551441659412aac47b543f041a084c000000000022002034391c79ba78d594262aa91410f49d7200ef55e7551441659412aac47b543f040400483045022100a076020853453214159b01a431dd35bad8dbcda05164d2cddcdac4f9e0105cc0022028cb4d584953c61946b52d28dff4671f7e86e8598d1ca7c9f99452e84062d59001483045022100997eb0eebdab61026e43bfe26925ef1418f6709f3fadb32b4aebc752ae81ea580220772e351fa1ccc8340e5643d6ea8092bf5a4b65c962ed8b01348c6d210d0c07ed0147522102245c997231079146616f70eae46dd43461b530cb55df50cac8ef321127adb96321032b057a643c7b928b7dc30e1f76c2a777a213fe3a7462215d10220844befe77c352ae201ceabd\n"
     ]
    }
   ],
   "source": [
    "# Create sigHash to be signed\n",
    "sighash = hash256(tx_digest_preimage)\n",
    "\n",
    "# Sign the sigHash with the input privkey1\n",
    "signing_key1 = ecdsa.SigningKey.from_string(bytes.fromhex(alice_funding_privkey), curve=ecdsa.SECP256k1) \n",
    "signature1 = signing_key1.sign_digest(sighash, sigencode=ecdsa.util.sigencode_der_canonize)\n",
    "\n",
    "# Append SIGHASH_ALL to the signature\n",
    "signature1 = signature1 + bytes.fromhex(\"01\")\n",
    "\n",
    "# Sign the sigHash with the input privkey2\n",
    "signing_key2 = ecdsa.SigningKey.from_string(bytes.fromhex(bob_funding_privkey), curve=ecdsa.SECP256k1) \n",
    "signature2 = signing_key2.sign_digest(sighash, sigencode=ecdsa.util.sigencode_der_canonize)\n",
    "\n",
    "# Append SIGHASH_ALL to the signature\n",
    "signature2 = signature2 + bytes.fromhex(\"01\")\n",
    "\n",
    "# Combine the signatures into the final scriptSig\n",
    "witness = (\n",
    "    # indicate the number of stack items\n",
    "    bytes.fromhex(\"04\")\n",
    "    + bytes.fromhex(\"00\") # Add an extra \"00\" for the CheckMultiSig bug\n",
    "    + varint_len(signature1)\n",
    "    + signature1\n",
    "    + varint_len(signature2)\n",
    "    + signature2\n",
    "    + varint_len(redeemScript)\n",
    "    + redeemScript\n",
    ")\n",
    "\n",
    "# the final signed transaction\n",
    "signed_commitment_tx = (\n",
    "    version\n",
    "    + marker\n",
    "    + flag\n",
    "    + input_count\n",
    "    + inputs\n",
    "    + output_count\n",
    "    + outputs\n",
    "    + witness\n",
    "    + locktime\n",
    ")\n",
    "\n",
    "print(\"signed commitment transaction: \",signed_commitment_tx.hex())"
   ]
  },
  {
   "cell_type": "code",
   "execution_count": 40,
   "id": "d7433fb9-78e5-420a-a589-89f499cbf75f",
   "metadata": {},
   "outputs": [
    {
     "name": "stdout",
     "output_type": "stream",
     "text": [
      "829c5b655dd991e451b58e44e644704fc33332952bbf10ce71ab258007572443\n",
      "[{'txid': 'a9e10d298bdb129e06c974aa0140034688222ae37415cc80a50d3e50073730bf', 'wtxid': '281e610a6fea62e4b9396cb660a83ceef1f73ef72b8cca1232a2a4addb5e5e90', 'allowed': False, 'reject-reason': 'non-final'}]\n"
     ]
    }
   ],
   "source": [
    "new_tx_txid = node.sendrawtransaction(signed_tx.hex())\n",
    "# result = node.testmempoolaccept(rawtxs=[signed_tx.hex()])\n",
    "print(new_tx_txid)\n",
    "result = node.testmempoolaccept(rawtxs=[signed_commitment_tx.hex()])\n",
    "print(result)"
   ]
  },
  {
   "cell_type": "code",
   "execution_count": null,
   "id": "d825a385-62db-41f8-ba4b-b60ea79638aa",
   "metadata": {},
   "outputs": [],
   "source": []
  }
 ],
 "metadata": {
  "kernelspec": {
   "display_name": "Python 3 (ipykernel)",
   "language": "python",
   "name": "python3"
  },
  "language_info": {
   "codemirror_mode": {
    "name": "ipython",
    "version": 3
   },
   "file_extension": ".py",
   "mimetype": "text/x-python",
   "name": "python",
   "nbconvert_exporter": "python",
   "pygments_lexer": "ipython3",
   "version": "3.12.3"
  }
 },
 "nbformat": 4,
 "nbformat_minor": 5
}
