{
 "cells": [
  {
   "cell_type": "markdown",
   "id": "89ea26c8-ee2f-489f-ac16-45109bae477c",
   "metadata": {},
   "source": [
    "# Creating the First Commitment Transaction\n",
    "\n",
    "In this section we'll create the First Commitment transaction of a Lightning Channel from scratch in python. We'll go through each part of the transaction, how it's constructed, signed, and the message the peers exchange to send and get the needed information from each other to make it happen. We'll test it using bitcoin core in regtest mode.\n",
    "\n",
    "## Prerequisite knowledge\n",
    "- For all notebooks:\n",
    "    - A high level understanding of the bitcoin. e.g. [Mastering Bitcoin](https://github.com/bitcoinbook/bitcoinbook) by Andreas Antonopoulos UTXO model, in particular [Chapter 6](https://github.com/bitcoinbook/bitcoinbook/blob/develop/ch06.asciidoc).\n",
    "    - A high level understanding of the Lightning Network. e.g. [Mastering Lightning](https://github.com/bitcoinbook/bitcoinbook) TODO Get the chapter to point it here\n",
    "    - A conceptual understanding of [hash functions](https://www.thesslstore.com/blog/what-is-a-hash-function-in-cryptography-a-beginners-guide).\n",
    "    - [Hexadecimal notation](https://inst.eecs.berkeley.edu/~cs61bl/r//cur/bits/decimal-binary-hex.html?topic=lab28.topic&step=2&course=) and [endianness](https://www.freecodecamp.org/news/what-is-endianness-big-endian-vs-little-endian/).\n",
    "\n",
    "- Specific to this notebook:\n",
    "    - SHA256, HASH256, HASH160 - '[Hash Functions chapter](https://github.com/MPins/lightning-tx-tutorial/blob/main/appendix/hash-functions.ipynb)'\n",
    "    - Bech32 addresses - '[Addresses chapter](https://github.com/MPins/lightning-tx-tutorial/blob/main/appendix/Addresses.ipynb)'\n",
    "    - Bitcoin Script basics - '[Bitcoin Script chapter](https://github.com/MPins/lightning-tx-tutorial/blob/main/appendix/Bitcoin%20Script.ipynb)'\n",
    "    - Lightning Network BOLT #2: '[Peer Protocol for Channel Management](https://github.com/lightning/bolts/blob/master/02-peer-protocol.md#channel-establishment-v1)'"
   ]
  },
  {
   "cell_type": "markdown",
   "id": "651d0b70-8dcf-420e-9977-89be2a362590",
   "metadata": {},
   "source": [
    "## Commitment Transactions\n",
    "\n",
    "The Basis of Lightning Technology ([BOLT](https://github.com/lightning/bolts/blob/master/03-transactions.md))  details the exact format of on-chain transactions, which both sides need to agree on to ensure signatures are valid. This consists of the funding transaction output script, the commitment transactions, and the HTLC transactions.\n",
    "\n",
    "This notebook will focus on commitment transactions.\n",
    "\n",
    "    +-----------+                              +---------+\n",
    "    |           |--(1)---  open_channel  ----->|         |\n",
    "    |           |<-(2)--  accept_channel  -----|         |\n",
    "    |           |                              |         |\n",
    "    |   Alice   |--(3)--  funding_created  --->|   Bob   |\n",
    "    |           |<-(4)--  funding_signed  -----|         |\n",
    "    |           |                              |         |\n",
    "    |           |--(5)---  channel_ready  ---->|         |\n",
    "    |           |<-(6)---  channel_ready  -----|         |\n",
    "    +-----------+                              +---------+\n",
    "\n",
    "    - where node Alice is 'funder' and node Bob is 'fundee'"
   ]
  },
  {
   "cell_type": "markdown",
   "id": "c00c2b0e-2fc4-49e6-aa8f-95ee6a95e49c",
   "metadata": {},
   "source": [
    "Alice send the `open_channel` message to Bob. This message define many channel operational criterias, here we are going to focus on the information that are used in the commitment transaction:\n",
    "* push_msat\n",
    "* dust_limit_satoshis\n",
    "* feerate_per_kw\n",
    "* to_self_delay\n",
    "* funding_pubkey\n",
    "* revocation_basepoint\n",
    "* payment_basepoint\n",
    "* delayed_payment_basepoint\n",
    "* htlc_basepoint\n",
    "* first_per_commitment_point"
   ]
  },
  {
   "cell_type": "markdown",
   "id": "c60104b2-4058-4a72-9b6f-4ae5c13942ad",
   "metadata": {},
   "source": [
    "If Bob does not agree with the criterias sent into the `open_channel` message he send a [`error_message`](https://github.com/lightning/bolts/blob/master/01-messaging.md#the-error-and-warning-messages) back to Alice, otherwise he sends the [`accept_channel`](https://github.com/lightning/bolts/blob/master/02-peer-protocol.md#the-accept_channel-message) message, containing some operational criterias from your side, here we are going to focus on the information that are used in the commitment transaction:\n",
    "* dust_limit_satoshis\n",
    "* to_self_delay\n",
    "* funding_pubkey\n",
    "* revocation_basepoint\n",
    "* payment_basepoint\n",
    "* delayed_payment_basepoint\n",
    "* htlc_basepoint\n",
    "* first_per_commitment_point"
   ]
  },
  {
   "cell_type": "markdown",
   "id": "a08513cc-5fbe-48c6-af2f-54fdd8f7904a",
   "metadata": {},
   "source": [
    "## Setup\n",
    "### Requirements\n",
    "\n",
    "For this exercise we'll run the previous notebook to create the channel funding transaction beetween Alice and Bob.\n",
    "\n",
    "Below, run the notebook:\n",
    "\n",
    "**You'll need to edit these next line for your local setup.**"
   ]
  },
  {
   "cell_type": "code",
   "execution_count": 1,
   "id": "3d2a8a29-35ce-4dca-baa1-f7db714c820c",
   "metadata": {},
   "outputs": [
    {
     "name": "stdout",
     "output_type": "stream",
     "text": [
      "Stored 'alice_funding_address' (str)\n",
      "Alice's pubkey: 037685b7e0a23a1b58540e6af6f60550e2ed6705e858817d92df23170a65e4a4c1\n",
      "Alice's funding p2wpkh address: bcrt1qk7k7fzan0wfn6tf3y4vylujlvcrs2s5v4d2ngm\n",
      "Alice's change p2wpkh address: bcrt1qhm34rrrhcntahx9cg8dzsgxeq9xymnkh8rgcrk\n",
      "2024-12-30T20:14:35.648000Z TestFramework (INFO): PRNG seed is: 2097794675410434346\n",
      "2024-12-30T20:14:35.649000Z TestFramework (INFO): Initializing test directory /tmp/bitcoin_func_test_q53xqqkh\n",
      "txid_to_spent: 730d5232fa8b4bbac8a6de03ee84ad68e788640dca8a7cd3ed7ac51e4e538ee7, 1\n",
      "Bob's pubkey: 03e81dfa1a26011178a4c5e8a704e5909015a51558deb011c43d98fd94c63b1223\n",
      "Alice pubkey is lexicographically lesser than Bob pubkey:\n",
      "037685b7e0a23a1b58540e6af6f60550e2ed6705e858817d92df23170a65e4a4c1 < 03e81dfa1a26011178a4c5e8a704e5909015a51558deb011c43d98fd94c63b1223\n",
      "Redeem Script:\n",
      "5221037685b7e0a23a1b58540e6af6f60550e2ed6705e858817d92df23170a65e4a4c12103e81dfa1a26011178a4c5e8a704e5909015a51558deb011c43d98fd94c63b122352ae\n",
      "channel_address:  bcrt1qg7zgfcvz9eneugzh9df8gc2wek3rfyf3t3vjuw06q8d7jtz7h5eqdjlj5l\n",
      "unsigned_tx:  0200000001e78e534e1ec57aedd37c8aca0d6488e768ad84ee03dea6c8ba4b8bfa32520d730100000000ffffffff02c0e1e40000000000160014bee3518c77c4d7db98b841da2820d9014c4dced7404b4c0000000000220020478484e1822e679e20572b5274614ecda23491315c592e39fa01dbe92c5ebd3200000000\n",
      "{\n",
      "  \"txid\": \"b2a58f9d3fd54d1c15c0323f165857d5d83dcd7db2d77abee0cbda9cf0517cf8\",\n",
      "  \"hash\": \"b2a58f9d3fd54d1c15c0323f165857d5d83dcd7db2d77abee0cbda9cf0517cf8\",\n",
      "  \"version\": 2,\n",
      "  \"size\": 125,\n",
      "  \"vsize\": 125,\n",
      "  \"weight\": 500,\n",
      "  \"locktime\": 0,\n",
      "  \"vin\": [\n",
      "    {\n",
      "      \"txid\": \"730d5232fa8b4bbac8a6de03ee84ad68e788640dca8a7cd3ed7ac51e4e538ee7\",\n",
      "      \"vout\": 1,\n",
      "      \"scriptSig\": {\n",
      "        \"asm\": \"\",\n",
      "        \"hex\": \"\"\n",
      "      },\n",
      "      \"sequence\": 4294967295\n",
      "    }\n",
      "  ],\n",
      "  \"vout\": [\n",
      "    {\n",
      "      \"value\": \"0.15000000\",\n",
      "      \"n\": 0,\n",
      "      \"scriptPubKey\": {\n",
      "        \"asm\": \"0 bee3518c77c4d7db98b841da2820d9014c4dced7\",\n",
      "        \"desc\": \"addr(bcrt1qhm34rrrhcntahx9cg8dzsgxeq9xymnkh8rgcrk)#va63jkv7\",\n",
      "        \"hex\": \"0014bee3518c77c4d7db98b841da2820d9014c4dced7\",\n",
      "        \"address\": \"bcrt1qhm34rrrhcntahx9cg8dzsgxeq9xymnkh8rgcrk\",\n",
      "        \"type\": \"witness_v0_keyhash\"\n",
      "      }\n",
      "    },\n",
      "    {\n",
      "      \"value\": \"0.05000000\",\n",
      "      \"n\": 1,\n",
      "      \"scriptPubKey\": {\n",
      "        \"asm\": \"0 478484e1822e679e20572b5274614ecda23491315c592e39fa01dbe92c5ebd32\",\n",
      "        \"desc\": \"addr(bcrt1qg7zgfcvz9eneugzh9df8gc2wek3rfyf3t3vjuw06q8d7jtz7h5eqdjlj5l)#ry0jtllc\",\n",
      "        \"hex\": \"0020478484e1822e679e20572b5274614ecda23491315c592e39fa01dbe92c5ebd32\",\n",
      "        \"address\": \"bcrt1qg7zgfcvz9eneugzh9df8gc2wek3rfyf3t3vjuw06q8d7jtz7h5eqdjlj5l\",\n",
      "        \"type\": \"witness_v0_scripthash\"\n",
      "      }\n",
      "    }\n",
      "  ]\n",
      "}\n",
      "tx_digest_preimage:  020000000acbeb315a2365bec0cc1a9456ff5eb81cd8f363975a111cb3fbba8e9285513c3bb13029ce7b1f559ef5e747fcac439f1455a2ec7c5f09b72290795e70665044e78e534e1ec57aedd37c8aca0d6488e768ad84ee03dea6c8ba4b8bfa32520d73010000001976a914b7ade48bb37b933d2d3125584ff25f660705428c88aca0b3320100000000ffffffff51866cfa9f65fdad1ed67d665903fa1d186e8408b49b05f10d00723c9904856e0000000001000000\n",
      "signed transaction:  02000000000101e78e534e1ec57aedd37c8aca0d6488e768ad84ee03dea6c8ba4b8bfa32520d730100000000ffffffff02c0e1e40000000000160014bee3518c77c4d7db98b841da2820d9014c4dced7404b4c0000000000220020478484e1822e679e20572b5274614ecda23491315c592e39fa01dbe92c5ebd32024730440220757122c3de17a781361c7f475a67b9b8559457a9438408379e6c1578d9cc3e4802203a791b1cd3e48fe474560440d430b385e7099addff9124b042f73f31a839bcbd0121037685b7e0a23a1b58540e6af6f60550e2ed6705e858817d92df23170a65e4a4c100000000\n",
      "[{'txid': 'b2a58f9d3fd54d1c15c0323f165857d5d83dcd7db2d77abee0cbda9cf0517cf8', 'wtxid': 'c547f5f6068c0cc5a76217e5f0c4f93d7849f73848bade113301358492170fa4', 'allowed': True, 'vsize': 153, 'fees': {'base': Decimal('0.00100000'), 'effective-feerate': Decimal('0.00653594'), 'effective-includes': ['c547f5f6068c0cc5a76217e5f0c4f93d7849f73848bade113301358492170fa4']}}]\n"
     ]
    }
   ],
   "source": [
    "# run notebook\n",
    "%run \"/home/pins-dev/Projects/lightning-tx-tutorial/Chapter 1 - Funding Transactions/Funding-Transaction.ipynb\""
   ]
  },
  {
   "cell_type": "markdown",
   "id": "5e3f8704-7c56-412c-905d-d345076b4bad",
   "metadata": {},
   "source": [
    "### Creating the Commitment Transactions\n",
    "\n",
    "Note that the funding transaction was not published yet, as without the commitment transaction signed by Bob, Alice would have to trust Bob to get back her funds from the multisig UTXO.\n",
    "\n",
    "Now we can start creating Alice unsigned commitment transaction. What makes a transaction 'unsigned' is that the witness field is empty."
   ]
  },
  {
   "cell_type": "code",
   "execution_count": 13,
   "id": "8d42afee-1700-42a6-b6e8-f9dd4069df04",
   "metadata": {},
   "outputs": [],
   "source": [
    "# VERSION\n",
    "# version '2' indicates that we may use relative timelocks (BIP68)\n",
    "version = bytes.fromhex(\"0200 0000\")\n",
    "\n",
    "# MARKER\n",
    "marker = bytes.fromhex(\"00\")\n",
    "\n",
    "# FLAG\n",
    "flag = bytes.fromhex(\"01\")\n",
    "\n",
    "# INPUTS\n",
    "# We have just 1 input\n",
    "input_count = bytes.fromhex(\"01\")\n",
    "\n",
    "# Calculate the txid of the funding channel tx created on the previous notebook\n",
    "funding_channel_txid = hash256(unsigned_tx)\n",
    "# The index of the funding channel tx createt on the previous notebook\n",
    "funding_channel_txindex = 1\n",
    "# Convert txid and index to bytes (little endian)\n",
    "funding_channel_txid = (funding_channel_txid)[::-1]\n",
    "funding_channel_txindex = funding_channel_txindex.to_bytes(4, byteorder=\"little\", signed=False)\n",
    "\n",
    "# For the unsigned transaction we use an empty scriptSig\n",
    "scriptsig = bytes.fromhex(\"\")\n",
    "\n",
    "# use 0xffffffff unless you are using OP_CHECKSEQUENCEVERIFY, locktime, or rbf\n",
    "sequence = bytes.fromhex(\"ffff ffff\")\n",
    "\n",
    "inputs = (\n",
    "    txid\n",
    "    + index\n",
    "    + varint_len(scriptsig)\n",
    "    + scriptsig\n",
    "    + sequence\n",
    ")"
   ]
  },
  {
   "cell_type": "markdown",
   "id": "5aad8deb-d1b4-485f-a315-c7ee19938db4",
   "metadata": {},
   "source": [
    "### Transaction Outputs\n",
    "\n",
    "The Basis of Lightning Technology ([BOLT](https://github.com/lightning/bolts/blob/master/03-transactions.md)) defines the outputs as following:\n",
    "\n",
    "* For every offered HTLC, if it is not trimmed, add an offered HTLC output.\n",
    "* For every received HTLC, if it is not trimmed, add an received HTLC output.\n",
    "* If the to_local amount is greater or equal to dust_limit_satoshis, add a to_local output.\n",
    "* If the to_remote amount is greater or equal to dust_limit_satoshis, add a to_remote output.\n",
    "* If option_anchors applies to the commitment transaction:\n",
    "    * if to_local exists or there are untrimmed HTLCs, add a to_local_anchor output\n",
    "    * if to_remote exists or there are untrimmed HTLCs, add a to_remote_anchor output\n",
    "\n",
    "As this is the first commitment transaction it will have no outputs to Bob, because Alice was the funder of the channel and she is not sending any Sats to Bob, if she wanted to do that she could use the field `push_msat` on `open_channel` message and define the value in mili satoshis. As the channel was not openned yet, there is no offered or received HTLC, so none HTLC outputs will be created also. So the first Commitment Transaction for Alice and Bob will be the following.\n",
    "\n",
    "Alice first Commitment Transaction will have two outputs:\n",
    "* to_local_anchor_output\n",
    "* to_local_output\n",
    "\n",
    "Bob first Commitment Transaction will have two outputs:\n",
    "* to_remote_anchor_output\n",
    "* to_remote_output\n",
    "\n",
    "The Basis of Lightning Technology ([BOLT](https://github.com/lightning/bolts/blob/master/03-transactions.md))  defines that outputs in transactions are always sorted first according to their value, this way the to_local_anchor_outuput is the first one, as its amount output is fixed at 330 sats, the default dust limit for P2WSH.\n",
    "\n",
    "**anchor outputs** exists to prevent a malicious peer from attaching child transactions with a low fee density to an anchor and thereby blocking the victim from getting the commit tx confirmed in time. This defense is supported by a change in Bitcoin core 0.19: [bitcoin/bitcoin#15681](https://github.com/bitcoin/bitcoin/pull/15681). This is also the reason that every non-anchor output on the commit tx is CSV locked. The feature is optional and can be enabled if both peers in a channel support it. But [Eclair v0.11.0](https://github.com/ACINQ/eclair/blob/master/docs/release-notes/eclair-v0.11.0.md) stop accepting channels that don't support anchor outputs."
   ]
  },
  {
   "cell_type": "code",
   "execution_count": null,
   "id": "88498a28-c647-462d-bdf2-d42c84e57ce7",
   "metadata": {},
   "outputs": [],
   "source": [
    "# OUTPUTS FOR ALICE\n",
    "# 0x02 for out two outputs\n",
    "output_count = bytes.fromhex(\"02\")\n",
    "\n",
    "# ANCHOR AMOUNT OUTPUT\n",
    "anchor_output_value = 330\n",
    "\n",
    "# ANCHOR OUTPUT  \n",
    "alice_anchor_output_value = anchor_output_value.to_bytes(8, byteorder=\"little\", signed=True)\n",
    "# ANCHOR P2WSH\n",
    "# <local_funding_pubkey/remote_funding_pubkey> OP_CHECKSIG OP_IFDUP\n",
    "# OP_NOTIF\n",
    "#     OP_16 OP_CHECKSEQUENCEVERIFY\n",
    "# OP_ENDIF\n",
    "to_alice_anchor_redeemScript = bytes.fromhex(\n",
    "    + \"21\"\n",
    "    + alice_funding_pubkey.hex()\n",
    "    + \"ac\"  # OP_CHECKSIG\n",
    "    + \"73\"  # OP_IFDUP\n",
    "    + \"64\"  # OP_NOTIF\n",
    "    + \"60\"  # OP_16\n",
    "    + \"B2\"  # OP_CHECKSEQUENCEVERIFY\n",
    "    + \"68\") # OP_ENDIF\n",
    "\n",
    "to_alice_anchor_script_hash = hashlib.sha256(to_alice_anchor_redeemScript).digest()\n",
    "to_alice_anchor_output_spk = bytes.fromhex(\"0020\") + to_alice_anchor_script_hash\n",
    "\n",
    "# TO_LOCAL OUTPUT\n",
    "# This output sends funds back to the owner of this commitment transaction and thus must be timelocked\n",
    "# using OP_CHECKSEQUENCEVERIFY. It can be claimed, without delay, by the other party if they know the\n",
    "# revocation private key. The output is a version-0 P2WSH, with the witness script below:\n",
    "# OP_IF\n",
    "    # Penalty transaction\n",
    "#    <revocationpubkey>\n",
    "# OP_ELSE\n",
    "#    `to_self_delay`\n",
    "#    OP_CHECKSEQUENCEVERIFY\n",
    "#    OP_DROP\n",
    "#    <local_delayedpubkey>\n",
    "# OP_ENDIF\n",
    "# OP_CHECKSIG\n",
    "to_alice_redeemScript = bytes.fromhex(\n",
    "    + \"63\"   # OP_IF\n",
    "    + \"21\"\n",
    "    + bob_revogation_pubkey.hex()\n",
    "    + \"67\"   # OP_ELSE\n",
    "    + \"02\"   \n",
    "    + \"9000\" # to_self_delay of 144 blocks\n",
    "    + \"b2\"   # OP_CHECKSEQUENCEVERIFY\n",
    "    + \"75\"   # OP_DROP\n",
    "    + \"21\"\n",
    "    + alice_delayedpubkey.hex()\n",
    "    + \"68\"  # OP_ENDIF\n",
    "    + \"ac\") # OP_CHECKSIG\n",
    "\n",
    "to_alice_script_hash = hashlib.sha256(to_alice_redeemScript).digest()\n",
    "to_alice_output_spk = bytes.fromhex(\"0020\") + to_alice_anchor_script_hash\n",
    "\n"
   ]
  },
  {
   "cell_type": "markdown",
   "id": "e5936ed3-5131-4bff-a799-04f48a0ca96f",
   "metadata": {},
   "source": [
    "### Fee Calculation\n",
    "\n",
    "The fee calculation for commitment transactions  is based on the current `feerate_per_kw` sent by Alice into the `open_channel` message and the **expected** weight of the transaction.\n",
    "\n",
    "The Basis of Lightning Technology [BOLT](https://github.com/lightning/bolts/blob/master/03-transactions.md#fees) defines the following for the expected weights:\n",
    "* Commitment weight (no option_anchors):   724 + 172 * num-untrimmed-htlc-outputs\n",
    "* Commitment weight (option_anchors):     1124 + 172 * num-untrimmed-htlc-outputs\n",
    "* HTLC-timeout weight (no option_anchors): 663\n",
    "* HTLC-timeout weight (option_anchors): 666\n",
    "* HTLC-success weight (no option_anchors): 703\n",
    "* HTLC-success weight (option_anchors): 706"
   ]
  },
  {
   "cell_type": "code",
   "execution_count": null,
   "id": "5eb4b16d-9f4c-48b0-ba6d-f5e7f626bc7d",
   "metadata": {},
   "outputs": [],
   "source": [
    "commitment_weight = 1124\n",
    "\n",
    "# data from open_channel message\n",
    "feerate_per_kw = 15000\n",
    "funding_satoshis = 5000000\n",
    "\n",
    "commitment_fee_rate = commitment_weight * feerate_per_kw / 1000\n",
    "\n",
    "# TODO double check if we always subtract two times the anchor value or just one time when there is just one anchor output\n",
    "alice_output_value = funding_satoshis - anchor_output_value - commitment_fee_rate\n",
    "\n",
    "to_alice_output_value = alice_output_value.to_bytes(8, byteorder=\"little\", signed=True)\n",
    "\n",
    "outputs = (\n",
    "    alice_anchor_output_value\n",
    "    + varint_len(to_alice_anchor_output_spk)\n",
    "    + to_alice_anchor_output_spk\n",
    "    + to_alice_output_value\n",
    "    + varint_len(to_alice_output_spk)\n",
    "    + to_alice_output_spk\n",
    ")\n",
    "\n",
    "# LOCKTIME\n",
    "locktime = bytes.fromhex(\"0000 0000\")\n",
    "\n",
    "unsigned_tx = (\n",
    "    version\n",
    "    + input_count\n",
    "    + inputs\n",
    "    + output_count\n",
    "    + outputs\n",
    "    + locktime\n",
    ")\n",
    "\n",
    "print(\"unsigned_tx: \", unsigned_tx.hex())\n",
    "\n"
   ]
  }
 ],
 "metadata": {
  "kernelspec": {
   "display_name": "Python 3 (ipykernel)",
   "language": "python",
   "name": "python3"
  },
  "language_info": {
   "codemirror_mode": {
    "name": "ipython",
    "version": 3
   },
   "file_extension": ".py",
   "mimetype": "text/x-python",
   "name": "python",
   "nbconvert_exporter": "python",
   "pygments_lexer": "ipython3",
   "version": "3.12.3"
  }
 },
 "nbformat": 4,
 "nbformat_minor": 5
}
