{
 "cells": [
  {
   "cell_type": "markdown",
   "id": "77c93df3-2b04-45c9-818a-b633f04f102d",
   "metadata": {},
   "source": [
    "*** UNDER CONSTRUCTION ***\n",
    "\n",
    "\n",
    "# HTLC-Timeout and HTLC-Success Transactions\n",
    "## Prerequisite knowledge\n",
    "### For all notebooks\n",
    "- A high level understanding of the bitcoin e.g. [Mastering Bitcoin](https://github.com/bitcoinbook/bitcoinbook), in particular [Chapter 6](https://github.com/bitcoinbook/bitcoinbook/blob/develop/ch06.asciidoc).\n",
    "- A conceptual understanding of [hash functions](https://www.thesslstore.com/blog/what-is-a-hash-function-in-cryptography-a-beginners-guide).\n",
    "- [Hexadecimal notation](https://inst.eecs.berkeley.edu/~cs61bl/r//cur/bits/decimal-binary-hex.html?topic=lab28.topic&step=2&course=) and [endianness](https://www.freecodecamp.org/news/what-is-endianness-big-endian-vs-little-endian/).\n",
    "- A high level understanding of the lightning e.g. [Mastering Lightning Network](https://github.com/lnbook/lnbook), in particular [Chapter7](https://github.com/lnbook/lnbook/blob/develop/07_payment_channels.asciidoc), [Chapter 8](https://github.com/lnbook/lnbook/blob/develop/08_routing_htlcs.asciidoc) and [Chapter 9](https://github.com/lnbook/lnbook/blob/develop/09_channel_operation.asciidoc).\n",
    "\n",
    "### Specific to this notebook\n",
    "- SHA256, HASH256, HASH160 - '[Hash Functions chapter](https://github.com/MPins/lightning-tx-tutorial/blob/main/appendix/hash-functions.ipynb)'\n",
    "- Bech32 addresses - '[Addresses chapter](https://github.com/MPins/lightning-tx-tutorial/blob/main/appendix/Addresses.ipynb)'\n",
    "- Bitcoin Script basics - '[Bitcoin Script chapter](https://github.com/MPins/lightning-tx-tutorial/blob/main/appendix/Bitcoin%20Script.ipynb)'\n",
    "- Lightning Network BOLT #2: '[Peer Protocol for Channel Management](https://github.com/lightning/bolts/blob/master/02-peer-protocol.md#channel-establishment-v1)'\n",
    "- Lightning Network BOLT #3: '[Commitment Transactions](https://github.com/lightning/bolts/blob/master/03-transactions.md#commitment-transaction)'\n",
    "- Finite Fields, Elliptic Curves and Serialization e.g. [Programming Bitcoin](https://github.com/jimmysong/programmingbitcoin), in particular [Chapter 1](https://github.com/jimmysong/programmingbitcoin/blob/master/ch01.asciidoc), [Chapter2](https://github.com/jimmysong/programmingbitcoin/blob/master/ch02.asciidoc), [Chapter 3](https://github.com/jimmysong/programmingbitcoin/blob/master/ch03.asciidoc) and [Chapter 4](https://github.com/jimmysong/programmingbitcoin/blob/master/ch04.asciidoc).\n",
    "\n",
    "## HTLC-Timeout and HTLC-Success Transactions\n",
    "\n",
    "The HTLC-Timeout and HTLC-Success Transactions are almost identical, except the HTLC-timeout transaction is timelocked. Both HTLC-timeout/HTLC-success transactions can be spent by a valid penalty transaction.\n",
    "\n",
    "* version: 2\n",
    "* locktime: 0 for HTLC-success, cltv_expiry for HTLC-timeout\n",
    "* txin count: 1\n",
    "    * txin[0] outpoint: txid of the commitment transaction and output_index of the matching HTLC output for the HTLC transaction\n",
    "    * txin[0] sequence: 0 (set to 1 for option_anchors)\n",
    "    * txin[0] script bytes: 0\n",
    "    * txin[0] witness stack: 0 <remotehtlcsig> <localhtlcsig>  <payment_preimage> for HTLC-success, 0 <remotehtlcsig> <localhtlcsig> <> for HTLC-timeout\n",
    "\n",
    "* txout count: 1\n",
    "    * txout[0] amount: the HTLC amount_msat divided by 1000 (rounding down) minus fees in satoshis (see Fee Calculation)\n",
    "    * txout[0] script: version-0 P2WSH with witness script as shown below\n",
    "\n",
    "if option_anchors applies to this commitment transaction, SIGHASH_SINGLE|SIGHASH_ANYONECANPAY is used as described in [BOLT #5](https://github.com/lightning/bolts/blob/master/05-onchain.md#generation-of-htlc-transactions).\n",
    "\n",
    "The witness script for the output is:\n",
    "\n",
    "```\n",
    "OP_IF\n",
    "    # Penalty transaction\n",
    "    <revocationpubkey>\n",
    "OP_ELSE\n",
    "    `to_self_delay`\n",
    "    OP_CHECKSEQUENCEVERIFY\n",
    "    OP_DROP\n",
    "    <local_delayedpubkey>\n",
    "OP_ENDIF\n",
    "OP_CHECKSIG\n",
    "```\n",
    "\n",
    "\n",
    "## Setup\n",
    "### Requirements\n",
    "\n",
    "For this exercise we'll run the previous notebook to create the commitment transactions beetween with offer and received HTLC.\n",
    "\n",
    "**You'll need to edit these next line for your local setup.**"
   ]
  },
  {
   "cell_type": "code",
   "execution_count": 1,
   "id": "f4d6d2d3-3165-41c6-a01e-818bb6f94831",
   "metadata": {},
   "outputs": [
    {
     "name": "stdout",
     "output_type": "stream",
     "text": [
      "Alice Per Commitment Seed 34b581ec20bf2c6cae3d4d4dcbfddc8a3727a1e9a57c55f3520e770607898c06\n",
      "Bob Per Commitment Seed 89c994b3ddad4698acee71e42d8bcace48eea739caaba371eb110e77663ec56d\n",
      "Alice Revocation Basepoint Private Key: c17ac3952ca414190074d1e59ea03fbae253196173908dc8b131af6bd2cc8161\n",
      "Alice Revocation Basepoint Public Key: 03649c4f865bec74b0a186deef4defad51cfdc141443e38074ea05a7835a953a49\n",
      "Alice HTLC Basepoint Private Key: 763ae49a20e6668c88602c782716dd83ba6c4cc0333b38810e2bcd7b22c871ac\n",
      "Alice HTLC Basepoint Public Key: 02816fde4150e4dfcac94eff0b821448fb70f57a56148ba2206cd9b2fd0cc20bdf\n",
      "Alice Payment Basepoint Private Key: 72d8c12971b58076a1f27eb7938ca442f0b210762b23637443ac2e99dac352a6\n",
      "Alice Payment Basepoint Public Key: 025f892a06124391e2f38ce35d943cdc09f63e203330dbd9cb6113a903e0738458\n",
      "Alice Delayed Payment Basepoint Private Key: 7cafce00c54e7241894dcc7c3beaca29dd354139fdb6182198d6c5f1063bfe8d\n",
      "Alice Delayed Payment Basepoint Public Key: 034aa35219136bb238e072341b20a4bf8fb44a83cdb73dd2bd973c123ac2dfd7ff\n",
      "Bob Revocation Basepoint Private Key: fa526e09b9ff7425552db1803d7e12cf4475d060db4cfb812adb07219a54baa0\n",
      "Bob Revocation Basepoint Public Key: 02536407aada57068f30b53c4126062d235967c3636147433e72b21ff93c8acdbf\n",
      "Bob HTLC Basepoint Private Key: 06d61bb059eef194a3d223992a028fbd31f2e8b289d5a10acd343671c9322155\n",
      "Bob HTLC Basepoint Public Key: 0306b11436efa058a86f997df6596ea4579241f3909175772d77df38a5255f52f4\n",
      "Bob Payment Basepoint Private Key: 5046024e716c479599350b7aee8139304d942360733d8dd79793917f9e33a334\n",
      "Bob Payment Basepoint Public Key: 02f98efd3f2b2fbe7bd83c419f5f64f8280798b8a9175fdb77c0091bbb95c79506\n",
      "Bob Delayed Payment Basepoint Private Key: d764d4c083cac97d34913bdf123c3dfef5379db9e9b0652897783e0d01880bb3\n",
      "Bob Delayed Payment Basepoint Public Key: 032a5869ac5eb30ba1e9c9addd3740822dac6f45a8de9b3d4e171f14c3abce2dae\n",
      "Alice Funding Private Key: ccd60731893309bb59a6030a581fc80984fa96129e10cf8342c0b0b800ffb51c\n",
      "Alice Funding Public Key: 02245c997231079146616f70eae46dd43461b530cb55df50cac8ef321127adb963\n",
      "Alice Change Private Key: 6c2bda7af1291da770d0041794bbc891ac27c2fbe6a8a825a8f14f3b904b1f4e\n",
      "Alice Change Public Key: 02f0006732c6db9e73522b31168bda043cbf7759c46e553eae9dede26ccd08a39b\n",
      "Bob Funding Private Key: ca62b96f01783d13a48be4e8a2ca9c48093f62b64537d4c3c33d45d7cb53a0a7\n",
      "Bob Funding Public Key: 032b057a643c7b928b7dc30e1f76c2a777a213fe3a7462215d10220844befe77c3\n",
      "Alice's funding p2wpkh address: bcrt1qt0vq5dj8qa720lfx3hhzyu9ygsng9js3g02lnl\n",
      "Alice's change p2wpkh address: bcrt1qt6ax8rh20h6zts0dcqmzdy9kte3pds4lrzwl6s\n",
      "2025-03-14T23:27:00.406000Z TestFramework (INFO): PRNG seed is: 2527128866878742046\n",
      "2025-03-14T23:27:00.407000Z TestFramework (INFO): Initializing test directory /tmp/bitcoin_func_test_hw1d23ap\n",
      "txid_to_spent: 31db67e8e60049e2ad8d70adcda67d8e2b393528fad0f8f7aed8b3caf6bd301a, 0\n",
      "Alice pubkey is lexicographically lesser than Bob pubkey:\n",
      "02245c997231079146616f70eae46dd43461b530cb55df50cac8ef321127adb963 < 032b057a643c7b928b7dc30e1f76c2a777a213fe3a7462215d10220844befe77c3\n",
      "Redeem Script:\n",
      "522102245c997231079146616f70eae46dd43461b530cb55df50cac8ef321127adb96321032b057a643c7b928b7dc30e1f76c2a777a213fe3a7462215d10220844befe77c352ae\n",
      "channel_address:  bcrt1qhsn37ekwjgxlajuavyzne28yrahkyesgnr6qhxvzlw3807ttcjeqhcl6mc\n",
      "unsigned_channel_funding_tx:  02000000011a30bdf6cab3d8aef7f8d0fa2835392b8e7da6cdad708dade24900e6e867db310000000000ffffffff02c0e1e400000000001600145eba638eea7df425c1edc0362690b65e6216c2bf404b4c0000000000220020bc271f66ce920dfecb9d61053ca8e41f6f62660898f40b9982fba277f96bc4b200000000\n",
      "{\n",
      "  \"txid\": \"5f338b12f6d9b2fa74920e576b5681351c19e91ff1194a295b4d526a55e1c40d\",\n",
      "  \"hash\": \"5f338b12f6d9b2fa74920e576b5681351c19e91ff1194a295b4d526a55e1c40d\",\n",
      "  \"version\": 2,\n",
      "  \"size\": 125,\n",
      "  \"vsize\": 125,\n",
      "  \"weight\": 500,\n",
      "  \"locktime\": 0,\n",
      "  \"vin\": [\n",
      "    {\n",
      "      \"txid\": \"31db67e8e60049e2ad8d70adcda67d8e2b393528fad0f8f7aed8b3caf6bd301a\",\n",
      "      \"vout\": 0,\n",
      "      \"scriptSig\": {\n",
      "        \"asm\": \"\",\n",
      "        \"hex\": \"\"\n",
      "      },\n",
      "      \"sequence\": 4294967295\n",
      "    }\n",
      "  ],\n",
      "  \"vout\": [\n",
      "    {\n",
      "      \"value\": \"0.15000000\",\n",
      "      \"n\": 0,\n",
      "      \"scriptPubKey\": {\n",
      "        \"asm\": \"0 5eba638eea7df425c1edc0362690b65e6216c2bf\",\n",
      "        \"desc\": \"addr(bcrt1qt6ax8rh20h6zts0dcqmzdy9kte3pds4lrzwl6s)#s9wdm0cm\",\n",
      "        \"hex\": \"00145eba638eea7df425c1edc0362690b65e6216c2bf\",\n",
      "        \"address\": \"bcrt1qt6ax8rh20h6zts0dcqmzdy9kte3pds4lrzwl6s\",\n",
      "        \"type\": \"witness_v0_keyhash\"\n",
      "      }\n",
      "    },\n",
      "    {\n",
      "      \"value\": \"0.05000000\",\n",
      "      \"n\": 1,\n",
      "      \"scriptPubKey\": {\n",
      "        \"asm\": \"0 bc271f66ce920dfecb9d61053ca8e41f6f62660898f40b9982fba277f96bc4b2\",\n",
      "        \"desc\": \"addr(bcrt1qhsn37ekwjgxlajuavyzne28yrahkyesgnr6qhxvzlw3807ttcjeqhcl6mc)#q3fvp06p\",\n",
      "        \"hex\": \"0020bc271f66ce920dfecb9d61053ca8e41f6f62660898f40b9982fba277f96bc4b2\",\n",
      "        \"address\": \"bcrt1qhsn37ekwjgxlajuavyzne28yrahkyesgnr6qhxvzlw3807ttcjeqhcl6mc\",\n",
      "        \"type\": \"witness_v0_scripthash\"\n",
      "      }\n",
      "    }\n",
      "  ]\n",
      "}\n",
      "tx_digest_preimage:  02000000bcf2c19c54cc088a12f9475ef5b5d07f3b598284e3b08abe6abeaef169809fd63bb13029ce7b1f559ef5e747fcac439f1455a2ec7c5f09b72290795e706650441a30bdf6cab3d8aef7f8d0fa2835392b8e7da6cdad708dade24900e6e867db31000000001976a9145bd80a3647077ca7fd268dee2270a4442682ca1188aca0b3320100000000fffffffff024a453c206730b975be44da5987693c127c508aada9aabadc9455fb74b5fc60000000001000000\n",
      "Channel Funding Signed Transaction:  020000000001011a30bdf6cab3d8aef7f8d0fa2835392b8e7da6cdad708dade24900e6e867db310000000000ffffffff02c0e1e400000000001600145eba638eea7df425c1edc0362690b65e6216c2bf404b4c0000000000220020bc271f66ce920dfecb9d61053ca8e41f6f62660898f40b9982fba277f96bc4b202483045022100be83bb8911d57bb3d2e728e83668f99024b049690c170576a5968e6906f6b9e00220780003b94ad2b28d4adacfc1e21e35a584008fe13ee991a7d138b1c8e0681505012102245c997231079146616f70eae46dd43461b530cb55df50cac8ef321127adb96300000000\n",
      "[{'txid': '5f338b12f6d9b2fa74920e576b5681351c19e91ff1194a295b4d526a55e1c40d', 'wtxid': '6f335c0e27d90dcc25e8a91fbb45ad0021f0cc8691762c4ae84b96fa44d9233e', 'allowed': True, 'vsize': 153, 'fees': {'base': Decimal('0.00100000'), 'effective-feerate': Decimal('0.00653594'), 'effective-includes': ['6f335c0e27d90dcc25e8a91fbb45ad0021f0cc8691762c4ae84b96fa44d9233e']}}]\n",
      "Alice First Per Commitment Secret: 739d879e3b2502146546b9d6d51b1e05feb362397b7cf7ba13c7719b0a889dd9\n",
      "Alice First Per Commitment Point: 0368081a0a30ec118e662b71d222c383c5c9f495b4821fd0252452abf659250237\n",
      "Bob First Per Commitment Secret: 203f2c3e5cd6004ef0ea26e82c2ffeb2dc80036cedca92c210010cd73facd38a\n",
      "Bob First Per Commitment Point: 03ac685c74c0970c62f0e69ad332b6a5f6d61d3650128ef2a18e011cfd28d177b4\n",
      "Commitment Number Obscured: 0xb433fd43a66f\n",
      "Inputs: 0dc4e1556a524d5b294a19f11fe9191c3581566b570e9274fab2d9f6128b335f0100000000fd33b480\n",
      "Alice Delayed Pubkey: 03d6363615b3d00361158c0f48a4ef81ea12e214e8d56e24098759f6b4267dca8b\n",
      "Bob Revocation Pubkey: 03a0596fefba4b53489629115e8b360a95b900f1884306edb98428d5377478b9ac\n",
      "Alice Anchor Output SPK: 002034391c79ba78d594262aa91410f49d7200ef55e7551441659412aac47b543f04\n",
      "Alice Delayed Output SPK: 002010af48dee0428972563ba131e3d8aa35fd92537953d4755a84bc2a09c2bb53a5\n",
      "Alice Remote Output SPK: 0020f0447296bbb031d3f362b223a0ba7281bfcfeca9061820c9bdee400411fc01be\n",
      "Unsigned Alice Commitment Transaction:  02000000010dc4e1556a524d5b294a19f11fe9191c3581566b570e9274fab2d9f6128b335f0100000000fd33b480024a0100000000000022002034391c79ba78d594262aa91410f49d7200ef55e7551441659412aac47b543f041a084c000000000022002010af48dee0428972563ba131e3d8aa35fd92537953d4755a84bc2a09c2bb53a56fa64320\n",
      "Unsigned Bob Commitment Transaction:  02000000010dc4e1556a524d5b294a19f11fe9191c3581566b570e9274fab2d9f6128b335f0100000000fd33b480024a0100000000000022002034391c79ba78d594262aa91410f49d7200ef55e7551441659412aac47b543f041a084c0000000000220020f0447296bbb031d3f362b223a0ba7281bfcfeca9061820c9bdee400411fc01be6fa64320\n",
      "Alice Unsigned Commitment transaction\n",
      "{\n",
      "  \"txid\": \"1d24e6083dfd4acf4c218cce562bd394099c900f108b66a3e0424706abcd8f15\",\n",
      "  \"hash\": \"1d24e6083dfd4acf4c218cce562bd394099c900f108b66a3e0424706abcd8f15\",\n",
      "  \"version\": 2,\n",
      "  \"size\": 137,\n",
      "  \"vsize\": 137,\n",
      "  \"weight\": 548,\n",
      "  \"locktime\": 541304431,\n",
      "  \"vin\": [\n",
      "    {\n",
      "      \"txid\": \"5f338b12f6d9b2fa74920e576b5681351c19e91ff1194a295b4d526a55e1c40d\",\n",
      "      \"vout\": 1,\n",
      "      \"scriptSig\": {\n",
      "        \"asm\": \"\",\n",
      "        \"hex\": \"\"\n",
      "      },\n",
      "      \"sequence\": 2159293437\n",
      "    }\n",
      "  ],\n",
      "  \"vout\": [\n",
      "    {\n",
      "      \"value\": \"0.00000330\",\n",
      "      \"n\": 0,\n",
      "      \"scriptPubKey\": {\n",
      "        \"asm\": \"0 34391c79ba78d594262aa91410f49d7200ef55e7551441659412aac47b543f04\",\n",
      "        \"desc\": \"addr(bcrt1qxsu3c7d60r2egf324y2ppayawgqw7408252yzev5z24vg7658uzqwq2zs5)#62txjpcp\",\n",
      "        \"hex\": \"002034391c79ba78d594262aa91410f49d7200ef55e7551441659412aac47b543f04\",\n",
      "        \"address\": \"bcrt1qxsu3c7d60r2egf324y2ppayawgqw7408252yzev5z24vg7658uzqwq2zs5\",\n",
      "        \"type\": \"witness_v0_scripthash\"\n",
      "      }\n",
      "    },\n",
      "    {\n",
      "      \"value\": \"0.04982810\",\n",
      "      \"n\": 1,\n",
      "      \"scriptPubKey\": {\n",
      "        \"asm\": \"0 10af48dee0428972563ba131e3d8aa35fd92537953d4755a84bc2a09c2bb53a5\",\n",
      "        \"desc\": \"addr(bcrt1qzzh53hhqg2yhy43m5yc78k92xh7ey5me20282k5yhs4qns4m2wjsfkpzye)#fhg3my0v\",\n",
      "        \"hex\": \"002010af48dee0428972563ba131e3d8aa35fd92537953d4755a84bc2a09c2bb53a5\",\n",
      "        \"address\": \"bcrt1qzzh53hhqg2yhy43m5yc78k92xh7ey5me20282k5yhs4qns4m2wjsfkpzye\",\n",
      "        \"type\": \"witness_v0_scripthash\"\n",
      "      }\n",
      "    }\n",
      "  ]\n",
      "}\n",
      "Bob Unsigned Commitment transaction\n",
      "{\n",
      "  \"txid\": \"030e6343599b72eeb37d44be859262628374ad2a16e2051b37d5de3010d19be6\",\n",
      "  \"hash\": \"030e6343599b72eeb37d44be859262628374ad2a16e2051b37d5de3010d19be6\",\n",
      "  \"version\": 2,\n",
      "  \"size\": 137,\n",
      "  \"vsize\": 137,\n",
      "  \"weight\": 548,\n",
      "  \"locktime\": 541304431,\n",
      "  \"vin\": [\n",
      "    {\n",
      "      \"txid\": \"5f338b12f6d9b2fa74920e576b5681351c19e91ff1194a295b4d526a55e1c40d\",\n",
      "      \"vout\": 1,\n",
      "      \"scriptSig\": {\n",
      "        \"asm\": \"\",\n",
      "        \"hex\": \"\"\n",
      "      },\n",
      "      \"sequence\": 2159293437\n",
      "    }\n",
      "  ],\n",
      "  \"vout\": [\n",
      "    {\n",
      "      \"value\": \"0.00000330\",\n",
      "      \"n\": 0,\n",
      "      \"scriptPubKey\": {\n",
      "        \"asm\": \"0 34391c79ba78d594262aa91410f49d7200ef55e7551441659412aac47b543f04\",\n",
      "        \"desc\": \"addr(bcrt1qxsu3c7d60r2egf324y2ppayawgqw7408252yzev5z24vg7658uzqwq2zs5)#62txjpcp\",\n",
      "        \"hex\": \"002034391c79ba78d594262aa91410f49d7200ef55e7551441659412aac47b543f04\",\n",
      "        \"address\": \"bcrt1qxsu3c7d60r2egf324y2ppayawgqw7408252yzev5z24vg7658uzqwq2zs5\",\n",
      "        \"type\": \"witness_v0_scripthash\"\n",
      "      }\n",
      "    },\n",
      "    {\n",
      "      \"value\": \"0.04982810\",\n",
      "      \"n\": 1,\n",
      "      \"scriptPubKey\": {\n",
      "        \"asm\": \"0 f0447296bbb031d3f362b223a0ba7281bfcfeca9061820c9bdee400411fc01be\",\n",
      "        \"desc\": \"addr(bcrt1q7pz8994mkqca8umzkg36pwnjsxlulm9fqcvzpjdaaeqqgy0uqxlqphvsda)#f8xgy4gn\",\n",
      "        \"hex\": \"0020f0447296bbb031d3f362b223a0ba7281bfcfeca9061820c9bdee400411fc01be\",\n",
      "        \"address\": \"bcrt1q7pz8994mkqca8umzkg36pwnjsxlulm9fqcvzpjdaaeqqgy0uqxlqphvsda\",\n",
      "        \"type\": \"witness_v0_scripthash\"\n",
      "      }\n",
      "    }\n",
      "  ]\n",
      "}\n",
      "alice_tx_digest_preimage:  02000000c1d6d0f95c63a464bb5d919de766d0176aa4e33e4174d7aa115bc414eb870ad7c6067e2ccbba74d4f24cc174be97c1ea7514cf7a20d616fbc7587a48964b2c950dc4e1556a524d5b294a19f11fe9191c3581566b570e9274fab2d9f6128b335f0100000047522102245c997231079146616f70eae46dd43461b530cb55df50cac8ef321127adb96321032b057a643c7b928b7dc30e1f76c2a777a213fe3a7462215d10220844befe77c352ae404b4c0000000000fd33b48095e26024f731d6ea5e1e1698c7a24bcb4453535c9f06b0e5cbeb259a12693f096fa6432001000000\n",
      "bob_tx_digest_preimage:  02000000c1d6d0f95c63a464bb5d919de766d0176aa4e33e4174d7aa115bc414eb870ad7c6067e2ccbba74d4f24cc174be97c1ea7514cf7a20d616fbc7587a48964b2c950dc4e1556a524d5b294a19f11fe9191c3581566b570e9274fab2d9f6128b335f0100000047522102245c997231079146616f70eae46dd43461b530cb55df50cac8ef321127adb96321032b057a643c7b928b7dc30e1f76c2a777a213fe3a7462215d10220844befe77c352ae404b4c0000000000fd33b480cb541070b4f791ea30c33859048fe351357b6e71305de479d36b3b6dfd7c41396fa6432001000000\n",
      "Alice Signed Commitment Transaction:  020000000001010dc4e1556a524d5b294a19f11fe9191c3581566b570e9274fab2d9f6128b335f0100000000fd33b480024a0100000000000022002034391c79ba78d594262aa91410f49d7200ef55e7551441659412aac47b543f041a084c000000000022002010af48dee0428972563ba131e3d8aa35fd92537953d4755a84bc2a09c2bb53a50400483045022100ad9194bf01e304ae14f2df0b1d518e5d959e2c5f96ba267f2499fcaf4009a748022059bd3369954a5f40130af4150a77549a04dfba6b4626e81b0db8556adfe3940201483045022100e50c553f416b55ef7635ac237e693c4f8fa9bc60d9d8797937504e1f9369989d02204519e4bbfc30fd51cae726f29063446c156dc6f68266194681f06154d275b3a00147522102245c997231079146616f70eae46dd43461b530cb55df50cac8ef321127adb96321032b057a643c7b928b7dc30e1f76c2a777a213fe3a7462215d10220844befe77c352ae6fa64320\n",
      "Bob Signed Commitment Transaction:  020000000001010dc4e1556a524d5b294a19f11fe9191c3581566b570e9274fab2d9f6128b335f0100000000fd33b480024a0100000000000022002034391c79ba78d594262aa91410f49d7200ef55e7551441659412aac47b543f041a084c0000000000220020f0447296bbb031d3f362b223a0ba7281bfcfeca9061820c9bdee400411fc01be0400473044022017dc12306a0258d8ec540ad7e59d3c94ae2e6aa05601dd7d33c7f9d13d93bddf022028c49f7fd75c679079035255b3e8e9b59b780af9f759201705239e0afb1ab04c0148304502210096e97c54802ab11ede434a29b20394702bb11d5d19f0565c2b5c57866e61f9bb02205ac3c29a25f425d49d501030fc5d6ae177c8be42eef601a283171f6de4949e1c0147522102245c997231079146616f70eae46dd43461b530cb55df50cac8ef321127adb96321032b057a643c7b928b7dc30e1f76c2a777a213fe3a7462215d10220844befe77c352ae6fa64320\n",
      "[{'txid': '1d24e6083dfd4acf4c218cce562bd394099c900f108b66a3e0424706abcd8f15', 'wtxid': 'fdc938a1556e83d5e97c2ec61263fa024a2b8739294b630b4493dbc38e2af9dc', 'allowed': True, 'vsize': 193, 'fees': {'base': Decimal('0.00016860'), 'effective-feerate': Decimal('0.00087357'), 'effective-includes': ['fdc938a1556e83d5e97c2ec61263fa024a2b8739294b630b4493dbc38e2af9dc']}}]\n",
      "[{'txid': '030e6343599b72eeb37d44be859262628374ad2a16e2051b37d5de3010d19be6', 'wtxid': '76910a23f8709a66e29d88573520cad4a07a4c0bafb8b400893d91ddc6f3be06', 'allowed': True, 'vsize': 193, 'fees': {'base': Decimal('0.00016860'), 'effective-feerate': Decimal('0.00087357'), 'effective-includes': ['76910a23f8709a66e29d88573520cad4a07a4c0bafb8b400893d91ddc6f3be06']}}]\n",
      "Commitment Number Obscured: 0xb433fd43a66c\n",
      "Inputs: 0dc4e1556a524d5b294a19f11fe9191c3581566b570e9274fab2d9f6128b335f0100000000fd33b480\n",
      "Alice Per Commitment Secret: 7d474813d764ca1273ad85e3f36ca1926401a8f76e576533f0232801c96af14d\n",
      "Alice Per Commitment Point: 028a29fc294e5cc904c607cbe2d66bc3e3f0d5131ba3f9085eb01b25df0a5bdd4a\n",
      "Bob Per Commitment Secret: 3dec4e412d557115ad23549b60f2bb4fc8a1215bead2c8ade3ed2cf1d10450da\n",
      "Bob Per Commitment Point: 0267c6f101ca3ffa7d9e2aba0ca51e63af33a7b88b19e80a04a2deb9807447e963\n",
      "Alice Delayed Pubkey: 03eb397e72815b5221b63d2564593465b45c9f7fa6da6944e1371974557d2682fa\n",
      "Bob Delayed Pubkey: 02422c467da01480bef0191075e8823724ebb84b1a8fc502ca1e63d881ae723a4e\n",
      "Alice HTLC Pubkey: 03f020b85b2f600cdba67ecb33ed2ed09bf1c0a0e67e839a9ca70766049a5f3298\n",
      "Bob HTLC Pubkey: 03f0ce4fe88d9e1d79c449ced61ee6cfc9280b3e424a48f952667b7fd73a299aa1\n",
      "Bob Revocation Pubkey: 03280652b5b3abccd28174b226f3728cf31025f9188ff52eea5cf84fe129c77942\n",
      "Alice Revocation Pubkey: 02a63b41912d98c695eeb72b830d07588b6eaca078ecd39498e82e5b4b6f14aa90\n",
      "Alice Anchor Output SPK: 002034391c79ba78d594262aa91410f49d7200ef55e7551441659412aac47b543f04\n",
      "Bob Anchor Output SPK: 002056680a199b598b249d54e3b24fbf5a629228af306e3f587e8ab1b65233a581c4\n",
      "Alice Offered htlc Output SPK: 0020e41c944136e30b377fc245c71e2cf603e115a968b5b16a59e6c26dc50f69d1a8\n",
      "Bob Remote Output SPK: 0020439fd0fb44bb93e02a87b92851c9e377612166d8ce4af46eb9f82899a8e8323d\n",
      "Alice Delayed Output SPK: 0020a740481499c3a13952f3c1aab5bf7e76d07908e8c576902c192131adfe007ad6\n",
      "Bob Received htlc Output SPK: 00205083e7b1e0fba00f7d894d1ff9b8796bbc06d07c23f2d51c4d0bb3ef0a7ee40c\n",
      "Bob Delayed Output SPK: 00209dfff11a6f74c6a55241ceab93d40f04d9377608accd4be44eedd1031183e845\n",
      "Alice Remote Output SPK: 0020475d024bb95e9a981632863d3b1a4b9308aa88e189196272735a3e3d47caf936\n",
      "Unsigned Alice Commitment Transaction:  02000000010dc4e1556a524d5b294a19f11fe9191c3581566b570e9274fab2d9f6128b335f0100000000fd33b480054a0100000000000022002034391c79ba78d594262aa91410f49d7200ef55e7551441659412aac47b543f044a0100000000000022002056680a199b598b249d54e3b24fbf5a629228af306e3f587e8ab1b65233a581c420a1070000000000220020e41c944136e30b377fc245c71e2cf603e115a968b5b16a59e6c26dc50f69d1a840420f0000000000220020439fd0fb44bb93e02a87b92851c9e377612166d8ce4af46eb9f82899a8e8323d5c19350000000000220020a740481499c3a13952f3c1aab5bf7e76d07908e8c576902c192131adfe007ad66ca64320\n",
      "Unsigned Bob Commitment Transaction:  02000000010dc4e1556a524d5b294a19f11fe9191c3581566b570e9274fab2d9f6128b335f0100000000fd33b480054a0100000000000022002034391c79ba78d594262aa91410f49d7200ef55e7551441659412aac47b543f044a0100000000000022002056680a199b598b249d54e3b24fbf5a629228af306e3f587e8ab1b65233a581c420a10700000000002200205083e7b1e0fba00f7d894d1ff9b8796bbc06d07c23f2d51c4d0bb3ef0a7ee40cdc941600000000002200209dfff11a6f74c6a55241ceab93d40f04d9377608accd4be44eedd1031183e845e067350000000000220020475d024bb95e9a981632863d3b1a4b9308aa88e189196272735a3e3d47caf9366ca64320\n",
      "Alice Unsigned Commitment transaction\n",
      "{\n",
      "  \"txid\": \"d2337d42d82f259f7582cea6fd7ef43d4930d595ad4288e56c415d4fdafa022f\",\n",
      "  \"hash\": \"d2337d42d82f259f7582cea6fd7ef43d4930d595ad4288e56c415d4fdafa022f\",\n",
      "  \"version\": 2,\n",
      "  \"size\": 266,\n",
      "  \"vsize\": 266,\n",
      "  \"weight\": 1064,\n",
      "  \"locktime\": 541304428,\n",
      "  \"vin\": [\n",
      "    {\n",
      "      \"txid\": \"5f338b12f6d9b2fa74920e576b5681351c19e91ff1194a295b4d526a55e1c40d\",\n",
      "      \"vout\": 1,\n",
      "      \"scriptSig\": {\n",
      "        \"asm\": \"\",\n",
      "        \"hex\": \"\"\n",
      "      },\n",
      "      \"sequence\": 2159293437\n",
      "    }\n",
      "  ],\n",
      "  \"vout\": [\n",
      "    {\n",
      "      \"value\": \"0.00000330\",\n",
      "      \"n\": 0,\n",
      "      \"scriptPubKey\": {\n",
      "        \"asm\": \"0 34391c79ba78d594262aa91410f49d7200ef55e7551441659412aac47b543f04\",\n",
      "        \"desc\": \"addr(bcrt1qxsu3c7d60r2egf324y2ppayawgqw7408252yzev5z24vg7658uzqwq2zs5)#62txjpcp\",\n",
      "        \"hex\": \"002034391c79ba78d594262aa91410f49d7200ef55e7551441659412aac47b543f04\",\n",
      "        \"address\": \"bcrt1qxsu3c7d60r2egf324y2ppayawgqw7408252yzev5z24vg7658uzqwq2zs5\",\n",
      "        \"type\": \"witness_v0_scripthash\"\n",
      "      }\n",
      "    },\n",
      "    {\n",
      "      \"value\": \"0.00000330\",\n",
      "      \"n\": 1,\n",
      "      \"scriptPubKey\": {\n",
      "        \"asm\": \"0 56680a199b598b249d54e3b24fbf5a629228af306e3f587e8ab1b65233a581c4\",\n",
      "        \"desc\": \"addr(bcrt1q2e5q5xvmtx9jf825uweyl066v2fz3tesdcl4sl52kxm9yva9s8zq9pw5mq)#z5wzum6e\",\n",
      "        \"hex\": \"002056680a199b598b249d54e3b24fbf5a629228af306e3f587e8ab1b65233a581c4\",\n",
      "        \"address\": \"bcrt1q2e5q5xvmtx9jf825uweyl066v2fz3tesdcl4sl52kxm9yva9s8zq9pw5mq\",\n",
      "        \"type\": \"witness_v0_scripthash\"\n",
      "      }\n",
      "    },\n",
      "    {\n",
      "      \"value\": \"0.00500000\",\n",
      "      \"n\": 2,\n",
      "      \"scriptPubKey\": {\n",
      "        \"asm\": \"0 e41c944136e30b377fc245c71e2cf603e115a968b5b16a59e6c26dc50f69d1a8\",\n",
      "        \"desc\": \"addr(bcrt1quswfgsfkuv9nwl7zghr3ut8kq0s3t2tgkkck5k0xcfku2rmf6x5quhg9dd)#m3htkgr8\",\n",
      "        \"hex\": \"0020e41c944136e30b377fc245c71e2cf603e115a968b5b16a59e6c26dc50f69d1a8\",\n",
      "        \"address\": \"bcrt1quswfgsfkuv9nwl7zghr3ut8kq0s3t2tgkkck5k0xcfku2rmf6x5quhg9dd\",\n",
      "        \"type\": \"witness_v0_scripthash\"\n",
      "      }\n",
      "    },\n",
      "    {\n",
      "      \"value\": \"0.01000000\",\n",
      "      \"n\": 3,\n",
      "      \"scriptPubKey\": {\n",
      "        \"asm\": \"0 439fd0fb44bb93e02a87b92851c9e377612166d8ce4af46eb9f82899a8e8323d\",\n",
      "        \"desc\": \"addr(bcrt1qgw0ap76yhwf7q258hy59rj0rwasjzekcee90gm4elq5fn28gxg7sj0rdmv)#6a82l2ar\",\n",
      "        \"hex\": \"0020439fd0fb44bb93e02a87b92851c9e377612166d8ce4af46eb9f82899a8e8323d\",\n",
      "        \"address\": \"bcrt1qgw0ap76yhwf7q258hy59rj0rwasjzekcee90gm4elq5fn28gxg7sj0rdmv\",\n",
      "        \"type\": \"witness_v0_scripthash\"\n",
      "      }\n",
      "    },\n",
      "    {\n",
      "      \"value\": \"0.03479900\",\n",
      "      \"n\": 4,\n",
      "      \"scriptPubKey\": {\n",
      "        \"asm\": \"0 a740481499c3a13952f3c1aab5bf7e76d07908e8c576902c192131adfe007ad6\",\n",
      "        \"desc\": \"addr(bcrt1q5aqys9yecwsnj5hncx4tt0m7wmg8jz8gc4mfqtqeyyc6mlsq0ttqp4fyyl)#6zvzsd7c\",\n",
      "        \"hex\": \"0020a740481499c3a13952f3c1aab5bf7e76d07908e8c576902c192131adfe007ad6\",\n",
      "        \"address\": \"bcrt1q5aqys9yecwsnj5hncx4tt0m7wmg8jz8gc4mfqtqeyyc6mlsq0ttqp4fyyl\",\n",
      "        \"type\": \"witness_v0_scripthash\"\n",
      "      }\n",
      "    }\n",
      "  ]\n",
      "}\n",
      "Bob Unsigned Commitment transaction\n",
      "{\n",
      "  \"txid\": \"e183686ca8f6e8c6b2faf3f70a9e1a45cbc2a98ccad8f2a50a96b0763e0bcf3b\",\n",
      "  \"hash\": \"e183686ca8f6e8c6b2faf3f70a9e1a45cbc2a98ccad8f2a50a96b0763e0bcf3b\",\n",
      "  \"version\": 2,\n",
      "  \"size\": 266,\n",
      "  \"vsize\": 266,\n",
      "  \"weight\": 1064,\n",
      "  \"locktime\": 541304428,\n",
      "  \"vin\": [\n",
      "    {\n",
      "      \"txid\": \"5f338b12f6d9b2fa74920e576b5681351c19e91ff1194a295b4d526a55e1c40d\",\n",
      "      \"vout\": 1,\n",
      "      \"scriptSig\": {\n",
      "        \"asm\": \"\",\n",
      "        \"hex\": \"\"\n",
      "      },\n",
      "      \"sequence\": 2159293437\n",
      "    }\n",
      "  ],\n",
      "  \"vout\": [\n",
      "    {\n",
      "      \"value\": \"0.00000330\",\n",
      "      \"n\": 0,\n",
      "      \"scriptPubKey\": {\n",
      "        \"asm\": \"0 34391c79ba78d594262aa91410f49d7200ef55e7551441659412aac47b543f04\",\n",
      "        \"desc\": \"addr(bcrt1qxsu3c7d60r2egf324y2ppayawgqw7408252yzev5z24vg7658uzqwq2zs5)#62txjpcp\",\n",
      "        \"hex\": \"002034391c79ba78d594262aa91410f49d7200ef55e7551441659412aac47b543f04\",\n",
      "        \"address\": \"bcrt1qxsu3c7d60r2egf324y2ppayawgqw7408252yzev5z24vg7658uzqwq2zs5\",\n",
      "        \"type\": \"witness_v0_scripthash\"\n",
      "      }\n",
      "    },\n",
      "    {\n",
      "      \"value\": \"0.00000330\",\n",
      "      \"n\": 1,\n",
      "      \"scriptPubKey\": {\n",
      "        \"asm\": \"0 56680a199b598b249d54e3b24fbf5a629228af306e3f587e8ab1b65233a581c4\",\n",
      "        \"desc\": \"addr(bcrt1q2e5q5xvmtx9jf825uweyl066v2fz3tesdcl4sl52kxm9yva9s8zq9pw5mq)#z5wzum6e\",\n",
      "        \"hex\": \"002056680a199b598b249d54e3b24fbf5a629228af306e3f587e8ab1b65233a581c4\",\n",
      "        \"address\": \"bcrt1q2e5q5xvmtx9jf825uweyl066v2fz3tesdcl4sl52kxm9yva9s8zq9pw5mq\",\n",
      "        \"type\": \"witness_v0_scripthash\"\n",
      "      }\n",
      "    },\n",
      "    {\n",
      "      \"value\": \"0.00500000\",\n",
      "      \"n\": 2,\n",
      "      \"scriptPubKey\": {\n",
      "        \"asm\": \"0 5083e7b1e0fba00f7d894d1ff9b8796bbc06d07c23f2d51c4d0bb3ef0a7ee40c\",\n",
      "        \"desc\": \"addr(bcrt1q2zp70v0qlwsq7lvff50lnwredw7qd5ruy0ed28zdpwe77zn7usxqhwqq4q)#wvqrjtcw\",\n",
      "        \"hex\": \"00205083e7b1e0fba00f7d894d1ff9b8796bbc06d07c23f2d51c4d0bb3ef0a7ee40c\",\n",
      "        \"address\": \"bcrt1q2zp70v0qlwsq7lvff50lnwredw7qd5ruy0ed28zdpwe77zn7usxqhwqq4q\",\n",
      "        \"type\": \"witness_v0_scripthash\"\n",
      "      }\n",
      "    },\n",
      "    {\n",
      "      \"value\": \"0.01479900\",\n",
      "      \"n\": 3,\n",
      "      \"scriptPubKey\": {\n",
      "        \"asm\": \"0 9dfff11a6f74c6a55241ceab93d40f04d9377608accd4be44eedd1031183e845\",\n",
      "        \"desc\": \"addr(bcrt1qnhllzxn0wnr225jpe64e84q0qnvnwasg4nx5hezwahgsxyvrapzsmxrkgp)#dx24dv0f\",\n",
      "        \"hex\": \"00209dfff11a6f74c6a55241ceab93d40f04d9377608accd4be44eedd1031183e845\",\n",
      "        \"address\": \"bcrt1qnhllzxn0wnr225jpe64e84q0qnvnwasg4nx5hezwahgsxyvrapzsmxrkgp\",\n",
      "        \"type\": \"witness_v0_scripthash\"\n",
      "      }\n",
      "    },\n",
      "    {\n",
      "      \"value\": \"0.03500000\",\n",
      "      \"n\": 4,\n",
      "      \"scriptPubKey\": {\n",
      "        \"asm\": \"0 475d024bb95e9a981632863d3b1a4b9308aa88e189196272735a3e3d47caf936\",\n",
      "        \"desc\": \"addr(bcrt1qgawsyjaet6dfs93jsc7nkxjtjvy24z8p3yvkyunntglr6372lymq8edt6d)#vxtm3r5t\",\n",
      "        \"hex\": \"0020475d024bb95e9a981632863d3b1a4b9308aa88e189196272735a3e3d47caf936\",\n",
      "        \"address\": \"bcrt1qgawsyjaet6dfs93jsc7nkxjtjvy24z8p3yvkyunntglr6372lymq8edt6d\",\n",
      "        \"type\": \"witness_v0_scripthash\"\n",
      "      }\n",
      "    }\n",
      "  ]\n",
      "}\n",
      "alice_commitment_tx_digest_preimage:  02000000c1d6d0f95c63a464bb5d919de766d0176aa4e33e4174d7aa115bc414eb870ad7c6067e2ccbba74d4f24cc174be97c1ea7514cf7a20d616fbc7587a48964b2c950dc4e1556a524d5b294a19f11fe9191c3581566b570e9274fab2d9f6128b335f0100000047522102245c997231079146616f70eae46dd43461b530cb55df50cac8ef321127adb96321032b057a643c7b928b7dc30e1f76c2a777a213fe3a7462215d10220844befe77c352ae404b4c0000000000fd33b480e458bb1b8fb86ac77a0469f19671a58e9b790954288f02e779e28d1142e05a886ca6432001000000\n",
      "bob_commitment_tx_digest_preimage:  02000000c1d6d0f95c63a464bb5d919de766d0176aa4e33e4174d7aa115bc414eb870ad7c6067e2ccbba74d4f24cc174be97c1ea7514cf7a20d616fbc7587a48964b2c950dc4e1556a524d5b294a19f11fe9191c3581566b570e9274fab2d9f6128b335f0100000047522102245c997231079146616f70eae46dd43461b530cb55df50cac8ef321127adb96321032b057a643c7b928b7dc30e1f76c2a777a213fe3a7462215d10220844befe77c352ae404b4c0000000000fd33b48081f691f3a1a09e8ef8831e1f5f94bbde79143db92325f5fc763ca140663099fe6ca6432001000000\n",
      "Alice Signed Commitment Transaction:  020000000001010dc4e1556a524d5b294a19f11fe9191c3581566b570e9274fab2d9f6128b335f0100000000fd33b480054a0100000000000022002034391c79ba78d594262aa91410f49d7200ef55e7551441659412aac47b543f044a0100000000000022002056680a199b598b249d54e3b24fbf5a629228af306e3f587e8ab1b65233a581c420a1070000000000220020e41c944136e30b377fc245c71e2cf603e115a968b5b16a59e6c26dc50f69d1a840420f0000000000220020439fd0fb44bb93e02a87b92851c9e377612166d8ce4af46eb9f82899a8e8323d5c19350000000000220020a740481499c3a13952f3c1aab5bf7e76d07908e8c576902c192131adfe007ad6040047304402201502ca6a6efbaf2e4affa4dcb0998bbdc3a18061fd53a4a184acded762daa368022023c76b490f0902fd27e605e7057c64b806e4faa2cf9408aebc302a1cd0c7a990014830450221009f30529bac2cf66ed7a442f894b2148f246992ebe81e649173e143916efd8b3c022059f8858b2293674acbe59f7eac6bf7d6145c81fb18742c3844613f3b7424651b0147522102245c997231079146616f70eae46dd43461b530cb55df50cac8ef321127adb96321032b057a643c7b928b7dc30e1f76c2a777a213fe3a7462215d10220844befe77c352ae6ca64320\n",
      "Bob Signed Commitment Transaction:  020000000001010dc4e1556a524d5b294a19f11fe9191c3581566b570e9274fab2d9f6128b335f0100000000fd33b480054a0100000000000022002034391c79ba78d594262aa91410f49d7200ef55e7551441659412aac47b543f044a0100000000000022002056680a199b598b249d54e3b24fbf5a629228af306e3f587e8ab1b65233a581c420a10700000000002200205083e7b1e0fba00f7d894d1ff9b8796bbc06d07c23f2d51c4d0bb3ef0a7ee40cdc941600000000002200209dfff11a6f74c6a55241ceab93d40f04d9377608accd4be44eedd1031183e845e067350000000000220020475d024bb95e9a981632863d3b1a4b9308aa88e189196272735a3e3d47caf936040047304402204057ce12c99099bbd880aed5807f0817590d8514c5f42056fcd3621d1c564c4702201339edb25368d78a0ad7dd6ca15252d11cccb02b56e6e663611649f6ddf20e3f01473044022078b636b65cc8e5d3492e8d05fd4fa7806d3ad5e34c0a91759b5319092d6192a802200db6f0a443f15293ca8bd0db419a8628e193e3f5ed2d7d942e18cea0d72ca2230147522102245c997231079146616f70eae46dd43461b530cb55df50cac8ef321127adb96321032b057a643c7b928b7dc30e1f76c2a777a213fe3a7462215d10220844befe77c352ae6ca64320\n",
      "[{'txid': 'd2337d42d82f259f7582cea6fd7ef43d4930d595ad4288e56c415d4fdafa022f', 'wtxid': 'a619f97de7619058fe925f24626d11a5bcab0a70f32b0599cb23ef04eb82b92a', 'allowed': True, 'vsize': 322, 'fees': {'base': Decimal('0.00019440'), 'effective-feerate': Decimal('0.00060372'), 'effective-includes': ['a619f97de7619058fe925f24626d11a5bcab0a70f32b0599cb23ef04eb82b92a']}}]\n",
      "[{'txid': 'e183686ca8f6e8c6b2faf3f70a9e1a45cbc2a98ccad8f2a50a96b0763e0bcf3b', 'wtxid': '2f91cf22096b0a388f63d4301cc4110c48287e5dbb0d47dd299664c67a478c8a', 'allowed': False, 'reject-reason': 'bad-txns-in-belowout'}]\n"
     ]
    }
   ],
   "source": [
    "# run notebook\n",
    "%run \"/home/pins-dev/Projects/lightning-tx-tutorial/Chapter 2 - Commitment Transactions/Commitment Transactions with HTLC in Transit.ipynb\""
   ]
  },
  {
   "cell_type": "code",
   "execution_count": null,
   "id": "83401989-0e1e-4002-80ea-0e2a3613353d",
   "metadata": {},
   "outputs": [],
   "source": []
  }
 ],
 "metadata": {
  "kernelspec": {
   "display_name": "Python 3 (ipykernel)",
   "language": "python",
   "name": "python3"
  },
  "language_info": {
   "codemirror_mode": {
    "name": "ipython",
    "version": 3
   },
   "file_extension": ".py",
   "mimetype": "text/x-python",
   "name": "python",
   "nbconvert_exporter": "python",
   "pygments_lexer": "ipython3",
   "version": "3.12.3"
  }
 },
 "nbformat": 4,
 "nbformat_minor": 5
}
