{
 "cells": [
  {
   "cell_type": "markdown",
   "id": "8c0cbe4a-2ea6-4cb8-a261-cd0f3f2030af",
   "metadata": {},
   "source": [
    "*** UNDER CONSTRUCTION ***"
   ]
  },
  {
   "cell_type": "markdown",
   "id": "3071aec5-5dd7-46a5-9e1c-0b6b35e868bc",
   "metadata": {},
   "source": [
    "# Sweeper Subsystem in a Lightning Node\n",
    "\n",
    "In the context of Bitcoin Lightning nodes, a Sweeper is a subsystem responsible for safely and efficiently spending on-chain outputs that:\n",
    "\n",
    "- Result from channel force closures\n",
    "    - Come from HTLCs\n",
    "    - Are timelocked outputs that require careful handling\n",
    "\n",
    "The sweeper ensures those funds are claimed before anyone else (e.g. a counterparty in a channel closure) can take them — especially important for **time-sensitive** outputs.\n",
    "\n",
    "A **sweeper system** in a Lightning node is responsible for securely and efficiently claiming on-chain funds, especially after channel closures or timeout events. When a Lightning channel force closes, the node might need to claim various outputs — like its balance or HTLCs — some of which are time-locked. The sweeper watches the blockchain and, once outputs become spendable, it creates and broadcasts transactions to sweep those funds back into the wallet, often batching multiple outputs to save on fees.\n",
    "\n",
    "For example, if you force-close a channel, your node might have to wait for a timelock (e.g., 144 blocks) before claiming an HTLC refund. The sweeper tracks this, and once it’s ready, it automatically crafts a transaction to claim that output. It can adjust fees dynamically, retry if needed, and rebroadcast until the sweep confirms — ensuring no funds are lost or left behind.\n",
    "\n",
    "##  Why is the Sweeper Important?\n",
    "\n",
    "### Security\n",
    "If you don't sweep certain outputs in time (like from a revoked commitment), you could lose funds.\n",
    "\n",
    "### Efficiency\n",
    "It can batch outputs into a single transaction to save on fees.\n",
    "\n",
    "### Fee Management\n",
    "Sweeper uses dynamic fee estimation and can rebroadcast if a tx gets stuck.\n",
    "\n",
    "### Timelocks & Scripts\n",
    "Some outputs can't be spent immediately (e.g., CSV delays), so the sweeper watches the blockchain and acts when they're available."
   ]
  },
  {
   "cell_type": "markdown",
   "id": "d82eff48-ab60-42ea-aa2a-5aa3732fa3f8",
   "metadata": {},
   "source": [
    "## Prerequisite knowledge\n",
    "### For all notebooks\n",
    "- A high level understanding of the bitcoin e.g. [Mastering Bitcoin](https://github.com/bitcoinbook/bitcoinbook), in particular [Chapter 6](https://github.com/bitcoinbook/bitcoinbook/blob/develop/ch06.asciidoc).\n",
    "- A conceptual understanding of [hash functions](https://www.thesslstore.com/blog/what-is-a-hash-function-in-cryptography-a-beginners-guide).\n",
    "- [Hexadecimal notation](https://inst.eecs.berkeley.edu/~cs61bl/r//cur/bits/decimal-binary-hex.html?topic=lab28.topic&step=2&course=) and [endianness](https://www.freecodecamp.org/news/what-is-endianness-big-endian-vs-little-endian/).\n",
    "- A high level understanding of the lightning e.g. [Mastering Lightning Network](https://github.com/lnbook/lnbook), in particular [Chapter7](https://github.com/lnbook/lnbook/blob/develop/07_payment_channels.asciidoc), [Chapter 8](https://github.com/lnbook/lnbook/blob/develop/08_routing_htlcs.asciidoc) and [Chapter 9](https://github.com/lnbook/lnbook/blob/develop/09_channel_operation.asciidoc).\n",
    "\n",
    "### Specific to this notebook\n",
    "- SHA256, HASH256, HASH160 - '[Hash Functions chapter](https://github.com/MPins/lightning-tx-tutorial/blob/main/appendix/hash-functions.ipynb)'\n",
    "- Bech32 addresses - '[Addresses chapter](https://github.com/MPins/lightning-tx-tutorial/blob/main/appendix/Addresses.ipynb)'\n",
    "- Bitcoin Script basics - '[Bitcoin Script chapter](https://github.com/MPins/lightning-tx-tutorial/blob/main/appendix/Bitcoin%20Script.ipynb)'\n",
    "- Lightning Network BOLT #2: '[Peer Protocol for Channel Management](https://github.com/lightning/bolts/blob/master/02-peer-protocol.md#channel-establishment-v1)'\n",
    "- Lightning Network BOLT #3: '[Commitment Transactions](https://github.com/lightning/bolts/blob/master/03-transactions.md#commitment-transaction)'\n",
    "- Finite Fields, Elliptic Curves and Serialization e.g. [Programming Bitcoin](https://github.com/jimmysong/programmingbitcoin), in particular [Chapter 1](https://github.com/jimmysong/programmingbitcoin/blob/master/ch01.asciidoc), [Chapter2](https://github.com/jimmysong/programmingbitcoin/blob/master/ch02.asciidoc), [Chapter 3](https://github.com/jimmysong/programmingbitcoin/blob/master/ch03.asciidoc) and [Chapter 4](https://github.com/jimmysong/programmingbitcoin/blob/master/ch04.asciidoc).\n",
    "\n",
    "## Setup\n",
    "### Requirements\n",
    "\n",
    "For this exercise we'll run the previous notebook to create the commitment transactions beetween with offer and received HTLC.\n",
    "\n",
    "**You'll need to edit these next line for your local setup.**"
   ]
  },
  {
   "cell_type": "code",
   "execution_count": 1,
   "id": "54aa22a8-3d78-4c05-ac56-398d7cf0ce9e",
   "metadata": {},
   "outputs": [
    {
     "name": "stdout",
     "output_type": "stream",
     "text": [
      "Alice Per Commitment Seed 34b581ec20bf2c6cae3d4d4dcbfddc8a3727a1e9a57c55f3520e770607898c06\n",
      "Bob Per Commitment Seed 89c994b3ddad4698acee71e42d8bcace48eea739caaba371eb110e77663ec56d\n",
      "Alice Revocation Basepoint Private Key: c17ac3952ca414190074d1e59ea03fbae253196173908dc8b131af6bd2cc8161\n",
      "Alice Revocation Basepoint Public Key: 03649c4f865bec74b0a186deef4defad51cfdc141443e38074ea05a7835a953a49\n",
      "Alice HTLC Basepoint Private Key: 763ae49a20e6668c88602c782716dd83ba6c4cc0333b38810e2bcd7b22c871ac\n",
      "Alice HTLC Basepoint Public Key: 02816fde4150e4dfcac94eff0b821448fb70f57a56148ba2206cd9b2fd0cc20bdf\n",
      "Alice Payment Basepoint Private Key: 72d8c12971b58076a1f27eb7938ca442f0b210762b23637443ac2e99dac352a6\n",
      "Alice Payment Basepoint Public Key: 025f892a06124391e2f38ce35d943cdc09f63e203330dbd9cb6113a903e0738458\n",
      "Alice Delayed Payment Basepoint Private Key: 7cafce00c54e7241894dcc7c3beaca29dd354139fdb6182198d6c5f1063bfe8d\n",
      "Alice Delayed Payment Basepoint Public Key: 034aa35219136bb238e072341b20a4bf8fb44a83cdb73dd2bd973c123ac2dfd7ff\n",
      "Bob Revocation Basepoint Private Key: fa526e09b9ff7425552db1803d7e12cf4475d060db4cfb812adb07219a54baa0\n",
      "Bob Revocation Basepoint Public Key: 02536407aada57068f30b53c4126062d235967c3636147433e72b21ff93c8acdbf\n",
      "Bob HTLC Basepoint Private Key: 06d61bb059eef194a3d223992a028fbd31f2e8b289d5a10acd343671c9322155\n",
      "Bob HTLC Basepoint Public Key: 0306b11436efa058a86f997df6596ea4579241f3909175772d77df38a5255f52f4\n",
      "Bob Payment Basepoint Private Key: 5046024e716c479599350b7aee8139304d942360733d8dd79793917f9e33a334\n",
      "Bob Payment Basepoint Public Key: 02f98efd3f2b2fbe7bd83c419f5f64f8280798b8a9175fdb77c0091bbb95c79506\n",
      "Bob Delayed Payment Basepoint Private Key: d764d4c083cac97d34913bdf123c3dfef5379db9e9b0652897783e0d01880bb3\n",
      "Bob Delayed Payment Basepoint Public Key: 032a5869ac5eb30ba1e9c9addd3740822dac6f45a8de9b3d4e171f14c3abce2dae\n",
      "Alice Funding Private Key: ccd60731893309bb59a6030a581fc80984fa96129e10cf8342c0b0b800ffb51c\n",
      "Alice Funding Public Key: 02245c997231079146616f70eae46dd43461b530cb55df50cac8ef321127adb963\n",
      "Alice Change Private Key: 6c2bda7af1291da770d0041794bbc891ac27c2fbe6a8a825a8f14f3b904b1f4e\n",
      "Alice Change Public Key: 02f0006732c6db9e73522b31168bda043cbf7759c46e553eae9dede26ccd08a39b\n",
      "Bob Funding Private Key: ca62b96f01783d13a48be4e8a2ca9c48093f62b64537d4c3c33d45d7cb53a0a7\n",
      "Bob Funding Public Key: 032b057a643c7b928b7dc30e1f76c2a777a213fe3a7462215d10220844befe77c3\n",
      "Alice's funding p2wpkh address: bcrt1qt0vq5dj8qa720lfx3hhzyu9ygsng9js3g02lnl\n",
      "Alice's change p2wpkh address: bcrt1qt6ax8rh20h6zts0dcqmzdy9kte3pds4lrzwl6s\n",
      "2025-04-22T22:11:30.768000Z TestFramework (INFO): PRNG seed is: 1575928118795830685\n",
      "2025-04-22T22:11:30.770000Z TestFramework (INFO): Initializing test directory /tmp/bitcoin_func_test_e55qef_n\n",
      "txid_to_spent: ae6d51490d39d5c39ae00bdec64bace28126ee621edc249729f73c4519ab4002, 1\n",
      "Alice pubkey is lexicographically lesser than Bob pubkey:\n",
      "02245c997231079146616f70eae46dd43461b530cb55df50cac8ef321127adb963 < 032b057a643c7b928b7dc30e1f76c2a777a213fe3a7462215d10220844befe77c3\n",
      "Redeem Script:\n",
      "522102245c997231079146616f70eae46dd43461b530cb55df50cac8ef321127adb96321032b057a643c7b928b7dc30e1f76c2a777a213fe3a7462215d10220844befe77c352ae\n",
      "channel_address:  bcrt1qhsn37ekwjgxlajuavyzne28yrahkyesgnr6qhxvzlw3807ttcjeqhcl6mc\n",
      "unsigned_channel_funding_tx:  02000000010240ab19453cf7299724dc1e62ee2681e2ac4bc6de0be09ac3d5390d49516dae0100000000ffffffff02c0e1e400000000001600145eba638eea7df425c1edc0362690b65e6216c2bf404b4c0000000000220020bc271f66ce920dfecb9d61053ca8e41f6f62660898f40b9982fba277f96bc4b200000000\n",
      "{\n",
      "  \"txid\": \"5895c67f8c69e7f4c39d2a96d42f7b6a495c312d4894b0a3e24bb6668e48b8fe\",\n",
      "  \"hash\": \"5895c67f8c69e7f4c39d2a96d42f7b6a495c312d4894b0a3e24bb6668e48b8fe\",\n",
      "  \"version\": 2,\n",
      "  \"size\": 125,\n",
      "  \"vsize\": 125,\n",
      "  \"weight\": 500,\n",
      "  \"locktime\": 0,\n",
      "  \"vin\": [\n",
      "    {\n",
      "      \"txid\": \"ae6d51490d39d5c39ae00bdec64bace28126ee621edc249729f73c4519ab4002\",\n",
      "      \"vout\": 1,\n",
      "      \"scriptSig\": {\n",
      "        \"asm\": \"\",\n",
      "        \"hex\": \"\"\n",
      "      },\n",
      "      \"sequence\": 4294967295\n",
      "    }\n",
      "  ],\n",
      "  \"vout\": [\n",
      "    {\n",
      "      \"value\": \"0.15000000\",\n",
      "      \"n\": 0,\n",
      "      \"scriptPubKey\": {\n",
      "        \"asm\": \"0 5eba638eea7df425c1edc0362690b65e6216c2bf\",\n",
      "        \"desc\": \"addr(bcrt1qt6ax8rh20h6zts0dcqmzdy9kte3pds4lrzwl6s)#s9wdm0cm\",\n",
      "        \"hex\": \"00145eba638eea7df425c1edc0362690b65e6216c2bf\",\n",
      "        \"address\": \"bcrt1qt6ax8rh20h6zts0dcqmzdy9kte3pds4lrzwl6s\",\n",
      "        \"type\": \"witness_v0_keyhash\"\n",
      "      }\n",
      "    },\n",
      "    {\n",
      "      \"value\": \"0.05000000\",\n",
      "      \"n\": 1,\n",
      "      \"scriptPubKey\": {\n",
      "        \"asm\": \"0 bc271f66ce920dfecb9d61053ca8e41f6f62660898f40b9982fba277f96bc4b2\",\n",
      "        \"desc\": \"addr(bcrt1qhsn37ekwjgxlajuavyzne28yrahkyesgnr6qhxvzlw3807ttcjeqhcl6mc)#q3fvp06p\",\n",
      "        \"hex\": \"0020bc271f66ce920dfecb9d61053ca8e41f6f62660898f40b9982fba277f96bc4b2\",\n",
      "        \"address\": \"bcrt1qhsn37ekwjgxlajuavyzne28yrahkyesgnr6qhxvzlw3807ttcjeqhcl6mc\",\n",
      "        \"type\": \"witness_v0_scripthash\"\n",
      "      }\n",
      "    }\n",
      "  ]\n",
      "}\n",
      "tx_digest_preimage:  020000003a9ccb37a836462768a1abded4eddd1ec704e469acf5f9bec8c0f62a1271e13d3bb13029ce7b1f559ef5e747fcac439f1455a2ec7c5f09b72290795e706650440240ab19453cf7299724dc1e62ee2681e2ac4bc6de0be09ac3d5390d49516dae010000001976a9145bd80a3647077ca7fd268dee2270a4442682ca1188aca0b3320100000000fffffffff024a453c206730b975be44da5987693c127c508aada9aabadc9455fb74b5fc60000000001000000\n",
      "Channel Funding Signed Transaction:  020000000001010240ab19453cf7299724dc1e62ee2681e2ac4bc6de0be09ac3d5390d49516dae0100000000ffffffff02c0e1e400000000001600145eba638eea7df425c1edc0362690b65e6216c2bf404b4c0000000000220020bc271f66ce920dfecb9d61053ca8e41f6f62660898f40b9982fba277f96bc4b202483045022100c6ee4bb49c55c015591d7de405c641c75b8dc38f6f892cd9587e71d37221bcf202202285f755c65e6abbb7ee6db5ebfd5c2f63892c89f0faa36ff77716ba9bf599d5012102245c997231079146616f70eae46dd43461b530cb55df50cac8ef321127adb96300000000\n",
      "[{'txid': '5895c67f8c69e7f4c39d2a96d42f7b6a495c312d4894b0a3e24bb6668e48b8fe', 'wtxid': 'c356d5902a48ac9129a7b706c0325196985ca471d591279f2a5901e36c577be6', 'allowed': True, 'vsize': 153, 'fees': {'base': Decimal('0.00100000'), 'effective-feerate': Decimal('0.00653594'), 'effective-includes': ['c356d5902a48ac9129a7b706c0325196985ca471d591279f2a5901e36c577be6']}}]\n",
      "Alice First Per Commitment Secret: 739d879e3b2502146546b9d6d51b1e05feb362397b7cf7ba13c7719b0a889dd9\n",
      "Alice First Per Commitment Point: 0368081a0a30ec118e662b71d222c383c5c9f495b4821fd0252452abf659250237\n",
      "Bob First Per Commitment Secret: 203f2c3e5cd6004ef0ea26e82c2ffeb2dc80036cedca92c210010cd73facd38a\n",
      "Bob First Per Commitment Point: 03ac685c74c0970c62f0e69ad332b6a5f6d61d3650128ef2a18e011cfd28d177b4\n",
      "Commitment Number Obscured: 0xb433fd43a66f\n",
      "Inputs: feb8488e66b64be2a3b094482d315c496a7b2fd4962a9dc3f4e7698c7fc695580100000000fd33b480\n",
      "Alice Delayed Pubkey: 03d6363615b3d00361158c0f48a4ef81ea12e214e8d56e24098759f6b4267dca8b\n",
      "Bob Revocation Pubkey: 03a0596fefba4b53489629115e8b360a95b900f1884306edb98428d5377478b9ac\n",
      "Alice Anchor Output SPK: 002034391c79ba78d594262aa91410f49d7200ef55e7551441659412aac47b543f04\n",
      "Alice Delayed Output SPK: 002010af48dee0428972563ba131e3d8aa35fd92537953d4755a84bc2a09c2bb53a5\n",
      "Alice Remote Output SPK: 0020f0447296bbb031d3f362b223a0ba7281bfcfeca9061820c9bdee400411fc01be\n",
      "Unsigned Alice Commitment Transaction:  0200000001feb8488e66b64be2a3b094482d315c496a7b2fd4962a9dc3f4e7698c7fc695580100000000fd33b480024a0100000000000022002034391c79ba78d594262aa91410f49d7200ef55e7551441659412aac47b543f041a084c000000000022002010af48dee0428972563ba131e3d8aa35fd92537953d4755a84bc2a09c2bb53a56fa64320\n",
      "Unsigned Bob Commitment Transaction:  0200000001feb8488e66b64be2a3b094482d315c496a7b2fd4962a9dc3f4e7698c7fc695580100000000fd33b480024a0100000000000022002034391c79ba78d594262aa91410f49d7200ef55e7551441659412aac47b543f041a084c0000000000220020f0447296bbb031d3f362b223a0ba7281bfcfeca9061820c9bdee400411fc01be6fa64320\n",
      "alice_tx_digest_preimage:  020000002579e7ed056b8a89828f0f34ed108c07ff3e6f9f4ac938e10e4eee4970ac5b23c6067e2ccbba74d4f24cc174be97c1ea7514cf7a20d616fbc7587a48964b2c95feb8488e66b64be2a3b094482d315c496a7b2fd4962a9dc3f4e7698c7fc695580100000047522102245c997231079146616f70eae46dd43461b530cb55df50cac8ef321127adb96321032b057a643c7b928b7dc30e1f76c2a777a213fe3a7462215d10220844befe77c352ae404b4c0000000000fd33b48095e26024f731d6ea5e1e1698c7a24bcb4453535c9f06b0e5cbeb259a12693f096fa6432001000000\n",
      "bob_tx_digest_preimage:  020000002579e7ed056b8a89828f0f34ed108c07ff3e6f9f4ac938e10e4eee4970ac5b23c6067e2ccbba74d4f24cc174be97c1ea7514cf7a20d616fbc7587a48964b2c95feb8488e66b64be2a3b094482d315c496a7b2fd4962a9dc3f4e7698c7fc695580100000047522102245c997231079146616f70eae46dd43461b530cb55df50cac8ef321127adb96321032b057a643c7b928b7dc30e1f76c2a777a213fe3a7462215d10220844befe77c352ae404b4c0000000000fd33b480cb541070b4f791ea30c33859048fe351357b6e71305de479d36b3b6dfd7c41396fa6432001000000\n",
      "Alice Unsigned Commitment transaction\n",
      "{\n",
      "  \"txid\": \"1f4172f2686672c7d95850d6ed753aec59fb3847bd57ae574f62f37865efa055\",\n",
      "  \"hash\": \"1f4172f2686672c7d95850d6ed753aec59fb3847bd57ae574f62f37865efa055\",\n",
      "  \"version\": 2,\n",
      "  \"size\": 137,\n",
      "  \"vsize\": 137,\n",
      "  \"weight\": 548,\n",
      "  \"locktime\": 541304431,\n",
      "  \"vin\": [\n",
      "    {\n",
      "      \"txid\": \"5895c67f8c69e7f4c39d2a96d42f7b6a495c312d4894b0a3e24bb6668e48b8fe\",\n",
      "      \"vout\": 1,\n",
      "      \"scriptSig\": {\n",
      "        \"asm\": \"\",\n",
      "        \"hex\": \"\"\n",
      "      },\n",
      "      \"sequence\": 2159293437\n",
      "    }\n",
      "  ],\n",
      "  \"vout\": [\n",
      "    {\n",
      "      \"value\": \"0.00000330\",\n",
      "      \"n\": 0,\n",
      "      \"scriptPubKey\": {\n",
      "        \"asm\": \"0 34391c79ba78d594262aa91410f49d7200ef55e7551441659412aac47b543f04\",\n",
      "        \"desc\": \"addr(bcrt1qxsu3c7d60r2egf324y2ppayawgqw7408252yzev5z24vg7658uzqwq2zs5)#62txjpcp\",\n",
      "        \"hex\": \"002034391c79ba78d594262aa91410f49d7200ef55e7551441659412aac47b543f04\",\n",
      "        \"address\": \"bcrt1qxsu3c7d60r2egf324y2ppayawgqw7408252yzev5z24vg7658uzqwq2zs5\",\n",
      "        \"type\": \"witness_v0_scripthash\"\n",
      "      }\n",
      "    },\n",
      "    {\n",
      "      \"value\": \"0.04982810\",\n",
      "      \"n\": 1,\n",
      "      \"scriptPubKey\": {\n",
      "        \"asm\": \"0 10af48dee0428972563ba131e3d8aa35fd92537953d4755a84bc2a09c2bb53a5\",\n",
      "        \"desc\": \"addr(bcrt1qzzh53hhqg2yhy43m5yc78k92xh7ey5me20282k5yhs4qns4m2wjsfkpzye)#fhg3my0v\",\n",
      "        \"hex\": \"002010af48dee0428972563ba131e3d8aa35fd92537953d4755a84bc2a09c2bb53a5\",\n",
      "        \"address\": \"bcrt1qzzh53hhqg2yhy43m5yc78k92xh7ey5me20282k5yhs4qns4m2wjsfkpzye\",\n",
      "        \"type\": \"witness_v0_scripthash\"\n",
      "      }\n",
      "    }\n",
      "  ]\n",
      "}\n",
      "Bob Unsigned Commitment transaction\n",
      "{\n",
      "  \"txid\": \"f6346f99c983abb575b07cb3811bfb082a3116dad541716085ee6ef7074d263b\",\n",
      "  \"hash\": \"f6346f99c983abb575b07cb3811bfb082a3116dad541716085ee6ef7074d263b\",\n",
      "  \"version\": 2,\n",
      "  \"size\": 137,\n",
      "  \"vsize\": 137,\n",
      "  \"weight\": 548,\n",
      "  \"locktime\": 541304431,\n",
      "  \"vin\": [\n",
      "    {\n",
      "      \"txid\": \"5895c67f8c69e7f4c39d2a96d42f7b6a495c312d4894b0a3e24bb6668e48b8fe\",\n",
      "      \"vout\": 1,\n",
      "      \"scriptSig\": {\n",
      "        \"asm\": \"\",\n",
      "        \"hex\": \"\"\n",
      "      },\n",
      "      \"sequence\": 2159293437\n",
      "    }\n",
      "  ],\n",
      "  \"vout\": [\n",
      "    {\n",
      "      \"value\": \"0.00000330\",\n",
      "      \"n\": 0,\n",
      "      \"scriptPubKey\": {\n",
      "        \"asm\": \"0 34391c79ba78d594262aa91410f49d7200ef55e7551441659412aac47b543f04\",\n",
      "        \"desc\": \"addr(bcrt1qxsu3c7d60r2egf324y2ppayawgqw7408252yzev5z24vg7658uzqwq2zs5)#62txjpcp\",\n",
      "        \"hex\": \"002034391c79ba78d594262aa91410f49d7200ef55e7551441659412aac47b543f04\",\n",
      "        \"address\": \"bcrt1qxsu3c7d60r2egf324y2ppayawgqw7408252yzev5z24vg7658uzqwq2zs5\",\n",
      "        \"type\": \"witness_v0_scripthash\"\n",
      "      }\n",
      "    },\n",
      "    {\n",
      "      \"value\": \"0.04982810\",\n",
      "      \"n\": 1,\n",
      "      \"scriptPubKey\": {\n",
      "        \"asm\": \"0 f0447296bbb031d3f362b223a0ba7281bfcfeca9061820c9bdee400411fc01be\",\n",
      "        \"desc\": \"addr(bcrt1q7pz8994mkqca8umzkg36pwnjsxlulm9fqcvzpjdaaeqqgy0uqxlqphvsda)#f8xgy4gn\",\n",
      "        \"hex\": \"0020f0447296bbb031d3f362b223a0ba7281bfcfeca9061820c9bdee400411fc01be\",\n",
      "        \"address\": \"bcrt1q7pz8994mkqca8umzkg36pwnjsxlulm9fqcvzpjdaaeqqgy0uqxlqphvsda\",\n",
      "        \"type\": \"witness_v0_scripthash\"\n",
      "      }\n",
      "    }\n",
      "  ]\n",
      "}\n",
      "Alice Signed Commitment Transaction:  02000000000101feb8488e66b64be2a3b094482d315c496a7b2fd4962a9dc3f4e7698c7fc695580100000000fd33b480024a0100000000000022002034391c79ba78d594262aa91410f49d7200ef55e7551441659412aac47b543f041a084c000000000022002010af48dee0428972563ba131e3d8aa35fd92537953d4755a84bc2a09c2bb53a50400473044022025b2b1941bafbb721d3a848bd50c3da46bc88fda0d8124a76265ad885c95a9ec0220705628c121057f270b548a49f7e3c0b23bea0f16017949d5870f94b76c1c2c3601483045022100b9d5b3a6516ca37fd8571651c49bfb20505cd891a3460547a394fa92afb0053f022065be888b88da59debee1bfcbc8e3c97480774de5675a47942f264041e435cad90147522102245c997231079146616f70eae46dd43461b530cb55df50cac8ef321127adb96321032b057a643c7b928b7dc30e1f76c2a777a213fe3a7462215d10220844befe77c352ae6fa64320\n",
      "Bob Signed Commitment Transaction:  02000000000101feb8488e66b64be2a3b094482d315c496a7b2fd4962a9dc3f4e7698c7fc695580100000000fd33b480024a0100000000000022002034391c79ba78d594262aa91410f49d7200ef55e7551441659412aac47b543f041a084c0000000000220020f0447296bbb031d3f362b223a0ba7281bfcfeca9061820c9bdee400411fc01be0400483045022100e5aeac52c4bddc9ed939c4429d07ec7fee6b2e4cb29ed961c4d56604d2b650720220541b8df598a87a5506a93366b9736aa00e7673c69234bf24e2062cc5d074e8120147304402201347da513ff5dc00600abbe61cf41a4179b9a8db0899832b03780999d252707f022038eb63ed68cec1a43fed2eaed1e28075fe20c1beb6731d4a2f85a07167ebcafb0147522102245c997231079146616f70eae46dd43461b530cb55df50cac8ef321127adb96321032b057a643c7b928b7dc30e1f76c2a777a213fe3a7462215d10220844befe77c352ae6fa64320\n",
      "[{'txid': '1f4172f2686672c7d95850d6ed753aec59fb3847bd57ae574f62f37865efa055', 'wtxid': 'cabeb2de215a0de76e2178d4f700e208cb8736704ed4cb2c36057125bd4d847b', 'allowed': True, 'vsize': 193, 'fees': {'base': Decimal('0.00016860'), 'effective-feerate': Decimal('0.00087357'), 'effective-includes': ['cabeb2de215a0de76e2178d4f700e208cb8736704ed4cb2c36057125bd4d847b']}}]\n",
      "[{'txid': 'f6346f99c983abb575b07cb3811bfb082a3116dad541716085ee6ef7074d263b', 'wtxid': 'b0a158e128ac4555aea31d9c3ad01336c11635b3730a81b4104facf28e91e04d', 'allowed': True, 'vsize': 193, 'fees': {'base': Decimal('0.00016860'), 'effective-feerate': Decimal('0.00087357'), 'effective-includes': ['b0a158e128ac4555aea31d9c3ad01336c11635b3730a81b4104facf28e91e04d']}}]\n",
      "Commitment Number Obscured: 0xb433fd43a66c\n",
      "Inputs: feb8488e66b64be2a3b094482d315c496a7b2fd4962a9dc3f4e7698c7fc695580100000000fd33b480\n",
      "Alice Per Commitment Secret: 7d474813d764ca1273ad85e3f36ca1926401a8f76e576533f0232801c96af14d\n",
      "Alice Per Commitment Point: 028a29fc294e5cc904c607cbe2d66bc3e3f0d5131ba3f9085eb01b25df0a5bdd4a\n",
      "Bob Per Commitment Secret: 3dec4e412d557115ad23549b60f2bb4fc8a1215bead2c8ade3ed2cf1d10450da\n",
      "Bob Per Commitment Point: 0267c6f101ca3ffa7d9e2aba0ca51e63af33a7b88b19e80a04a2deb9807447e963\n",
      "Alice Delayed Pubkey: 03eb397e72815b5221b63d2564593465b45c9f7fa6da6944e1371974557d2682fa\n",
      "Bob Delayed Pubkey: 02422c467da01480bef0191075e8823724ebb84b1a8fc502ca1e63d881ae723a4e\n",
      "Alice HTLC Pubkey: 03f020b85b2f600cdba67ecb33ed2ed09bf1c0a0e67e839a9ca70766049a5f3298\n",
      "Bob HTLC Pubkey: 03f0ce4fe88d9e1d79c449ced61ee6cfc9280b3e424a48f952667b7fd73a299aa1\n",
      "Bob Revocation Pubkey: 02e4c80557ad85389977e48fc2720c13a7d913885c2c58b3abfc298b3d437a7988\n",
      "Alice Revocation Pubkey: 0223a5d50c90727bb8a4e9c0c3746ae39f774f3a43867fd8f6e9b0bdc2989806a2\n",
      "Alice Anchor Output SPK: 002034391c79ba78d594262aa91410f49d7200ef55e7551441659412aac47b543f04\n",
      "Bob Anchor Output SPK: 002056680a199b598b249d54e3b24fbf5a629228af306e3f587e8ab1b65233a581c4\n",
      "Alice Offered htlc Output SPK: 00205337b1739305e8759631da30a34bd30ebb1379b484f3216a237ad009d21ded74\n",
      "Bob Remote Output SPK: 0020439fd0fb44bb93e02a87b92851c9e377612166d8ce4af46eb9f82899a8e8323d\n",
      "Alice Delayed Output SPK: 0020978f0c6d76e9a391a84ab6385c34d6cc8dcafdc624523ede9241b8cc2211eb76\n",
      "Bob Received htlc Output SPK: 00208fa0be377a59c48a6aab40e5113359cde211c18cd721a5e4a1572b4cb3eea1f5\n",
      "Bob Delayed Output SPK: 0020a1574ee61ea7a53637edb0038c79d979a78c1603b3a318d185936cb59e19670a\n",
      "Alice Remote Output SPK: 0020475d024bb95e9a981632863d3b1a4b9308aa88e189196272735a3e3d47caf936\n",
      "TXID : 272ba48729beab497f6eba3f451a82d5fd0c2b895bbeb9201c9f9ca0f51578d2\n",
      "Unsigned Alice Commitment Transaction:  0200000001feb8488e66b64be2a3b094482d315c496a7b2fd4962a9dc3f4e7698c7fc695580100000000fd33b480054a0100000000000022002034391c79ba78d594262aa91410f49d7200ef55e7551441659412aac47b543f044a0100000000000022002056680a199b598b249d54e3b24fbf5a629228af306e3f587e8ab1b65233a581c420a10700000000002200205337b1739305e8759631da30a34bd30ebb1379b484f3216a237ad009d21ded7440420f0000000000220020439fd0fb44bb93e02a87b92851c9e377612166d8ce4af46eb9f82899a8e8323d5c19350000000000220020978f0c6d76e9a391a84ab6385c34d6cc8dcafdc624523ede9241b8cc2211eb766ca64320\n",
      "Unsigned Bob Commitment Transaction:  0200000001feb8488e66b64be2a3b094482d315c496a7b2fd4962a9dc3f4e7698c7fc695580100000000fd33b480054a0100000000000022002034391c79ba78d594262aa91410f49d7200ef55e7551441659412aac47b543f044a0100000000000022002056680a199b598b249d54e3b24fbf5a629228af306e3f587e8ab1b65233a581c420a10700000000002200208fa0be377a59c48a6aab40e5113359cde211c18cd721a5e4a1572b4cb3eea1f540420f0000000000220020a1574ee61ea7a53637edb0038c79d979a78c1603b3a318d185936cb59e19670a5c19350000000000220020475d024bb95e9a981632863d3b1a4b9308aa88e189196272735a3e3d47caf9366ca64320\n",
      "Alice Unsigned Commitment transaction\n",
      "{\n",
      "  \"txid\": \"d27815f5a09c9f1c20b9be5b892b0cfdd5821a453fba6e7f49abbe2987a42b27\",\n",
      "  \"hash\": \"d27815f5a09c9f1c20b9be5b892b0cfdd5821a453fba6e7f49abbe2987a42b27\",\n",
      "  \"version\": 2,\n",
      "  \"size\": 266,\n",
      "  \"vsize\": 266,\n",
      "  \"weight\": 1064,\n",
      "  \"locktime\": 541304428,\n",
      "  \"vin\": [\n",
      "    {\n",
      "      \"txid\": \"5895c67f8c69e7f4c39d2a96d42f7b6a495c312d4894b0a3e24bb6668e48b8fe\",\n",
      "      \"vout\": 1,\n",
      "      \"scriptSig\": {\n",
      "        \"asm\": \"\",\n",
      "        \"hex\": \"\"\n",
      "      },\n",
      "      \"sequence\": 2159293437\n",
      "    }\n",
      "  ],\n",
      "  \"vout\": [\n",
      "    {\n",
      "      \"value\": \"0.00000330\",\n",
      "      \"n\": 0,\n",
      "      \"scriptPubKey\": {\n",
      "        \"asm\": \"0 34391c79ba78d594262aa91410f49d7200ef55e7551441659412aac47b543f04\",\n",
      "        \"desc\": \"addr(bcrt1qxsu3c7d60r2egf324y2ppayawgqw7408252yzev5z24vg7658uzqwq2zs5)#62txjpcp\",\n",
      "        \"hex\": \"002034391c79ba78d594262aa91410f49d7200ef55e7551441659412aac47b543f04\",\n",
      "        \"address\": \"bcrt1qxsu3c7d60r2egf324y2ppayawgqw7408252yzev5z24vg7658uzqwq2zs5\",\n",
      "        \"type\": \"witness_v0_scripthash\"\n",
      "      }\n",
      "    },\n",
      "    {\n",
      "      \"value\": \"0.00000330\",\n",
      "      \"n\": 1,\n",
      "      \"scriptPubKey\": {\n",
      "        \"asm\": \"0 56680a199b598b249d54e3b24fbf5a629228af306e3f587e8ab1b65233a581c4\",\n",
      "        \"desc\": \"addr(bcrt1q2e5q5xvmtx9jf825uweyl066v2fz3tesdcl4sl52kxm9yva9s8zq9pw5mq)#z5wzum6e\",\n",
      "        \"hex\": \"002056680a199b598b249d54e3b24fbf5a629228af306e3f587e8ab1b65233a581c4\",\n",
      "        \"address\": \"bcrt1q2e5q5xvmtx9jf825uweyl066v2fz3tesdcl4sl52kxm9yva9s8zq9pw5mq\",\n",
      "        \"type\": \"witness_v0_scripthash\"\n",
      "      }\n",
      "    },\n",
      "    {\n",
      "      \"value\": \"0.00500000\",\n",
      "      \"n\": 2,\n",
      "      \"scriptPubKey\": {\n",
      "        \"asm\": \"0 5337b1739305e8759631da30a34bd30ebb1379b484f3216a237ad009d21ded74\",\n",
      "        \"desc\": \"addr(bcrt1q2vmmzuunqh58t933mgc2xj7np6a3x7d5snejz63r0tgqn5saa46qkj4mpn)#0504nl0g\",\n",
      "        \"hex\": \"00205337b1739305e8759631da30a34bd30ebb1379b484f3216a237ad009d21ded74\",\n",
      "        \"address\": \"bcrt1q2vmmzuunqh58t933mgc2xj7np6a3x7d5snejz63r0tgqn5saa46qkj4mpn\",\n",
      "        \"type\": \"witness_v0_scripthash\"\n",
      "      }\n",
      "    },\n",
      "    {\n",
      "      \"value\": \"0.01000000\",\n",
      "      \"n\": 3,\n",
      "      \"scriptPubKey\": {\n",
      "        \"asm\": \"0 439fd0fb44bb93e02a87b92851c9e377612166d8ce4af46eb9f82899a8e8323d\",\n",
      "        \"desc\": \"addr(bcrt1qgw0ap76yhwf7q258hy59rj0rwasjzekcee90gm4elq5fn28gxg7sj0rdmv)#6a82l2ar\",\n",
      "        \"hex\": \"0020439fd0fb44bb93e02a87b92851c9e377612166d8ce4af46eb9f82899a8e8323d\",\n",
      "        \"address\": \"bcrt1qgw0ap76yhwf7q258hy59rj0rwasjzekcee90gm4elq5fn28gxg7sj0rdmv\",\n",
      "        \"type\": \"witness_v0_scripthash\"\n",
      "      }\n",
      "    },\n",
      "    {\n",
      "      \"value\": \"0.03479900\",\n",
      "      \"n\": 4,\n",
      "      \"scriptPubKey\": {\n",
      "        \"asm\": \"0 978f0c6d76e9a391a84ab6385c34d6cc8dcafdc624523ede9241b8cc2211eb76\",\n",
      "        \"desc\": \"addr(bcrt1qj78scmtkax3er2z2kcu9cdxkejxu4lwxy3frah5jgxuvcgs3admqdd0pwu)#j92lqkdq\",\n",
      "        \"hex\": \"0020978f0c6d76e9a391a84ab6385c34d6cc8dcafdc624523ede9241b8cc2211eb76\",\n",
      "        \"address\": \"bcrt1qj78scmtkax3er2z2kcu9cdxkejxu4lwxy3frah5jgxuvcgs3admqdd0pwu\",\n",
      "        \"type\": \"witness_v0_scripthash\"\n",
      "      }\n",
      "    }\n",
      "  ]\n",
      "}\n",
      "Bob Unsigned Commitment transaction\n",
      "{\n",
      "  \"txid\": \"49dfe2b3fdd8a7183500a4506a728e811c5bd09acfd17940a35ad4e01467eb52\",\n",
      "  \"hash\": \"49dfe2b3fdd8a7183500a4506a728e811c5bd09acfd17940a35ad4e01467eb52\",\n",
      "  \"version\": 2,\n",
      "  \"size\": 266,\n",
      "  \"vsize\": 266,\n",
      "  \"weight\": 1064,\n",
      "  \"locktime\": 541304428,\n",
      "  \"vin\": [\n",
      "    {\n",
      "      \"txid\": \"5895c67f8c69e7f4c39d2a96d42f7b6a495c312d4894b0a3e24bb6668e48b8fe\",\n",
      "      \"vout\": 1,\n",
      "      \"scriptSig\": {\n",
      "        \"asm\": \"\",\n",
      "        \"hex\": \"\"\n",
      "      },\n",
      "      \"sequence\": 2159293437\n",
      "    }\n",
      "  ],\n",
      "  \"vout\": [\n",
      "    {\n",
      "      \"value\": \"0.00000330\",\n",
      "      \"n\": 0,\n",
      "      \"scriptPubKey\": {\n",
      "        \"asm\": \"0 34391c79ba78d594262aa91410f49d7200ef55e7551441659412aac47b543f04\",\n",
      "        \"desc\": \"addr(bcrt1qxsu3c7d60r2egf324y2ppayawgqw7408252yzev5z24vg7658uzqwq2zs5)#62txjpcp\",\n",
      "        \"hex\": \"002034391c79ba78d594262aa91410f49d7200ef55e7551441659412aac47b543f04\",\n",
      "        \"address\": \"bcrt1qxsu3c7d60r2egf324y2ppayawgqw7408252yzev5z24vg7658uzqwq2zs5\",\n",
      "        \"type\": \"witness_v0_scripthash\"\n",
      "      }\n",
      "    },\n",
      "    {\n",
      "      \"value\": \"0.00000330\",\n",
      "      \"n\": 1,\n",
      "      \"scriptPubKey\": {\n",
      "        \"asm\": \"0 56680a199b598b249d54e3b24fbf5a629228af306e3f587e8ab1b65233a581c4\",\n",
      "        \"desc\": \"addr(bcrt1q2e5q5xvmtx9jf825uweyl066v2fz3tesdcl4sl52kxm9yva9s8zq9pw5mq)#z5wzum6e\",\n",
      "        \"hex\": \"002056680a199b598b249d54e3b24fbf5a629228af306e3f587e8ab1b65233a581c4\",\n",
      "        \"address\": \"bcrt1q2e5q5xvmtx9jf825uweyl066v2fz3tesdcl4sl52kxm9yva9s8zq9pw5mq\",\n",
      "        \"type\": \"witness_v0_scripthash\"\n",
      "      }\n",
      "    },\n",
      "    {\n",
      "      \"value\": \"0.00500000\",\n",
      "      \"n\": 2,\n",
      "      \"scriptPubKey\": {\n",
      "        \"asm\": \"0 8fa0be377a59c48a6aab40e5113359cde211c18cd721a5e4a1572b4cb3eea1f5\",\n",
      "        \"desc\": \"addr(bcrt1q37studm6t8zg564tgrj3zv6eeh3prsvv6us6te9p2u45evlw586sr07gnx)#v87p30l4\",\n",
      "        \"hex\": \"00208fa0be377a59c48a6aab40e5113359cde211c18cd721a5e4a1572b4cb3eea1f5\",\n",
      "        \"address\": \"bcrt1q37studm6t8zg564tgrj3zv6eeh3prsvv6us6te9p2u45evlw586sr07gnx\",\n",
      "        \"type\": \"witness_v0_scripthash\"\n",
      "      }\n",
      "    },\n",
      "    {\n",
      "      \"value\": \"0.01000000\",\n",
      "      \"n\": 3,\n",
      "      \"scriptPubKey\": {\n",
      "        \"asm\": \"0 a1574ee61ea7a53637edb0038c79d979a78c1603b3a318d185936cb59e19670a\",\n",
      "        \"desc\": \"addr(bcrt1q59t5aes757jnvdldkqpcc7we0xncc9srkw3335v9jdktt8sevu9qx7tnlf)#7njej5k9\",\n",
      "        \"hex\": \"0020a1574ee61ea7a53637edb0038c79d979a78c1603b3a318d185936cb59e19670a\",\n",
      "        \"address\": \"bcrt1q59t5aes757jnvdldkqpcc7we0xncc9srkw3335v9jdktt8sevu9qx7tnlf\",\n",
      "        \"type\": \"witness_v0_scripthash\"\n",
      "      }\n",
      "    },\n",
      "    {\n",
      "      \"value\": \"0.03479900\",\n",
      "      \"n\": 4,\n",
      "      \"scriptPubKey\": {\n",
      "        \"asm\": \"0 475d024bb95e9a981632863d3b1a4b9308aa88e189196272735a3e3d47caf936\",\n",
      "        \"desc\": \"addr(bcrt1qgawsyjaet6dfs93jsc7nkxjtjvy24z8p3yvkyunntglr6372lymq8edt6d)#vxtm3r5t\",\n",
      "        \"hex\": \"0020475d024bb95e9a981632863d3b1a4b9308aa88e189196272735a3e3d47caf936\",\n",
      "        \"address\": \"bcrt1qgawsyjaet6dfs93jsc7nkxjtjvy24z8p3yvkyunntglr6372lymq8edt6d\",\n",
      "        \"type\": \"witness_v0_scripthash\"\n",
      "      }\n",
      "    }\n",
      "  ]\n",
      "}\n",
      "alice_commitment_tx_digest_preimage:  020000002579e7ed056b8a89828f0f34ed108c07ff3e6f9f4ac938e10e4eee4970ac5b23c6067e2ccbba74d4f24cc174be97c1ea7514cf7a20d616fbc7587a48964b2c95feb8488e66b64be2a3b094482d315c496a7b2fd4962a9dc3f4e7698c7fc695580100000047522102245c997231079146616f70eae46dd43461b530cb55df50cac8ef321127adb96321032b057a643c7b928b7dc30e1f76c2a777a213fe3a7462215d10220844befe77c352ae404b4c0000000000fd33b48038b5ad712abbf7a5acfe5e208bee65064c63b0903cb7d72f674da2e622f1a5686ca6432001000000\n",
      "bob_commitment_tx_digest_preimage:  020000002579e7ed056b8a89828f0f34ed108c07ff3e6f9f4ac938e10e4eee4970ac5b23c6067e2ccbba74d4f24cc174be97c1ea7514cf7a20d616fbc7587a48964b2c95feb8488e66b64be2a3b094482d315c496a7b2fd4962a9dc3f4e7698c7fc695580100000047522102245c997231079146616f70eae46dd43461b530cb55df50cac8ef321127adb96321032b057a643c7b928b7dc30e1f76c2a777a213fe3a7462215d10220844befe77c352ae404b4c0000000000fd33b4800f3a2027eb7b09a189bc4dc44b2656e8358d3b9ff080f7fc0c094428dce3c0cd6ca6432001000000\n",
      "Alice Signed Commitment Transaction:  02000000000101feb8488e66b64be2a3b094482d315c496a7b2fd4962a9dc3f4e7698c7fc695580100000000fd33b480054a0100000000000022002034391c79ba78d594262aa91410f49d7200ef55e7551441659412aac47b543f044a0100000000000022002056680a199b598b249d54e3b24fbf5a629228af306e3f587e8ab1b65233a581c420a10700000000002200205337b1739305e8759631da30a34bd30ebb1379b484f3216a237ad009d21ded7440420f0000000000220020439fd0fb44bb93e02a87b92851c9e377612166d8ce4af46eb9f82899a8e8323d5c19350000000000220020978f0c6d76e9a391a84ab6385c34d6cc8dcafdc624523ede9241b8cc2211eb760400473044022038aeed92d06d05a6f433a77894b707ac8e052dc62cfe76aa1a9263eadf7aab3a02207386b41763a358fd706583bab64631b54c8a664b98aeaabb54bf15518b2af1f901483045022100df4dd17c11ad8c0612a3e13a393719a927f65525a12d4df90d8c8e3f82fd3982022036d733c5138d80cc651f88ef6653ae81d33cc601cf60cb1cb493598c67af616c0147522102245c997231079146616f70eae46dd43461b530cb55df50cac8ef321127adb96321032b057a643c7b928b7dc30e1f76c2a777a213fe3a7462215d10220844befe77c352ae6ca64320\n",
      "Bob Signed Commitment Transaction:  02000000000101feb8488e66b64be2a3b094482d315c496a7b2fd4962a9dc3f4e7698c7fc695580100000000fd33b480054a0100000000000022002034391c79ba78d594262aa91410f49d7200ef55e7551441659412aac47b543f044a0100000000000022002056680a199b598b249d54e3b24fbf5a629228af306e3f587e8ab1b65233a581c420a10700000000002200208fa0be377a59c48a6aab40e5113359cde211c18cd721a5e4a1572b4cb3eea1f540420f0000000000220020a1574ee61ea7a53637edb0038c79d979a78c1603b3a318d185936cb59e19670a5c19350000000000220020475d024bb95e9a981632863d3b1a4b9308aa88e189196272735a3e3d47caf9360400483045022100bd2c728a0c5aedaea4e72bfd97e33ed8d21309807994009e538af21f18898958022044a48efa577fb09ae9179bc28af2cd46d27ecb9efddb4a6be9475dc83d07eb3301483045022100b07ea243fc0cb6cb627d2592667639e2a8878dfabc923aaa30ba439a40806a4a022072e05ae7b2e0791374f88b0846d2eaa42e259e8912c88fb33cadb5fad0da3b680147522102245c997231079146616f70eae46dd43461b530cb55df50cac8ef321127adb96321032b057a643c7b928b7dc30e1f76c2a777a213fe3a7462215d10220844befe77c352ae6ca64320\n",
      "[{'txid': 'd27815f5a09c9f1c20b9be5b892b0cfdd5821a453fba6e7f49abbe2987a42b27', 'wtxid': 'ef4571f2a2f2118d2f26fa5964c9f496bdc3d3137139f4aa9acebcf04630de2a', 'allowed': True, 'vsize': 322, 'fees': {'base': Decimal('0.00019440'), 'effective-feerate': Decimal('0.00060372'), 'effective-includes': ['ef4571f2a2f2118d2f26fa5964c9f496bdc3d3137139f4aa9acebcf04630de2a']}}]\n",
      "[{'txid': '49dfe2b3fdd8a7183500a4506a728e811c5bd09acfd17940a35ad4e01467eb52', 'wtxid': '77143638d42b4f43db5446568983b5fec22f1d891424f58220052ef860732b30', 'allowed': True, 'vsize': 322, 'fees': {'base': Decimal('0.00019440'), 'effective-feerate': Decimal('0.00060372'), 'effective-includes': ['77143638d42b4f43db5446568983b5fec22f1d891424f58220052ef860732b30']}}]\n",
      "Current block height: 104\n",
      "Force Close txid d27815f5a09c9f1c20b9be5b892b0cfdd5821a453fba6e7f49abbe2987a42b27\n",
      "inputs : 272ba48729beab497f6eba3f451a82d5fd0c2b895bbeb9201c9f9ca0f51578d2020000000001000000\n",
      "HTLC Output SPK: 0020978f0c6d76e9a391a84ab6385c34d6cc8dcafdc624523ede9241b8cc2211eb76\n",
      "unsigned_htlc_tx:  0200000001272ba48729beab497f6eba3f451a82d5fd0c2b895bbeb9201c9f9ca0f51578d20200000000010000000120a1070000000000220020978f0c6d76e9a391a84ab6385c34d6cc8dcafdc624523ede9241b8cc2211eb766d000000\n",
      "{\n",
      "  \"txid\": \"d496045bffb0202a68863a6b4f1de45326341e3423fdda15936b434555a80f30\",\n",
      "  \"hash\": \"d496045bffb0202a68863a6b4f1de45326341e3423fdda15936b434555a80f30\",\n",
      "  \"version\": 2,\n",
      "  \"size\": 94,\n",
      "  \"vsize\": 94,\n",
      "  \"weight\": 376,\n",
      "  \"locktime\": 109,\n",
      "  \"vin\": [\n",
      "    {\n",
      "      \"txid\": \"d27815f5a09c9f1c20b9be5b892b0cfdd5821a453fba6e7f49abbe2987a42b27\",\n",
      "      \"vout\": 2,\n",
      "      \"scriptSig\": {\n",
      "        \"asm\": \"\",\n",
      "        \"hex\": \"\"\n",
      "      },\n",
      "      \"sequence\": 1\n",
      "    }\n",
      "  ],\n",
      "  \"vout\": [\n",
      "    {\n",
      "      \"value\": \"0.00500000\",\n",
      "      \"n\": 0,\n",
      "      \"scriptPubKey\": {\n",
      "        \"asm\": \"0 978f0c6d76e9a391a84ab6385c34d6cc8dcafdc624523ede9241b8cc2211eb76\",\n",
      "        \"desc\": \"addr(bcrt1qj78scmtkax3er2z2kcu9cdxkejxu4lwxy3frah5jgxuvcgs3admqdd0pwu)#j92lqkdq\",\n",
      "        \"hex\": \"0020978f0c6d76e9a391a84ab6385c34d6cc8dcafdc624523ede9241b8cc2211eb76\",\n",
      "        \"address\": \"bcrt1qj78scmtkax3er2z2kcu9cdxkejxu4lwxy3frah5jgxuvcgs3admqdd0pwu\",\n",
      "        \"type\": \"witness_v0_scripthash\"\n",
      "      }\n",
      "    }\n",
      "  ]\n",
      "}\n",
      "tx_digest_preimage:  02000000da1789662f6c0d19a1a067d8928e16b0f69b245c20586ccc4ba132e064b8070441f758f2e5cc078d3795b4fc0cb60c2d735fa92cc020572bdc982dd2d564d11b272ba48729beab497f6eba3f451a82d5fd0c2b895bbeb9201c9f9ca0f51578d2020000008876a9145aab2da71aa3e8e99c72c7b07b04fb3a689447d68763ac672103f0ce4fe88d9e1d79c449ced61ee6cfc9280b3e424a48f952667b7fd73a299aa17c820120876475527c2103f020b85b2f600cdba67ecb33ed2ed09bf1c0a0e67e839a9ca70766049a5f329852ae67a914c51b66bced5e4491001bd702669770dccf44098288ac6851b2756820a107000000000001000000c8537014c8acc06799c874db2786837f66e57129eff5f04fa0741ef6eaa722406d00000083000000\n",
      "Alice HTLC Privkey: 4538248364791b00f39654406f0ef3102c4184e2da8a51815f976abc368e07ea\n",
      "Bob HTLC Privkey: 9c6f51fffe0edb251d33ae9a3b7385b735f8de728765c10a640dc14e7c3d2ad4\n",
      "HTLC Timeout Transaction:  02000000000101272ba48729beab497f6eba3f451a82d5fd0c2b895bbeb9201c9f9ca0f51578d20200000000010000000120a1070000000000220020978f0c6d76e9a391a84ab6385c34d6cc8dcafdc624523ede9241b8cc2211eb76050047304402201919b4eeb72ad49918007b6ca186357bca1668907bb8678c7ce1ad02f9f8b3ce0220484a5ba28f12a8f57a7fdf58fc280dc75407641f9f224fda1a423b5d735a40b483473044022045414e3aeef1a79ef3c8e6085e638ef5a226ce14bbac82c10dcf6cd8c3c60c5802204a64079f1fa63b6b8d386f610fb086fca4907647eb0f60671a9b1124c2e64cfd83008876a9145aab2da71aa3e8e99c72c7b07b04fb3a689447d68763ac672103f0ce4fe88d9e1d79c449ced61ee6cfc9280b3e424a48f952667b7fd73a299aa17c820120876475527c2103f020b85b2f600cdba67ecb33ed2ed09bf1c0a0e67e839a9ca70766049a5f329852ae67a914c51b66bced5e4491001bd702669770dccf44098288ac6851b275686d000000\n",
      "[{'txid': 'd496045bffb0202a68863a6b4f1de45326341e3423fdda15936b434555a80f30', 'wtxid': 'e779a66ddcc2658daf9e111a5f11dbfd741b0799b99719ba88ecb1df1b44f450', 'allowed': False, 'reject-reason': 'non-final'}]\n",
      "[{'txid': 'd496045bffb0202a68863a6b4f1de45326341e3423fdda15936b434555a80f30', 'wtxid': 'e779a66ddcc2658daf9e111a5f11dbfd741b0799b99719ba88ecb1df1b44f450', 'allowed': False, 'reject-reason': 'min relay fee not met'}]\n"
     ]
    }
   ],
   "source": [
    "# run notebook\n",
    "%run \"/home/pins-dev/Projects/lightning-tx-tutorial/Chapter 5 - HTLC-Timeout and HTLC-Success Transactions/HTLC-Timeout and HTLC-Success Transactions.ipynb\""
   ]
  },
  {
   "cell_type": "markdown",
   "id": "471e53aa-65e8-4767-9ede-f37756cc7281",
   "metadata": {},
   "source": [
    "## SegWit Transaction Structure (with n inputs)\n",
    "\n",
    "To simulate the behavior of the Sweeper Subsystem in a Lightning Node, we’ll take the HTLC-Timeout transaction created in the previous notebook and extend it by adding one input and one output. After that, we'll sign and broadcast the resulting transaction. Below, you can see the structure of a SegWit transaction with multiple inputs and outputs.\n",
    "\n",
    "The HTLC-Timeout transaction already contains one input and one output, both signed using the SIGHASH_SINGLE | SIGHASH_ANYONECANPAY sighash type. This allows us to safely append input 2 and output 2 without invalidating the existing signature on input 1 and output 1.\n",
    "\n",
    "[version]\n",
    "\n",
    "[marker][flag]              <-- SegWit-specific\n",
    "\n",
    "[tx_in count]\n",
    "\n",
    "[input 1]\n",
    "\n",
    "[input 2]\n",
    "\n",
    "...\n",
    "\n",
    "[tx_out count]\n",
    "\n",
    "[output 1]\n",
    "\n",
    "[output 2]\n",
    "\n",
    "...\n",
    "\n",
    "[witness for input 1]\n",
    "\n",
    "[witness for input 2]\n",
    "\n",
    "...\n",
    "\n",
    "[locktime]\n"
   ]
  },
  {
   "cell_type": "code",
   "execution_count": null,
   "id": "a5502907-6e52-446c-bfb9-cc3443fdd18a",
   "metadata": {},
   "outputs": [],
   "source": []
  }
 ],
 "metadata": {
  "kernelspec": {
   "display_name": "Python 3 (ipykernel)",
   "language": "python",
   "name": "python3"
  },
  "language_info": {
   "codemirror_mode": {
    "name": "ipython",
    "version": 3
   },
   "file_extension": ".py",
   "mimetype": "text/x-python",
   "name": "python",
   "nbconvert_exporter": "python",
   "pygments_lexer": "ipython3",
   "version": "3.12.3"
  }
 },
 "nbformat": 4,
 "nbformat_minor": 5
}
