{
 "cells": [
  {
   "cell_type": "markdown",
   "id": "8c0cbe4a-2ea6-4cb8-a261-cd0f3f2030af",
   "metadata": {},
   "source": [
    "*** UNDER CONSTRUCTION ***"
   ]
  },
  {
   "cell_type": "markdown",
   "id": "3071aec5-5dd7-46a5-9e1c-0b6b35e868bc",
   "metadata": {},
   "source": [
    "# Sweeper Subsystem in a Lightning Node\n",
    "\n",
    "In the context of Bitcoin Lightning nodes, the Sweeper is a subsystem responsible for safely and efficiently spending on-chain outputs that:\n",
    "- Result from force-closed channels\n",
    "- Originate from HTLCs\n",
    "- Are timelocked and require careful management\n",
    "\n",
    "It's primary role is to ensure that these outputs are claimed in time — before a counterparty or anyone else can spend them — which is especially critical for time-sensitive outputs such as HTLCs with approaching expiries.\n",
    "\n",
    "The Sweeper monitors the blockchain and, once outputs become spendable, it constructs and broadcasts transactions to reclaim those funds into the wallet. To optimize for fees, it often batches multiple outputs into a single transaction.It dynamically adjusts fees, retries failed attempts if necessary, and rebroadcasts transactions until they are confirmed — ensuring that no funds are lost or left unclaimed.\n",
    "\n",
    "##  Why is the Sweeper Important?\n",
    "\n",
    "### Security\n",
    "If you don't sweep certain outputs in time (like from a revoked commitment), you could lose funds.\n",
    "\n",
    "### Efficiency\n",
    "It can batch outputs into a single transaction to save on fees.\n",
    "\n",
    "### Fee Management\n",
    "Sweeper uses dynamic fee estimation and can rebroadcast if a tx gets stuck.\n",
    "\n",
    "### Timelocks & Scripts\n",
    "Some outputs can't be spent immediately (e.g., CSV delays), so the sweeper watches the blockchain and acts when they're available."
   ]
  },
  {
   "cell_type": "markdown",
   "id": "d82eff48-ab60-42ea-aa2a-5aa3732fa3f8",
   "metadata": {},
   "source": [
    "## Prerequisite knowledge\n",
    "### For all notebooks\n",
    "- A high level understanding of the bitcoin e.g. [Mastering Bitcoin](https://github.com/bitcoinbook/bitcoinbook), in particular [Chapter 6](https://github.com/bitcoinbook/bitcoinbook/blob/develop/ch06.asciidoc).\n",
    "- A conceptual understanding of [hash functions](https://www.thesslstore.com/blog/what-is-a-hash-function-in-cryptography-a-beginners-guide).\n",
    "- [Hexadecimal notation](https://inst.eecs.berkeley.edu/~cs61bl/r//cur/bits/decimal-binary-hex.html?topic=lab28.topic&step=2&course=) and [endianness](https://www.freecodecamp.org/news/what-is-endianness-big-endian-vs-little-endian/).\n",
    "- A high level understanding of the lightning e.g. [Mastering Lightning Network](https://github.com/lnbook/lnbook), in particular [Chapter7](https://github.com/lnbook/lnbook/blob/develop/07_payment_channels.asciidoc), [Chapter 8](https://github.com/lnbook/lnbook/blob/develop/08_routing_htlcs.asciidoc) and [Chapter 9](https://github.com/lnbook/lnbook/blob/develop/09_channel_operation.asciidoc).\n",
    "\n",
    "### Specific to this notebook\n",
    "- SHA256, HASH256, HASH160 - '[Hash Functions chapter](https://github.com/MPins/lightning-tx-tutorial/blob/main/appendix/hash-functions.ipynb)'\n",
    "- Bech32 addresses - '[Addresses chapter](https://github.com/MPins/lightning-tx-tutorial/blob/main/appendix/Addresses.ipynb)'\n",
    "- Bitcoin Script basics - '[Bitcoin Script chapter](https://github.com/MPins/lightning-tx-tutorial/blob/main/appendix/Bitcoin%20Script.ipynb)'\n",
    "- Lightning Network BOLT #2: '[Peer Protocol for Channel Management](https://github.com/lightning/bolts/blob/master/02-peer-protocol.md#channel-establishment-v1)'\n",
    "- Lightning Network BOLT #3: '[Commitment Transactions](https://github.com/lightning/bolts/blob/master/03-transactions.md#commitment-transaction)'\n",
    "- Finite Fields, Elliptic Curves and Serialization e.g. [Programming Bitcoin](https://github.com/jimmysong/programmingbitcoin), in particular [Chapter 1](https://github.com/jimmysong/programmingbitcoin/blob/master/ch01.asciidoc), [Chapter2](https://github.com/jimmysong/programmingbitcoin/blob/master/ch02.asciidoc), [Chapter 3](https://github.com/jimmysong/programmingbitcoin/blob/master/ch03.asciidoc) and [Chapter 4](https://github.com/jimmysong/programmingbitcoin/blob/master/ch04.asciidoc).\n",
    "\n",
    "## Setup\n",
    "### Requirements\n",
    "\n",
    "For this exercise we'll run the previous notebook to create the commitment transactions beetween with offer and received HTLC.\n",
    "\n",
    "**You'll need to edit these next line for your local setup.**"
   ]
  },
  {
   "cell_type": "code",
   "execution_count": 1,
   "id": "54aa22a8-3d78-4c05-ac56-398d7cf0ce9e",
   "metadata": {},
   "outputs": [
    {
     "name": "stdout",
     "output_type": "stream",
     "text": [
      "Alice Per Commitment Seed 34b581ec20bf2c6cae3d4d4dcbfddc8a3727a1e9a57c55f3520e770607898c06\n",
      "Bob Per Commitment Seed 89c994b3ddad4698acee71e42d8bcace48eea739caaba371eb110e77663ec56d\n",
      "Alice Revocation Basepoint Private Key: c17ac3952ca414190074d1e59ea03fbae253196173908dc8b131af6bd2cc8161\n",
      "Alice Revocation Basepoint Public Key: 03649c4f865bec74b0a186deef4defad51cfdc141443e38074ea05a7835a953a49\n",
      "Alice HTLC Basepoint Private Key: 763ae49a20e6668c88602c782716dd83ba6c4cc0333b38810e2bcd7b22c871ac\n",
      "Alice HTLC Basepoint Public Key: 02816fde4150e4dfcac94eff0b821448fb70f57a56148ba2206cd9b2fd0cc20bdf\n",
      "Alice Payment Basepoint Private Key: 72d8c12971b58076a1f27eb7938ca442f0b210762b23637443ac2e99dac352a6\n",
      "Alice Payment Basepoint Public Key: 025f892a06124391e2f38ce35d943cdc09f63e203330dbd9cb6113a903e0738458\n",
      "Alice Delayed Payment Basepoint Private Key: 7cafce00c54e7241894dcc7c3beaca29dd354139fdb6182198d6c5f1063bfe8d\n",
      "Alice Delayed Payment Basepoint Public Key: 034aa35219136bb238e072341b20a4bf8fb44a83cdb73dd2bd973c123ac2dfd7ff\n",
      "Bob Revocation Basepoint Private Key: fa526e09b9ff7425552db1803d7e12cf4475d060db4cfb812adb07219a54baa0\n",
      "Bob Revocation Basepoint Public Key: 02536407aada57068f30b53c4126062d235967c3636147433e72b21ff93c8acdbf\n",
      "Bob HTLC Basepoint Private Key: 06d61bb059eef194a3d223992a028fbd31f2e8b289d5a10acd343671c9322155\n",
      "Bob HTLC Basepoint Public Key: 0306b11436efa058a86f997df6596ea4579241f3909175772d77df38a5255f52f4\n",
      "Bob Payment Basepoint Private Key: 5046024e716c479599350b7aee8139304d942360733d8dd79793917f9e33a334\n",
      "Bob Payment Basepoint Public Key: 02f98efd3f2b2fbe7bd83c419f5f64f8280798b8a9175fdb77c0091bbb95c79506\n",
      "Bob Delayed Payment Basepoint Private Key: d764d4c083cac97d34913bdf123c3dfef5379db9e9b0652897783e0d01880bb3\n",
      "Bob Delayed Payment Basepoint Public Key: 032a5869ac5eb30ba1e9c9addd3740822dac6f45a8de9b3d4e171f14c3abce2dae\n",
      "Alice Funding Private Key: ccd60731893309bb59a6030a581fc80984fa96129e10cf8342c0b0b800ffb51c\n",
      "Alice Funding Public Key: 02245c997231079146616f70eae46dd43461b530cb55df50cac8ef321127adb963\n",
      "Alice Closing Private Key: 75e80013b88f2ffa07fc70652d7721bdb1458304a6d0fb4d360c2b82098cba9b\n",
      "Alice Closing Public Key: 023cf1d744c5415046a18cf7b76cbe0af5e8609b80f20ea10d7ec98bf90dad67c8\n",
      "Alice Change Private Key: 6c2bda7af1291da770d0041794bbc891ac27c2fbe6a8a825a8f14f3b904b1f4e\n",
      "Alice Change Public Key: 02f0006732c6db9e73522b31168bda043cbf7759c46e553eae9dede26ccd08a39b\n",
      "Bob Funding Private Key: ca62b96f01783d13a48be4e8a2ca9c48093f62b64537d4c3c33d45d7cb53a0a7\n",
      "Bob Funding Public Key: 032b057a643c7b928b7dc30e1f76c2a777a213fe3a7462215d10220844befe77c3\n",
      "Bob Closing Private Key: 453009ee716540e6fd5027fd2ae20534dfe6087a07d21b870b2ee118b8d92b14\n",
      "Bob Closing Public Key: 02e824f6d9d38195d93768870e952ae010fab2347e7228d42ff324705a4f1e3201\n",
      "Alice's funding p2wpkh address: bcrt1qt0vq5dj8qa720lfx3hhzyu9ygsng9js3g02lnl\n",
      "Alice's change p2wpkh address: bcrt1qt6ax8rh20h6zts0dcqmzdy9kte3pds4lrzwl6s\n",
      "2025-05-31T20:32:25.236000Z TestFramework (INFO): PRNG seed is: 5465180230228639407\n",
      "2025-05-31T20:32:25.237000Z TestFramework (INFO): Initializing test directory /tmp/bitcoin_func_test_z82wnnjh\n",
      "txid_to_spent: 6efc0f35d070fc5ca85cb276bfaadb892c27c3ad42ba5152beb3a783db74469f, 1\n",
      "Alice pubkey is lexicographically lesser than Bob pubkey:\n",
      "02245c997231079146616f70eae46dd43461b530cb55df50cac8ef321127adb963 < 032b057a643c7b928b7dc30e1f76c2a777a213fe3a7462215d10220844befe77c3\n",
      "Redeem Script:\n",
      "522102245c997231079146616f70eae46dd43461b530cb55df50cac8ef321127adb96321032b057a643c7b928b7dc30e1f76c2a777a213fe3a7462215d10220844befe77c352ae\n",
      "channel_address:  bcrt1qhsn37ekwjgxlajuavyzne28yrahkyesgnr6qhxvzlw3807ttcjeqhcl6mc\n",
      "unsigned_channel_funding_tx:  02000000019f4674db83a7b3be5251ba42adc3272c89dbaabf76b25ca85cfc70d0350ffc6e0100000000ffffffff02c0e1e400000000001600145eba638eea7df425c1edc0362690b65e6216c2bf404b4c0000000000220020bc271f66ce920dfecb9d61053ca8e41f6f62660898f40b9982fba277f96bc4b200000000\n",
      "{\n",
      "  \"txid\": \"d8eaee29174a316f473ccf1425fddee605c8771f141d2278900c8bbce6e5db07\",\n",
      "  \"hash\": \"d8eaee29174a316f473ccf1425fddee605c8771f141d2278900c8bbce6e5db07\",\n",
      "  \"version\": 2,\n",
      "  \"size\": 125,\n",
      "  \"vsize\": 125,\n",
      "  \"weight\": 500,\n",
      "  \"locktime\": 0,\n",
      "  \"vin\": [\n",
      "    {\n",
      "      \"txid\": \"6efc0f35d070fc5ca85cb276bfaadb892c27c3ad42ba5152beb3a783db74469f\",\n",
      "      \"vout\": 1,\n",
      "      \"scriptSig\": {\n",
      "        \"asm\": \"\",\n",
      "        \"hex\": \"\"\n",
      "      },\n",
      "      \"sequence\": 4294967295\n",
      "    }\n",
      "  ],\n",
      "  \"vout\": [\n",
      "    {\n",
      "      \"value\": \"0.15000000\",\n",
      "      \"n\": 0,\n",
      "      \"scriptPubKey\": {\n",
      "        \"asm\": \"0 5eba638eea7df425c1edc0362690b65e6216c2bf\",\n",
      "        \"desc\": \"addr(bcrt1qt6ax8rh20h6zts0dcqmzdy9kte3pds4lrzwl6s)#s9wdm0cm\",\n",
      "        \"hex\": \"00145eba638eea7df425c1edc0362690b65e6216c2bf\",\n",
      "        \"address\": \"bcrt1qt6ax8rh20h6zts0dcqmzdy9kte3pds4lrzwl6s\",\n",
      "        \"type\": \"witness_v0_keyhash\"\n",
      "      }\n",
      "    },\n",
      "    {\n",
      "      \"value\": \"0.05000000\",\n",
      "      \"n\": 1,\n",
      "      \"scriptPubKey\": {\n",
      "        \"asm\": \"0 bc271f66ce920dfecb9d61053ca8e41f6f62660898f40b9982fba277f96bc4b2\",\n",
      "        \"desc\": \"addr(bcrt1qhsn37ekwjgxlajuavyzne28yrahkyesgnr6qhxvzlw3807ttcjeqhcl6mc)#q3fvp06p\",\n",
      "        \"hex\": \"0020bc271f66ce920dfecb9d61053ca8e41f6f62660898f40b9982fba277f96bc4b2\",\n",
      "        \"address\": \"bcrt1qhsn37ekwjgxlajuavyzne28yrahkyesgnr6qhxvzlw3807ttcjeqhcl6mc\",\n",
      "        \"type\": \"witness_v0_scripthash\"\n",
      "      }\n",
      "    }\n",
      "  ]\n",
      "}\n",
      "tx_digest_preimage:  02000000ea10bd808c82e657e796621ec553448b04a5d205471918841e96f85627caa9443bb13029ce7b1f559ef5e747fcac439f1455a2ec7c5f09b72290795e706650449f4674db83a7b3be5251ba42adc3272c89dbaabf76b25ca85cfc70d0350ffc6e010000001976a9145bd80a3647077ca7fd268dee2270a4442682ca1188aca0b3320100000000fffffffff024a453c206730b975be44da5987693c127c508aada9aabadc9455fb74b5fc60000000001000000\n",
      "Channel Funding Signed Transaction:  020000000001019f4674db83a7b3be5251ba42adc3272c89dbaabf76b25ca85cfc70d0350ffc6e0100000000ffffffff02c0e1e400000000001600145eba638eea7df425c1edc0362690b65e6216c2bf404b4c0000000000220020bc271f66ce920dfecb9d61053ca8e41f6f62660898f40b9982fba277f96bc4b20247304402200127eca4663aaf3ae3b9289ead38eb7622e4a5d46ed1db330dd8273a4a6821c3022060847ce7deec81bd9364dce0d8d077226903edc75f4f19ed0d341259e3c50484012102245c997231079146616f70eae46dd43461b530cb55df50cac8ef321127adb96300000000\n",
      "Alice First Per Commitment Secret: 739d879e3b2502146546b9d6d51b1e05feb362397b7cf7ba13c7719b0a889dd9\n",
      "Alice First Per Commitment Point: 0368081a0a30ec118e662b71d222c383c5c9f495b4821fd0252452abf659250237\n",
      "Bob First Per Commitment Secret: 203f2c3e5cd6004ef0ea26e82c2ffeb2dc80036cedca92c210010cd73facd38a\n",
      "Bob First Per Commitment Point: 03ac685c74c0970c62f0e69ad332b6a5f6d61d3650128ef2a18e011cfd28d177b4\n",
      "Commitment Number Obscured: 0xb433fd43a66f\n",
      "Inputs: 07dbe5e6bc8b0c9078221d141f77c805e6defd2514cf3c476f314a1729eeead80100000000fd33b480\n",
      "Alice Delayed Pubkey: 03d6363615b3d00361158c0f48a4ef81ea12e214e8d56e24098759f6b4267dca8b\n",
      "Bob Revocation Pubkey: 025460add4edf0961bfcc6288be0241114d7d90005db28753d835f2353f1529710\n",
      "Alice Anchor Output SPK: 002034391c79ba78d594262aa91410f49d7200ef55e7551441659412aac47b543f04\n",
      "Alice Delayed Output SPK: 0020fc03b40c456c47ebb621665209aa5bbc82d9282caf6a1be843782f6805fffff5\n",
      "Alice Remote Output SPK: 0020f0447296bbb031d3f362b223a0ba7281bfcfeca9061820c9bdee400411fc01be\n",
      "Unsigned Alice Commitment Transaction:  020000000107dbe5e6bc8b0c9078221d141f77c805e6defd2514cf3c476f314a1729eeead80100000000fd33b480024a0100000000000022002034391c79ba78d594262aa91410f49d7200ef55e7551441659412aac47b543f041a084c0000000000220020fc03b40c456c47ebb621665209aa5bbc82d9282caf6a1be843782f6805fffff56fa64320\n",
      "Unsigned Bob Commitment Transaction:  020000000107dbe5e6bc8b0c9078221d141f77c805e6defd2514cf3c476f314a1729eeead80100000000fd33b480024a0100000000000022002034391c79ba78d594262aa91410f49d7200ef55e7551441659412aac47b543f041a084c0000000000220020f0447296bbb031d3f362b223a0ba7281bfcfeca9061820c9bdee400411fc01be6fa64320\n",
      "Alice Unsigned Commitment transaction\n",
      "{\n",
      "  \"txid\": \"7f021ccb1df91792fcbebbbce3451828850fb902916e640e799fcd0adfbb52f6\",\n",
      "  \"hash\": \"7f021ccb1df91792fcbebbbce3451828850fb902916e640e799fcd0adfbb52f6\",\n",
      "  \"version\": 2,\n",
      "  \"size\": 137,\n",
      "  \"vsize\": 137,\n",
      "  \"weight\": 548,\n",
      "  \"locktime\": 541304431,\n",
      "  \"vin\": [\n",
      "    {\n",
      "      \"txid\": \"d8eaee29174a316f473ccf1425fddee605c8771f141d2278900c8bbce6e5db07\",\n",
      "      \"vout\": 1,\n",
      "      \"scriptSig\": {\n",
      "        \"asm\": \"\",\n",
      "        \"hex\": \"\"\n",
      "      },\n",
      "      \"sequence\": 2159293437\n",
      "    }\n",
      "  ],\n",
      "  \"vout\": [\n",
      "    {\n",
      "      \"value\": \"0.00000330\",\n",
      "      \"n\": 0,\n",
      "      \"scriptPubKey\": {\n",
      "        \"asm\": \"0 34391c79ba78d594262aa91410f49d7200ef55e7551441659412aac47b543f04\",\n",
      "        \"desc\": \"addr(bcrt1qxsu3c7d60r2egf324y2ppayawgqw7408252yzev5z24vg7658uzqwq2zs5)#62txjpcp\",\n",
      "        \"hex\": \"002034391c79ba78d594262aa91410f49d7200ef55e7551441659412aac47b543f04\",\n",
      "        \"address\": \"bcrt1qxsu3c7d60r2egf324y2ppayawgqw7408252yzev5z24vg7658uzqwq2zs5\",\n",
      "        \"type\": \"witness_v0_scripthash\"\n",
      "      }\n",
      "    },\n",
      "    {\n",
      "      \"value\": \"0.04982810\",\n",
      "      \"n\": 1,\n",
      "      \"scriptPubKey\": {\n",
      "        \"asm\": \"0 fc03b40c456c47ebb621665209aa5bbc82d9282caf6a1be843782f6805fffff5\",\n",
      "        \"desc\": \"addr(bcrt1qlspmgrz9d3r7hd3pvefqn2jmhjpdj2pv4a4ph6zr0qhksp0lll6s4hxelk)#ea76vvnd\",\n",
      "        \"hex\": \"0020fc03b40c456c47ebb621665209aa5bbc82d9282caf6a1be843782f6805fffff5\",\n",
      "        \"address\": \"bcrt1qlspmgrz9d3r7hd3pvefqn2jmhjpdj2pv4a4ph6zr0qhksp0lll6s4hxelk\",\n",
      "        \"type\": \"witness_v0_scripthash\"\n",
      "      }\n",
      "    }\n",
      "  ]\n",
      "}\n",
      "Bob Unsigned Commitment transaction\n",
      "{\n",
      "  \"txid\": \"5c6ce2aafa030dde69589eb213b7c4a59aee1fa8aa8c481f0edc41efb8ad683a\",\n",
      "  \"hash\": \"5c6ce2aafa030dde69589eb213b7c4a59aee1fa8aa8c481f0edc41efb8ad683a\",\n",
      "  \"version\": 2,\n",
      "  \"size\": 137,\n",
      "  \"vsize\": 137,\n",
      "  \"weight\": 548,\n",
      "  \"locktime\": 541304431,\n",
      "  \"vin\": [\n",
      "    {\n",
      "      \"txid\": \"d8eaee29174a316f473ccf1425fddee605c8771f141d2278900c8bbce6e5db07\",\n",
      "      \"vout\": 1,\n",
      "      \"scriptSig\": {\n",
      "        \"asm\": \"\",\n",
      "        \"hex\": \"\"\n",
      "      },\n",
      "      \"sequence\": 2159293437\n",
      "    }\n",
      "  ],\n",
      "  \"vout\": [\n",
      "    {\n",
      "      \"value\": \"0.00000330\",\n",
      "      \"n\": 0,\n",
      "      \"scriptPubKey\": {\n",
      "        \"asm\": \"0 34391c79ba78d594262aa91410f49d7200ef55e7551441659412aac47b543f04\",\n",
      "        \"desc\": \"addr(bcrt1qxsu3c7d60r2egf324y2ppayawgqw7408252yzev5z24vg7658uzqwq2zs5)#62txjpcp\",\n",
      "        \"hex\": \"002034391c79ba78d594262aa91410f49d7200ef55e7551441659412aac47b543f04\",\n",
      "        \"address\": \"bcrt1qxsu3c7d60r2egf324y2ppayawgqw7408252yzev5z24vg7658uzqwq2zs5\",\n",
      "        \"type\": \"witness_v0_scripthash\"\n",
      "      }\n",
      "    },\n",
      "    {\n",
      "      \"value\": \"0.04982810\",\n",
      "      \"n\": 1,\n",
      "      \"scriptPubKey\": {\n",
      "        \"asm\": \"0 f0447296bbb031d3f362b223a0ba7281bfcfeca9061820c9bdee400411fc01be\",\n",
      "        \"desc\": \"addr(bcrt1q7pz8994mkqca8umzkg36pwnjsxlulm9fqcvzpjdaaeqqgy0uqxlqphvsda)#f8xgy4gn\",\n",
      "        \"hex\": \"0020f0447296bbb031d3f362b223a0ba7281bfcfeca9061820c9bdee400411fc01be\",\n",
      "        \"address\": \"bcrt1q7pz8994mkqca8umzkg36pwnjsxlulm9fqcvzpjdaaeqqgy0uqxlqphvsda\",\n",
      "        \"type\": \"witness_v0_scripthash\"\n",
      "      }\n",
      "    }\n",
      "  ]\n",
      "}\n",
      "alice_tx_digest_preimage:  0200000081d62873a2969d90fcfd8436f11053785671b840908ac406a86f0daada2b5cd0c6067e2ccbba74d4f24cc174be97c1ea7514cf7a20d616fbc7587a48964b2c9507dbe5e6bc8b0c9078221d141f77c805e6defd2514cf3c476f314a1729eeead80100000047522102245c997231079146616f70eae46dd43461b530cb55df50cac8ef321127adb96321032b057a643c7b928b7dc30e1f76c2a777a213fe3a7462215d10220844befe77c352ae404b4c0000000000fd33b4804042f728e7746ec969122168308e6ad83e7887ab77448a5f450cffd7034df5f46fa6432001000000\n",
      "bob_tx_digest_preimage:  0200000081d62873a2969d90fcfd8436f11053785671b840908ac406a86f0daada2b5cd0c6067e2ccbba74d4f24cc174be97c1ea7514cf7a20d616fbc7587a48964b2c9507dbe5e6bc8b0c9078221d141f77c805e6defd2514cf3c476f314a1729eeead80100000047522102245c997231079146616f70eae46dd43461b530cb55df50cac8ef321127adb96321032b057a643c7b928b7dc30e1f76c2a777a213fe3a7462215d10220844befe77c352ae404b4c0000000000fd33b480cb541070b4f791ea30c33859048fe351357b6e71305de479d36b3b6dfd7c41396fa6432001000000\n",
      "Alice Signed Commitment Transaction:  0200000000010107dbe5e6bc8b0c9078221d141f77c805e6defd2514cf3c476f314a1729eeead80100000000fd33b480024a0100000000000022002034391c79ba78d594262aa91410f49d7200ef55e7551441659412aac47b543f041a084c0000000000220020fc03b40c456c47ebb621665209aa5bbc82d9282caf6a1be843782f6805fffff5040048304502210091e7f7da2eca2a6ecc773a0e6ae84e4d35a12841a6085080d907adf5c4fb29790220252016d1579256f8bcd262e874b41feff82992a5aad5144c18734798a2f808c6014730440220182dfa1a16dbd7f314d17af6dd1fa6aa8cb29a695a00df7d907474f09fa6621302206e47d7592283d54478d4223ecaaf3ed9191ae402586c16857b0ac21cf0e29d380147522102245c997231079146616f70eae46dd43461b530cb55df50cac8ef321127adb96321032b057a643c7b928b7dc30e1f76c2a777a213fe3a7462215d10220844befe77c352ae6fa64320\n",
      "Bob Signed Commitment Transaction:  0200000000010107dbe5e6bc8b0c9078221d141f77c805e6defd2514cf3c476f314a1729eeead80100000000fd33b480024a0100000000000022002034391c79ba78d594262aa91410f49d7200ef55e7551441659412aac47b543f041a084c0000000000220020f0447296bbb031d3f362b223a0ba7281bfcfeca9061820c9bdee400411fc01be0400483045022100d72d7e47b83c83eb7a746050cef25e9be013ba98e2c2e8130064994872085b5102204c582f0c873763d927087c790267b1723edb0c2e9f8ad3c9d64c2d23f63f23170147304402206d10051d06293ece7a808b2fa4b551c9a05be26612170b94334c6019da975ce50220242ebf01723d0b5a46aa1c93871906a3695c03cc884ec4dcac87b9e2ff0d608e0147522102245c997231079146616f70eae46dd43461b530cb55df50cac8ef321127adb96321032b057a643c7b928b7dc30e1f76c2a777a213fe3a7462215d10220844befe77c352ae6fa64320\n",
      "[{'txid': '7f021ccb1df91792fcbebbbce3451828850fb902916e640e799fcd0adfbb52f6', 'wtxid': '1713b863344c66ccf37d925c90b547040c862853b260e71695f05d6a53ea66b1', 'allowed': True, 'vsize': 193, 'fees': {'base': Decimal('0.00016860'), 'effective-feerate': Decimal('0.00087357'), 'effective-includes': ['1713b863344c66ccf37d925c90b547040c862853b260e71695f05d6a53ea66b1']}}]\n",
      "[{'txid': '5c6ce2aafa030dde69589eb213b7c4a59aee1fa8aa8c481f0edc41efb8ad683a', 'wtxid': 'c86b04f1928a04f88ff522c4dc1552a03e40ded87628b540d74a91cc39901d85', 'allowed': True, 'vsize': 193, 'fees': {'base': Decimal('0.00016860'), 'effective-feerate': Decimal('0.00087357'), 'effective-includes': ['c86b04f1928a04f88ff522c4dc1552a03e40ded87628b540d74a91cc39901d85']}}]\n",
      "Commitment Number Obscured: 0xb433fd43a66c\n",
      "Inputs: 07dbe5e6bc8b0c9078221d141f77c805e6defd2514cf3c476f314a1729eeead80100000000fd33b480\n",
      "Alice Per Commitment Secret: 7d474813d764ca1273ad85e3f36ca1926401a8f76e576533f0232801c96af14d\n",
      "Alice Per Commitment Point: 028a29fc294e5cc904c607cbe2d66bc3e3f0d5131ba3f9085eb01b25df0a5bdd4a\n",
      "Bob Per Commitment Secret: 3dec4e412d557115ad23549b60f2bb4fc8a1215bead2c8ade3ed2cf1d10450da\n",
      "Bob Per Commitment Point: 0267c6f101ca3ffa7d9e2aba0ca51e63af33a7b88b19e80a04a2deb9807447e963\n",
      "Alice Delayed Pubkey: 03eb397e72815b5221b63d2564593465b45c9f7fa6da6944e1371974557d2682fa\n",
      "Bob Delayed Pubkey: 02422c467da01480bef0191075e8823724ebb84b1a8fc502ca1e63d881ae723a4e\n",
      "Alice HTLC Pubkey: 03f020b85b2f600cdba67ecb33ed2ed09bf1c0a0e67e839a9ca70766049a5f3298\n",
      "Bob HTLC Pubkey: 03f0ce4fe88d9e1d79c449ced61ee6cfc9280b3e424a48f952667b7fd73a299aa1\n",
      "Alice Revocation Pubkey: 02983e96a084377dc9d3c74cf49ae7e42f0347535d195d569f8b65c20341a8a2ad\n",
      "Bob Revocation Pubkey: 02337f3fcfa5c9aef367ca7e3b275f7d7b539c821d73adc3bd75b6bf872321aa58\n",
      "Alice Anchor Output SPK: 002034391c79ba78d594262aa91410f49d7200ef55e7551441659412aac47b543f04\n",
      "Bob Anchor Output SPK: 002056680a199b598b249d54e3b24fbf5a629228af306e3f587e8ab1b65233a581c4\n",
      "Alice Offered htlc Output SPK: 0020ea9713c7f38440f6ace2e3ad1b4982821623577e3d69908b76c0ce40f140602b\n",
      "Bob Remote Output SPK: 0020439fd0fb44bb93e02a87b92851c9e377612166d8ce4af46eb9f82899a8e8323d\n",
      "Alice Delayed Output SPK: 0020ba1d69954241e722f06844375d5b4dcf7f3abfcce550e708bf0910383060d31a\n",
      "Bob Received htlc Output SPK: 0020bb9fcdc5ed7ac56775f98430524160bfdaad50ee7add4650618f77b0a3113ed9\n",
      "Bob Delayed Output SPK: 002022d5ac3f86d25be331276291c7cd8aeb71e005fc78ccc40e81779cc9ed17477a\n",
      "Alice Remote Output SPK: 0020475d024bb95e9a981632863d3b1a4b9308aa88e189196272735a3e3d47caf936\n",
      "TXID : 83ee37a0d89a8068d7b9467fbe5fa6a04ff53d92825e28e99d29894cc8e49751\n",
      "Unsigned Alice Commitment Transaction:  020000000107dbe5e6bc8b0c9078221d141f77c805e6defd2514cf3c476f314a1729eeead80100000000fd33b480054a0100000000000022002034391c79ba78d594262aa91410f49d7200ef55e7551441659412aac47b543f044a0100000000000022002056680a199b598b249d54e3b24fbf5a629228af306e3f587e8ab1b65233a581c420a1070000000000220020ea9713c7f38440f6ace2e3ad1b4982821623577e3d69908b76c0ce40f140602b40420f0000000000220020439fd0fb44bb93e02a87b92851c9e377612166d8ce4af46eb9f82899a8e8323d5c19350000000000220020ba1d69954241e722f06844375d5b4dcf7f3abfcce550e708bf0910383060d31a6ca64320\n",
      "Unsigned Bob Commitment Transaction:  020000000107dbe5e6bc8b0c9078221d141f77c805e6defd2514cf3c476f314a1729eeead80100000000fd33b480054a0100000000000022002034391c79ba78d594262aa91410f49d7200ef55e7551441659412aac47b543f044a0100000000000022002056680a199b598b249d54e3b24fbf5a629228af306e3f587e8ab1b65233a581c420a1070000000000220020bb9fcdc5ed7ac56775f98430524160bfdaad50ee7add4650618f77b0a3113ed940420f000000000022002022d5ac3f86d25be331276291c7cd8aeb71e005fc78ccc40e81779cc9ed17477a5c19350000000000220020475d024bb95e9a981632863d3b1a4b9308aa88e189196272735a3e3d47caf9366ca64320\n",
      "Alice Unsigned Commitment transaction\n",
      "{\n",
      "  \"txid\": \"5197e4c84c89299de9285e82923df54fa0a65fbe7f46b9d768809ad8a037ee83\",\n",
      "  \"hash\": \"5197e4c84c89299de9285e82923df54fa0a65fbe7f46b9d768809ad8a037ee83\",\n",
      "  \"version\": 2,\n",
      "  \"size\": 266,\n",
      "  \"vsize\": 266,\n",
      "  \"weight\": 1064,\n",
      "  \"locktime\": 541304428,\n",
      "  \"vin\": [\n",
      "    {\n",
      "      \"txid\": \"d8eaee29174a316f473ccf1425fddee605c8771f141d2278900c8bbce6e5db07\",\n",
      "      \"vout\": 1,\n",
      "      \"scriptSig\": {\n",
      "        \"asm\": \"\",\n",
      "        \"hex\": \"\"\n",
      "      },\n",
      "      \"sequence\": 2159293437\n",
      "    }\n",
      "  ],\n",
      "  \"vout\": [\n",
      "    {\n",
      "      \"value\": \"0.00000330\",\n",
      "      \"n\": 0,\n",
      "      \"scriptPubKey\": {\n",
      "        \"asm\": \"0 34391c79ba78d594262aa91410f49d7200ef55e7551441659412aac47b543f04\",\n",
      "        \"desc\": \"addr(bcrt1qxsu3c7d60r2egf324y2ppayawgqw7408252yzev5z24vg7658uzqwq2zs5)#62txjpcp\",\n",
      "        \"hex\": \"002034391c79ba78d594262aa91410f49d7200ef55e7551441659412aac47b543f04\",\n",
      "        \"address\": \"bcrt1qxsu3c7d60r2egf324y2ppayawgqw7408252yzev5z24vg7658uzqwq2zs5\",\n",
      "        \"type\": \"witness_v0_scripthash\"\n",
      "      }\n",
      "    },\n",
      "    {\n",
      "      \"value\": \"0.00000330\",\n",
      "      \"n\": 1,\n",
      "      \"scriptPubKey\": {\n",
      "        \"asm\": \"0 56680a199b598b249d54e3b24fbf5a629228af306e3f587e8ab1b65233a581c4\",\n",
      "        \"desc\": \"addr(bcrt1q2e5q5xvmtx9jf825uweyl066v2fz3tesdcl4sl52kxm9yva9s8zq9pw5mq)#z5wzum6e\",\n",
      "        \"hex\": \"002056680a199b598b249d54e3b24fbf5a629228af306e3f587e8ab1b65233a581c4\",\n",
      "        \"address\": \"bcrt1q2e5q5xvmtx9jf825uweyl066v2fz3tesdcl4sl52kxm9yva9s8zq9pw5mq\",\n",
      "        \"type\": \"witness_v0_scripthash\"\n",
      "      }\n",
      "    },\n",
      "    {\n",
      "      \"value\": \"0.00500000\",\n",
      "      \"n\": 2,\n",
      "      \"scriptPubKey\": {\n",
      "        \"asm\": \"0 ea9713c7f38440f6ace2e3ad1b4982821623577e3d69908b76c0ce40f140602b\",\n",
      "        \"desc\": \"addr(bcrt1qa2t383lns3q0dt8zuwk3kjvzsgtzx4m7845epzmkcr8ypu2qvq4sz6xjae)#0x0e4m5d\",\n",
      "        \"hex\": \"0020ea9713c7f38440f6ace2e3ad1b4982821623577e3d69908b76c0ce40f140602b\",\n",
      "        \"address\": \"bcrt1qa2t383lns3q0dt8zuwk3kjvzsgtzx4m7845epzmkcr8ypu2qvq4sz6xjae\",\n",
      "        \"type\": \"witness_v0_scripthash\"\n",
      "      }\n",
      "    },\n",
      "    {\n",
      "      \"value\": \"0.01000000\",\n",
      "      \"n\": 3,\n",
      "      \"scriptPubKey\": {\n",
      "        \"asm\": \"0 439fd0fb44bb93e02a87b92851c9e377612166d8ce4af46eb9f82899a8e8323d\",\n",
      "        \"desc\": \"addr(bcrt1qgw0ap76yhwf7q258hy59rj0rwasjzekcee90gm4elq5fn28gxg7sj0rdmv)#6a82l2ar\",\n",
      "        \"hex\": \"0020439fd0fb44bb93e02a87b92851c9e377612166d8ce4af46eb9f82899a8e8323d\",\n",
      "        \"address\": \"bcrt1qgw0ap76yhwf7q258hy59rj0rwasjzekcee90gm4elq5fn28gxg7sj0rdmv\",\n",
      "        \"type\": \"witness_v0_scripthash\"\n",
      "      }\n",
      "    },\n",
      "    {\n",
      "      \"value\": \"0.03479900\",\n",
      "      \"n\": 4,\n",
      "      \"scriptPubKey\": {\n",
      "        \"asm\": \"0 ba1d69954241e722f06844375d5b4dcf7f3abfcce550e708bf0910383060d31a\",\n",
      "        \"desc\": \"addr(bcrt1qhgwkn92zg8nj9urggsm46k6dealn407vu4gwwz9lpygrsvrq6vdquv4qfu)#5ftxjn3k\",\n",
      "        \"hex\": \"0020ba1d69954241e722f06844375d5b4dcf7f3abfcce550e708bf0910383060d31a\",\n",
      "        \"address\": \"bcrt1qhgwkn92zg8nj9urggsm46k6dealn407vu4gwwz9lpygrsvrq6vdquv4qfu\",\n",
      "        \"type\": \"witness_v0_scripthash\"\n",
      "      }\n",
      "    }\n",
      "  ]\n",
      "}\n",
      "Bob Unsigned Commitment transaction\n",
      "{\n",
      "  \"txid\": \"e95fcd219c793a2fc4bbf2c307575cd04e3a2c8c052b1d7c9b4dc04cd521d876\",\n",
      "  \"hash\": \"e95fcd219c793a2fc4bbf2c307575cd04e3a2c8c052b1d7c9b4dc04cd521d876\",\n",
      "  \"version\": 2,\n",
      "  \"size\": 266,\n",
      "  \"vsize\": 266,\n",
      "  \"weight\": 1064,\n",
      "  \"locktime\": 541304428,\n",
      "  \"vin\": [\n",
      "    {\n",
      "      \"txid\": \"d8eaee29174a316f473ccf1425fddee605c8771f141d2278900c8bbce6e5db07\",\n",
      "      \"vout\": 1,\n",
      "      \"scriptSig\": {\n",
      "        \"asm\": \"\",\n",
      "        \"hex\": \"\"\n",
      "      },\n",
      "      \"sequence\": 2159293437\n",
      "    }\n",
      "  ],\n",
      "  \"vout\": [\n",
      "    {\n",
      "      \"value\": \"0.00000330\",\n",
      "      \"n\": 0,\n",
      "      \"scriptPubKey\": {\n",
      "        \"asm\": \"0 34391c79ba78d594262aa91410f49d7200ef55e7551441659412aac47b543f04\",\n",
      "        \"desc\": \"addr(bcrt1qxsu3c7d60r2egf324y2ppayawgqw7408252yzev5z24vg7658uzqwq2zs5)#62txjpcp\",\n",
      "        \"hex\": \"002034391c79ba78d594262aa91410f49d7200ef55e7551441659412aac47b543f04\",\n",
      "        \"address\": \"bcrt1qxsu3c7d60r2egf324y2ppayawgqw7408252yzev5z24vg7658uzqwq2zs5\",\n",
      "        \"type\": \"witness_v0_scripthash\"\n",
      "      }\n",
      "    },\n",
      "    {\n",
      "      \"value\": \"0.00000330\",\n",
      "      \"n\": 1,\n",
      "      \"scriptPubKey\": {\n",
      "        \"asm\": \"0 56680a199b598b249d54e3b24fbf5a629228af306e3f587e8ab1b65233a581c4\",\n",
      "        \"desc\": \"addr(bcrt1q2e5q5xvmtx9jf825uweyl066v2fz3tesdcl4sl52kxm9yva9s8zq9pw5mq)#z5wzum6e\",\n",
      "        \"hex\": \"002056680a199b598b249d54e3b24fbf5a629228af306e3f587e8ab1b65233a581c4\",\n",
      "        \"address\": \"bcrt1q2e5q5xvmtx9jf825uweyl066v2fz3tesdcl4sl52kxm9yva9s8zq9pw5mq\",\n",
      "        \"type\": \"witness_v0_scripthash\"\n",
      "      }\n",
      "    },\n",
      "    {\n",
      "      \"value\": \"0.00500000\",\n",
      "      \"n\": 2,\n",
      "      \"scriptPubKey\": {\n",
      "        \"asm\": \"0 bb9fcdc5ed7ac56775f98430524160bfdaad50ee7add4650618f77b0a3113ed9\",\n",
      "        \"desc\": \"addr(bcrt1qhw0um30d0tzkwa0essc9ystqhld2658w0tw5v5rp3ammpgc38mvsshexc9)#yjhu3s2y\",\n",
      "        \"hex\": \"0020bb9fcdc5ed7ac56775f98430524160bfdaad50ee7add4650618f77b0a3113ed9\",\n",
      "        \"address\": \"bcrt1qhw0um30d0tzkwa0essc9ystqhld2658w0tw5v5rp3ammpgc38mvsshexc9\",\n",
      "        \"type\": \"witness_v0_scripthash\"\n",
      "      }\n",
      "    },\n",
      "    {\n",
      "      \"value\": \"0.01000000\",\n",
      "      \"n\": 3,\n",
      "      \"scriptPubKey\": {\n",
      "        \"asm\": \"0 22d5ac3f86d25be331276291c7cd8aeb71e005fc78ccc40e81779cc9ed17477a\",\n",
      "        \"desc\": \"addr(bcrt1qyt26c0ux6fd7xvf8v2gu0nv2adc7qp0u0rxvgr5pw7wvnmghgaaq2efr7z)#9t7qc29n\",\n",
      "        \"hex\": \"002022d5ac3f86d25be331276291c7cd8aeb71e005fc78ccc40e81779cc9ed17477a\",\n",
      "        \"address\": \"bcrt1qyt26c0ux6fd7xvf8v2gu0nv2adc7qp0u0rxvgr5pw7wvnmghgaaq2efr7z\",\n",
      "        \"type\": \"witness_v0_scripthash\"\n",
      "      }\n",
      "    },\n",
      "    {\n",
      "      \"value\": \"0.03479900\",\n",
      "      \"n\": 4,\n",
      "      \"scriptPubKey\": {\n",
      "        \"asm\": \"0 475d024bb95e9a981632863d3b1a4b9308aa88e189196272735a3e3d47caf936\",\n",
      "        \"desc\": \"addr(bcrt1qgawsyjaet6dfs93jsc7nkxjtjvy24z8p3yvkyunntglr6372lymq8edt6d)#vxtm3r5t\",\n",
      "        \"hex\": \"0020475d024bb95e9a981632863d3b1a4b9308aa88e189196272735a3e3d47caf936\",\n",
      "        \"address\": \"bcrt1qgawsyjaet6dfs93jsc7nkxjtjvy24z8p3yvkyunntglr6372lymq8edt6d\",\n",
      "        \"type\": \"witness_v0_scripthash\"\n",
      "      }\n",
      "    }\n",
      "  ]\n",
      "}\n",
      "alice_commitment_tx_digest_preimage:  0200000081d62873a2969d90fcfd8436f11053785671b840908ac406a86f0daada2b5cd0c6067e2ccbba74d4f24cc174be97c1ea7514cf7a20d616fbc7587a48964b2c9507dbe5e6bc8b0c9078221d141f77c805e6defd2514cf3c476f314a1729eeead80100000047522102245c997231079146616f70eae46dd43461b530cb55df50cac8ef321127adb96321032b057a643c7b928b7dc30e1f76c2a777a213fe3a7462215d10220844befe77c352ae404b4c0000000000fd33b4806c57f53984d4f1f87befc46fc3ea04f88e73aa9fa648504b761825153e37d2486ca6432001000000\n",
      "bob_commitment_tx_digest_preimage:  0200000081d62873a2969d90fcfd8436f11053785671b840908ac406a86f0daada2b5cd0c6067e2ccbba74d4f24cc174be97c1ea7514cf7a20d616fbc7587a48964b2c9507dbe5e6bc8b0c9078221d141f77c805e6defd2514cf3c476f314a1729eeead80100000047522102245c997231079146616f70eae46dd43461b530cb55df50cac8ef321127adb96321032b057a643c7b928b7dc30e1f76c2a777a213fe3a7462215d10220844befe77c352ae404b4c0000000000fd33b48006d578cddd13b53a4f305650c917bbdf2764c75da81394249815db709fb156e56ca6432001000000\n",
      "Alice Signed Commitment Transaction:  0200000000010107dbe5e6bc8b0c9078221d141f77c805e6defd2514cf3c476f314a1729eeead80100000000fd33b480054a0100000000000022002034391c79ba78d594262aa91410f49d7200ef55e7551441659412aac47b543f044a0100000000000022002056680a199b598b249d54e3b24fbf5a629228af306e3f587e8ab1b65233a581c420a1070000000000220020ea9713c7f38440f6ace2e3ad1b4982821623577e3d69908b76c0ce40f140602b40420f0000000000220020439fd0fb44bb93e02a87b92851c9e377612166d8ce4af46eb9f82899a8e8323d5c19350000000000220020ba1d69954241e722f06844375d5b4dcf7f3abfcce550e708bf0910383060d31a040048304502210096bf2cffb3eeb3a7dab925cff7948109505e3ea2a0fcd6198bc06eb3f55deb33022030706d896464a385cab45dbd5324a9bffa422e7faeb49bd015c89f79844767fd01483045022100fbf01800690fc499187bf02278838a5364454b874108fda204a2ed58aa29cdb102207c61eb9cb905599f4923b9608ae353b631fe1b19bf00b625f3848a71fa4fec210147522102245c997231079146616f70eae46dd43461b530cb55df50cac8ef321127adb96321032b057a643c7b928b7dc30e1f76c2a777a213fe3a7462215d10220844befe77c352ae6ca64320\n",
      "Bob Signed Commitment Transaction:  0200000000010107dbe5e6bc8b0c9078221d141f77c805e6defd2514cf3c476f314a1729eeead80100000000fd33b480054a0100000000000022002034391c79ba78d594262aa91410f49d7200ef55e7551441659412aac47b543f044a0100000000000022002056680a199b598b249d54e3b24fbf5a629228af306e3f587e8ab1b65233a581c420a1070000000000220020bb9fcdc5ed7ac56775f98430524160bfdaad50ee7add4650618f77b0a3113ed940420f000000000022002022d5ac3f86d25be331276291c7cd8aeb71e005fc78ccc40e81779cc9ed17477a5c19350000000000220020475d024bb95e9a981632863d3b1a4b9308aa88e189196272735a3e3d47caf936040047304402204514371ffda0c55d3b852700408c1a7a839accd4f4539ab6d3c0274e0ea4dab102206978ebad8b906c55df8a899239c766c29c744c152cebd95e48c75f5cb655987c014730440220586d69009f18c84ccc573d0932f078260c040e6bfe7c697c9e2dd46f442fa930022042d3e81d8563bef9fb263a6cf30759a1c00687fea05627e6b69ca090b3d103b70147522102245c997231079146616f70eae46dd43461b530cb55df50cac8ef321127adb96321032b057a643c7b928b7dc30e1f76c2a777a213fe3a7462215d10220844befe77c352ae6ca64320\n",
      "[{'txid': '5197e4c84c89299de9285e82923df54fa0a65fbe7f46b9d768809ad8a037ee83', 'wtxid': '09391b921d9e4e8bfa455690c2ad977cc0abc308dfba901be1d1432bf4ba8227', 'allowed': True, 'vsize': 322, 'fees': {'base': Decimal('0.00019440'), 'effective-feerate': Decimal('0.00060372'), 'effective-includes': ['09391b921d9e4e8bfa455690c2ad977cc0abc308dfba901be1d1432bf4ba8227']}}]\n",
      "[{'txid': 'e95fcd219c793a2fc4bbf2c307575cd04e3a2c8c052b1d7c9b4dc04cd521d876', 'wtxid': 'c404f60882964e1442edab61fa2484713dbdd11d25b6c4c70d6d827fa5975836', 'allowed': True, 'vsize': 321, 'fees': {'base': Decimal('0.00019440'), 'effective-feerate': Decimal('0.00060560'), 'effective-includes': ['c404f60882964e1442edab61fa2484713dbdd11d25b6c4c70d6d827fa5975836']}}]\n",
      "Current block height: 104\n",
      "Force Close txid 5197e4c84c89299de9285e82923df54fa0a65fbe7f46b9d768809ad8a037ee83\n",
      "inputs : 83ee37a0d89a8068d7b9467fbe5fa6a04ff53d92825e28e99d29894cc8e49751020000000001000000\n",
      "HTLC Output SPK: 0020ba1d69954241e722f06844375d5b4dcf7f3abfcce550e708bf0910383060d31a\n",
      "unsigned_htlc_tx:  020000000183ee37a0d89a8068d7b9467fbe5fa6a04ff53d92825e28e99d29894cc8e497510200000000010000000120a1070000000000220020ba1d69954241e722f06844375d5b4dcf7f3abfcce550e708bf0910383060d31a6d000000\n",
      "{\n",
      "  \"txid\": \"3ad3592ba8f09121be34c53c681e66c8ea7f6c36a92ee52886a22be00a0dd604\",\n",
      "  \"hash\": \"3ad3592ba8f09121be34c53c681e66c8ea7f6c36a92ee52886a22be00a0dd604\",\n",
      "  \"version\": 2,\n",
      "  \"size\": 94,\n",
      "  \"vsize\": 94,\n",
      "  \"weight\": 376,\n",
      "  \"locktime\": 109,\n",
      "  \"vin\": [\n",
      "    {\n",
      "      \"txid\": \"5197e4c84c89299de9285e82923df54fa0a65fbe7f46b9d768809ad8a037ee83\",\n",
      "      \"vout\": 2,\n",
      "      \"scriptSig\": {\n",
      "        \"asm\": \"\",\n",
      "        \"hex\": \"\"\n",
      "      },\n",
      "      \"sequence\": 1\n",
      "    }\n",
      "  ],\n",
      "  \"vout\": [\n",
      "    {\n",
      "      \"value\": \"0.00500000\",\n",
      "      \"n\": 0,\n",
      "      \"scriptPubKey\": {\n",
      "        \"asm\": \"0 ba1d69954241e722f06844375d5b4dcf7f3abfcce550e708bf0910383060d31a\",\n",
      "        \"desc\": \"addr(bcrt1qhgwkn92zg8nj9urggsm46k6dealn407vu4gwwz9lpygrsvrq6vdquv4qfu)#5ftxjn3k\",\n",
      "        \"hex\": \"0020ba1d69954241e722f06844375d5b4dcf7f3abfcce550e708bf0910383060d31a\",\n",
      "        \"address\": \"bcrt1qhgwkn92zg8nj9urggsm46k6dealn407vu4gwwz9lpygrsvrq6vdquv4qfu\",\n",
      "        \"type\": \"witness_v0_scripthash\"\n",
      "      }\n",
      "    }\n",
      "  ]\n",
      "}\n",
      "tx_digest_preimage:  02000000d5b3b07b3ba87bd73345a8938dfca946aa9bb29298efa1a3d1818cfd0924aafe41f758f2e5cc078d3795b4fc0cb60c2d735fa92cc020572bdc982dd2d564d11b83ee37a0d89a8068d7b9467fbe5fa6a04ff53d92825e28e99d29894cc8e49751020000008876a914e27d45529ee2b9378ea58d6560451bad9cf8a4a68763ac672103f0ce4fe88d9e1d79c449ced61ee6cfc9280b3e424a48f952667b7fd73a299aa17c820120876475527c2103f020b85b2f600cdba67ecb33ed2ed09bf1c0a0e67e839a9ca70766049a5f329852ae67a914c51b66bced5e4491001bd702669770dccf44098288ac6851b2756820a1070000000000010000004c9b6b81268637b6cb8d458a9706f1085d47f0cb0af432398ce73649246b34c36d00000083000000\n",
      "Alice HTLC Privkey: 4538248364791b00f39654406f0ef3102c4184e2da8a51815f976abc368e07ea\n",
      "Bob HTLC Privkey: 9c6f51fffe0edb251d33ae9a3b7385b735f8de728765c10a640dc14e7c3d2ad4\n",
      "HTLC Timeout Transaction:  0200000000010183ee37a0d89a8068d7b9467fbe5fa6a04ff53d92825e28e99d29894cc8e497510200000000010000000120a1070000000000220020ba1d69954241e722f06844375d5b4dcf7f3abfcce550e708bf0910383060d31a05004730440220375a665d868806226b5bd9538b31bed7aa6f3141cde0a74410282ec216a31997022034ed46846dbba5e38447461fe094cb4ac52f58914a689e319a734e3cbc31933183483045022100af60b2c13c0885703964333e72e554ac347458a91c8e2683e3a402e4f5a1618f02204f942daaa74464ad47085ae0dd95815ac7a95c072476c568093399cd5eba6e7a83008876a914e27d45529ee2b9378ea58d6560451bad9cf8a4a68763ac672103f0ce4fe88d9e1d79c449ced61ee6cfc9280b3e424a48f952667b7fd73a299aa17c820120876475527c2103f020b85b2f600cdba67ecb33ed2ed09bf1c0a0e67e839a9ca70766049a5f329852ae67a914c51b66bced5e4491001bd702669770dccf44098288ac6851b275686d000000\n",
      "[{'txid': '3ad3592ba8f09121be34c53c681e66c8ea7f6c36a92ee52886a22be00a0dd604', 'wtxid': 'a3f4bd2ce51c6fae77855a757024e13fd38bd835c6ae87731034547591e8550c', 'allowed': False, 'reject-reason': 'non-final'}]\n",
      "[{'txid': '3ad3592ba8f09121be34c53c681e66c8ea7f6c36a92ee52886a22be00a0dd604', 'wtxid': 'a3f4bd2ce51c6fae77855a757024e13fd38bd835c6ae87731034547591e8550c', 'allowed': False, 'reject-reason': 'min relay fee not met'}]\n"
     ]
    }
   ],
   "source": [
    "# run notebook\n",
    "%run \"/home/pins-dev/Projects/lightning-tx-tutorial/Chapter 5 - HTLC-Timeout and HTLC-Success Transactions/HTLC-Timeout and HTLC-Success Transactions.ipynb\""
   ]
  },
  {
   "cell_type": "markdown",
   "id": "471e53aa-65e8-4767-9ede-f37756cc7281",
   "metadata": {},
   "source": [
    "## SegWit Transaction Structure (with n inputs)\n",
    "\n",
    "To simulate the behavior of the Sweeper Subsystem in a Lightning Node, we’ll take the HTLC-Timeout transaction created in the previous notebook and extend it by adding one input and one output. After that, we'll sign and broadcast the resulting transaction. Below, you can see the structure of a SegWit transaction with multiple inputs and outputs.\n",
    "\n",
    "The HTLC-Timeout transaction already contains one input and one output, both signed using the SIGHASH_SINGLE | SIGHASH_ANYONECANPAY sighash type. This allows us to safely append input 2 and output 2 without invalidating the existing signature on input 1 and output 1.\n",
    "\n",
    "[version]\n",
    "\n",
    "[marker][flag]              <-- SegWit-specific\n",
    "\n",
    "[tx_in count]\n",
    "\n",
    "[input 1]\n",
    "\n",
    "[input 2]\n",
    "\n",
    "...\n",
    "\n",
    "[tx_out count]\n",
    "\n",
    "[output 1]\n",
    "\n",
    "[output 2]\n",
    "\n",
    "...\n",
    "\n",
    "[witness for input 1]\n",
    "\n",
    "[witness for input 2]\n",
    "\n",
    "...\n",
    "\n",
    "[locktime]\n"
   ]
  },
  {
   "cell_type": "code",
   "execution_count": null,
   "id": "a5502907-6e52-446c-bfb9-cc3443fdd18a",
   "metadata": {},
   "outputs": [],
   "source": [
    "\n",
    "# INPUTS\n",
    "# We had just 1 input we are adding another one\n",
    "input_count = bytes.fromhex(\"02\")\n",
    "\n",
    "# sequence: set to 1 for option_anchors\n",
    "sequence = bytes.fromhex(\"0100 0000\")\n",
    "\n",
    "inputs = (\n",
    "    txid\n",
    "    + index\n",
    "    + varint_len(scriptsig)\n",
    "    + scriptsig\n",
    "    + sequence\n",
    ")\n",
    "\n",
    "print(\"inputs :\", inputs.hex())\n",
    "\n",
    "# OUTPUTS\n",
    "output_count = bytes.fromhex(\"01\")\n",
    "\n",
    "# OP_IF\n",
    "#   Penalty transaction\n",
    "#   <revocationpubkey>\n",
    "# OP_ELSE\n",
    "#    `to_self_delay`\n",
    "#    OP_CHECKSEQUENCEVERIFY\n",
    "#    OP_DROP\n",
    "#    <local_delayedpubkey>\n",
    "# OP_ENDIF\n",
    "# OP_CHECKSIG\n",
    "htlc_redeemScript = bytes.fromhex(\n",
    "    \"63\"   # OP_IF\n",
    "    + \"21\"\n",
    "    + bob_revocation_pubkey\n",
    "    + \"67\"   # OP_ELSE\n",
    "    + \"02\"   \n",
    "    + \"9000\" # to_self_delay of 144 blocks\n",
    "    + \"b2\"   # OP_CHECKSEQUENCEVERIFY\n",
    "    + \"75\"   # OP_DROP\n",
    "    + \"21\"\n",
    "    + alice_delayed_pubkey\n",
    "    + \"68\"  # OP_ENDIF\n",
    "    + \"ac\") # OP_CHECKSIGt to a convenient address.\n",
    "\n",
    "htlc_script_hash = sha256(htlc_redeemScript)\n",
    "htlc_output_spk = bytes.fromhex(\"0020\") + htlc_script_hash\n",
    "print(f\"HTLC Output SPK: {htlc_output_spk.hex()}\")\n",
    "\n",
    "outputs = (\n",
    "    alice_offered_htlc_output_value\n",
    "    + varint_len(htlc_output_spk)\n",
    "    + htlc_output_spk\n",
    ")\n",
    "\n",
    "# LOCKTIME\n",
    "locktime = height + 5\n",
    "locktime = locktime.to_bytes(4, 'little')\n",
    "\n",
    "unsigned_htlc_tx = (\n",
    "    version\n",
    "    + input_count\n",
    "    + inputs\n",
    "    + output_count\n",
    "    + outputs\n",
    "    + locktime\n",
    ")\n",
    "\n",
    "print(\"unsigned_htlc_tx: \", unsigned_htlc_tx.hex())\n"
   ]
  }
 ],
 "metadata": {
  "kernelspec": {
   "display_name": "Python 3 (ipykernel)",
   "language": "python",
   "name": "python3"
  },
  "language_info": {
   "codemirror_mode": {
    "name": "ipython",
    "version": 3
   },
   "file_extension": ".py",
   "mimetype": "text/x-python",
   "name": "python",
   "nbconvert_exporter": "python",
   "pygments_lexer": "ipython3",
   "version": "3.12.3"
  }
 },
 "nbformat": 4,
 "nbformat_minor": 5
}
