{
 "cells": [
  {
   "cell_type": "markdown",
   "id": "c0b8b4db-d792-4cdc-8b40-e1dc00569a5d",
   "metadata": {},
   "source": [
    "# Creating an Unilateral Closing Transaction\n",
    "\n",
    "In this section we'll broadcast an unilateral closing transaction created on the previous notebook. We'll test it using bitcoin core in regtest mode.\n",
    "\n",
    "## Prerequisite knowledge\n",
    "### For all notebooks\n",
    "- A high level understanding of the bitcoin. e.g. [Mastering Bitcoin](https://github.com/bitcoinbook/bitcoinbook), in particular [Chapter 6](https://github.com/bitcoinbook/bitcoinbook/blob/develop/ch06.asciidoc).\n",
    "- A conceptual understanding of [hash functions](https://www.thesslstore.com/blog/what-is-a-hash-function-in-cryptography-a-beginners-guide).\n",
    "- [Hexadecimal notation](https://inst.eecs.berkeley.edu/~cs61bl/r//cur/bits/decimal-binary-hex.html?topic=lab28.topic&step=2&course=) and [endianness](https://www.freecodecamp.org/news/what-is-endianness-big-endian-vs-little-endian/).\n",
    "- A high level understanding of the lightning e.g. [Mastering Lightning Network](https://github.com/lnbook/lnbook), in particular [Chapter7](https://github.com/lnbook/lnbook/blob/develop/07_payment_channels.asciidoc), [Chapter 8](https://github.com/lnbook/lnbook/blob/develop/08_routing_htlcs.asciidoc) and [Chapter 9](https://github.com/lnbook/lnbook/blob/develop/09_channel_operation.asciidoc).\n",
    "\n",
    "### Specific to this notebook:\n",
    "- SHA256, HASH256, HASH160 - '[Hash Functions chapter](https://github.com/MPins/lightning-tx-tutorial/blob/main/appendix/hash-functions.ipynb)'\n",
    "- Bech32 addresses - '[Addresses chapter](https://github.com/MPins/lightning-tx-tutorial/blob/main/appendix/Addresses.ipynb)'\n",
    "- Bitcoin Script basics - '[Bitcoin Script chapter](https://github.com/MPins/lightning-tx-tutorial/blob/main/appendix/Bitcoin%20Script.ipynb)'\n",
    "- Lightning Network BOLT #2: '[Peer Protocol for Channel Management](https://github.com/lightning/bolts/blob/master/02-peer-protocol.md#channel-establishment-v1)'\n",
    "- Lightning Network Bolt #3: '[Funding Transaction Output](https://github.com/lightning/bolts/blob/master/03-transactions.md#funding-transaction-output)'"
   ]
  },
  {
   "cell_type": "markdown",
   "id": "d15e41b2-1fbc-4e29-81a7-19b41f2deee7",
   "metadata": {},
   "source": [
    "## What is a Unilateral Closing Transaction?\n",
    "\n",
    "In the Lightning Network, a unilateral closing transaction—commonly known as a force close—occurs when one party closes the channel without the cooperation of the other. This typically happens if the other party is unresponsive or if there's a disagreement regarding the channel balance.\n",
    "\n",
    "\n",
    "## Setup \n",
    "### Requirements\n",
    "For this chapter we'll need the Bitcoin Core. This notebook has been tested with [v28.0](https://github.com/bitcoin/bitcoin/releases/tag/v28.0).\n",
    "\n",
    "Below, set the paths for:\n",
    "1. The bitcoin core functional test framework directory.\n",
    "2. The directory containing lightning-tx-tutorial.\n",
    "\n",
    "**You'll need to edit these next two lines for your local setup.**"
   ]
  },
  {
   "cell_type": "code",
   "execution_count": 1,
   "id": "fd7d9495-99ce-450a-a382-4da11c811a9e",
   "metadata": {},
   "outputs": [
    {
     "name": "stdout",
     "output_type": "stream",
     "text": [
      "Alice Per Commitment Seed 34b581ec20bf2c6cae3d4d4dcbfddc8a3727a1e9a57c55f3520e770607898c06\n",
      "Bob Per Commitment Seed 89c994b3ddad4698acee71e42d8bcace48eea739caaba371eb110e77663ec56d\n",
      "Alice Revocation Basepoint Private Key: c17ac3952ca414190074d1e59ea03fbae253196173908dc8b131af6bd2cc8161\n",
      "Alice Revocation Basepoint Public Key: 03649c4f865bec74b0a186deef4defad51cfdc141443e38074ea05a7835a953a49\n",
      "Alice HTLC Basepoint Private Key: 763ae49a20e6668c88602c782716dd83ba6c4cc0333b38810e2bcd7b22c871ac\n",
      "Alice HTLC Basepoint Public Key: 02816fde4150e4dfcac94eff0b821448fb70f57a56148ba2206cd9b2fd0cc20bdf\n",
      "Alice Payment Basepoint Private Key: 72d8c12971b58076a1f27eb7938ca442f0b210762b23637443ac2e99dac352a6\n",
      "Alice Payment Basepoint Public Key: 025f892a06124391e2f38ce35d943cdc09f63e203330dbd9cb6113a903e0738458\n",
      "Alice Delayed Payment Basepoint Private Key: 7cafce00c54e7241894dcc7c3beaca29dd354139fdb6182198d6c5f1063bfe8d\n",
      "Alice Delayed Payment Basepoint Public Key: 034aa35219136bb238e072341b20a4bf8fb44a83cdb73dd2bd973c123ac2dfd7ff\n",
      "Bob Revocation Basepoint Private Key: fa526e09b9ff7425552db1803d7e12cf4475d060db4cfb812adb07219a54baa0\n",
      "Bob Revocation Basepoint Public Key: 02536407aada57068f30b53c4126062d235967c3636147433e72b21ff93c8acdbf\n",
      "Bob HTLC Basepoint Private Key: 06d61bb059eef194a3d223992a028fbd31f2e8b289d5a10acd343671c9322155\n",
      "Bob HTLC Basepoint Public Key: 0306b11436efa058a86f997df6596ea4579241f3909175772d77df38a5255f52f4\n",
      "Bob Payment Basepoint Private Key: 5046024e716c479599350b7aee8139304d942360733d8dd79793917f9e33a334\n",
      "Bob Payment Basepoint Public Key: 02f98efd3f2b2fbe7bd83c419f5f64f8280798b8a9175fdb77c0091bbb95c79506\n",
      "Bob Delayed Payment Basepoint Private Key: d764d4c083cac97d34913bdf123c3dfef5379db9e9b0652897783e0d01880bb3\n",
      "Bob Delayed Payment Basepoint Public Key: 032a5869ac5eb30ba1e9c9addd3740822dac6f45a8de9b3d4e171f14c3abce2dae\n",
      "Alice Funding Private Key: ccd60731893309bb59a6030a581fc80984fa96129e10cf8342c0b0b800ffb51c\n",
      "Alice Funding Public Key: 02245c997231079146616f70eae46dd43461b530cb55df50cac8ef321127adb963\n",
      "Alice Closing Private Key: 75e80013b88f2ffa07fc70652d7721bdb1458304a6d0fb4d360c2b82098cba9b\n",
      "Alice Closing Public Key: 023cf1d744c5415046a18cf7b76cbe0af5e8609b80f20ea10d7ec98bf90dad67c8\n",
      "Alice Change Private Key: 6c2bda7af1291da770d0041794bbc891ac27c2fbe6a8a825a8f14f3b904b1f4e\n",
      "Alice Change Public Key: 02f0006732c6db9e73522b31168bda043cbf7759c46e553eae9dede26ccd08a39b\n",
      "Bob Funding Private Key: ca62b96f01783d13a48be4e8a2ca9c48093f62b64537d4c3c33d45d7cb53a0a7\n",
      "Bob Funding Public Key: 032b057a643c7b928b7dc30e1f76c2a777a213fe3a7462215d10220844befe77c3\n",
      "Bob Closing Private Key: 453009ee716540e6fd5027fd2ae20534dfe6087a07d21b870b2ee118b8d92b14\n",
      "Bob Closing Public Key: 02e824f6d9d38195d93768870e952ae010fab2347e7228d42ff324705a4f1e3201\n",
      "Alice's funding p2wpkh address: bcrt1qt0vq5dj8qa720lfx3hhzyu9ygsng9js3g02lnl\n",
      "Alice's change p2wpkh address: bcrt1qt6ax8rh20h6zts0dcqmzdy9kte3pds4lrzwl6s\n",
      "2025-05-20T02:43:44.508000Z TestFramework (INFO): PRNG seed is: 3337423757511124493\n",
      "2025-05-20T02:43:44.509000Z TestFramework (INFO): Initializing test directory /tmp/bitcoin_func_test_hy5qhyaf\n",
      "txid_to_spent: 6c69f12d95cd32e4c65f55b193cb6a3f15a94bd1529afecd0a67f9d6f783acc9, 0\n",
      "Alice pubkey is lexicographically lesser than Bob pubkey:\n",
      "02245c997231079146616f70eae46dd43461b530cb55df50cac8ef321127adb963 < 032b057a643c7b928b7dc30e1f76c2a777a213fe3a7462215d10220844befe77c3\n",
      "Redeem Script:\n",
      "522102245c997231079146616f70eae46dd43461b530cb55df50cac8ef321127adb96321032b057a643c7b928b7dc30e1f76c2a777a213fe3a7462215d10220844befe77c352ae\n",
      "channel_address:  bcrt1qhsn37ekwjgxlajuavyzne28yrahkyesgnr6qhxvzlw3807ttcjeqhcl6mc\n",
      "unsigned_channel_funding_tx:  0200000001c9ac83f7d6f9670acdfe9a52d14ba9153f6acb93b1555fc6e432cd952df1696c0000000000ffffffff02c0e1e400000000001600145eba638eea7df425c1edc0362690b65e6216c2bf404b4c0000000000220020bc271f66ce920dfecb9d61053ca8e41f6f62660898f40b9982fba277f96bc4b200000000\n",
      "{\n",
      "  \"txid\": \"0dfd23e351fc3230efbe24c928c2e81082db25f61bf66ff41c9a0cf08c8ad43c\",\n",
      "  \"hash\": \"0dfd23e351fc3230efbe24c928c2e81082db25f61bf66ff41c9a0cf08c8ad43c\",\n",
      "  \"version\": 2,\n",
      "  \"size\": 125,\n",
      "  \"vsize\": 125,\n",
      "  \"weight\": 500,\n",
      "  \"locktime\": 0,\n",
      "  \"vin\": [\n",
      "    {\n",
      "      \"txid\": \"6c69f12d95cd32e4c65f55b193cb6a3f15a94bd1529afecd0a67f9d6f783acc9\",\n",
      "      \"vout\": 0,\n",
      "      \"scriptSig\": {\n",
      "        \"asm\": \"\",\n",
      "        \"hex\": \"\"\n",
      "      },\n",
      "      \"sequence\": 4294967295\n",
      "    }\n",
      "  ],\n",
      "  \"vout\": [\n",
      "    {\n",
      "      \"value\": \"0.15000000\",\n",
      "      \"n\": 0,\n",
      "      \"scriptPubKey\": {\n",
      "        \"asm\": \"0 5eba638eea7df425c1edc0362690b65e6216c2bf\",\n",
      "        \"desc\": \"addr(bcrt1qt6ax8rh20h6zts0dcqmzdy9kte3pds4lrzwl6s)#s9wdm0cm\",\n",
      "        \"hex\": \"00145eba638eea7df425c1edc0362690b65e6216c2bf\",\n",
      "        \"address\": \"bcrt1qt6ax8rh20h6zts0dcqmzdy9kte3pds4lrzwl6s\",\n",
      "        \"type\": \"witness_v0_keyhash\"\n",
      "      }\n",
      "    },\n",
      "    {\n",
      "      \"value\": \"0.05000000\",\n",
      "      \"n\": 1,\n",
      "      \"scriptPubKey\": {\n",
      "        \"asm\": \"0 bc271f66ce920dfecb9d61053ca8e41f6f62660898f40b9982fba277f96bc4b2\",\n",
      "        \"desc\": \"addr(bcrt1qhsn37ekwjgxlajuavyzne28yrahkyesgnr6qhxvzlw3807ttcjeqhcl6mc)#q3fvp06p\",\n",
      "        \"hex\": \"0020bc271f66ce920dfecb9d61053ca8e41f6f62660898f40b9982fba277f96bc4b2\",\n",
      "        \"address\": \"bcrt1qhsn37ekwjgxlajuavyzne28yrahkyesgnr6qhxvzlw3807ttcjeqhcl6mc\",\n",
      "        \"type\": \"witness_v0_scripthash\"\n",
      "      }\n",
      "    }\n",
      "  ]\n",
      "}\n",
      "tx_digest_preimage:  02000000bd708fafed1eebf83d9808c5deb83068e125a7bb16bb56bb43cd902b32d4839c3bb13029ce7b1f559ef5e747fcac439f1455a2ec7c5f09b72290795e70665044c9ac83f7d6f9670acdfe9a52d14ba9153f6acb93b1555fc6e432cd952df1696c000000001976a9145bd80a3647077ca7fd268dee2270a4442682ca1188aca0b3320100000000fffffffff024a453c206730b975be44da5987693c127c508aada9aabadc9455fb74b5fc60000000001000000\n",
      "Channel Funding Signed Transaction:  02000000000101c9ac83f7d6f9670acdfe9a52d14ba9153f6acb93b1555fc6e432cd952df1696c0000000000ffffffff02c0e1e400000000001600145eba638eea7df425c1edc0362690b65e6216c2bf404b4c0000000000220020bc271f66ce920dfecb9d61053ca8e41f6f62660898f40b9982fba277f96bc4b202483045022100adb7f146aec79e263230665e7916425e293b8a2c935ffcf52a721931babab97702204e8605db321b20d9b4bb4f2b70860cf73c2121b419bb87974c9ee6e083cce07e012102245c997231079146616f70eae46dd43461b530cb55df50cac8ef321127adb96300000000\n",
      "Alice First Per Commitment Secret: 739d879e3b2502146546b9d6d51b1e05feb362397b7cf7ba13c7719b0a889dd9\n",
      "Alice First Per Commitment Point: 0368081a0a30ec118e662b71d222c383c5c9f495b4821fd0252452abf659250237\n",
      "Bob First Per Commitment Secret: 203f2c3e5cd6004ef0ea26e82c2ffeb2dc80036cedca92c210010cd73facd38a\n",
      "Bob First Per Commitment Point: 03ac685c74c0970c62f0e69ad332b6a5f6d61d3650128ef2a18e011cfd28d177b4\n",
      "Commitment Number Obscured: 0xb433fd43a66f\n",
      "Inputs: 3cd48a8cf00c9a1cf46ff61bf625db8210e8c228c924beef3032fc51e323fd0d0100000000fd33b480\n",
      "Alice Delayed Pubkey: 03d6363615b3d00361158c0f48a4ef81ea12e214e8d56e24098759f6b4267dca8b\n",
      "Bob Revocation Pubkey: 025460add4edf0961bfcc6288be0241114d7d90005db28753d835f2353f1529710\n",
      "Alice Anchor Output SPK: 002034391c79ba78d594262aa91410f49d7200ef55e7551441659412aac47b543f04\n",
      "Alice Delayed Output SPK: 0020fc03b40c456c47ebb621665209aa5bbc82d9282caf6a1be843782f6805fffff5\n",
      "Alice Remote Output SPK: 0020f0447296bbb031d3f362b223a0ba7281bfcfeca9061820c9bdee400411fc01be\n",
      "Unsigned Alice Commitment Transaction:  02000000013cd48a8cf00c9a1cf46ff61bf625db8210e8c228c924beef3032fc51e323fd0d0100000000fd33b480024a0100000000000022002034391c79ba78d594262aa91410f49d7200ef55e7551441659412aac47b543f041a084c0000000000220020fc03b40c456c47ebb621665209aa5bbc82d9282caf6a1be843782f6805fffff56fa64320\n",
      "Unsigned Bob Commitment Transaction:  02000000013cd48a8cf00c9a1cf46ff61bf625db8210e8c228c924beef3032fc51e323fd0d0100000000fd33b480024a0100000000000022002034391c79ba78d594262aa91410f49d7200ef55e7551441659412aac47b543f041a084c0000000000220020f0447296bbb031d3f362b223a0ba7281bfcfeca9061820c9bdee400411fc01be6fa64320\n",
      "Alice Unsigned Commitment transaction\n",
      "{\n",
      "  \"txid\": \"9a5f76b710fa8c3494313c765ac52db4ccfcd1682873d662b1333ccf9ae2a41c\",\n",
      "  \"hash\": \"9a5f76b710fa8c3494313c765ac52db4ccfcd1682873d662b1333ccf9ae2a41c\",\n",
      "  \"version\": 2,\n",
      "  \"size\": 137,\n",
      "  \"vsize\": 137,\n",
      "  \"weight\": 548,\n",
      "  \"locktime\": 541304431,\n",
      "  \"vin\": [\n",
      "    {\n",
      "      \"txid\": \"0dfd23e351fc3230efbe24c928c2e81082db25f61bf66ff41c9a0cf08c8ad43c\",\n",
      "      \"vout\": 1,\n",
      "      \"scriptSig\": {\n",
      "        \"asm\": \"\",\n",
      "        \"hex\": \"\"\n",
      "      },\n",
      "      \"sequence\": 2159293437\n",
      "    }\n",
      "  ],\n",
      "  \"vout\": [\n",
      "    {\n",
      "      \"value\": \"0.00000330\",\n",
      "      \"n\": 0,\n",
      "      \"scriptPubKey\": {\n",
      "        \"asm\": \"0 34391c79ba78d594262aa91410f49d7200ef55e7551441659412aac47b543f04\",\n",
      "        \"desc\": \"addr(bcrt1qxsu3c7d60r2egf324y2ppayawgqw7408252yzev5z24vg7658uzqwq2zs5)#62txjpcp\",\n",
      "        \"hex\": \"002034391c79ba78d594262aa91410f49d7200ef55e7551441659412aac47b543f04\",\n",
      "        \"address\": \"bcrt1qxsu3c7d60r2egf324y2ppayawgqw7408252yzev5z24vg7658uzqwq2zs5\",\n",
      "        \"type\": \"witness_v0_scripthash\"\n",
      "      }\n",
      "    },\n",
      "    {\n",
      "      \"value\": \"0.04982810\",\n",
      "      \"n\": 1,\n",
      "      \"scriptPubKey\": {\n",
      "        \"asm\": \"0 fc03b40c456c47ebb621665209aa5bbc82d9282caf6a1be843782f6805fffff5\",\n",
      "        \"desc\": \"addr(bcrt1qlspmgrz9d3r7hd3pvefqn2jmhjpdj2pv4a4ph6zr0qhksp0lll6s4hxelk)#ea76vvnd\",\n",
      "        \"hex\": \"0020fc03b40c456c47ebb621665209aa5bbc82d9282caf6a1be843782f6805fffff5\",\n",
      "        \"address\": \"bcrt1qlspmgrz9d3r7hd3pvefqn2jmhjpdj2pv4a4ph6zr0qhksp0lll6s4hxelk\",\n",
      "        \"type\": \"witness_v0_scripthash\"\n",
      "      }\n",
      "    }\n",
      "  ]\n",
      "}\n",
      "Bob Unsigned Commitment transaction\n",
      "{\n",
      "  \"txid\": \"f0f4575e7459753e75b5ed6867ce6441c5cc3634f0df67d9138932fe3fd1cbc9\",\n",
      "  \"hash\": \"f0f4575e7459753e75b5ed6867ce6441c5cc3634f0df67d9138932fe3fd1cbc9\",\n",
      "  \"version\": 2,\n",
      "  \"size\": 137,\n",
      "  \"vsize\": 137,\n",
      "  \"weight\": 548,\n",
      "  \"locktime\": 541304431,\n",
      "  \"vin\": [\n",
      "    {\n",
      "      \"txid\": \"0dfd23e351fc3230efbe24c928c2e81082db25f61bf66ff41c9a0cf08c8ad43c\",\n",
      "      \"vout\": 1,\n",
      "      \"scriptSig\": {\n",
      "        \"asm\": \"\",\n",
      "        \"hex\": \"\"\n",
      "      },\n",
      "      \"sequence\": 2159293437\n",
      "    }\n",
      "  ],\n",
      "  \"vout\": [\n",
      "    {\n",
      "      \"value\": \"0.00000330\",\n",
      "      \"n\": 0,\n",
      "      \"scriptPubKey\": {\n",
      "        \"asm\": \"0 34391c79ba78d594262aa91410f49d7200ef55e7551441659412aac47b543f04\",\n",
      "        \"desc\": \"addr(bcrt1qxsu3c7d60r2egf324y2ppayawgqw7408252yzev5z24vg7658uzqwq2zs5)#62txjpcp\",\n",
      "        \"hex\": \"002034391c79ba78d594262aa91410f49d7200ef55e7551441659412aac47b543f04\",\n",
      "        \"address\": \"bcrt1qxsu3c7d60r2egf324y2ppayawgqw7408252yzev5z24vg7658uzqwq2zs5\",\n",
      "        \"type\": \"witness_v0_scripthash\"\n",
      "      }\n",
      "    },\n",
      "    {\n",
      "      \"value\": \"0.04982810\",\n",
      "      \"n\": 1,\n",
      "      \"scriptPubKey\": {\n",
      "        \"asm\": \"0 f0447296bbb031d3f362b223a0ba7281bfcfeca9061820c9bdee400411fc01be\",\n",
      "        \"desc\": \"addr(bcrt1q7pz8994mkqca8umzkg36pwnjsxlulm9fqcvzpjdaaeqqgy0uqxlqphvsda)#f8xgy4gn\",\n",
      "        \"hex\": \"0020f0447296bbb031d3f362b223a0ba7281bfcfeca9061820c9bdee400411fc01be\",\n",
      "        \"address\": \"bcrt1q7pz8994mkqca8umzkg36pwnjsxlulm9fqcvzpjdaaeqqgy0uqxlqphvsda\",\n",
      "        \"type\": \"witness_v0_scripthash\"\n",
      "      }\n",
      "    }\n",
      "  ]\n",
      "}\n",
      "alice_tx_digest_preimage:  020000009dbc090e21d6503ddd8de605a0524f5cbbd6c454e3135b35fa43621d6e3f9193c6067e2ccbba74d4f24cc174be97c1ea7514cf7a20d616fbc7587a48964b2c953cd48a8cf00c9a1cf46ff61bf625db8210e8c228c924beef3032fc51e323fd0d0100000047522102245c997231079146616f70eae46dd43461b530cb55df50cac8ef321127adb96321032b057a643c7b928b7dc30e1f76c2a777a213fe3a7462215d10220844befe77c352ae404b4c0000000000fd33b4804042f728e7746ec969122168308e6ad83e7887ab77448a5f450cffd7034df5f46fa6432001000000\n",
      "bob_tx_digest_preimage:  020000009dbc090e21d6503ddd8de605a0524f5cbbd6c454e3135b35fa43621d6e3f9193c6067e2ccbba74d4f24cc174be97c1ea7514cf7a20d616fbc7587a48964b2c953cd48a8cf00c9a1cf46ff61bf625db8210e8c228c924beef3032fc51e323fd0d0100000047522102245c997231079146616f70eae46dd43461b530cb55df50cac8ef321127adb96321032b057a643c7b928b7dc30e1f76c2a777a213fe3a7462215d10220844befe77c352ae404b4c0000000000fd33b480cb541070b4f791ea30c33859048fe351357b6e71305de479d36b3b6dfd7c41396fa6432001000000\n",
      "Alice Signed Commitment Transaction:  020000000001013cd48a8cf00c9a1cf46ff61bf625db8210e8c228c924beef3032fc51e323fd0d0100000000fd33b480024a0100000000000022002034391c79ba78d594262aa91410f49d7200ef55e7551441659412aac47b543f041a084c0000000000220020fc03b40c456c47ebb621665209aa5bbc82d9282caf6a1be843782f6805fffff50400483045022100896a7a2a65c159595e61bb1cc184bdd7d683e392f0e96cbabe9b693d36d7565002200743d03a37b0d659afdba7a54ea429565727d3e3bbe346fccdba7323fcedcd80014730440220246e7ab546f035ec917a6da95ac326d8bec31419911c1c3af9596113f409c866022044ff3bb3741bf798f98550c400094b2d4e84134d1abab668c3c3530859ebef780147522102245c997231079146616f70eae46dd43461b530cb55df50cac8ef321127adb96321032b057a643c7b928b7dc30e1f76c2a777a213fe3a7462215d10220844befe77c352ae6fa64320\n",
      "Bob Signed Commitment Transaction:  020000000001013cd48a8cf00c9a1cf46ff61bf625db8210e8c228c924beef3032fc51e323fd0d0100000000fd33b480024a0100000000000022002034391c79ba78d594262aa91410f49d7200ef55e7551441659412aac47b543f041a084c0000000000220020f0447296bbb031d3f362b223a0ba7281bfcfeca9061820c9bdee400411fc01be0400473044022010a457eb10d4a7bc3d2b52df847c009aa1c9fc6a36fa73b3588e5d158adc662a0220182523b2fbce87d78a04490b905659114baa9114ff822bf11fab5728c119461501483045022100bb2f5695ec15bc784c3af612057f074e6eea3fd3e8b6004aa53b72bcd8473a0e02205b94b66a5fdb1698ffff2d56ef7fec527637f92664e1903fefd2c30232ed9c080147522102245c997231079146616f70eae46dd43461b530cb55df50cac8ef321127adb96321032b057a643c7b928b7dc30e1f76c2a777a213fe3a7462215d10220844befe77c352ae6fa64320\n",
      "[{'txid': '9a5f76b710fa8c3494313c765ac52db4ccfcd1682873d662b1333ccf9ae2a41c', 'wtxid': '4ebb78d38fc3037b8b9c3032b58fd3ec4a70c4767a8415539562aae49b1d2245', 'allowed': True, 'vsize': 193, 'fees': {'base': Decimal('0.00016860'), 'effective-feerate': Decimal('0.00087357'), 'effective-includes': ['4ebb78d38fc3037b8b9c3032b58fd3ec4a70c4767a8415539562aae49b1d2245']}}]\n",
      "[{'txid': 'f0f4575e7459753e75b5ed6867ce6441c5cc3634f0df67d9138932fe3fd1cbc9', 'wtxid': 'f3598ee933f92b2dc2cbdcd3e7322da8a8344a43979a918a495233c3bf94a12e', 'allowed': True, 'vsize': 193, 'fees': {'base': Decimal('0.00016860'), 'effective-feerate': Decimal('0.00087357'), 'effective-includes': ['f3598ee933f92b2dc2cbdcd3e7322da8a8344a43979a918a495233c3bf94a12e']}}]\n",
      "Commitment Number Obscured: 0xb433fd43a66c\n",
      "Inputs: 3cd48a8cf00c9a1cf46ff61bf625db8210e8c228c924beef3032fc51e323fd0d0100000000fd33b480\n",
      "Alice Per Commitment Secret: 7d474813d764ca1273ad85e3f36ca1926401a8f76e576533f0232801c96af14d\n",
      "Alice Per Commitment Point: 028a29fc294e5cc904c607cbe2d66bc3e3f0d5131ba3f9085eb01b25df0a5bdd4a\n",
      "Bob Per Commitment Secret: 3dec4e412d557115ad23549b60f2bb4fc8a1215bead2c8ade3ed2cf1d10450da\n",
      "Bob Per Commitment Point: 0267c6f101ca3ffa7d9e2aba0ca51e63af33a7b88b19e80a04a2deb9807447e963\n",
      "Alice Delayed Pubkey: 03eb397e72815b5221b63d2564593465b45c9f7fa6da6944e1371974557d2682fa\n",
      "Bob Delayed Pubkey: 02422c467da01480bef0191075e8823724ebb84b1a8fc502ca1e63d881ae723a4e\n",
      "Alice HTLC Pubkey: 03f020b85b2f600cdba67ecb33ed2ed09bf1c0a0e67e839a9ca70766049a5f3298\n",
      "Bob HTLC Pubkey: 03f0ce4fe88d9e1d79c449ced61ee6cfc9280b3e424a48f952667b7fd73a299aa1\n",
      "Alice Revocation Pubkey: 02983e96a084377dc9d3c74cf49ae7e42f0347535d195d569f8b65c20341a8a2ad\n",
      "Bob Revocation Pubkey: 02337f3fcfa5c9aef367ca7e3b275f7d7b539c821d73adc3bd75b6bf872321aa58\n",
      "Alice Anchor Output SPK: 002034391c79ba78d594262aa91410f49d7200ef55e7551441659412aac47b543f04\n",
      "Bob Anchor Output SPK: 002056680a199b598b249d54e3b24fbf5a629228af306e3f587e8ab1b65233a581c4\n",
      "Alice Offered htlc Output SPK: 0020ea9713c7f38440f6ace2e3ad1b4982821623577e3d69908b76c0ce40f140602b\n",
      "Bob Remote Output SPK: 0020439fd0fb44bb93e02a87b92851c9e377612166d8ce4af46eb9f82899a8e8323d\n",
      "Alice Delayed Output SPK: 0020ba1d69954241e722f06844375d5b4dcf7f3abfcce550e708bf0910383060d31a\n",
      "Bob Received htlc Output SPK: 0020bb9fcdc5ed7ac56775f98430524160bfdaad50ee7add4650618f77b0a3113ed9\n",
      "Bob Delayed Output SPK: 002022d5ac3f86d25be331276291c7cd8aeb71e005fc78ccc40e81779cc9ed17477a\n",
      "Alice Remote Output SPK: 0020475d024bb95e9a981632863d3b1a4b9308aa88e189196272735a3e3d47caf936\n",
      "TXID : 5b7daa4d0dc9aff08af859ad7bf70a92bfc95f7c4ebaccc152af131df0303c06\n",
      "Unsigned Alice Commitment Transaction:  02000000013cd48a8cf00c9a1cf46ff61bf625db8210e8c228c924beef3032fc51e323fd0d0100000000fd33b480054a0100000000000022002034391c79ba78d594262aa91410f49d7200ef55e7551441659412aac47b543f044a0100000000000022002056680a199b598b249d54e3b24fbf5a629228af306e3f587e8ab1b65233a581c420a1070000000000220020ea9713c7f38440f6ace2e3ad1b4982821623577e3d69908b76c0ce40f140602b40420f0000000000220020439fd0fb44bb93e02a87b92851c9e377612166d8ce4af46eb9f82899a8e8323d5c19350000000000220020ba1d69954241e722f06844375d5b4dcf7f3abfcce550e708bf0910383060d31a6ca64320\n",
      "Unsigned Bob Commitment Transaction:  02000000013cd48a8cf00c9a1cf46ff61bf625db8210e8c228c924beef3032fc51e323fd0d0100000000fd33b480054a0100000000000022002034391c79ba78d594262aa91410f49d7200ef55e7551441659412aac47b543f044a0100000000000022002056680a199b598b249d54e3b24fbf5a629228af306e3f587e8ab1b65233a581c420a1070000000000220020bb9fcdc5ed7ac56775f98430524160bfdaad50ee7add4650618f77b0a3113ed940420f000000000022002022d5ac3f86d25be331276291c7cd8aeb71e005fc78ccc40e81779cc9ed17477a5c19350000000000220020475d024bb95e9a981632863d3b1a4b9308aa88e189196272735a3e3d47caf9366ca64320\n",
      "Alice Unsigned Commitment transaction\n",
      "{\n",
      "  \"txid\": \"063c30f01d13af52c1ccba4e7c5fc9bf920af77bad59f88af0afc90d4daa7d5b\",\n",
      "  \"hash\": \"063c30f01d13af52c1ccba4e7c5fc9bf920af77bad59f88af0afc90d4daa7d5b\",\n",
      "  \"version\": 2,\n",
      "  \"size\": 266,\n",
      "  \"vsize\": 266,\n",
      "  \"weight\": 1064,\n",
      "  \"locktime\": 541304428,\n",
      "  \"vin\": [\n",
      "    {\n",
      "      \"txid\": \"0dfd23e351fc3230efbe24c928c2e81082db25f61bf66ff41c9a0cf08c8ad43c\",\n",
      "      \"vout\": 1,\n",
      "      \"scriptSig\": {\n",
      "        \"asm\": \"\",\n",
      "        \"hex\": \"\"\n",
      "      },\n",
      "      \"sequence\": 2159293437\n",
      "    }\n",
      "  ],\n",
      "  \"vout\": [\n",
      "    {\n",
      "      \"value\": \"0.00000330\",\n",
      "      \"n\": 0,\n",
      "      \"scriptPubKey\": {\n",
      "        \"asm\": \"0 34391c79ba78d594262aa91410f49d7200ef55e7551441659412aac47b543f04\",\n",
      "        \"desc\": \"addr(bcrt1qxsu3c7d60r2egf324y2ppayawgqw7408252yzev5z24vg7658uzqwq2zs5)#62txjpcp\",\n",
      "        \"hex\": \"002034391c79ba78d594262aa91410f49d7200ef55e7551441659412aac47b543f04\",\n",
      "        \"address\": \"bcrt1qxsu3c7d60r2egf324y2ppayawgqw7408252yzev5z24vg7658uzqwq2zs5\",\n",
      "        \"type\": \"witness_v0_scripthash\"\n",
      "      }\n",
      "    },\n",
      "    {\n",
      "      \"value\": \"0.00000330\",\n",
      "      \"n\": 1,\n",
      "      \"scriptPubKey\": {\n",
      "        \"asm\": \"0 56680a199b598b249d54e3b24fbf5a629228af306e3f587e8ab1b65233a581c4\",\n",
      "        \"desc\": \"addr(bcrt1q2e5q5xvmtx9jf825uweyl066v2fz3tesdcl4sl52kxm9yva9s8zq9pw5mq)#z5wzum6e\",\n",
      "        \"hex\": \"002056680a199b598b249d54e3b24fbf5a629228af306e3f587e8ab1b65233a581c4\",\n",
      "        \"address\": \"bcrt1q2e5q5xvmtx9jf825uweyl066v2fz3tesdcl4sl52kxm9yva9s8zq9pw5mq\",\n",
      "        \"type\": \"witness_v0_scripthash\"\n",
      "      }\n",
      "    },\n",
      "    {\n",
      "      \"value\": \"0.00500000\",\n",
      "      \"n\": 2,\n",
      "      \"scriptPubKey\": {\n",
      "        \"asm\": \"0 ea9713c7f38440f6ace2e3ad1b4982821623577e3d69908b76c0ce40f140602b\",\n",
      "        \"desc\": \"addr(bcrt1qa2t383lns3q0dt8zuwk3kjvzsgtzx4m7845epzmkcr8ypu2qvq4sz6xjae)#0x0e4m5d\",\n",
      "        \"hex\": \"0020ea9713c7f38440f6ace2e3ad1b4982821623577e3d69908b76c0ce40f140602b\",\n",
      "        \"address\": \"bcrt1qa2t383lns3q0dt8zuwk3kjvzsgtzx4m7845epzmkcr8ypu2qvq4sz6xjae\",\n",
      "        \"type\": \"witness_v0_scripthash\"\n",
      "      }\n",
      "    },\n",
      "    {\n",
      "      \"value\": \"0.01000000\",\n",
      "      \"n\": 3,\n",
      "      \"scriptPubKey\": {\n",
      "        \"asm\": \"0 439fd0fb44bb93e02a87b92851c9e377612166d8ce4af46eb9f82899a8e8323d\",\n",
      "        \"desc\": \"addr(bcrt1qgw0ap76yhwf7q258hy59rj0rwasjzekcee90gm4elq5fn28gxg7sj0rdmv)#6a82l2ar\",\n",
      "        \"hex\": \"0020439fd0fb44bb93e02a87b92851c9e377612166d8ce4af46eb9f82899a8e8323d\",\n",
      "        \"address\": \"bcrt1qgw0ap76yhwf7q258hy59rj0rwasjzekcee90gm4elq5fn28gxg7sj0rdmv\",\n",
      "        \"type\": \"witness_v0_scripthash\"\n",
      "      }\n",
      "    },\n",
      "    {\n",
      "      \"value\": \"0.03479900\",\n",
      "      \"n\": 4,\n",
      "      \"scriptPubKey\": {\n",
      "        \"asm\": \"0 ba1d69954241e722f06844375d5b4dcf7f3abfcce550e708bf0910383060d31a\",\n",
      "        \"desc\": \"addr(bcrt1qhgwkn92zg8nj9urggsm46k6dealn407vu4gwwz9lpygrsvrq6vdquv4qfu)#5ftxjn3k\",\n",
      "        \"hex\": \"0020ba1d69954241e722f06844375d5b4dcf7f3abfcce550e708bf0910383060d31a\",\n",
      "        \"address\": \"bcrt1qhgwkn92zg8nj9urggsm46k6dealn407vu4gwwz9lpygrsvrq6vdquv4qfu\",\n",
      "        \"type\": \"witness_v0_scripthash\"\n",
      "      }\n",
      "    }\n",
      "  ]\n",
      "}\n",
      "Bob Unsigned Commitment transaction\n",
      "{\n",
      "  \"txid\": \"12f5ef93c6acfcc362b29dbb6bf9c7826b3905833c7695991dc8303304f7b2d2\",\n",
      "  \"hash\": \"12f5ef93c6acfcc362b29dbb6bf9c7826b3905833c7695991dc8303304f7b2d2\",\n",
      "  \"version\": 2,\n",
      "  \"size\": 266,\n",
      "  \"vsize\": 266,\n",
      "  \"weight\": 1064,\n",
      "  \"locktime\": 541304428,\n",
      "  \"vin\": [\n",
      "    {\n",
      "      \"txid\": \"0dfd23e351fc3230efbe24c928c2e81082db25f61bf66ff41c9a0cf08c8ad43c\",\n",
      "      \"vout\": 1,\n",
      "      \"scriptSig\": {\n",
      "        \"asm\": \"\",\n",
      "        \"hex\": \"\"\n",
      "      },\n",
      "      \"sequence\": 2159293437\n",
      "    }\n",
      "  ],\n",
      "  \"vout\": [\n",
      "    {\n",
      "      \"value\": \"0.00000330\",\n",
      "      \"n\": 0,\n",
      "      \"scriptPubKey\": {\n",
      "        \"asm\": \"0 34391c79ba78d594262aa91410f49d7200ef55e7551441659412aac47b543f04\",\n",
      "        \"desc\": \"addr(bcrt1qxsu3c7d60r2egf324y2ppayawgqw7408252yzev5z24vg7658uzqwq2zs5)#62txjpcp\",\n",
      "        \"hex\": \"002034391c79ba78d594262aa91410f49d7200ef55e7551441659412aac47b543f04\",\n",
      "        \"address\": \"bcrt1qxsu3c7d60r2egf324y2ppayawgqw7408252yzev5z24vg7658uzqwq2zs5\",\n",
      "        \"type\": \"witness_v0_scripthash\"\n",
      "      }\n",
      "    },\n",
      "    {\n",
      "      \"value\": \"0.00000330\",\n",
      "      \"n\": 1,\n",
      "      \"scriptPubKey\": {\n",
      "        \"asm\": \"0 56680a199b598b249d54e3b24fbf5a629228af306e3f587e8ab1b65233a581c4\",\n",
      "        \"desc\": \"addr(bcrt1q2e5q5xvmtx9jf825uweyl066v2fz3tesdcl4sl52kxm9yva9s8zq9pw5mq)#z5wzum6e\",\n",
      "        \"hex\": \"002056680a199b598b249d54e3b24fbf5a629228af306e3f587e8ab1b65233a581c4\",\n",
      "        \"address\": \"bcrt1q2e5q5xvmtx9jf825uweyl066v2fz3tesdcl4sl52kxm9yva9s8zq9pw5mq\",\n",
      "        \"type\": \"witness_v0_scripthash\"\n",
      "      }\n",
      "    },\n",
      "    {\n",
      "      \"value\": \"0.00500000\",\n",
      "      \"n\": 2,\n",
      "      \"scriptPubKey\": {\n",
      "        \"asm\": \"0 bb9fcdc5ed7ac56775f98430524160bfdaad50ee7add4650618f77b0a3113ed9\",\n",
      "        \"desc\": \"addr(bcrt1qhw0um30d0tzkwa0essc9ystqhld2658w0tw5v5rp3ammpgc38mvsshexc9)#yjhu3s2y\",\n",
      "        \"hex\": \"0020bb9fcdc5ed7ac56775f98430524160bfdaad50ee7add4650618f77b0a3113ed9\",\n",
      "        \"address\": \"bcrt1qhw0um30d0tzkwa0essc9ystqhld2658w0tw5v5rp3ammpgc38mvsshexc9\",\n",
      "        \"type\": \"witness_v0_scripthash\"\n",
      "      }\n",
      "    },\n",
      "    {\n",
      "      \"value\": \"0.01000000\",\n",
      "      \"n\": 3,\n",
      "      \"scriptPubKey\": {\n",
      "        \"asm\": \"0 22d5ac3f86d25be331276291c7cd8aeb71e005fc78ccc40e81779cc9ed17477a\",\n",
      "        \"desc\": \"addr(bcrt1qyt26c0ux6fd7xvf8v2gu0nv2adc7qp0u0rxvgr5pw7wvnmghgaaq2efr7z)#9t7qc29n\",\n",
      "        \"hex\": \"002022d5ac3f86d25be331276291c7cd8aeb71e005fc78ccc40e81779cc9ed17477a\",\n",
      "        \"address\": \"bcrt1qyt26c0ux6fd7xvf8v2gu0nv2adc7qp0u0rxvgr5pw7wvnmghgaaq2efr7z\",\n",
      "        \"type\": \"witness_v0_scripthash\"\n",
      "      }\n",
      "    },\n",
      "    {\n",
      "      \"value\": \"0.03479900\",\n",
      "      \"n\": 4,\n",
      "      \"scriptPubKey\": {\n",
      "        \"asm\": \"0 475d024bb95e9a981632863d3b1a4b9308aa88e189196272735a3e3d47caf936\",\n",
      "        \"desc\": \"addr(bcrt1qgawsyjaet6dfs93jsc7nkxjtjvy24z8p3yvkyunntglr6372lymq8edt6d)#vxtm3r5t\",\n",
      "        \"hex\": \"0020475d024bb95e9a981632863d3b1a4b9308aa88e189196272735a3e3d47caf936\",\n",
      "        \"address\": \"bcrt1qgawsyjaet6dfs93jsc7nkxjtjvy24z8p3yvkyunntglr6372lymq8edt6d\",\n",
      "        \"type\": \"witness_v0_scripthash\"\n",
      "      }\n",
      "    }\n",
      "  ]\n",
      "}\n",
      "alice_commitment_tx_digest_preimage:  020000009dbc090e21d6503ddd8de605a0524f5cbbd6c454e3135b35fa43621d6e3f9193c6067e2ccbba74d4f24cc174be97c1ea7514cf7a20d616fbc7587a48964b2c953cd48a8cf00c9a1cf46ff61bf625db8210e8c228c924beef3032fc51e323fd0d0100000047522102245c997231079146616f70eae46dd43461b530cb55df50cac8ef321127adb96321032b057a643c7b928b7dc30e1f76c2a777a213fe3a7462215d10220844befe77c352ae404b4c0000000000fd33b4806c57f53984d4f1f87befc46fc3ea04f88e73aa9fa648504b761825153e37d2486ca6432001000000\n",
      "bob_commitment_tx_digest_preimage:  020000009dbc090e21d6503ddd8de605a0524f5cbbd6c454e3135b35fa43621d6e3f9193c6067e2ccbba74d4f24cc174be97c1ea7514cf7a20d616fbc7587a48964b2c953cd48a8cf00c9a1cf46ff61bf625db8210e8c228c924beef3032fc51e323fd0d0100000047522102245c997231079146616f70eae46dd43461b530cb55df50cac8ef321127adb96321032b057a643c7b928b7dc30e1f76c2a777a213fe3a7462215d10220844befe77c352ae404b4c0000000000fd33b48006d578cddd13b53a4f305650c917bbdf2764c75da81394249815db709fb156e56ca6432001000000\n",
      "Alice Signed Commitment Transaction:  020000000001013cd48a8cf00c9a1cf46ff61bf625db8210e8c228c924beef3032fc51e323fd0d0100000000fd33b480054a0100000000000022002034391c79ba78d594262aa91410f49d7200ef55e7551441659412aac47b543f044a0100000000000022002056680a199b598b249d54e3b24fbf5a629228af306e3f587e8ab1b65233a581c420a1070000000000220020ea9713c7f38440f6ace2e3ad1b4982821623577e3d69908b76c0ce40f140602b40420f0000000000220020439fd0fb44bb93e02a87b92851c9e377612166d8ce4af46eb9f82899a8e8323d5c19350000000000220020ba1d69954241e722f06844375d5b4dcf7f3abfcce550e708bf0910383060d31a0400483045022100c77b52c9f481ff4350c6b3dc67e0012690025392d97ef0b9a0a8d02719f09c7102200eac3b384fe0bc1b98fdd76e0e1ecc98a9b34152e0c6f3a3117c4641b0933e9101483045022100f98afa5cf6be2b21ee23a5d4e0f9a3d7d7cd22ad9a0db693940d775d3700227b02201a93a8d32be70eeb1f667c0fae64298acc90886a2fd9d646e87c445ae73af46e0147522102245c997231079146616f70eae46dd43461b530cb55df50cac8ef321127adb96321032b057a643c7b928b7dc30e1f76c2a777a213fe3a7462215d10220844befe77c352ae6ca64320\n",
      "Bob Signed Commitment Transaction:  020000000001013cd48a8cf00c9a1cf46ff61bf625db8210e8c228c924beef3032fc51e323fd0d0100000000fd33b480054a0100000000000022002034391c79ba78d594262aa91410f49d7200ef55e7551441659412aac47b543f044a0100000000000022002056680a199b598b249d54e3b24fbf5a629228af306e3f587e8ab1b65233a581c420a1070000000000220020bb9fcdc5ed7ac56775f98430524160bfdaad50ee7add4650618f77b0a3113ed940420f000000000022002022d5ac3f86d25be331276291c7cd8aeb71e005fc78ccc40e81779cc9ed17477a5c19350000000000220020475d024bb95e9a981632863d3b1a4b9308aa88e189196272735a3e3d47caf9360400473044022004629e8848218bf973a80c6ef92f9376116030b9192ce4b6bc1b00781c7198ef022023c98f10a2023b540d3befb8010b05cfc3de1a7fccd4a437a918827e80a7ccd001483045022100b1fa41ce58fd65bc023240a4b85f6fb8d481b92648bae6a8b94ef4165f2da38f0220198f107d45ff7e92bf590e8de04b37426660eb43eafb28f3b1d67720f96e72ff0147522102245c997231079146616f70eae46dd43461b530cb55df50cac8ef321127adb96321032b057a643c7b928b7dc30e1f76c2a777a213fe3a7462215d10220844befe77c352ae6ca64320\n",
      "[{'txid': '063c30f01d13af52c1ccba4e7c5fc9bf920af77bad59f88af0afc90d4daa7d5b', 'wtxid': 'ba998618fcefdb808a06461377214a4eab7ffb3b382635d33dd40667ecbc98e2', 'allowed': True, 'vsize': 322, 'fees': {'base': Decimal('0.00019440'), 'effective-feerate': Decimal('0.00060372'), 'effective-includes': ['ba998618fcefdb808a06461377214a4eab7ffb3b382635d33dd40667ecbc98e2']}}]\n",
      "[{'txid': '12f5ef93c6acfcc362b29dbb6bf9c7826b3905833c7695991dc8303304f7b2d2', 'wtxid': '83133043f881df8b6c46079a865af6fc234701cf34a45d4fdae89da94d3093ec', 'allowed': True, 'vsize': 322, 'fees': {'base': Decimal('0.00019440'), 'effective-feerate': Decimal('0.00060372'), 'effective-includes': ['83133043f881df8b6c46079a865af6fc234701cf34a45d4fdae89da94d3093ec']}}]\n"
     ]
    }
   ],
   "source": [
    "# run notebook\n",
    "%run \"/home/pins-dev/Projects/lightning-tx-tutorial/Chapter 2 - Commitment Transactions/Commitment Transactions with HTLC in Transit.ipynb\""
   ]
  },
  {
   "cell_type": "markdown",
   "id": "892c329a-ce53-4a67-8b60-fc569bdced08",
   "metadata": {},
   "source": [
    "## The Unilateral Closing Transaction\n",
    "\n",
    "A unilateral close occurs when one party publishes their latest commitment transaction to the Bitcoin blockchain without the cooperation of the other party—effectively force-closing the channel.\n",
    "\n",
    "This might happen for several reasons:\n",
    "- Your channel partner is offline and cannot be contacted to initiate a mutual close.\n",
    "- Your channel partner is online but unresponsive to cooperative close requests.\n",
    "- Both parties are online and attempting a mutual close, but the negotiation becomes stuck and fails to complete.\n",
    "\n",
    "Let’s imagine Alice wants to force close her channel with Bob. To do so, she simply needs to broadcast her latest commitment transaction to the blockchain."
   ]
  },
  {
   "cell_type": "code",
   "execution_count": 2,
   "id": "30de53a8-c3df-4842-9612-9877062802ba",
   "metadata": {},
   "outputs": [
    {
     "name": "stdout",
     "output_type": "stream",
     "text": [
      "Current block height: 104\n",
      "Force Close txid 063c30f01d13af52c1ccba4e7c5fc9bf920af77bad59f88af0afc90d4daa7d5b\n"
     ]
    }
   ],
   "source": [
    "alice_signed_commitment_txid = node.sendrawtransaction(alice_signed_commitment_tx.hex())\n",
    "# Mine a block to confirm the tx\n",
    "mining_address = node.getnewaddress()\n",
    "txid = node.generatetoaddress(nblocks=1, address=mining_address, invalid_call=False)\n",
    "height = node.getblockcount()\n",
    "print(\"Current block height:\", height)\n",
    "print(\"Force Close txid\", alice_signed_commitment_txid)"
   ]
  },
  {
   "cell_type": "markdown",
   "id": "84bb1b43-23bf-4a96-ada0-31878baabad6",
   "metadata": {},
   "source": [
    "The channel was forced close by Alice."
   ]
  }
 ],
 "metadata": {
  "kernelspec": {
   "display_name": "Python 3 (ipykernel)",
   "language": "python",
   "name": "python3"
  },
  "language_info": {
   "codemirror_mode": {
    "name": "ipython",
    "version": 3
   },
   "file_extension": ".py",
   "mimetype": "text/x-python",
   "name": "python",
   "nbconvert_exporter": "python",
   "pygments_lexer": "ipython3",
   "version": "3.12.3"
  }
 },
 "nbformat": 4,
 "nbformat_minor": 5
}
