{
 "cells": [
  {
   "cell_type": "markdown",
   "id": "4ca69be2-9ef5-4a4d-9ad7-c56a10a29671",
   "metadata": {},
   "source": [
    "# Creating a Collaborative Closing Transaction\n",
    "\n",
    "In this section, we'll build a Lightning channel closing transaction from scratch using Python.\n",
    "We'll walk through each part of the transaction — how it's constructed, signed, and the messages exchanged between peers to coordinate the close.\n",
    "The process will be tested using Bitcoin Core in regtest mode.\n",
    "\n",
    "## Prerequisite knowledge\n",
    "### For all notebooks\n",
    "- A high level understanding of the bitcoin. e.g. [Mastering Bitcoin](https://github.com/bitcoinbook/bitcoinbook), in particular [Chapter 6](https://github.com/bitcoinbook/bitcoinbook/blob/develop/ch06.asciidoc).\n",
    "- A conceptual understanding of [hash functions](https://www.thesslstore.com/blog/what-is-a-hash-function-in-cryptography-a-beginners-guide).\n",
    "- [Hexadecimal notation](https://inst.eecs.berkeley.edu/~cs61bl/r//cur/bits/decimal-binary-hex.html?topic=lab28.topic&step=2&course=) and [endianness](https://www.freecodecamp.org/news/what-is-endianness-big-endian-vs-little-endian/).\n",
    "- A high level understanding of the lightning e.g. [Mastering Lightning Network](https://github.com/lnbook/lnbook), in particular [Chapter7](https://github.com/lnbook/lnbook/blob/develop/07_payment_channels.asciidoc), [Chapter 8](https://github.com/lnbook/lnbook/blob/develop/08_routing_htlcs.asciidoc) and [Chapter 9](https://github.com/lnbook/lnbook/blob/develop/09_channel_operation.asciidoc).\n",
    "\n",
    "### Specific to this notebook:\n",
    "- SHA256, HASH256, HASH160 - '[Hash Functions chapter](https://github.com/MPins/lightning-tx-tutorial/blob/main/appendix/hash-functions.ipynb)'\n",
    "- Bech32 addresses - '[Addresses chapter](https://github.com/MPins/lightning-tx-tutorial/blob/main/appendix/Addresses.ipynb)'\n",
    "- Bitcoin Script basics - '[Bitcoin Script chapter](https://github.com/MPins/lightning-tx-tutorial/blob/main/appendix/Bitcoin%20Script.ipynb)'\n",
    "- Lightning Network BOLT #2: '[Peer Protocol for Channel Management](https://github.com/lightning/bolts/blob/master/02-peer-protocol.md#channel-establishment-v1)'\n",
    "- Lightning Network Bolt #3: '[Funding Transaction Output](https://github.com/lightning/bolts/blob/master/03-transactions.md#funding-transaction-output)'"
   ]
  },
  {
   "cell_type": "markdown",
   "id": "ea243438-bd82-4532-86ed-5c147303d8b7",
   "metadata": {},
   "source": [
    "The Basis of Lightning Technology ([BOLT](https://github.com/lightning/bolts/blob/master/00-introduction.md)) defines the way to close a channel cooperativelly, lets focus on the legacy because most of the channels are closed using it.\n",
    "\n",
    "    +-----------+                              +---------+\n",
    "    |           |--(1)--  shutdown  ---------->|         |\n",
    "    |           |<-(2)--  shutdown  -----------|         |\n",
    "    |           |                              |         |\n",
    "    |   Alice   |--(3)--  closing_signed  ---->|   Bob   |\n",
    "    |           |<-(4)--  closing_signed  -----|         |\n",
    "    |           |                              |         |\n",
    "    |           |                              |         |\n",
    "    |           |                              |         |\n",
    "    +-----------+                              +---------+\n",
    "\n",
    "Once there are no HTLCs pending, Alice initiates the channel shutdown by sending a [`shutdown`](https://github.com/lightning/bolts/blob/master/02-peer-protocol.md#closing-initiation-shutdown) message to Bob.\n",
    "This message signals her intent to cooperatively close the channel and includes the `scriptPubKey`where she wants her funds to be sent.\n",
    "\n",
    "Upon receiving the shutdown, Bob responds with his own `shutdown` message, also specifying his desired `scriptPubKey`. At this point, both sides have agreed to proceed with the cooperative closing process and have exchanged the necessary output scripts.\n",
    "\n",
    "Each shutdown message contains:\n",
    "    - channel_id: Identifies the channel being closed.\n",
    "    - scriptpubkey: The on-chain output script for receiving funds.\n",
    "\n",
    "The funder selects a fee it considers fair and creates a closing transaction using the `scriptPubKey` values exchanged in the `shutdown` messages. It signs this transaction with the proposed fee and sends it in a [`closing_signed`](https://github.com/lightning/bolts/blob/master/02-peer-protocol.md#closing-negotiation-closing_signed) message.\n",
    "\n",
    "The other peer responds with its own `closing_signed` message, proposing a fee it believes is appropriate.\n",
    "\n",
    "This negotiation continues until both sides agree on the same fee — at which point the channel can be closed — or until one of the peers decides to fail the channel."
   ]
  },
  {
   "cell_type": "markdown",
   "id": "1536f81c-8973-4760-8c4f-bd9cbfaa8a9c",
   "metadata": {},
   "source": [
    "## The Legacy Closing Transaction\n",
    "\n",
    "- version: 2\n",
    "- locktime: 0\n",
    "- txin count: 1\n",
    "    - txin[0] outpoint: txid and output_index from funding_created message\n",
    "    - txin[0] sequence: 0xFFFFFFFF\n",
    "    - txin[0] script bytes: 0\n",
    "    - txin[0] witness: 0 <signature_for_pubkey1> <signature_for_pubkey2>\n",
    "- txout count: 1 or 2\n",
    "    - txout amount: final balance to be paid to one node (minus fee_satoshis from closing_signed, if this peer funded the channel)\n",
    "    - txout script: as specified in that node's scriptpubkey in its shutdown message\n",
    "\n",
    "## Setup \n",
    "### Requirements\n",
    "For this chapter we'll need the Bitcoin Core. This notebook has been tested with [v28.0](https://github.com/bitcoin/bitcoin/releases/tag/v28.0).\n",
    "\n",
    "Below, set the paths for:\n",
    "1. The bitcoin core functional test framework directory.\n",
    "2. The directory containing lightning-tx-tutorial.\n",
    "\n",
    "**You'll need to edit these next two lines for your local setup.**"
   ]
  },
  {
   "cell_type": "code",
   "execution_count": 1,
   "id": "68b2285d-53c3-4588-8a25-330530b024fa",
   "metadata": {},
   "outputs": [
    {
     "name": "stdout",
     "output_type": "stream",
     "text": [
      "Alice Per Commitment Seed 34b581ec20bf2c6cae3d4d4dcbfddc8a3727a1e9a57c55f3520e770607898c06\n",
      "Bob Per Commitment Seed 89c994b3ddad4698acee71e42d8bcace48eea739caaba371eb110e77663ec56d\n",
      "Alice Revocation Basepoint Private Key: c17ac3952ca414190074d1e59ea03fbae253196173908dc8b131af6bd2cc8161\n",
      "Alice Revocation Basepoint Public Key: 03649c4f865bec74b0a186deef4defad51cfdc141443e38074ea05a7835a953a49\n",
      "Alice HTLC Basepoint Private Key: 763ae49a20e6668c88602c782716dd83ba6c4cc0333b38810e2bcd7b22c871ac\n",
      "Alice HTLC Basepoint Public Key: 02816fde4150e4dfcac94eff0b821448fb70f57a56148ba2206cd9b2fd0cc20bdf\n",
      "Alice Payment Basepoint Private Key: 72d8c12971b58076a1f27eb7938ca442f0b210762b23637443ac2e99dac352a6\n",
      "Alice Payment Basepoint Public Key: 025f892a06124391e2f38ce35d943cdc09f63e203330dbd9cb6113a903e0738458\n",
      "Alice Delayed Payment Basepoint Private Key: 7cafce00c54e7241894dcc7c3beaca29dd354139fdb6182198d6c5f1063bfe8d\n",
      "Alice Delayed Payment Basepoint Public Key: 034aa35219136bb238e072341b20a4bf8fb44a83cdb73dd2bd973c123ac2dfd7ff\n",
      "Bob Revocation Basepoint Private Key: fa526e09b9ff7425552db1803d7e12cf4475d060db4cfb812adb07219a54baa0\n",
      "Bob Revocation Basepoint Public Key: 02536407aada57068f30b53c4126062d235967c3636147433e72b21ff93c8acdbf\n",
      "Bob HTLC Basepoint Private Key: 06d61bb059eef194a3d223992a028fbd31f2e8b289d5a10acd343671c9322155\n",
      "Bob HTLC Basepoint Public Key: 0306b11436efa058a86f997df6596ea4579241f3909175772d77df38a5255f52f4\n",
      "Bob Payment Basepoint Private Key: 5046024e716c479599350b7aee8139304d942360733d8dd79793917f9e33a334\n",
      "Bob Payment Basepoint Public Key: 02f98efd3f2b2fbe7bd83c419f5f64f8280798b8a9175fdb77c0091bbb95c79506\n",
      "Bob Delayed Payment Basepoint Private Key: d764d4c083cac97d34913bdf123c3dfef5379db9e9b0652897783e0d01880bb3\n",
      "Bob Delayed Payment Basepoint Public Key: 032a5869ac5eb30ba1e9c9addd3740822dac6f45a8de9b3d4e171f14c3abce2dae\n",
      "Alice Funding Private Key: ccd60731893309bb59a6030a581fc80984fa96129e10cf8342c0b0b800ffb51c\n",
      "Alice Funding Public Key: 02245c997231079146616f70eae46dd43461b530cb55df50cac8ef321127adb963\n",
      "Alice Closing Private Key: 75e80013b88f2ffa07fc70652d7721bdb1458304a6d0fb4d360c2b82098cba9b\n",
      "Alice Closing Public Key: 023cf1d744c5415046a18cf7b76cbe0af5e8609b80f20ea10d7ec98bf90dad67c8\n",
      "Alice Change Private Key: 6c2bda7af1291da770d0041794bbc891ac27c2fbe6a8a825a8f14f3b904b1f4e\n",
      "Alice Change Public Key: 02f0006732c6db9e73522b31168bda043cbf7759c46e553eae9dede26ccd08a39b\n",
      "Bob Funding Private Key: ca62b96f01783d13a48be4e8a2ca9c48093f62b64537d4c3c33d45d7cb53a0a7\n",
      "Bob Funding Public Key: 032b057a643c7b928b7dc30e1f76c2a777a213fe3a7462215d10220844befe77c3\n",
      "Bob Closing Private Key: 453009ee716540e6fd5027fd2ae20534dfe6087a07d21b870b2ee118b8d92b14\n",
      "Bob Closing Public Key: 02e824f6d9d38195d93768870e952ae010fab2347e7228d42ff324705a4f1e3201\n",
      "Alice's funding p2wpkh address: bcrt1qt0vq5dj8qa720lfx3hhzyu9ygsng9js3g02lnl\n",
      "Alice's change p2wpkh address: bcrt1qt6ax8rh20h6zts0dcqmzdy9kte3pds4lrzwl6s\n",
      "2025-05-16T02:14:42.195000Z TestFramework (INFO): PRNG seed is: 8024991782258985045\n",
      "2025-05-16T02:14:42.196000Z TestFramework (INFO): Initializing test directory /tmp/bitcoin_func_test_o1is3uab\n",
      "txid_to_spent: 40074084dd0c77f94ae4ebd6dc03248ec23e893e61681fb46f7f4f4499f5c8af, 1\n",
      "Alice pubkey is lexicographically lesser than Bob pubkey:\n",
      "02245c997231079146616f70eae46dd43461b530cb55df50cac8ef321127adb963 < 032b057a643c7b928b7dc30e1f76c2a777a213fe3a7462215d10220844befe77c3\n",
      "Redeem Script:\n",
      "522102245c997231079146616f70eae46dd43461b530cb55df50cac8ef321127adb96321032b057a643c7b928b7dc30e1f76c2a777a213fe3a7462215d10220844befe77c352ae\n",
      "channel_address:  bcrt1qhsn37ekwjgxlajuavyzne28yrahkyesgnr6qhxvzlw3807ttcjeqhcl6mc\n",
      "unsigned_channel_funding_tx:  0200000001afc8f599444f7f6fb41f68613e893ec28e2403dcd6ebe44af9770cdd844007400100000000ffffffff02c0e1e400000000001600145eba638eea7df425c1edc0362690b65e6216c2bf404b4c0000000000220020bc271f66ce920dfecb9d61053ca8e41f6f62660898f40b9982fba277f96bc4b200000000\n",
      "{\n",
      "  \"txid\": \"e5c57b681c1f3f44ebea61c5b20a915a8f349a2f563528bc39fc3a0731e8b855\",\n",
      "  \"hash\": \"e5c57b681c1f3f44ebea61c5b20a915a8f349a2f563528bc39fc3a0731e8b855\",\n",
      "  \"version\": 2,\n",
      "  \"size\": 125,\n",
      "  \"vsize\": 125,\n",
      "  \"weight\": 500,\n",
      "  \"locktime\": 0,\n",
      "  \"vin\": [\n",
      "    {\n",
      "      \"txid\": \"40074084dd0c77f94ae4ebd6dc03248ec23e893e61681fb46f7f4f4499f5c8af\",\n",
      "      \"vout\": 1,\n",
      "      \"scriptSig\": {\n",
      "        \"asm\": \"\",\n",
      "        \"hex\": \"\"\n",
      "      },\n",
      "      \"sequence\": 4294967295\n",
      "    }\n",
      "  ],\n",
      "  \"vout\": [\n",
      "    {\n",
      "      \"value\": \"0.15000000\",\n",
      "      \"n\": 0,\n",
      "      \"scriptPubKey\": {\n",
      "        \"asm\": \"0 5eba638eea7df425c1edc0362690b65e6216c2bf\",\n",
      "        \"desc\": \"addr(bcrt1qt6ax8rh20h6zts0dcqmzdy9kte3pds4lrzwl6s)#s9wdm0cm\",\n",
      "        \"hex\": \"00145eba638eea7df425c1edc0362690b65e6216c2bf\",\n",
      "        \"address\": \"bcrt1qt6ax8rh20h6zts0dcqmzdy9kte3pds4lrzwl6s\",\n",
      "        \"type\": \"witness_v0_keyhash\"\n",
      "      }\n",
      "    },\n",
      "    {\n",
      "      \"value\": \"0.05000000\",\n",
      "      \"n\": 1,\n",
      "      \"scriptPubKey\": {\n",
      "        \"asm\": \"0 bc271f66ce920dfecb9d61053ca8e41f6f62660898f40b9982fba277f96bc4b2\",\n",
      "        \"desc\": \"addr(bcrt1qhsn37ekwjgxlajuavyzne28yrahkyesgnr6qhxvzlw3807ttcjeqhcl6mc)#q3fvp06p\",\n",
      "        \"hex\": \"0020bc271f66ce920dfecb9d61053ca8e41f6f62660898f40b9982fba277f96bc4b2\",\n",
      "        \"address\": \"bcrt1qhsn37ekwjgxlajuavyzne28yrahkyesgnr6qhxvzlw3807ttcjeqhcl6mc\",\n",
      "        \"type\": \"witness_v0_scripthash\"\n",
      "      }\n",
      "    }\n",
      "  ]\n",
      "}\n",
      "tx_digest_preimage:  020000007d4a36ca3242c8348a7f5f6e235f6362c8613e46499a48f4f71b6dc7c2593aea3bb13029ce7b1f559ef5e747fcac439f1455a2ec7c5f09b72290795e70665044afc8f599444f7f6fb41f68613e893ec28e2403dcd6ebe44af9770cdd84400740010000001976a9145bd80a3647077ca7fd268dee2270a4442682ca1188aca0b3320100000000fffffffff024a453c206730b975be44da5987693c127c508aada9aabadc9455fb74b5fc60000000001000000\n",
      "Channel Funding Signed Transaction:  02000000000101afc8f599444f7f6fb41f68613e893ec28e2403dcd6ebe44af9770cdd844007400100000000ffffffff02c0e1e400000000001600145eba638eea7df425c1edc0362690b65e6216c2bf404b4c0000000000220020bc271f66ce920dfecb9d61053ca8e41f6f62660898f40b9982fba277f96bc4b202473044022007ea0994e1ea78083600a57623b611de66f28974076ab9cd438b2c037799257a0220129df50a7716e2159d25f1944a12dc618360bccf5cb6c744f8b00dd9240d4c2d012102245c997231079146616f70eae46dd43461b530cb55df50cac8ef321127adb96300000000\n"
     ]
    }
   ],
   "source": [
    "# run notebook\n",
    "%run \"/home/pins-dev/Projects/lightning-tx-tutorial/Chapter 1 - Funding Transaction/Funding-Transaction.ipynb\""
   ]
  },
  {
   "cell_type": "code",
   "execution_count": 2,
   "id": "39036f53-4b28-4b93-b65b-9b255fa8eefd",
   "metadata": {},
   "outputs": [],
   "source": [
    "# Determine our output scriptPubkeys and amounts (in satoshis)\n",
    "# Alice pay for the fees\n",
    "alice_output_value_sat = 3500000 - 500\n",
    "alice_output_spk = bytes.fromhex(\"76a914\") + hash160(bytes.fromhex(alice_closing_pubkey)) + bytes.fromhex(\"88ac\")\n",
    "bob_output_value_sat = 1500000\n",
    "bob_output_spk = bytes.fromhex(\"76a914\") + hash160(bytes.fromhex(bob_closing_pubkey)) + bytes.fromhex(\"88ac\")"
   ]
  },
  {
   "cell_type": "code",
   "execution_count": 3,
   "id": "dc200beb-78dc-4e03-b242-c0f8a58d9df7",
   "metadata": {},
   "outputs": [
    {
     "name": "stdout",
     "output_type": "stream",
     "text": [
      "Inputs: 55b8e831073afc39bc2835562f9a348f5a910ab2c561eaeb443f1f1c687bc5e50100000000ffffffff\n",
      "unsigned_tx:  020000000155b8e831073afc39bc2835562f9a348f5a910ab2c561eaeb443f1f1c687bc5e50100000000ffffffff02ec653500000000001976a914e3829ceda0bf7f1dea69d27371b4ee1c9ff5791788ac60e31600000000001976a914b6fead5bd04d1f6b0bb0a42241123ebcc774c49e88ac00000000\n"
     ]
    }
   ],
   "source": [
    "# VERSION\n",
    "# version '2' indicates that we may use relative timelocks (BIP68)\n",
    "version = bytes.fromhex(\"0200 0000\")\n",
    "\n",
    "# MARKER\n",
    "marker = bytes.fromhex(\"00\")\n",
    "\n",
    "# FLAG\n",
    "flag = bytes.fromhex(\"01\")\n",
    "\n",
    "# INPUTS\n",
    "# We have just 1 input\n",
    "input_count = bytes.fromhex(\"01\")\n",
    "\n",
    "# Calculate the txid of the funding channel tx created on the previous notebook\n",
    "channel_funding_txid = hash256(unsigned_channel_funding_tx)\n",
    "# The index of the funding channel tx createt on the previous notebook\n",
    "channel_funding_txindex = 1\n",
    "# Convert index to bytes (little endian)\n",
    "# Since the txid was already calculated, there is no need to invert the bytes to little-endian.\n",
    "channel_funding_txindex = channel_funding_txindex.to_bytes(4, byteorder=\"little\", signed=False)\n",
    "\n",
    "# For the unsigned transaction we use an empty scriptSig\n",
    "scriptsig = bytes.fromhex(\"\")\n",
    "\n",
    "# use 0xffffffff unless you are using OP_CHECKSEQUENCEVERIFY, locktime, or rbf\n",
    "sequence = bytes.fromhex(\"ffff ffff\")\n",
    "\n",
    "inputs = (\n",
    "    channel_funding_txid\n",
    "    + channel_funding_txindex\n",
    "    + varint_len(scriptsig)\n",
    "    + scriptsig\n",
    "    + sequence\n",
    ")\n",
    "print(\"Inputs: \" + inputs.hex())\n",
    "\n",
    "# OUTPUTS\n",
    "# 0x02 for out two outputs\n",
    "output_count = bytes.fromhex(\"02\")\n",
    " \n",
    "alice_output_value = alice_output_value_sat.to_bytes(8, byteorder=\"little\", signed=True)\n",
    "\n",
    "bob_output_value = bob_output_value_sat.to_bytes(8, byteorder=\"little\", signed=True)\n",
    "\n",
    "outputs = (\n",
    "    alice_output_value\n",
    "    + pushbytes(alice_output_spk)\n",
    "    + bob_output_value\n",
    "    + pushbytes(bob_output_spk)\n",
    ")\n",
    "\n",
    "# LOCKTIME\n",
    "locktime = bytes.fromhex(\"0000 0000\")\n",
    "\n",
    "unsigned_tx = (\n",
    "    version\n",
    "    + input_count\n",
    "    + inputs\n",
    "    + output_count\n",
    "    + outputs\n",
    "    + locktime\n",
    ")\n",
    "print(\"unsigned_tx: \", unsigned_tx.hex())"
   ]
  },
  {
   "cell_type": "code",
   "execution_count": 4,
   "id": "751aa483-481e-46e4-aae5-eccedbeaf3c9",
   "metadata": {},
   "outputs": [
    {
     "name": "stdout",
     "output_type": "stream",
     "text": [
      "{\n",
      "  \"txid\": \"6483d38daabbeeebab6bcc8965ccee2142b7080585adbdf9bb849f01f3d4c603\",\n",
      "  \"hash\": \"6483d38daabbeeebab6bcc8965ccee2142b7080585adbdf9bb849f01f3d4c603\",\n",
      "  \"version\": 2,\n",
      "  \"size\": 119,\n",
      "  \"vsize\": 119,\n",
      "  \"weight\": 476,\n",
      "  \"locktime\": 0,\n",
      "  \"vin\": [\n",
      "    {\n",
      "      \"txid\": \"e5c57b681c1f3f44ebea61c5b20a915a8f349a2f563528bc39fc3a0731e8b855\",\n",
      "      \"vout\": 1,\n",
      "      \"scriptSig\": {\n",
      "        \"asm\": \"\",\n",
      "        \"hex\": \"\"\n",
      "      },\n",
      "      \"sequence\": 4294967295\n",
      "    }\n",
      "  ],\n",
      "  \"vout\": [\n",
      "    {\n",
      "      \"value\": \"0.03499500\",\n",
      "      \"n\": 0,\n",
      "      \"scriptPubKey\": {\n",
      "        \"asm\": \"OP_DUP OP_HASH160 e3829ceda0bf7f1dea69d27371b4ee1c9ff57917 OP_EQUALVERIFY OP_CHECKSIG\",\n",
      "        \"desc\": \"addr(n2Fv9kT1bDPXWZF8LDGVBUrwzrUmNUuCDu)#0gspcakd\",\n",
      "        \"hex\": \"76a914e3829ceda0bf7f1dea69d27371b4ee1c9ff5791788ac\",\n",
      "        \"address\": \"n2Fv9kT1bDPXWZF8LDGVBUrwzrUmNUuCDu\",\n",
      "        \"type\": \"pubkeyhash\"\n",
      "      }\n",
      "    },\n",
      "    {\n",
      "      \"value\": \"0.01500000\",\n",
      "      \"n\": 1,\n",
      "      \"scriptPubKey\": {\n",
      "        \"asm\": \"OP_DUP OP_HASH160 b6fead5bd04d1f6b0bb0a42241123ebcc774c49e OP_EQUALVERIFY OP_CHECKSIG\",\n",
      "        \"desc\": \"addr(mxCYNFLWpctxCc61BvtASzHeSrRKSbKNzj)#uv04t4mm\",\n",
      "        \"hex\": \"76a914b6fead5bd04d1f6b0bb0a42241123ebcc774c49e88ac\",\n",
      "        \"address\": \"mxCYNFLWpctxCc61BvtASzHeSrRKSbKNzj\",\n",
      "        \"type\": \"pubkeyhash\"\n",
      "      }\n",
      "    }\n",
      "  ]\n",
      "}\n"
     ]
    }
   ],
   "source": [
    "decoded = node.decoderawtransaction(unsigned_tx.hex())\n",
    "print(json.dumps(decoded, indent=2, default=str))"
   ]
  },
  {
   "cell_type": "code",
   "execution_count": 5,
   "id": "e26df5ac-9936-4583-aa7a-9731df2ef936",
   "metadata": {},
   "outputs": [
    {
     "name": "stdout",
     "output_type": "stream",
     "text": [
      "02000000d5623c9652055d2be79aee5733805272cce193d3ab9154e20892b12a982d69a53bb13029ce7b1f559ef5e747fcac439f1455a2ec7c5f09b72290795e7066504455b8e831073afc39bc2835562f9a348f5a910ab2c561eaeb443f1f1c687bc5e50100000047522102245c997231079146616f70eae46dd43461b530cb55df50cac8ef321127adb96321032b057a643c7b928b7dc30e1f76c2a777a213fe3a7462215d10220844befe77c352ae404b4c0000000000ffffffff04448e79f898f3d75156e3e8c4fae6d29800d79c1af9baabe7176d0c33a9e2550000000001000000\n"
     ]
    }
   ],
   "source": [
    "# funding transaction redeemScript \n",
    "scriptcode = redeemScript\n",
    "\n",
    "# value of the funding channel output transaction (Output2)\n",
    "value = output2_value_sat.to_bytes(8, byteorder=\"little\", signed=False)\n",
    "\n",
    "hashPrevOuts = hash256(channel_funding_txid + channel_funding_txindex)\n",
    "hashSequence = hash256(sequence)\n",
    "hashOutputs = hash256(outputs)\n",
    "sighash_type = bytes.fromhex(\"0100 0000\") # SIGHASH_ALL\n",
    "\n",
    "tx_digest_preimage = (\n",
    "    version\n",
    "    + hashPrevOuts\n",
    "    + hashSequence\n",
    "    + channel_funding_txid\n",
    "    + channel_funding_txindex\n",
    "    + varint_len(scriptcode)\n",
    "    + scriptcode\n",
    "    + value\n",
    "    + sequence\n",
    "    + hashOutputs\n",
    "    + locktime\n",
    "    + sighash_type\n",
    ")\n",
    "print(tx_digest_preimage.hex())"
   ]
  },
  {
   "cell_type": "code",
   "execution_count": 6,
   "id": "de90d01e-d2d0-4b74-826c-1578103cab91",
   "metadata": {},
   "outputs": [
    {
     "name": "stdout",
     "output_type": "stream",
     "text": [
      "Signed Closing Transaction:  0200000000010155b8e831073afc39bc2835562f9a348f5a910ab2c561eaeb443f1f1c687bc5e50100000000ffffffff02ec653500000000001976a914e3829ceda0bf7f1dea69d27371b4ee1c9ff5791788ac60e31600000000001976a914b6fead5bd04d1f6b0bb0a42241123ebcc774c49e88ac0400483045022100ca6310ba6cb7e9720920a44bf1df23beb8901318ef1962eff97540fd6c4f857c02206057160c61e06b7f70fe8080618896c86c6c55d8991e08d2a8308f185a3f6f5a014730440220272adf1916a8e68e113c68e586cc58b8161bad1711c79e4ccb624d5222a04b9b02202eb9b56584a429d3f095f89581366d20cad5aa7174afc67899f21a24c5ed771e0147522102245c997231079146616f70eae46dd43461b530cb55df50cac8ef321127adb96321032b057a643c7b928b7dc30e1f76c2a777a213fe3a7462215d10220844befe77c352ae00000000\n"
     ]
    }
   ],
   "source": [
    "# SIGN ALICE COMMITMENT TRANSACTION\n",
    "# Sign the sigHash with the input privkey1\n",
    "# Create sigHash to be signed\n",
    "tx_sighash = hash256(tx_digest_preimage)\n",
    "alice_signing_key = ecdsa.SigningKey.from_string(bytes.fromhex(alice_funding_privkey), curve=ecdsa.SECP256k1) \n",
    "alice_signature = alice_signing_key.sign_digest(tx_sighash, sigencode=ecdsa.util.sigencode_der_canonize)\n",
    "\n",
    "# Append SIGHASH_ALL to the signature\n",
    "alice_signature = alice_signature + bytes.fromhex(\"01\")\n",
    "\n",
    "# Sign the sigHash with the input privkey2\n",
    "bob_signing_key = ecdsa.SigningKey.from_string(bytes.fromhex(bob_funding_privkey), curve=ecdsa.SECP256k1) \n",
    "bob_signature = bob_signing_key.sign_digest(tx_sighash, sigencode=ecdsa.util.sigencode_der_canonize)\n",
    "\n",
    "# Append SIGHASH_ALL to the signature\n",
    "bob_signature = bob_signature + bytes.fromhex(\"01\")\n",
    "\n",
    "witness = (\n",
    "    # indicate the number of stack items\n",
    "    bytes.fromhex(\"04\")\n",
    "    + bytes.fromhex(\"00\") # Add an extra \"00\" for the CheckMultiSig bug\n",
    "    + varint_len(alice_signature)\n",
    "    + alice_signature\n",
    "    + varint_len(bob_signature)\n",
    "    + bob_signature\n",
    "    + varint_len(redeemScript)\n",
    "    + redeemScript\n",
    ")\n",
    "\n",
    "# the final signed transaction\n",
    "signed_closing_tx = (\n",
    "    version\n",
    "    + marker\n",
    "    + flag\n",
    "    + input_count\n",
    "    + inputs\n",
    "    + output_count\n",
    "    + outputs\n",
    "    + witness\n",
    "    + locktime\n",
    ")\n",
    "\n",
    "print(\"Signed Closing Transaction: \",signed_closing_tx.hex())\n"
   ]
  },
  {
   "cell_type": "code",
   "execution_count": 7,
   "id": "ab9a7573-b0a6-457c-bb55-b178ee4e1d4f",
   "metadata": {},
   "outputs": [
    {
     "name": "stdout",
     "output_type": "stream",
     "text": [
      "[{'txid': '6483d38daabbeeebab6bcc8965ccee2142b7080585adbdf9bb849f01f3d4c603', 'wtxid': 'bc8437bbbfb52d571a25053cf9f5e119b8a475a2e08abd7b1fd17c4440918153', 'allowed': True, 'vsize': 175, 'fees': {'base': Decimal('0.00000500'), 'effective-feerate': Decimal('0.00002857'), 'effective-includes': ['bc8437bbbfb52d571a25053cf9f5e119b8a475a2e08abd7b1fd17c4440918153']}}]\n"
     ]
    },
    {
     "data": {
      "text/plain": [
       "['73e55942feb906a4a3c1eb4bbcff87c9cd92f37980b3529496bf7d3ad1cd01eb']"
      ]
     },
     "execution_count": 7,
     "metadata": {},
     "output_type": "execute_result"
    }
   ],
   "source": [
    "print(node.testmempoolaccept(rawtxs=[signed_closing_tx.hex()]))\n",
    "new_tx_txid = node.sendrawtransaction(signed_closing_tx.hex())\n",
    "# Mine a block to confirm the tx\n",
    "mining_address = node.getnewaddress()\n",
    "node.generatetoaddress(nblocks=1, address=mining_address, invalid_call=False)"
   ]
  },
  {
   "cell_type": "code",
   "execution_count": null,
   "id": "cb14b97e-ff26-454b-9897-5f952df03924",
   "metadata": {},
   "outputs": [],
   "source": []
  }
 ],
 "metadata": {
  "kernelspec": {
   "display_name": "Python 3 (ipykernel)",
   "language": "python",
   "name": "python3"
  },
  "language_info": {
   "codemirror_mode": {
    "name": "ipython",
    "version": 3
   },
   "file_extension": ".py",
   "mimetype": "text/x-python",
   "name": "python",
   "nbconvert_exporter": "python",
   "pygments_lexer": "ipython3",
   "version": "3.12.3"
  }
 },
 "nbformat": 4,
 "nbformat_minor": 5
}
