{
 "cells": [
  {
   "cell_type": "markdown",
   "id": "77c93df3-2b04-45c9-818a-b633f04f102d",
   "metadata": {},
   "source": [
    "*** UNDER CONSTRUCTION ***\n",
    "\n",
    "\n",
    "# HTLC-Timeout and HTLC-Success Transactions\n",
    "## Prerequisite knowledge\n",
    "### For all notebooks\n",
    "- A high level understanding of the bitcoin e.g. [Mastering Bitcoin](https://github.com/bitcoinbook/bitcoinbook), in particular [Chapter 6](https://github.com/bitcoinbook/bitcoinbook/blob/develop/ch06.asciidoc).\n",
    "- A conceptual understanding of [hash functions](https://www.thesslstore.com/blog/what-is-a-hash-function-in-cryptography-a-beginners-guide).\n",
    "- [Hexadecimal notation](https://inst.eecs.berkeley.edu/~cs61bl/r//cur/bits/decimal-binary-hex.html?topic=lab28.topic&step=2&course=) and [endianness](https://www.freecodecamp.org/news/what-is-endianness-big-endian-vs-little-endian/).\n",
    "- A high level understanding of the lightning e.g. [Mastering Lightning Network](https://github.com/lnbook/lnbook), in particular [Chapter7](https://github.com/lnbook/lnbook/blob/develop/07_payment_channels.asciidoc), [Chapter 8](https://github.com/lnbook/lnbook/blob/develop/08_routing_htlcs.asciidoc) and [Chapter 9](https://github.com/lnbook/lnbook/blob/develop/09_channel_operation.asciidoc).\n",
    "\n",
    "### Specific to this notebook\n",
    "- SHA256, HASH256, HASH160 - '[Hash Functions chapter](https://github.com/MPins/lightning-tx-tutorial/blob/main/appendix/hash-functions.ipynb)'\n",
    "- Bech32 addresses - '[Addresses chapter](https://github.com/MPins/lightning-tx-tutorial/blob/main/appendix/Addresses.ipynb)'\n",
    "- Bitcoin Script basics - '[Bitcoin Script chapter](https://github.com/MPins/lightning-tx-tutorial/blob/main/appendix/Bitcoin%20Script.ipynb)'\n",
    "- Lightning Network BOLT #2: '[Peer Protocol for Channel Management](https://github.com/lightning/bolts/blob/master/02-peer-protocol.md#channel-establishment-v1)'\n",
    "- Lightning Network BOLT #3: '[Commitment Transactions](https://github.com/lightning/bolts/blob/master/03-transactions.md#commitment-transaction)'\n",
    "- Finite Fields, Elliptic Curves and Serialization e.g. [Programming Bitcoin](https://github.com/jimmysong/programmingbitcoin), in particular [Chapter 1](https://github.com/jimmysong/programmingbitcoin/blob/master/ch01.asciidoc), [Chapter2](https://github.com/jimmysong/programmingbitcoin/blob/master/ch02.asciidoc), [Chapter 3](https://github.com/jimmysong/programmingbitcoin/blob/master/ch03.asciidoc) and [Chapter 4](https://github.com/jimmysong/programmingbitcoin/blob/master/ch04.asciidoc).\n",
    "\n",
    "## HTLC-Timeout and HTLC-Success Transactions\n",
    "\n",
    "The HTLC-Timeout and HTLC-Success Transactions are almost identical, except the HTLC-timeout transaction is timelocked. Both HTLC-timeout/HTLC-success transactions can be spent by a valid penalty transaction.\n",
    "\n",
    "* version: 2\n",
    "* locktime: 0 for HTLC-success, cltv_expiry for HTLC-timeout\n",
    "* txin count: 1\n",
    "    * txin[0] outpoint: txid of the commitment transaction and output_index of the matching HTLC output for the HTLC transaction\n",
    "    * txin[0] sequence: 0 (set to 1 for option_anchors)\n",
    "    * txin[0] script bytes: 0\n",
    "    * txin[0] witness stack: 0 <remotehtlcsig> <localhtlcsig>  <payment_preimage> for HTLC-success, 0 <remotehtlcsig> <localhtlcsig> <> for HTLC-timeout\n",
    "\n",
    "* txout count: 1\n",
    "    * txout[0] amount: the HTLC amount_msat divided by 1000 (rounding down) minus fees in satoshis (see Fee Calculation)\n",
    "    * txout[0] script: version-0 P2WSH with witness script as shown below\n",
    "\n",
    "if option_anchors applies to this commitment transaction, SIGHASH_SINGLE|SIGHASH_ANYONECANPAY is used as described in [BOLT #5](https://github.com/lightning/bolts/blob/master/05-onchain.md#generation-of-htlc-transactions).\n",
    "\n",
    "The witness script for the output is:\n",
    "\n",
    "```\n",
    "OP_IF\n",
    "    # Penalty transaction\n",
    "    <revocationpubkey>\n",
    "OP_ELSE\n",
    "    `to_self_delay`\n",
    "    OP_CHECKSEQUENCEVERIFY\n",
    "    OP_DROP\n",
    "    <local_delayedpubkey>\n",
    "OP_ENDIF\n",
    "OP_CHECKSIG\n",
    "```\n",
    "\n",
    "\n",
    "## Setup\n",
    "### Requirements\n",
    "\n",
    "For this exercise we'll run the previous notebook to create the commitment transactions beetween with offer and received HTLC.\n",
    "\n",
    "**You'll need to edit these next line for your local setup.**"
   ]
  },
  {
   "cell_type": "code",
   "execution_count": 1,
   "id": "f4d6d2d3-3165-41c6-a01e-818bb6f94831",
   "metadata": {},
   "outputs": [
    {
     "name": "stdout",
     "output_type": "stream",
     "text": [
      "Alice Per Commitment Seed 34b581ec20bf2c6cae3d4d4dcbfddc8a3727a1e9a57c55f3520e770607898c06\n",
      "Bob Per Commitment Seed 89c994b3ddad4698acee71e42d8bcace48eea739caaba371eb110e77663ec56d\n",
      "Alice Revocation Basepoint Private Key: c17ac3952ca414190074d1e59ea03fbae253196173908dc8b131af6bd2cc8161\n",
      "Alice Revocation Basepoint Public Key: 03649c4f865bec74b0a186deef4defad51cfdc141443e38074ea05a7835a953a49\n",
      "Alice HTLC Basepoint Private Key: 763ae49a20e6668c88602c782716dd83ba6c4cc0333b38810e2bcd7b22c871ac\n",
      "Alice HTLC Basepoint Public Key: 02816fde4150e4dfcac94eff0b821448fb70f57a56148ba2206cd9b2fd0cc20bdf\n",
      "Alice Payment Basepoint Private Key: 72d8c12971b58076a1f27eb7938ca442f0b210762b23637443ac2e99dac352a6\n",
      "Alice Payment Basepoint Public Key: 025f892a06124391e2f38ce35d943cdc09f63e203330dbd9cb6113a903e0738458\n",
      "Alice Delayed Payment Basepoint Private Key: 7cafce00c54e7241894dcc7c3beaca29dd354139fdb6182198d6c5f1063bfe8d\n",
      "Alice Delayed Payment Basepoint Public Key: 034aa35219136bb238e072341b20a4bf8fb44a83cdb73dd2bd973c123ac2dfd7ff\n",
      "Bob Revocation Basepoint Private Key: fa526e09b9ff7425552db1803d7e12cf4475d060db4cfb812adb07219a54baa0\n",
      "Bob Revocation Basepoint Public Key: 02536407aada57068f30b53c4126062d235967c3636147433e72b21ff93c8acdbf\n",
      "Bob HTLC Basepoint Private Key: 06d61bb059eef194a3d223992a028fbd31f2e8b289d5a10acd343671c9322155\n",
      "Bob HTLC Basepoint Public Key: 0306b11436efa058a86f997df6596ea4579241f3909175772d77df38a5255f52f4\n",
      "Bob Payment Basepoint Private Key: 5046024e716c479599350b7aee8139304d942360733d8dd79793917f9e33a334\n",
      "Bob Payment Basepoint Public Key: 02f98efd3f2b2fbe7bd83c419f5f64f8280798b8a9175fdb77c0091bbb95c79506\n",
      "Bob Delayed Payment Basepoint Private Key: d764d4c083cac97d34913bdf123c3dfef5379db9e9b0652897783e0d01880bb3\n",
      "Bob Delayed Payment Basepoint Public Key: 032a5869ac5eb30ba1e9c9addd3740822dac6f45a8de9b3d4e171f14c3abce2dae\n",
      "Alice Funding Private Key: ccd60731893309bb59a6030a581fc80984fa96129e10cf8342c0b0b800ffb51c\n",
      "Alice Funding Public Key: 02245c997231079146616f70eae46dd43461b530cb55df50cac8ef321127adb963\n",
      "Alice Change Private Key: 6c2bda7af1291da770d0041794bbc891ac27c2fbe6a8a825a8f14f3b904b1f4e\n",
      "Alice Change Public Key: 02f0006732c6db9e73522b31168bda043cbf7759c46e553eae9dede26ccd08a39b\n",
      "Bob Funding Private Key: ca62b96f01783d13a48be4e8a2ca9c48093f62b64537d4c3c33d45d7cb53a0a7\n",
      "Bob Funding Public Key: 032b057a643c7b928b7dc30e1f76c2a777a213fe3a7462215d10220844befe77c3\n",
      "Alice's funding p2wpkh address: bcrt1qt0vq5dj8qa720lfx3hhzyu9ygsng9js3g02lnl\n",
      "Alice's change p2wpkh address: bcrt1qt6ax8rh20h6zts0dcqmzdy9kte3pds4lrzwl6s\n",
      "2025-04-11T00:21:30.500000Z TestFramework (INFO): PRNG seed is: 9012647388984883934\n",
      "2025-04-11T00:21:30.501000Z TestFramework (INFO): Initializing test directory /tmp/bitcoin_func_test_4v8k60sa\n",
      "txid_to_spent: 739437df9d23472ab6d450103f1c3e813ecd007b1a2c827032e032758a48bae7, 0\n",
      "Alice pubkey is lexicographically lesser than Bob pubkey:\n",
      "02245c997231079146616f70eae46dd43461b530cb55df50cac8ef321127adb963 < 032b057a643c7b928b7dc30e1f76c2a777a213fe3a7462215d10220844befe77c3\n",
      "Redeem Script:\n",
      "522102245c997231079146616f70eae46dd43461b530cb55df50cac8ef321127adb96321032b057a643c7b928b7dc30e1f76c2a777a213fe3a7462215d10220844befe77c352ae\n",
      "channel_address:  bcrt1qhsn37ekwjgxlajuavyzne28yrahkyesgnr6qhxvzlw3807ttcjeqhcl6mc\n",
      "unsigned_channel_funding_tx:  0200000001e7ba488a7532e03270822c1a7b00cd3e813e1c3f1050d4b62a47239ddf3794730000000000ffffffff02c0e1e400000000001600145eba638eea7df425c1edc0362690b65e6216c2bf404b4c0000000000220020bc271f66ce920dfecb9d61053ca8e41f6f62660898f40b9982fba277f96bc4b200000000\n",
      "{\n",
      "  \"txid\": \"3ec733548b1b7a5c84403da9acaeed6cc2b90161c588ee3115afab4f118728f7\",\n",
      "  \"hash\": \"3ec733548b1b7a5c84403da9acaeed6cc2b90161c588ee3115afab4f118728f7\",\n",
      "  \"version\": 2,\n",
      "  \"size\": 125,\n",
      "  \"vsize\": 125,\n",
      "  \"weight\": 500,\n",
      "  \"locktime\": 0,\n",
      "  \"vin\": [\n",
      "    {\n",
      "      \"txid\": \"739437df9d23472ab6d450103f1c3e813ecd007b1a2c827032e032758a48bae7\",\n",
      "      \"vout\": 0,\n",
      "      \"scriptSig\": {\n",
      "        \"asm\": \"\",\n",
      "        \"hex\": \"\"\n",
      "      },\n",
      "      \"sequence\": 4294967295\n",
      "    }\n",
      "  ],\n",
      "  \"vout\": [\n",
      "    {\n",
      "      \"value\": \"0.15000000\",\n",
      "      \"n\": 0,\n",
      "      \"scriptPubKey\": {\n",
      "        \"asm\": \"0 5eba638eea7df425c1edc0362690b65e6216c2bf\",\n",
      "        \"desc\": \"addr(bcrt1qt6ax8rh20h6zts0dcqmzdy9kte3pds4lrzwl6s)#s9wdm0cm\",\n",
      "        \"hex\": \"00145eba638eea7df425c1edc0362690b65e6216c2bf\",\n",
      "        \"address\": \"bcrt1qt6ax8rh20h6zts0dcqmzdy9kte3pds4lrzwl6s\",\n",
      "        \"type\": \"witness_v0_keyhash\"\n",
      "      }\n",
      "    },\n",
      "    {\n",
      "      \"value\": \"0.05000000\",\n",
      "      \"n\": 1,\n",
      "      \"scriptPubKey\": {\n",
      "        \"asm\": \"0 bc271f66ce920dfecb9d61053ca8e41f6f62660898f40b9982fba277f96bc4b2\",\n",
      "        \"desc\": \"addr(bcrt1qhsn37ekwjgxlajuavyzne28yrahkyesgnr6qhxvzlw3807ttcjeqhcl6mc)#q3fvp06p\",\n",
      "        \"hex\": \"0020bc271f66ce920dfecb9d61053ca8e41f6f62660898f40b9982fba277f96bc4b2\",\n",
      "        \"address\": \"bcrt1qhsn37ekwjgxlajuavyzne28yrahkyesgnr6qhxvzlw3807ttcjeqhcl6mc\",\n",
      "        \"type\": \"witness_v0_scripthash\"\n",
      "      }\n",
      "    }\n",
      "  ]\n",
      "}\n",
      "tx_digest_preimage:  0200000042c0f6275393e6b5dcdfe30f33d36112e7e1315a006180c69f068242541e10623bb13029ce7b1f559ef5e747fcac439f1455a2ec7c5f09b72290795e70665044e7ba488a7532e03270822c1a7b00cd3e813e1c3f1050d4b62a47239ddf379473000000001976a9145bd80a3647077ca7fd268dee2270a4442682ca1188aca0b3320100000000fffffffff024a453c206730b975be44da5987693c127c508aada9aabadc9455fb74b5fc60000000001000000\n",
      "Channel Funding Signed Transaction:  02000000000101e7ba488a7532e03270822c1a7b00cd3e813e1c3f1050d4b62a47239ddf3794730000000000ffffffff02c0e1e400000000001600145eba638eea7df425c1edc0362690b65e6216c2bf404b4c0000000000220020bc271f66ce920dfecb9d61053ca8e41f6f62660898f40b9982fba277f96bc4b202473044022022956cffb22b6f383f85b50777dbca957ade2cd8fca6c937f4175a18e783fa0a0220394fa771415ce9370696a8e42ed6ce694409a9bb98cfab1369eb33cd259b6313012102245c997231079146616f70eae46dd43461b530cb55df50cac8ef321127adb96300000000\n",
      "[{'txid': '3ec733548b1b7a5c84403da9acaeed6cc2b90161c588ee3115afab4f118728f7', 'wtxid': '16d09ca180bb5fb71b6ec690c94560071698883080ebd933f088439a5606c772', 'allowed': True, 'vsize': 153, 'fees': {'base': Decimal('0.00100000'), 'effective-feerate': Decimal('0.00653594'), 'effective-includes': ['16d09ca180bb5fb71b6ec690c94560071698883080ebd933f088439a5606c772']}}]\n",
      "Alice First Per Commitment Secret: 739d879e3b2502146546b9d6d51b1e05feb362397b7cf7ba13c7719b0a889dd9\n",
      "Alice First Per Commitment Point: 0368081a0a30ec118e662b71d222c383c5c9f495b4821fd0252452abf659250237\n",
      "Bob First Per Commitment Secret: 203f2c3e5cd6004ef0ea26e82c2ffeb2dc80036cedca92c210010cd73facd38a\n",
      "Bob First Per Commitment Point: 03ac685c74c0970c62f0e69ad332b6a5f6d61d3650128ef2a18e011cfd28d177b4\n",
      "Commitment Number Obscured: 0xb433fd43a66f\n",
      "Inputs: f72887114fabaf1531ee88c56101b9c26cedaeaca93d40845c7a1b8b5433c73e0100000000fd33b480\n",
      "Alice Delayed Pubkey: 03d6363615b3d00361158c0f48a4ef81ea12e214e8d56e24098759f6b4267dca8b\n",
      "Bob Revocation Pubkey: 03a0596fefba4b53489629115e8b360a95b900f1884306edb98428d5377478b9ac\n",
      "Alice Anchor Output SPK: 002034391c79ba78d594262aa91410f49d7200ef55e7551441659412aac47b543f04\n",
      "Alice Delayed Output SPK: 002010af48dee0428972563ba131e3d8aa35fd92537953d4755a84bc2a09c2bb53a5\n",
      "Alice Remote Output SPK: 0020f0447296bbb031d3f362b223a0ba7281bfcfeca9061820c9bdee400411fc01be\n",
      "Unsigned Alice Commitment Transaction:  0200000001f72887114fabaf1531ee88c56101b9c26cedaeaca93d40845c7a1b8b5433c73e0100000000fd33b480024a0100000000000022002034391c79ba78d594262aa91410f49d7200ef55e7551441659412aac47b543f041a084c000000000022002010af48dee0428972563ba131e3d8aa35fd92537953d4755a84bc2a09c2bb53a56fa64320\n",
      "Unsigned Bob Commitment Transaction:  0200000001f72887114fabaf1531ee88c56101b9c26cedaeaca93d40845c7a1b8b5433c73e0100000000fd33b480024a0100000000000022002034391c79ba78d594262aa91410f49d7200ef55e7551441659412aac47b543f041a084c0000000000220020f0447296bbb031d3f362b223a0ba7281bfcfeca9061820c9bdee400411fc01be6fa64320\n",
      "Alice Unsigned Commitment transaction\n",
      "{\n",
      "  \"txid\": \"07c89fe27006bb32beebc27a46294ccdee3452f452afa18b7f1e3bcee36f544a\",\n",
      "  \"hash\": \"07c89fe27006bb32beebc27a46294ccdee3452f452afa18b7f1e3bcee36f544a\",\n",
      "  \"version\": 2,\n",
      "  \"size\": 137,\n",
      "  \"vsize\": 137,\n",
      "  \"weight\": 548,\n",
      "  \"locktime\": 541304431,\n",
      "  \"vin\": [\n",
      "    {\n",
      "      \"txid\": \"3ec733548b1b7a5c84403da9acaeed6cc2b90161c588ee3115afab4f118728f7\",\n",
      "      \"vout\": 1,\n",
      "      \"scriptSig\": {\n",
      "        \"asm\": \"\",\n",
      "        \"hex\": \"\"\n",
      "      },\n",
      "      \"sequence\": 2159293437\n",
      "    }\n",
      "  ],\n",
      "  \"vout\": [\n",
      "    {\n",
      "      \"value\": \"0.00000330\",\n",
      "      \"n\": 0,\n",
      "      \"scriptPubKey\": {\n",
      "        \"asm\": \"0 34391c79ba78d594262aa91410f49d7200ef55e7551441659412aac47b543f04\",\n",
      "        \"desc\": \"addr(bcrt1qxsu3c7d60r2egf324y2ppayawgqw7408252yzev5z24vg7658uzqwq2zs5)#62txjpcp\",\n",
      "        \"hex\": \"002034391c79ba78d594262aa91410f49d7200ef55e7551441659412aac47b543f04\",\n",
      "        \"address\": \"bcrt1qxsu3c7d60r2egf324y2ppayawgqw7408252yzev5z24vg7658uzqwq2zs5\",\n",
      "        \"type\": \"witness_v0_scripthash\"\n",
      "      }\n",
      "    },\n",
      "    {\n",
      "      \"value\": \"0.04982810\",\n",
      "      \"n\": 1,\n",
      "      \"scriptPubKey\": {\n",
      "        \"asm\": \"0 10af48dee0428972563ba131e3d8aa35fd92537953d4755a84bc2a09c2bb53a5\",\n",
      "        \"desc\": \"addr(bcrt1qzzh53hhqg2yhy43m5yc78k92xh7ey5me20282k5yhs4qns4m2wjsfkpzye)#fhg3my0v\",\n",
      "        \"hex\": \"002010af48dee0428972563ba131e3d8aa35fd92537953d4755a84bc2a09c2bb53a5\",\n",
      "        \"address\": \"bcrt1qzzh53hhqg2yhy43m5yc78k92xh7ey5me20282k5yhs4qns4m2wjsfkpzye\",\n",
      "        \"type\": \"witness_v0_scripthash\"\n",
      "      }\n",
      "    }\n",
      "  ]\n",
      "}\n",
      "Bob Unsigned Commitment transaction\n",
      "{\n",
      "  \"txid\": \"11e31554e800d647b5f92f929a7fb5a0a02dcd20d9258b4d6c131d1e67e82198\",\n",
      "  \"hash\": \"11e31554e800d647b5f92f929a7fb5a0a02dcd20d9258b4d6c131d1e67e82198\",\n",
      "  \"version\": 2,\n",
      "  \"size\": 137,\n",
      "  \"vsize\": 137,\n",
      "  \"weight\": 548,\n",
      "  \"locktime\": 541304431,\n",
      "  \"vin\": [\n",
      "    {\n",
      "      \"txid\": \"3ec733548b1b7a5c84403da9acaeed6cc2b90161c588ee3115afab4f118728f7\",\n",
      "      \"vout\": 1,\n",
      "      \"scriptSig\": {\n",
      "        \"asm\": \"\",\n",
      "        \"hex\": \"\"\n",
      "      },\n",
      "      \"sequence\": 2159293437\n",
      "    }\n",
      "  ],\n",
      "  \"vout\": [\n",
      "    {\n",
      "      \"value\": \"0.00000330\",\n",
      "      \"n\": 0,\n",
      "      \"scriptPubKey\": {\n",
      "        \"asm\": \"0 34391c79ba78d594262aa91410f49d7200ef55e7551441659412aac47b543f04\",\n",
      "        \"desc\": \"addr(bcrt1qxsu3c7d60r2egf324y2ppayawgqw7408252yzev5z24vg7658uzqwq2zs5)#62txjpcp\",\n",
      "        \"hex\": \"002034391c79ba78d594262aa91410f49d7200ef55e7551441659412aac47b543f04\",\n",
      "        \"address\": \"bcrt1qxsu3c7d60r2egf324y2ppayawgqw7408252yzev5z24vg7658uzqwq2zs5\",\n",
      "        \"type\": \"witness_v0_scripthash\"\n",
      "      }\n",
      "    },\n",
      "    {\n",
      "      \"value\": \"0.04982810\",\n",
      "      \"n\": 1,\n",
      "      \"scriptPubKey\": {\n",
      "        \"asm\": \"0 f0447296bbb031d3f362b223a0ba7281bfcfeca9061820c9bdee400411fc01be\",\n",
      "        \"desc\": \"addr(bcrt1q7pz8994mkqca8umzkg36pwnjsxlulm9fqcvzpjdaaeqqgy0uqxlqphvsda)#f8xgy4gn\",\n",
      "        \"hex\": \"0020f0447296bbb031d3f362b223a0ba7281bfcfeca9061820c9bdee400411fc01be\",\n",
      "        \"address\": \"bcrt1q7pz8994mkqca8umzkg36pwnjsxlulm9fqcvzpjdaaeqqgy0uqxlqphvsda\",\n",
      "        \"type\": \"witness_v0_scripthash\"\n",
      "      }\n",
      "    }\n",
      "  ]\n",
      "}\n",
      "alice_tx_digest_preimage:  02000000d91a55b7ba210ebcb6dc32966b6e0a7fe8c9ed9b942433cf5daaa3f3f0508e9cc6067e2ccbba74d4f24cc174be97c1ea7514cf7a20d616fbc7587a48964b2c95f72887114fabaf1531ee88c56101b9c26cedaeaca93d40845c7a1b8b5433c73e0100000047522102245c997231079146616f70eae46dd43461b530cb55df50cac8ef321127adb96321032b057a643c7b928b7dc30e1f76c2a777a213fe3a7462215d10220844befe77c352ae404b4c0000000000fd33b48095e26024f731d6ea5e1e1698c7a24bcb4453535c9f06b0e5cbeb259a12693f096fa6432001000000\n",
      "bob_tx_digest_preimage:  02000000d91a55b7ba210ebcb6dc32966b6e0a7fe8c9ed9b942433cf5daaa3f3f0508e9cc6067e2ccbba74d4f24cc174be97c1ea7514cf7a20d616fbc7587a48964b2c95f72887114fabaf1531ee88c56101b9c26cedaeaca93d40845c7a1b8b5433c73e0100000047522102245c997231079146616f70eae46dd43461b530cb55df50cac8ef321127adb96321032b057a643c7b928b7dc30e1f76c2a777a213fe3a7462215d10220844befe77c352ae404b4c0000000000fd33b480cb541070b4f791ea30c33859048fe351357b6e71305de479d36b3b6dfd7c41396fa6432001000000\n",
      "Alice Signed Commitment Transaction:  02000000000101f72887114fabaf1531ee88c56101b9c26cedaeaca93d40845c7a1b8b5433c73e0100000000fd33b480024a0100000000000022002034391c79ba78d594262aa91410f49d7200ef55e7551441659412aac47b543f041a084c000000000022002010af48dee0428972563ba131e3d8aa35fd92537953d4755a84bc2a09c2bb53a50400483045022100d5484e44e9b7196d8410566cc30c73dec2a8da8fca3da2ecc9e28ec865225c9402203cd331330871ba505821cd0ba303bf7d15a5697fcc25dbfde614390bfaec0bdf01483045022100ab4cf0c4022130147fc39317e543f2d4c0c0980e037b0a9cbe713930b378c2a00220231c902d55e9a46ff06d4c471d3a88f8bb248ab8c2d43a957fcde909b2fe1ecb0147522102245c997231079146616f70eae46dd43461b530cb55df50cac8ef321127adb96321032b057a643c7b928b7dc30e1f76c2a777a213fe3a7462215d10220844befe77c352ae6fa64320\n",
      "Bob Signed Commitment Transaction:  02000000000101f72887114fabaf1531ee88c56101b9c26cedaeaca93d40845c7a1b8b5433c73e0100000000fd33b480024a0100000000000022002034391c79ba78d594262aa91410f49d7200ef55e7551441659412aac47b543f041a084c0000000000220020f0447296bbb031d3f362b223a0ba7281bfcfeca9061820c9bdee400411fc01be040047304402203603d02e666216635be2a8f932f28b04740f5751a16764e514f387bc055da4c002206d0b148a8734223b033975fc895506f91e43cb44876c2cd5ff0c846a75d60bb90147304402203c9fe5a57e8248eade512fe1b3a381755e48f31bb2aaf7291008977b19e5f0e902200cf2d5278553154f68d6a2827ee9163a1a1407db69ad1d552c4bc3b511a2b0830147522102245c997231079146616f70eae46dd43461b530cb55df50cac8ef321127adb96321032b057a643c7b928b7dc30e1f76c2a777a213fe3a7462215d10220844befe77c352ae6fa64320\n",
      "[{'txid': '07c89fe27006bb32beebc27a46294ccdee3452f452afa18b7f1e3bcee36f544a', 'wtxid': '18e5d0eff16d9f9897b9446d4555eea451b11985ee55bd3c4739d6b58aea42f9', 'allowed': True, 'vsize': 193, 'fees': {'base': Decimal('0.00016860'), 'effective-feerate': Decimal('0.00087357'), 'effective-includes': ['18e5d0eff16d9f9897b9446d4555eea451b11985ee55bd3c4739d6b58aea42f9']}}]\n",
      "[{'txid': '11e31554e800d647b5f92f929a7fb5a0a02dcd20d9258b4d6c131d1e67e82198', 'wtxid': 'd54e89b0727d3052921253847be7a862d4a89318584a427ad3a65a27523d352c', 'allowed': True, 'vsize': 192, 'fees': {'base': Decimal('0.00016860'), 'effective-feerate': Decimal('0.00087812'), 'effective-includes': ['d54e89b0727d3052921253847be7a862d4a89318584a427ad3a65a27523d352c']}}]\n",
      "Commitment Number Obscured: 0xb433fd43a66c\n",
      "Inputs: f72887114fabaf1531ee88c56101b9c26cedaeaca93d40845c7a1b8b5433c73e0100000000fd33b480\n",
      "Alice Per Commitment Secret: 7d474813d764ca1273ad85e3f36ca1926401a8f76e576533f0232801c96af14d\n",
      "Alice Per Commitment Point: 028a29fc294e5cc904c607cbe2d66bc3e3f0d5131ba3f9085eb01b25df0a5bdd4a\n",
      "Bob Per Commitment Secret: 3dec4e412d557115ad23549b60f2bb4fc8a1215bead2c8ade3ed2cf1d10450da\n",
      "Bob Per Commitment Point: 0267c6f101ca3ffa7d9e2aba0ca51e63af33a7b88b19e80a04a2deb9807447e963\n",
      "Alice Delayed Pubkey: 03eb397e72815b5221b63d2564593465b45c9f7fa6da6944e1371974557d2682fa\n",
      "Bob Delayed Pubkey: 02422c467da01480bef0191075e8823724ebb84b1a8fc502ca1e63d881ae723a4e\n",
      "Alice HTLC Pubkey: 03f020b85b2f600cdba67ecb33ed2ed09bf1c0a0e67e839a9ca70766049a5f3298\n",
      "Bob HTLC Pubkey: 03f0ce4fe88d9e1d79c449ced61ee6cfc9280b3e424a48f952667b7fd73a299aa1\n",
      "Bob Revocation Pubkey: 02e4c80557ad85389977e48fc2720c13a7d913885c2c58b3abfc298b3d437a7988\n",
      "Alice Revocation Pubkey: 0223a5d50c90727bb8a4e9c0c3746ae39f774f3a43867fd8f6e9b0bdc2989806a2\n",
      "Alice Anchor Output SPK: 002034391c79ba78d594262aa91410f49d7200ef55e7551441659412aac47b543f04\n",
      "Bob Anchor Output SPK: 002056680a199b598b249d54e3b24fbf5a629228af306e3f587e8ab1b65233a581c4\n",
      "Alice Offered htlc Output SPK: 00205337b1739305e8759631da30a34bd30ebb1379b484f3216a237ad009d21ded74\n",
      "Bob Remote Output SPK: 0020439fd0fb44bb93e02a87b92851c9e377612166d8ce4af46eb9f82899a8e8323d\n",
      "Alice Delayed Output SPK: 0020978f0c6d76e9a391a84ab6385c34d6cc8dcafdc624523ede9241b8cc2211eb76\n",
      "Bob Received htlc Output SPK: 00208fa0be377a59c48a6aab40e5113359cde211c18cd721a5e4a1572b4cb3eea1f5\n",
      "Bob Delayed Output SPK: 0020a1574ee61ea7a53637edb0038c79d979a78c1603b3a318d185936cb59e19670a\n",
      "Alice Remote Output SPK: 0020475d024bb95e9a981632863d3b1a4b9308aa88e189196272735a3e3d47caf936\n",
      "Unsigned Alice Commitment Transaction:  0200000001f72887114fabaf1531ee88c56101b9c26cedaeaca93d40845c7a1b8b5433c73e0100000000fd33b480054a0100000000000022002034391c79ba78d594262aa91410f49d7200ef55e7551441659412aac47b543f044a0100000000000022002056680a199b598b249d54e3b24fbf5a629228af306e3f587e8ab1b65233a581c420a10700000000002200205337b1739305e8759631da30a34bd30ebb1379b484f3216a237ad009d21ded7440420f0000000000220020439fd0fb44bb93e02a87b92851c9e377612166d8ce4af46eb9f82899a8e8323d5c19350000000000220020978f0c6d76e9a391a84ab6385c34d6cc8dcafdc624523ede9241b8cc2211eb766ca64320\n",
      "Unsigned Bob Commitment Transaction:  0200000001f72887114fabaf1531ee88c56101b9c26cedaeaca93d40845c7a1b8b5433c73e0100000000fd33b480054a0100000000000022002034391c79ba78d594262aa91410f49d7200ef55e7551441659412aac47b543f044a0100000000000022002056680a199b598b249d54e3b24fbf5a629228af306e3f587e8ab1b65233a581c420a10700000000002200208fa0be377a59c48a6aab40e5113359cde211c18cd721a5e4a1572b4cb3eea1f540420f0000000000220020a1574ee61ea7a53637edb0038c79d979a78c1603b3a318d185936cb59e19670a5c19350000000000220020475d024bb95e9a981632863d3b1a4b9308aa88e189196272735a3e3d47caf9366ca64320\n",
      "Alice Unsigned Commitment transaction\n",
      "{\n",
      "  \"txid\": \"b079bd789956f2b96a086678c7cc813997ea11c167df6db47fd4fca706c9c0e3\",\n",
      "  \"hash\": \"b079bd789956f2b96a086678c7cc813997ea11c167df6db47fd4fca706c9c0e3\",\n",
      "  \"version\": 2,\n",
      "  \"size\": 266,\n",
      "  \"vsize\": 266,\n",
      "  \"weight\": 1064,\n",
      "  \"locktime\": 541304428,\n",
      "  \"vin\": [\n",
      "    {\n",
      "      \"txid\": \"3ec733548b1b7a5c84403da9acaeed6cc2b90161c588ee3115afab4f118728f7\",\n",
      "      \"vout\": 1,\n",
      "      \"scriptSig\": {\n",
      "        \"asm\": \"\",\n",
      "        \"hex\": \"\"\n",
      "      },\n",
      "      \"sequence\": 2159293437\n",
      "    }\n",
      "  ],\n",
      "  \"vout\": [\n",
      "    {\n",
      "      \"value\": \"0.00000330\",\n",
      "      \"n\": 0,\n",
      "      \"scriptPubKey\": {\n",
      "        \"asm\": \"0 34391c79ba78d594262aa91410f49d7200ef55e7551441659412aac47b543f04\",\n",
      "        \"desc\": \"addr(bcrt1qxsu3c7d60r2egf324y2ppayawgqw7408252yzev5z24vg7658uzqwq2zs5)#62txjpcp\",\n",
      "        \"hex\": \"002034391c79ba78d594262aa91410f49d7200ef55e7551441659412aac47b543f04\",\n",
      "        \"address\": \"bcrt1qxsu3c7d60r2egf324y2ppayawgqw7408252yzev5z24vg7658uzqwq2zs5\",\n",
      "        \"type\": \"witness_v0_scripthash\"\n",
      "      }\n",
      "    },\n",
      "    {\n",
      "      \"value\": \"0.00000330\",\n",
      "      \"n\": 1,\n",
      "      \"scriptPubKey\": {\n",
      "        \"asm\": \"0 56680a199b598b249d54e3b24fbf5a629228af306e3f587e8ab1b65233a581c4\",\n",
      "        \"desc\": \"addr(bcrt1q2e5q5xvmtx9jf825uweyl066v2fz3tesdcl4sl52kxm9yva9s8zq9pw5mq)#z5wzum6e\",\n",
      "        \"hex\": \"002056680a199b598b249d54e3b24fbf5a629228af306e3f587e8ab1b65233a581c4\",\n",
      "        \"address\": \"bcrt1q2e5q5xvmtx9jf825uweyl066v2fz3tesdcl4sl52kxm9yva9s8zq9pw5mq\",\n",
      "        \"type\": \"witness_v0_scripthash\"\n",
      "      }\n",
      "    },\n",
      "    {\n",
      "      \"value\": \"0.00500000\",\n",
      "      \"n\": 2,\n",
      "      \"scriptPubKey\": {\n",
      "        \"asm\": \"0 5337b1739305e8759631da30a34bd30ebb1379b484f3216a237ad009d21ded74\",\n",
      "        \"desc\": \"addr(bcrt1q2vmmzuunqh58t933mgc2xj7np6a3x7d5snejz63r0tgqn5saa46qkj4mpn)#0504nl0g\",\n",
      "        \"hex\": \"00205337b1739305e8759631da30a34bd30ebb1379b484f3216a237ad009d21ded74\",\n",
      "        \"address\": \"bcrt1q2vmmzuunqh58t933mgc2xj7np6a3x7d5snejz63r0tgqn5saa46qkj4mpn\",\n",
      "        \"type\": \"witness_v0_scripthash\"\n",
      "      }\n",
      "    },\n",
      "    {\n",
      "      \"value\": \"0.01000000\",\n",
      "      \"n\": 3,\n",
      "      \"scriptPubKey\": {\n",
      "        \"asm\": \"0 439fd0fb44bb93e02a87b92851c9e377612166d8ce4af46eb9f82899a8e8323d\",\n",
      "        \"desc\": \"addr(bcrt1qgw0ap76yhwf7q258hy59rj0rwasjzekcee90gm4elq5fn28gxg7sj0rdmv)#6a82l2ar\",\n",
      "        \"hex\": \"0020439fd0fb44bb93e02a87b92851c9e377612166d8ce4af46eb9f82899a8e8323d\",\n",
      "        \"address\": \"bcrt1qgw0ap76yhwf7q258hy59rj0rwasjzekcee90gm4elq5fn28gxg7sj0rdmv\",\n",
      "        \"type\": \"witness_v0_scripthash\"\n",
      "      }\n",
      "    },\n",
      "    {\n",
      "      \"value\": \"0.03479900\",\n",
      "      \"n\": 4,\n",
      "      \"scriptPubKey\": {\n",
      "        \"asm\": \"0 978f0c6d76e9a391a84ab6385c34d6cc8dcafdc624523ede9241b8cc2211eb76\",\n",
      "        \"desc\": \"addr(bcrt1qj78scmtkax3er2z2kcu9cdxkejxu4lwxy3frah5jgxuvcgs3admqdd0pwu)#j92lqkdq\",\n",
      "        \"hex\": \"0020978f0c6d76e9a391a84ab6385c34d6cc8dcafdc624523ede9241b8cc2211eb76\",\n",
      "        \"address\": \"bcrt1qj78scmtkax3er2z2kcu9cdxkejxu4lwxy3frah5jgxuvcgs3admqdd0pwu\",\n",
      "        \"type\": \"witness_v0_scripthash\"\n",
      "      }\n",
      "    }\n",
      "  ]\n",
      "}\n",
      "Bob Unsigned Commitment transaction\n",
      "{\n",
      "  \"txid\": \"5737dff246f3f6cb6c843fd5969d05f135fc41952fcf7d0b0fbbd57bb27095e8\",\n",
      "  \"hash\": \"5737dff246f3f6cb6c843fd5969d05f135fc41952fcf7d0b0fbbd57bb27095e8\",\n",
      "  \"version\": 2,\n",
      "  \"size\": 266,\n",
      "  \"vsize\": 266,\n",
      "  \"weight\": 1064,\n",
      "  \"locktime\": 541304428,\n",
      "  \"vin\": [\n",
      "    {\n",
      "      \"txid\": \"3ec733548b1b7a5c84403da9acaeed6cc2b90161c588ee3115afab4f118728f7\",\n",
      "      \"vout\": 1,\n",
      "      \"scriptSig\": {\n",
      "        \"asm\": \"\",\n",
      "        \"hex\": \"\"\n",
      "      },\n",
      "      \"sequence\": 2159293437\n",
      "    }\n",
      "  ],\n",
      "  \"vout\": [\n",
      "    {\n",
      "      \"value\": \"0.00000330\",\n",
      "      \"n\": 0,\n",
      "      \"scriptPubKey\": {\n",
      "        \"asm\": \"0 34391c79ba78d594262aa91410f49d7200ef55e7551441659412aac47b543f04\",\n",
      "        \"desc\": \"addr(bcrt1qxsu3c7d60r2egf324y2ppayawgqw7408252yzev5z24vg7658uzqwq2zs5)#62txjpcp\",\n",
      "        \"hex\": \"002034391c79ba78d594262aa91410f49d7200ef55e7551441659412aac47b543f04\",\n",
      "        \"address\": \"bcrt1qxsu3c7d60r2egf324y2ppayawgqw7408252yzev5z24vg7658uzqwq2zs5\",\n",
      "        \"type\": \"witness_v0_scripthash\"\n",
      "      }\n",
      "    },\n",
      "    {\n",
      "      \"value\": \"0.00000330\",\n",
      "      \"n\": 1,\n",
      "      \"scriptPubKey\": {\n",
      "        \"asm\": \"0 56680a199b598b249d54e3b24fbf5a629228af306e3f587e8ab1b65233a581c4\",\n",
      "        \"desc\": \"addr(bcrt1q2e5q5xvmtx9jf825uweyl066v2fz3tesdcl4sl52kxm9yva9s8zq9pw5mq)#z5wzum6e\",\n",
      "        \"hex\": \"002056680a199b598b249d54e3b24fbf5a629228af306e3f587e8ab1b65233a581c4\",\n",
      "        \"address\": \"bcrt1q2e5q5xvmtx9jf825uweyl066v2fz3tesdcl4sl52kxm9yva9s8zq9pw5mq\",\n",
      "        \"type\": \"witness_v0_scripthash\"\n",
      "      }\n",
      "    },\n",
      "    {\n",
      "      \"value\": \"0.00500000\",\n",
      "      \"n\": 2,\n",
      "      \"scriptPubKey\": {\n",
      "        \"asm\": \"0 8fa0be377a59c48a6aab40e5113359cde211c18cd721a5e4a1572b4cb3eea1f5\",\n",
      "        \"desc\": \"addr(bcrt1q37studm6t8zg564tgrj3zv6eeh3prsvv6us6te9p2u45evlw586sr07gnx)#v87p30l4\",\n",
      "        \"hex\": \"00208fa0be377a59c48a6aab40e5113359cde211c18cd721a5e4a1572b4cb3eea1f5\",\n",
      "        \"address\": \"bcrt1q37studm6t8zg564tgrj3zv6eeh3prsvv6us6te9p2u45evlw586sr07gnx\",\n",
      "        \"type\": \"witness_v0_scripthash\"\n",
      "      }\n",
      "    },\n",
      "    {\n",
      "      \"value\": \"0.01000000\",\n",
      "      \"n\": 3,\n",
      "      \"scriptPubKey\": {\n",
      "        \"asm\": \"0 a1574ee61ea7a53637edb0038c79d979a78c1603b3a318d185936cb59e19670a\",\n",
      "        \"desc\": \"addr(bcrt1q59t5aes757jnvdldkqpcc7we0xncc9srkw3335v9jdktt8sevu9qx7tnlf)#7njej5k9\",\n",
      "        \"hex\": \"0020a1574ee61ea7a53637edb0038c79d979a78c1603b3a318d185936cb59e19670a\",\n",
      "        \"address\": \"bcrt1q59t5aes757jnvdldkqpcc7we0xncc9srkw3335v9jdktt8sevu9qx7tnlf\",\n",
      "        \"type\": \"witness_v0_scripthash\"\n",
      "      }\n",
      "    },\n",
      "    {\n",
      "      \"value\": \"0.03479900\",\n",
      "      \"n\": 4,\n",
      "      \"scriptPubKey\": {\n",
      "        \"asm\": \"0 475d024bb95e9a981632863d3b1a4b9308aa88e189196272735a3e3d47caf936\",\n",
      "        \"desc\": \"addr(bcrt1qgawsyjaet6dfs93jsc7nkxjtjvy24z8p3yvkyunntglr6372lymq8edt6d)#vxtm3r5t\",\n",
      "        \"hex\": \"0020475d024bb95e9a981632863d3b1a4b9308aa88e189196272735a3e3d47caf936\",\n",
      "        \"address\": \"bcrt1qgawsyjaet6dfs93jsc7nkxjtjvy24z8p3yvkyunntglr6372lymq8edt6d\",\n",
      "        \"type\": \"witness_v0_scripthash\"\n",
      "      }\n",
      "    }\n",
      "  ]\n",
      "}\n",
      "alice_commitment_tx_digest_preimage:  02000000d91a55b7ba210ebcb6dc32966b6e0a7fe8c9ed9b942433cf5daaa3f3f0508e9cc6067e2ccbba74d4f24cc174be97c1ea7514cf7a20d616fbc7587a48964b2c95f72887114fabaf1531ee88c56101b9c26cedaeaca93d40845c7a1b8b5433c73e0100000047522102245c997231079146616f70eae46dd43461b530cb55df50cac8ef321127adb96321032b057a643c7b928b7dc30e1f76c2a777a213fe3a7462215d10220844befe77c352ae404b4c0000000000fd33b48038b5ad712abbf7a5acfe5e208bee65064c63b0903cb7d72f674da2e622f1a5686ca6432001000000\n",
      "bob_commitment_tx_digest_preimage:  02000000d91a55b7ba210ebcb6dc32966b6e0a7fe8c9ed9b942433cf5daaa3f3f0508e9cc6067e2ccbba74d4f24cc174be97c1ea7514cf7a20d616fbc7587a48964b2c95f72887114fabaf1531ee88c56101b9c26cedaeaca93d40845c7a1b8b5433c73e0100000047522102245c997231079146616f70eae46dd43461b530cb55df50cac8ef321127adb96321032b057a643c7b928b7dc30e1f76c2a777a213fe3a7462215d10220844befe77c352ae404b4c0000000000fd33b4800f3a2027eb7b09a189bc4dc44b2656e8358d3b9ff080f7fc0c094428dce3c0cd6ca6432001000000\n",
      "Alice Signed Commitment Transaction:  02000000000101f72887114fabaf1531ee88c56101b9c26cedaeaca93d40845c7a1b8b5433c73e0100000000fd33b480054a0100000000000022002034391c79ba78d594262aa91410f49d7200ef55e7551441659412aac47b543f044a0100000000000022002056680a199b598b249d54e3b24fbf5a629228af306e3f587e8ab1b65233a581c420a10700000000002200205337b1739305e8759631da30a34bd30ebb1379b484f3216a237ad009d21ded7440420f0000000000220020439fd0fb44bb93e02a87b92851c9e377612166d8ce4af46eb9f82899a8e8323d5c19350000000000220020978f0c6d76e9a391a84ab6385c34d6cc8dcafdc624523ede9241b8cc2211eb76040047304402201befb47991d1d9076824345e46417a1c3b05cad393555e970686ffa1a56a0e8f02206dbe46b6ee20a2b1af0fce3035f46f6cf749c31f53d2eb3288d1b6737cba3fdf01483045022100af22cf9ef7a7ca02385faff6d4b3abc803cec68009ed0f8f32ba5340216d6a7e022001e1571d87c23be93200fd49c4e56c276bd7aeba235db7fc1f6a41d71d489f2c0147522102245c997231079146616f70eae46dd43461b530cb55df50cac8ef321127adb96321032b057a643c7b928b7dc30e1f76c2a777a213fe3a7462215d10220844befe77c352ae6ca64320\n",
      "Bob Signed Commitment Transaction:  02000000000101f72887114fabaf1531ee88c56101b9c26cedaeaca93d40845c7a1b8b5433c73e0100000000fd33b480054a0100000000000022002034391c79ba78d594262aa91410f49d7200ef55e7551441659412aac47b543f044a0100000000000022002056680a199b598b249d54e3b24fbf5a629228af306e3f587e8ab1b65233a581c420a10700000000002200208fa0be377a59c48a6aab40e5113359cde211c18cd721a5e4a1572b4cb3eea1f540420f0000000000220020a1574ee61ea7a53637edb0038c79d979a78c1603b3a318d185936cb59e19670a5c19350000000000220020475d024bb95e9a981632863d3b1a4b9308aa88e189196272735a3e3d47caf9360400483045022100845ec22e8aac00de09cd0f01c1444a249a998bef2c0abf076264eeb63a89229b02202c068c95fc79c338d43bf5dfd1a560782fe69de4f829a1d7f895143c84ace72b01483045022100e395304664bc4b35d5367ecbbf51f2c44d10114e8556ef699beb9c422e0f04a2022021592e671dfc1e3ec7438a54783416e2294c0140727ee5ffccc5dbe9c91a14f60147522102245c997231079146616f70eae46dd43461b530cb55df50cac8ef321127adb96321032b057a643c7b928b7dc30e1f76c2a777a213fe3a7462215d10220844befe77c352ae6ca64320\n",
      "[{'txid': 'b079bd789956f2b96a086678c7cc813997ea11c167df6db47fd4fca706c9c0e3', 'wtxid': '75aae83d270efc0a2a34c9239e008f03d4a4fcc40a141a0cf3b26bde643d1b44', 'allowed': True, 'vsize': 322, 'fees': {'base': Decimal('0.00019440'), 'effective-feerate': Decimal('0.00060372'), 'effective-includes': ['75aae83d270efc0a2a34c9239e008f03d4a4fcc40a141a0cf3b26bde643d1b44']}}]\n",
      "[{'txid': '5737dff246f3f6cb6c843fd5969d05f135fc41952fcf7d0b0fbbd57bb27095e8', 'wtxid': '2055ad58c805ebd7d83bae13b94c3f884946f777e232b9448148584d9a801813', 'allowed': True, 'vsize': 322, 'fees': {'base': Decimal('0.00019440'), 'effective-feerate': Decimal('0.00060372'), 'effective-includes': ['2055ad58c805ebd7d83bae13b94c3f884946f777e232b9448148584d9a801813']}}]\n",
      "Force Close txid ['05366aa1efc299d9682cc658a115b8a2d001a50c99ac5607b7371a4e4db89846']\n"
     ]
    }
   ],
   "source": [
    "# run notebook\n",
    "%run \"/home/pins-dev/Projects/lightning-tx-tutorial/Chapter 4 - Unilateral Closing Transaction/Unilateral Closing Transaction.ipynb\""
   ]
  },
  {
   "cell_type": "markdown",
   "id": "86e5e59e-a1c7-4715-9aee-72f34489eb54",
   "metadata": {},
   "source": [
    "### Creating the HTLC-Timeout and HTLC-Success Transactions\n",
    "\n",
    "Now that the commitment transaction, containing HTLC outputs, was published forcing close the channel, we can create the HTLC-Timeout and/or HTLC-Success Transactions to reclaim the funds locked on HTLCs.\n",
    "\n",
    "Let's start with simulating an HTLC Timeout transaction."
   ]
  },
  {
   "cell_type": "code",
   "execution_count": null,
   "id": "7cc1634a-4777-4fe8-9486-eea6c6d4ede3",
   "metadata": {},
   "outputs": [],
   "source": [
    "# VERSION\n",
    "# version '2' indicates that we may use relative timelocks (BIP68)\n",
    "version = bytes.fromhex(\"0200 0000\")\n",
    "\n",
    "# MARKER\n",
    "marker = bytes.fromhex(\"00\")\n",
    "\n",
    "# FLAG\n",
    "flag = bytes.fromhex(\"01\")\n",
    "\n",
    "# INPUTS\n",
    "# We have just 1 input\n",
    "input_count = bytes.fromhex(\"01\")\n",
    "\n",
    "# Convert txid and index to bytes (little endian)\n",
    "txid = (bytes.fromhex(txid_to_spend))[::-1]\n",
    "index = index_to_spend.to_bytes(4, byteorder=\"little\", signed=False)\n",
    "\n",
    "# For the unsigned transaction we use an empty scriptSig\n",
    "scriptsig = bytes.fromhex(\"\")\n",
    "\n",
    "# use 0xffffffff unless you are using OP_CHECKSEQUENCEVERIFY, locktime, or rbf\n",
    "sequence = bytes.fromhex(\"ffff ffff\")\n",
    "\n",
    "inputs = (\n",
    "    txid\n",
    "    + index\n",
    "    + varint_len(scriptsig)\n",
    "    + scriptsig\n",
    "    + sequence\n",
    ")\n",
    "\n",
    "# OUTPUTS\n",
    "# 0x02 for out two outputs\n",
    "output_count = bytes.fromhex(\"02\")\n",
    "\n",
    "# OUTPUT 1 to Alice Change Address\n",
    "output1_value = output1_value_sat.to_bytes(8, byteorder=\"little\", signed=True)\n",
    "# 'output1_spk' \n",
    "output1_spk = bytes.fromhex(\"0014\") + pk_hash\n",
    "\n",
    "\n",
    "# OUTPUT 2 to Channel Funding Address\n",
    "output2_value = output2_value_sat.to_bytes(8, byteorder=\"little\", signed=True)\n",
    "# 'output2_spk'\n",
    "output2_spk = bytes.fromhex(\"0020\") + script_hash\n",
    "\n",
    "outputs = (\n",
    "    output1_value\n",
    "    + varint_len(output1_spk)\n",
    "    + output1_spk\n",
    "    + output2_value\n",
    "    + varint_len(output2_spk)\n",
    "    + output2_spk\n",
    ")\n",
    "\n",
    "# LOCKTIME\n",
    "locktime = bytes.fromhex(\"0000 0000\")\n",
    "\n",
    "unsigned_channel_funding_tx = (\n",
    "    version\n",
    "    + input_count\n",
    "    + inputs\n",
    "    + output_count\n",
    "    + outputs\n",
    "    + locktime\n",
    ")\n",
    "\n",
    "print(\"unsigned_channel_funding_tx: \", unsigned_channel_funding_tx.hex())\n",
    "\n"
   ]
  }
 ],
 "metadata": {
  "kernelspec": {
   "display_name": "Python 3 (ipykernel)",
   "language": "python",
   "name": "python3"
  },
  "language_info": {
   "codemirror_mode": {
    "name": "ipython",
    "version": 3
   },
   "file_extension": ".py",
   "mimetype": "text/x-python",
   "name": "python",
   "nbconvert_exporter": "python",
   "pygments_lexer": "ipython3",
   "version": "3.12.3"
  }
 },
 "nbformat": 4,
 "nbformat_minor": 5
}
