{
 "cells": [
  {
   "cell_type": "markdown",
   "id": "77c93df3-2b04-45c9-818a-b633f04f102d",
   "metadata": {},
   "source": [
    "*** UNDER CONSTRUCTION ***\n",
    "\n",
    "\n",
    "# HTLC-Timeout and HTLC-Success Transactions\n",
    "## Prerequisite knowledge\n",
    "### For all notebooks\n",
    "- A high level understanding of the bitcoin e.g. [Mastering Bitcoin](https://github.com/bitcoinbook/bitcoinbook), in particular [Chapter 6](https://github.com/bitcoinbook/bitcoinbook/blob/develop/ch06.asciidoc).\n",
    "- A conceptual understanding of [hash functions](https://www.thesslstore.com/blog/what-is-a-hash-function-in-cryptography-a-beginners-guide).\n",
    "- [Hexadecimal notation](https://inst.eecs.berkeley.edu/~cs61bl/r//cur/bits/decimal-binary-hex.html?topic=lab28.topic&step=2&course=) and [endianness](https://www.freecodecamp.org/news/what-is-endianness-big-endian-vs-little-endian/).\n",
    "- A high level understanding of the lightning e.g. [Mastering Lightning Network](https://github.com/lnbook/lnbook), in particular [Chapter7](https://github.com/lnbook/lnbook/blob/develop/07_payment_channels.asciidoc), [Chapter 8](https://github.com/lnbook/lnbook/blob/develop/08_routing_htlcs.asciidoc) and [Chapter 9](https://github.com/lnbook/lnbook/blob/develop/09_channel_operation.asciidoc).\n",
    "\n",
    "### Specific to this notebook\n",
    "- SHA256, HASH256, HASH160 - '[Hash Functions chapter](https://github.com/MPins/lightning-tx-tutorial/blob/main/appendix/hash-functions.ipynb)'\n",
    "- Bech32 addresses - '[Addresses chapter](https://github.com/MPins/lightning-tx-tutorial/blob/main/appendix/Addresses.ipynb)'\n",
    "- Bitcoin Script basics - '[Bitcoin Script chapter](https://github.com/MPins/lightning-tx-tutorial/blob/main/appendix/Bitcoin%20Script.ipynb)'\n",
    "- Lightning Network BOLT #2: '[Peer Protocol for Channel Management](https://github.com/lightning/bolts/blob/master/02-peer-protocol.md#channel-establishment-v1)'\n",
    "- Lightning Network BOLT #3: '[Commitment Transactions](https://github.com/lightning/bolts/blob/master/03-transactions.md#commitment-transaction)'\n",
    "- Finite Fields, Elliptic Curves and Serialization e.g. [Programming Bitcoin](https://github.com/jimmysong/programmingbitcoin), in particular [Chapter 1](https://github.com/jimmysong/programmingbitcoin/blob/master/ch01.asciidoc), [Chapter2](https://github.com/jimmysong/programmingbitcoin/blob/master/ch02.asciidoc), [Chapter 3](https://github.com/jimmysong/programmingbitcoin/blob/master/ch03.asciidoc) and [Chapter 4](https://github.com/jimmysong/programmingbitcoin/blob/master/ch04.asciidoc).\n",
    "\n",
    "## HTLC-Timeout and HTLC-Success Transactions\n",
    "\n",
    "The HTLC-Timeout and HTLC-Success Transactions are almost identical, except the HTLC-timeout transaction is timelocked. Both HTLC-timeout/HTLC-success transactions can be spent by a valid penalty transaction.\n",
    "\n",
    "* version: 2\n",
    "* locktime: 0 for HTLC-success, cltv_expiry for HTLC-timeout\n",
    "* txin count: 1\n",
    "    * txin[0] outpoint: txid of the commitment transaction and output_index of the matching HTLC output for the HTLC transaction\n",
    "    * txin[0] sequence: 0 (set to 1 for option_anchors)\n",
    "    * txin[0] script bytes: 0\n",
    "    * txin[0] witness stack: 0 <remotehtlcsig> <localhtlcsig>  <payment_preimage> for HTLC-success, 0 <remotehtlcsig> <localhtlcsig> <> for HTLC-timeout\n",
    "\n",
    "* txout count: 1\n",
    "    * txout[0] amount: the HTLC amount_msat divided by 1000 (rounding down) minus fees in satoshis (see Fee Calculation)\n",
    "    * txout[0] script: version-0 P2WSH with witness script as shown below\n",
    "\n",
    "if option_anchors applies to this commitment transaction, SIGHASH_SINGLE|SIGHASH_ANYONECANPAY is used as described in [BOLT #5](https://github.com/lightning/bolts/blob/master/05-onchain.md#generation-of-htlc-transactions).\n",
    "\n",
    "The witness script for the output is:\n",
    "\n",
    "```\n",
    "OP_IF\n",
    "    # Penalty transaction\n",
    "    <revocationpubkey>\n",
    "OP_ELSE\n",
    "    `to_self_delay`\n",
    "    OP_CHECKSEQUENCEVERIFY\n",
    "    OP_DROP\n",
    "    <local_delayedpubkey>\n",
    "OP_ENDIF\n",
    "OP_CHECKSIG\n",
    "```\n",
    "\n",
    "\n",
    "## Setup\n",
    "### Requirements\n",
    "\n",
    "For this exercise we'll run the previous notebook to create the commitment transactions beetween with offer and received HTLC.\n",
    "\n",
    "**You'll need to edit these next line for your local setup.**"
   ]
  },
  {
   "cell_type": "code",
   "execution_count": 1,
   "id": "f4d6d2d3-3165-41c6-a01e-818bb6f94831",
   "metadata": {},
   "outputs": [
    {
     "name": "stdout",
     "output_type": "stream",
     "text": [
      "Alice Per Commitment Seed 34b581ec20bf2c6cae3d4d4dcbfddc8a3727a1e9a57c55f3520e770607898c06\n",
      "Bob Per Commitment Seed 89c994b3ddad4698acee71e42d8bcace48eea739caaba371eb110e77663ec56d\n",
      "Alice Revocation Basepoint Private Key: c17ac3952ca414190074d1e59ea03fbae253196173908dc8b131af6bd2cc8161\n",
      "Alice Revocation Basepoint Public Key: 03649c4f865bec74b0a186deef4defad51cfdc141443e38074ea05a7835a953a49\n",
      "Alice HTLC Basepoint Private Key: 763ae49a20e6668c88602c782716dd83ba6c4cc0333b38810e2bcd7b22c871ac\n",
      "Alice HTLC Basepoint Public Key: 02816fde4150e4dfcac94eff0b821448fb70f57a56148ba2206cd9b2fd0cc20bdf\n",
      "Alice Payment Basepoint Private Key: 72d8c12971b58076a1f27eb7938ca442f0b210762b23637443ac2e99dac352a6\n",
      "Alice Payment Basepoint Public Key: 025f892a06124391e2f38ce35d943cdc09f63e203330dbd9cb6113a903e0738458\n",
      "Alice Delayed Payment Basepoint Private Key: 7cafce00c54e7241894dcc7c3beaca29dd354139fdb6182198d6c5f1063bfe8d\n",
      "Alice Delayed Payment Basepoint Public Key: 034aa35219136bb238e072341b20a4bf8fb44a83cdb73dd2bd973c123ac2dfd7ff\n",
      "Bob Revocation Basepoint Private Key: fa526e09b9ff7425552db1803d7e12cf4475d060db4cfb812adb07219a54baa0\n",
      "Bob Revocation Basepoint Public Key: 02536407aada57068f30b53c4126062d235967c3636147433e72b21ff93c8acdbf\n",
      "Bob HTLC Basepoint Private Key: 06d61bb059eef194a3d223992a028fbd31f2e8b289d5a10acd343671c9322155\n",
      "Bob HTLC Basepoint Public Key: 0306b11436efa058a86f997df6596ea4579241f3909175772d77df38a5255f52f4\n",
      "Bob Payment Basepoint Private Key: 5046024e716c479599350b7aee8139304d942360733d8dd79793917f9e33a334\n",
      "Bob Payment Basepoint Public Key: 02f98efd3f2b2fbe7bd83c419f5f64f8280798b8a9175fdb77c0091bbb95c79506\n",
      "Bob Delayed Payment Basepoint Private Key: d764d4c083cac97d34913bdf123c3dfef5379db9e9b0652897783e0d01880bb3\n",
      "Bob Delayed Payment Basepoint Public Key: 032a5869ac5eb30ba1e9c9addd3740822dac6f45a8de9b3d4e171f14c3abce2dae\n",
      "Alice Funding Private Key: ccd60731893309bb59a6030a581fc80984fa96129e10cf8342c0b0b800ffb51c\n",
      "Alice Funding Public Key: 02245c997231079146616f70eae46dd43461b530cb55df50cac8ef321127adb963\n",
      "Alice Change Private Key: 6c2bda7af1291da770d0041794bbc891ac27c2fbe6a8a825a8f14f3b904b1f4e\n",
      "Alice Change Public Key: 02f0006732c6db9e73522b31168bda043cbf7759c46e553eae9dede26ccd08a39b\n",
      "Bob Funding Private Key: ca62b96f01783d13a48be4e8a2ca9c48093f62b64537d4c3c33d45d7cb53a0a7\n",
      "Bob Funding Public Key: 032b057a643c7b928b7dc30e1f76c2a777a213fe3a7462215d10220844befe77c3\n",
      "Alice's funding p2wpkh address: bcrt1qt0vq5dj8qa720lfx3hhzyu9ygsng9js3g02lnl\n",
      "Alice's change p2wpkh address: bcrt1qt6ax8rh20h6zts0dcqmzdy9kte3pds4lrzwl6s\n",
      "2025-04-15T02:49:57.049000Z TestFramework (INFO): PRNG seed is: 4639976427964882932\n",
      "2025-04-15T02:49:57.050000Z TestFramework (INFO): Initializing test directory /tmp/bitcoin_func_test_4_j12o6e\n",
      "txid_to_spent: 7970a9d85cc808a62a1a834f6914703841ee36824d5057f5ee8c29b560076c63, 1\n",
      "Alice pubkey is lexicographically lesser than Bob pubkey:\n",
      "02245c997231079146616f70eae46dd43461b530cb55df50cac8ef321127adb963 < 032b057a643c7b928b7dc30e1f76c2a777a213fe3a7462215d10220844befe77c3\n",
      "Redeem Script:\n",
      "522102245c997231079146616f70eae46dd43461b530cb55df50cac8ef321127adb96321032b057a643c7b928b7dc30e1f76c2a777a213fe3a7462215d10220844befe77c352ae\n",
      "channel_address:  bcrt1qhsn37ekwjgxlajuavyzne28yrahkyesgnr6qhxvzlw3807ttcjeqhcl6mc\n",
      "unsigned_channel_funding_tx:  0200000001636c0760b5298ceef557504d8236ee41387014694f831a2aa608c85cd8a970790100000000ffffffff02c0e1e400000000001600145eba638eea7df425c1edc0362690b65e6216c2bf404b4c0000000000220020bc271f66ce920dfecb9d61053ca8e41f6f62660898f40b9982fba277f96bc4b200000000\n",
      "{\n",
      "  \"txid\": \"84cf5e7ec05490969e84e9e502b8dc580e0c78df18fe7002f7ab2d10044c7d91\",\n",
      "  \"hash\": \"84cf5e7ec05490969e84e9e502b8dc580e0c78df18fe7002f7ab2d10044c7d91\",\n",
      "  \"version\": 2,\n",
      "  \"size\": 125,\n",
      "  \"vsize\": 125,\n",
      "  \"weight\": 500,\n",
      "  \"locktime\": 0,\n",
      "  \"vin\": [\n",
      "    {\n",
      "      \"txid\": \"7970a9d85cc808a62a1a834f6914703841ee36824d5057f5ee8c29b560076c63\",\n",
      "      \"vout\": 1,\n",
      "      \"scriptSig\": {\n",
      "        \"asm\": \"\",\n",
      "        \"hex\": \"\"\n",
      "      },\n",
      "      \"sequence\": 4294967295\n",
      "    }\n",
      "  ],\n",
      "  \"vout\": [\n",
      "    {\n",
      "      \"value\": \"0.15000000\",\n",
      "      \"n\": 0,\n",
      "      \"scriptPubKey\": {\n",
      "        \"asm\": \"0 5eba638eea7df425c1edc0362690b65e6216c2bf\",\n",
      "        \"desc\": \"addr(bcrt1qt6ax8rh20h6zts0dcqmzdy9kte3pds4lrzwl6s)#s9wdm0cm\",\n",
      "        \"hex\": \"00145eba638eea7df425c1edc0362690b65e6216c2bf\",\n",
      "        \"address\": \"bcrt1qt6ax8rh20h6zts0dcqmzdy9kte3pds4lrzwl6s\",\n",
      "        \"type\": \"witness_v0_keyhash\"\n",
      "      }\n",
      "    },\n",
      "    {\n",
      "      \"value\": \"0.05000000\",\n",
      "      \"n\": 1,\n",
      "      \"scriptPubKey\": {\n",
      "        \"asm\": \"0 bc271f66ce920dfecb9d61053ca8e41f6f62660898f40b9982fba277f96bc4b2\",\n",
      "        \"desc\": \"addr(bcrt1qhsn37ekwjgxlajuavyzne28yrahkyesgnr6qhxvzlw3807ttcjeqhcl6mc)#q3fvp06p\",\n",
      "        \"hex\": \"0020bc271f66ce920dfecb9d61053ca8e41f6f62660898f40b9982fba277f96bc4b2\",\n",
      "        \"address\": \"bcrt1qhsn37ekwjgxlajuavyzne28yrahkyesgnr6qhxvzlw3807ttcjeqhcl6mc\",\n",
      "        \"type\": \"witness_v0_scripthash\"\n",
      "      }\n",
      "    }\n",
      "  ]\n",
      "}\n",
      "tx_digest_preimage:  02000000074b293c3570b54b3a9dfb1c7dcb93f056fbf92319ce0b7f5cbf4a41af4378f03bb13029ce7b1f559ef5e747fcac439f1455a2ec7c5f09b72290795e70665044636c0760b5298ceef557504d8236ee41387014694f831a2aa608c85cd8a97079010000001976a9145bd80a3647077ca7fd268dee2270a4442682ca1188aca0b3320100000000fffffffff024a453c206730b975be44da5987693c127c508aada9aabadc9455fb74b5fc60000000001000000\n",
      "Channel Funding Signed Transaction:  02000000000101636c0760b5298ceef557504d8236ee41387014694f831a2aa608c85cd8a970790100000000ffffffff02c0e1e400000000001600145eba638eea7df425c1edc0362690b65e6216c2bf404b4c0000000000220020bc271f66ce920dfecb9d61053ca8e41f6f62660898f40b9982fba277f96bc4b202483045022100bd6c48d99fdb124ac95b268a837ba1a4e0c178ba20fa7f57c36bc8b2da3a57c20220668f8a3c3410ea9b87ff273792b96b005f31509855f56e022ff3ebfffac3e720012102245c997231079146616f70eae46dd43461b530cb55df50cac8ef321127adb96300000000\n",
      "[{'txid': '84cf5e7ec05490969e84e9e502b8dc580e0c78df18fe7002f7ab2d10044c7d91', 'wtxid': 'f3265415ca4cfb667b96598685998f32dd4dfce409ff1337b89af92ee37490fb', 'allowed': True, 'vsize': 153, 'fees': {'base': Decimal('0.00100000'), 'effective-feerate': Decimal('0.00653594'), 'effective-includes': ['f3265415ca4cfb667b96598685998f32dd4dfce409ff1337b89af92ee37490fb']}}]\n",
      "Alice First Per Commitment Secret: 739d879e3b2502146546b9d6d51b1e05feb362397b7cf7ba13c7719b0a889dd9\n",
      "Alice First Per Commitment Point: 0368081a0a30ec118e662b71d222c383c5c9f495b4821fd0252452abf659250237\n",
      "Bob First Per Commitment Secret: 203f2c3e5cd6004ef0ea26e82c2ffeb2dc80036cedca92c210010cd73facd38a\n",
      "Bob First Per Commitment Point: 03ac685c74c0970c62f0e69ad332b6a5f6d61d3650128ef2a18e011cfd28d177b4\n",
      "Commitment Number Obscured: 0xb433fd43a66f\n",
      "Inputs: 917d4c04102dabf70270fe18df780c0e58dcb802e5e9849e969054c07e5ecf840100000000fd33b480\n",
      "Alice Delayed Pubkey: 03d6363615b3d00361158c0f48a4ef81ea12e214e8d56e24098759f6b4267dca8b\n",
      "Bob Revocation Pubkey: 03a0596fefba4b53489629115e8b360a95b900f1884306edb98428d5377478b9ac\n",
      "Alice Anchor Output SPK: 002034391c79ba78d594262aa91410f49d7200ef55e7551441659412aac47b543f04\n",
      "Alice Delayed Output SPK: 002010af48dee0428972563ba131e3d8aa35fd92537953d4755a84bc2a09c2bb53a5\n",
      "Alice Remote Output SPK: 0020f0447296bbb031d3f362b223a0ba7281bfcfeca9061820c9bdee400411fc01be\n",
      "Unsigned Alice Commitment Transaction:  0200000001917d4c04102dabf70270fe18df780c0e58dcb802e5e9849e969054c07e5ecf840100000000fd33b480024a0100000000000022002034391c79ba78d594262aa91410f49d7200ef55e7551441659412aac47b543f041a084c000000000022002010af48dee0428972563ba131e3d8aa35fd92537953d4755a84bc2a09c2bb53a56fa64320\n",
      "Unsigned Bob Commitment Transaction:  0200000001917d4c04102dabf70270fe18df780c0e58dcb802e5e9849e969054c07e5ecf840100000000fd33b480024a0100000000000022002034391c79ba78d594262aa91410f49d7200ef55e7551441659412aac47b543f041a084c0000000000220020f0447296bbb031d3f362b223a0ba7281bfcfeca9061820c9bdee400411fc01be6fa64320\n",
      "Alice Unsigned Commitment transaction\n",
      "{\n",
      "  \"txid\": \"2a8346cfa14f6e25e8a39bbb4fc6aa9b9fbb25990b49c7d1cc62e86243fbc120\",\n",
      "  \"hash\": \"2a8346cfa14f6e25e8a39bbb4fc6aa9b9fbb25990b49c7d1cc62e86243fbc120\",\n",
      "  \"version\": 2,\n",
      "  \"size\": 137,\n",
      "  \"vsize\": 137,\n",
      "  \"weight\": 548,\n",
      "  \"locktime\": 541304431,\n",
      "  \"vin\": [\n",
      "    {\n",
      "      \"txid\": \"84cf5e7ec05490969e84e9e502b8dc580e0c78df18fe7002f7ab2d10044c7d91\",\n",
      "      \"vout\": 1,\n",
      "      \"scriptSig\": {\n",
      "        \"asm\": \"\",\n",
      "        \"hex\": \"\"\n",
      "      },\n",
      "      \"sequence\": 2159293437\n",
      "    }\n",
      "  ],\n",
      "  \"vout\": [\n",
      "    {\n",
      "      \"value\": \"0.00000330\",\n",
      "      \"n\": 0,\n",
      "      \"scriptPubKey\": {\n",
      "        \"asm\": \"0 34391c79ba78d594262aa91410f49d7200ef55e7551441659412aac47b543f04\",\n",
      "        \"desc\": \"addr(bcrt1qxsu3c7d60r2egf324y2ppayawgqw7408252yzev5z24vg7658uzqwq2zs5)#62txjpcp\",\n",
      "        \"hex\": \"002034391c79ba78d594262aa91410f49d7200ef55e7551441659412aac47b543f04\",\n",
      "        \"address\": \"bcrt1qxsu3c7d60r2egf324y2ppayawgqw7408252yzev5z24vg7658uzqwq2zs5\",\n",
      "        \"type\": \"witness_v0_scripthash\"\n",
      "      }\n",
      "    },\n",
      "    {\n",
      "      \"value\": \"0.04982810\",\n",
      "      \"n\": 1,\n",
      "      \"scriptPubKey\": {\n",
      "        \"asm\": \"0 10af48dee0428972563ba131e3d8aa35fd92537953d4755a84bc2a09c2bb53a5\",\n",
      "        \"desc\": \"addr(bcrt1qzzh53hhqg2yhy43m5yc78k92xh7ey5me20282k5yhs4qns4m2wjsfkpzye)#fhg3my0v\",\n",
      "        \"hex\": \"002010af48dee0428972563ba131e3d8aa35fd92537953d4755a84bc2a09c2bb53a5\",\n",
      "        \"address\": \"bcrt1qzzh53hhqg2yhy43m5yc78k92xh7ey5me20282k5yhs4qns4m2wjsfkpzye\",\n",
      "        \"type\": \"witness_v0_scripthash\"\n",
      "      }\n",
      "    }\n",
      "  ]\n",
      "}\n",
      "Bob Unsigned Commitment transaction\n",
      "{\n",
      "  \"txid\": \"b4301863b1cf696d8756ca7b326f9509b17d0a105cdde090c39a1c61fc302cac\",\n",
      "  \"hash\": \"b4301863b1cf696d8756ca7b326f9509b17d0a105cdde090c39a1c61fc302cac\",\n",
      "  \"version\": 2,\n",
      "  \"size\": 137,\n",
      "  \"vsize\": 137,\n",
      "  \"weight\": 548,\n",
      "  \"locktime\": 541304431,\n",
      "  \"vin\": [\n",
      "    {\n",
      "      \"txid\": \"84cf5e7ec05490969e84e9e502b8dc580e0c78df18fe7002f7ab2d10044c7d91\",\n",
      "      \"vout\": 1,\n",
      "      \"scriptSig\": {\n",
      "        \"asm\": \"\",\n",
      "        \"hex\": \"\"\n",
      "      },\n",
      "      \"sequence\": 2159293437\n",
      "    }\n",
      "  ],\n",
      "  \"vout\": [\n",
      "    {\n",
      "      \"value\": \"0.00000330\",\n",
      "      \"n\": 0,\n",
      "      \"scriptPubKey\": {\n",
      "        \"asm\": \"0 34391c79ba78d594262aa91410f49d7200ef55e7551441659412aac47b543f04\",\n",
      "        \"desc\": \"addr(bcrt1qxsu3c7d60r2egf324y2ppayawgqw7408252yzev5z24vg7658uzqwq2zs5)#62txjpcp\",\n",
      "        \"hex\": \"002034391c79ba78d594262aa91410f49d7200ef55e7551441659412aac47b543f04\",\n",
      "        \"address\": \"bcrt1qxsu3c7d60r2egf324y2ppayawgqw7408252yzev5z24vg7658uzqwq2zs5\",\n",
      "        \"type\": \"witness_v0_scripthash\"\n",
      "      }\n",
      "    },\n",
      "    {\n",
      "      \"value\": \"0.04982810\",\n",
      "      \"n\": 1,\n",
      "      \"scriptPubKey\": {\n",
      "        \"asm\": \"0 f0447296bbb031d3f362b223a0ba7281bfcfeca9061820c9bdee400411fc01be\",\n",
      "        \"desc\": \"addr(bcrt1q7pz8994mkqca8umzkg36pwnjsxlulm9fqcvzpjdaaeqqgy0uqxlqphvsda)#f8xgy4gn\",\n",
      "        \"hex\": \"0020f0447296bbb031d3f362b223a0ba7281bfcfeca9061820c9bdee400411fc01be\",\n",
      "        \"address\": \"bcrt1q7pz8994mkqca8umzkg36pwnjsxlulm9fqcvzpjdaaeqqgy0uqxlqphvsda\",\n",
      "        \"type\": \"witness_v0_scripthash\"\n",
      "      }\n",
      "    }\n",
      "  ]\n",
      "}\n",
      "alice_tx_digest_preimage:  020000009767d377590956ea011f72fe64290f352a914b0bbe86b6d328e703a2947f8a71c6067e2ccbba74d4f24cc174be97c1ea7514cf7a20d616fbc7587a48964b2c95917d4c04102dabf70270fe18df780c0e58dcb802e5e9849e969054c07e5ecf840100000047522102245c997231079146616f70eae46dd43461b530cb55df50cac8ef321127adb96321032b057a643c7b928b7dc30e1f76c2a777a213fe3a7462215d10220844befe77c352ae404b4c0000000000fd33b48095e26024f731d6ea5e1e1698c7a24bcb4453535c9f06b0e5cbeb259a12693f096fa6432001000000\n",
      "bob_tx_digest_preimage:  020000009767d377590956ea011f72fe64290f352a914b0bbe86b6d328e703a2947f8a71c6067e2ccbba74d4f24cc174be97c1ea7514cf7a20d616fbc7587a48964b2c95917d4c04102dabf70270fe18df780c0e58dcb802e5e9849e969054c07e5ecf840100000047522102245c997231079146616f70eae46dd43461b530cb55df50cac8ef321127adb96321032b057a643c7b928b7dc30e1f76c2a777a213fe3a7462215d10220844befe77c352ae404b4c0000000000fd33b480cb541070b4f791ea30c33859048fe351357b6e71305de479d36b3b6dfd7c41396fa6432001000000\n",
      "Alice Signed Commitment Transaction:  02000000000101917d4c04102dabf70270fe18df780c0e58dcb802e5e9849e969054c07e5ecf840100000000fd33b480024a0100000000000022002034391c79ba78d594262aa91410f49d7200ef55e7551441659412aac47b543f041a084c000000000022002010af48dee0428972563ba131e3d8aa35fd92537953d4755a84bc2a09c2bb53a5040047304402200a3dca65b5a78505b45982d302f7d550a9d8fc5104600b11ce89a25241e4d3a5022071143ecb25b479bdc61183e7d48f9e3a0e8c0f8b452c2774ac019258cb57471f01483045022100a381247ffdfc48a4099d83951a2c6b5ee71902aca941f380212fa93bf857418002206e3ee595f08a4902000b042d385099958518764f6d2b1ca5bbeba94007145a4d0147522102245c997231079146616f70eae46dd43461b530cb55df50cac8ef321127adb96321032b057a643c7b928b7dc30e1f76c2a777a213fe3a7462215d10220844befe77c352ae6fa64320\n",
      "Bob Signed Commitment Transaction:  02000000000101917d4c04102dabf70270fe18df780c0e58dcb802e5e9849e969054c07e5ecf840100000000fd33b480024a0100000000000022002034391c79ba78d594262aa91410f49d7200ef55e7551441659412aac47b543f041a084c0000000000220020f0447296bbb031d3f362b223a0ba7281bfcfeca9061820c9bdee400411fc01be0400483045022100f5b86e8c63b56c5ca11890a7caa089f9cee3e6954fbe773850b5adf5e97d712d022075773bc2830f00e73bec5555dfd82a5dd48d17cdc949872898f67fa056e6b6a301483045022100e44d1f5d48829e0607de81b90928b293e6aa34e66d8a2cc21c0301d3f5a20d1502204e89c48a15ac258cddb23ffff526833317db4023853d828ee9ce511bcac004020147522102245c997231079146616f70eae46dd43461b530cb55df50cac8ef321127adb96321032b057a643c7b928b7dc30e1f76c2a777a213fe3a7462215d10220844befe77c352ae6fa64320\n",
      "[{'txid': '2a8346cfa14f6e25e8a39bbb4fc6aa9b9fbb25990b49c7d1cc62e86243fbc120', 'wtxid': '890e379cf17264a7c568fc9704241a910cc563fabf4bc97a528b0cf524eacf6c', 'allowed': True, 'vsize': 193, 'fees': {'base': Decimal('0.00016860'), 'effective-feerate': Decimal('0.00087357'), 'effective-includes': ['890e379cf17264a7c568fc9704241a910cc563fabf4bc97a528b0cf524eacf6c']}}]\n",
      "[{'txid': 'b4301863b1cf696d8756ca7b326f9509b17d0a105cdde090c39a1c61fc302cac', 'wtxid': '22e282bca63b10e4a8fb4ea07b4ad567b78501d14a580adb98f12adc6a603a69', 'allowed': True, 'vsize': 193, 'fees': {'base': Decimal('0.00016860'), 'effective-feerate': Decimal('0.00087357'), 'effective-includes': ['22e282bca63b10e4a8fb4ea07b4ad567b78501d14a580adb98f12adc6a603a69']}}]\n",
      "Commitment Number Obscured: 0xb433fd43a66c\n",
      "Inputs: 917d4c04102dabf70270fe18df780c0e58dcb802e5e9849e969054c07e5ecf840100000000fd33b480\n",
      "Alice Per Commitment Secret: 7d474813d764ca1273ad85e3f36ca1926401a8f76e576533f0232801c96af14d\n",
      "Alice Per Commitment Point: 028a29fc294e5cc904c607cbe2d66bc3e3f0d5131ba3f9085eb01b25df0a5bdd4a\n",
      "Bob Per Commitment Secret: 3dec4e412d557115ad23549b60f2bb4fc8a1215bead2c8ade3ed2cf1d10450da\n",
      "Bob Per Commitment Point: 0267c6f101ca3ffa7d9e2aba0ca51e63af33a7b88b19e80a04a2deb9807447e963\n",
      "Alice Delayed Pubkey: 03eb397e72815b5221b63d2564593465b45c9f7fa6da6944e1371974557d2682fa\n",
      "Bob Delayed Pubkey: 02422c467da01480bef0191075e8823724ebb84b1a8fc502ca1e63d881ae723a4e\n",
      "Alice HTLC Pubkey: 03f020b85b2f600cdba67ecb33ed2ed09bf1c0a0e67e839a9ca70766049a5f3298\n",
      "Bob HTLC Pubkey: 03f0ce4fe88d9e1d79c449ced61ee6cfc9280b3e424a48f952667b7fd73a299aa1\n",
      "Bob Revocation Pubkey: 02e4c80557ad85389977e48fc2720c13a7d913885c2c58b3abfc298b3d437a7988\n",
      "Alice Revocation Pubkey: 0223a5d50c90727bb8a4e9c0c3746ae39f774f3a43867fd8f6e9b0bdc2989806a2\n",
      "Alice Anchor Output SPK: 002034391c79ba78d594262aa91410f49d7200ef55e7551441659412aac47b543f04\n",
      "Bob Anchor Output SPK: 002056680a199b598b249d54e3b24fbf5a629228af306e3f587e8ab1b65233a581c4\n",
      "Alice Offered htlc Output SPK: 00205337b1739305e8759631da30a34bd30ebb1379b484f3216a237ad009d21ded74\n",
      "Bob Remote Output SPK: 0020439fd0fb44bb93e02a87b92851c9e377612166d8ce4af46eb9f82899a8e8323d\n",
      "Alice Delayed Output SPK: 0020978f0c6d76e9a391a84ab6385c34d6cc8dcafdc624523ede9241b8cc2211eb76\n",
      "Bob Received htlc Output SPK: 00208fa0be377a59c48a6aab40e5113359cde211c18cd721a5e4a1572b4cb3eea1f5\n",
      "Bob Delayed Output SPK: 0020a1574ee61ea7a53637edb0038c79d979a78c1603b3a318d185936cb59e19670a\n",
      "Alice Remote Output SPK: 0020475d024bb95e9a981632863d3b1a4b9308aa88e189196272735a3e3d47caf936\n",
      "TXID : 991c932a279fb1878145f93961d703b79ff4e52b5999b139e11b0f3b251b4cc6\n",
      "Unsigned Alice Commitment Transaction:  0200000001917d4c04102dabf70270fe18df780c0e58dcb802e5e9849e969054c07e5ecf840100000000fd33b480054a0100000000000022002034391c79ba78d594262aa91410f49d7200ef55e7551441659412aac47b543f044a0100000000000022002056680a199b598b249d54e3b24fbf5a629228af306e3f587e8ab1b65233a581c420a10700000000002200205337b1739305e8759631da30a34bd30ebb1379b484f3216a237ad009d21ded7440420f0000000000220020439fd0fb44bb93e02a87b92851c9e377612166d8ce4af46eb9f82899a8e8323d5c19350000000000220020978f0c6d76e9a391a84ab6385c34d6cc8dcafdc624523ede9241b8cc2211eb766ca64320\n",
      "Unsigned Bob Commitment Transaction:  0200000001917d4c04102dabf70270fe18df780c0e58dcb802e5e9849e969054c07e5ecf840100000000fd33b480054a0100000000000022002034391c79ba78d594262aa91410f49d7200ef55e7551441659412aac47b543f044a0100000000000022002056680a199b598b249d54e3b24fbf5a629228af306e3f587e8ab1b65233a581c420a10700000000002200208fa0be377a59c48a6aab40e5113359cde211c18cd721a5e4a1572b4cb3eea1f540420f0000000000220020a1574ee61ea7a53637edb0038c79d979a78c1603b3a318d185936cb59e19670a5c19350000000000220020475d024bb95e9a981632863d3b1a4b9308aa88e189196272735a3e3d47caf9366ca64320\n",
      "Alice Unsigned Commitment transaction\n",
      "{\n",
      "  \"txid\": \"c64c1b253b0f1be139b199592be5f49fb703d76139f9458187b19f272a931c99\",\n",
      "  \"hash\": \"c64c1b253b0f1be139b199592be5f49fb703d76139f9458187b19f272a931c99\",\n",
      "  \"version\": 2,\n",
      "  \"size\": 266,\n",
      "  \"vsize\": 266,\n",
      "  \"weight\": 1064,\n",
      "  \"locktime\": 541304428,\n",
      "  \"vin\": [\n",
      "    {\n",
      "      \"txid\": \"84cf5e7ec05490969e84e9e502b8dc580e0c78df18fe7002f7ab2d10044c7d91\",\n",
      "      \"vout\": 1,\n",
      "      \"scriptSig\": {\n",
      "        \"asm\": \"\",\n",
      "        \"hex\": \"\"\n",
      "      },\n",
      "      \"sequence\": 2159293437\n",
      "    }\n",
      "  ],\n",
      "  \"vout\": [\n",
      "    {\n",
      "      \"value\": \"0.00000330\",\n",
      "      \"n\": 0,\n",
      "      \"scriptPubKey\": {\n",
      "        \"asm\": \"0 34391c79ba78d594262aa91410f49d7200ef55e7551441659412aac47b543f04\",\n",
      "        \"desc\": \"addr(bcrt1qxsu3c7d60r2egf324y2ppayawgqw7408252yzev5z24vg7658uzqwq2zs5)#62txjpcp\",\n",
      "        \"hex\": \"002034391c79ba78d594262aa91410f49d7200ef55e7551441659412aac47b543f04\",\n",
      "        \"address\": \"bcrt1qxsu3c7d60r2egf324y2ppayawgqw7408252yzev5z24vg7658uzqwq2zs5\",\n",
      "        \"type\": \"witness_v0_scripthash\"\n",
      "      }\n",
      "    },\n",
      "    {\n",
      "      \"value\": \"0.00000330\",\n",
      "      \"n\": 1,\n",
      "      \"scriptPubKey\": {\n",
      "        \"asm\": \"0 56680a199b598b249d54e3b24fbf5a629228af306e3f587e8ab1b65233a581c4\",\n",
      "        \"desc\": \"addr(bcrt1q2e5q5xvmtx9jf825uweyl066v2fz3tesdcl4sl52kxm9yva9s8zq9pw5mq)#z5wzum6e\",\n",
      "        \"hex\": \"002056680a199b598b249d54e3b24fbf5a629228af306e3f587e8ab1b65233a581c4\",\n",
      "        \"address\": \"bcrt1q2e5q5xvmtx9jf825uweyl066v2fz3tesdcl4sl52kxm9yva9s8zq9pw5mq\",\n",
      "        \"type\": \"witness_v0_scripthash\"\n",
      "      }\n",
      "    },\n",
      "    {\n",
      "      \"value\": \"0.00500000\",\n",
      "      \"n\": 2,\n",
      "      \"scriptPubKey\": {\n",
      "        \"asm\": \"0 5337b1739305e8759631da30a34bd30ebb1379b484f3216a237ad009d21ded74\",\n",
      "        \"desc\": \"addr(bcrt1q2vmmzuunqh58t933mgc2xj7np6a3x7d5snejz63r0tgqn5saa46qkj4mpn)#0504nl0g\",\n",
      "        \"hex\": \"00205337b1739305e8759631da30a34bd30ebb1379b484f3216a237ad009d21ded74\",\n",
      "        \"address\": \"bcrt1q2vmmzuunqh58t933mgc2xj7np6a3x7d5snejz63r0tgqn5saa46qkj4mpn\",\n",
      "        \"type\": \"witness_v0_scripthash\"\n",
      "      }\n",
      "    },\n",
      "    {\n",
      "      \"value\": \"0.01000000\",\n",
      "      \"n\": 3,\n",
      "      \"scriptPubKey\": {\n",
      "        \"asm\": \"0 439fd0fb44bb93e02a87b92851c9e377612166d8ce4af46eb9f82899a8e8323d\",\n",
      "        \"desc\": \"addr(bcrt1qgw0ap76yhwf7q258hy59rj0rwasjzekcee90gm4elq5fn28gxg7sj0rdmv)#6a82l2ar\",\n",
      "        \"hex\": \"0020439fd0fb44bb93e02a87b92851c9e377612166d8ce4af46eb9f82899a8e8323d\",\n",
      "        \"address\": \"bcrt1qgw0ap76yhwf7q258hy59rj0rwasjzekcee90gm4elq5fn28gxg7sj0rdmv\",\n",
      "        \"type\": \"witness_v0_scripthash\"\n",
      "      }\n",
      "    },\n",
      "    {\n",
      "      \"value\": \"0.03479900\",\n",
      "      \"n\": 4,\n",
      "      \"scriptPubKey\": {\n",
      "        \"asm\": \"0 978f0c6d76e9a391a84ab6385c34d6cc8dcafdc624523ede9241b8cc2211eb76\",\n",
      "        \"desc\": \"addr(bcrt1qj78scmtkax3er2z2kcu9cdxkejxu4lwxy3frah5jgxuvcgs3admqdd0pwu)#j92lqkdq\",\n",
      "        \"hex\": \"0020978f0c6d76e9a391a84ab6385c34d6cc8dcafdc624523ede9241b8cc2211eb76\",\n",
      "        \"address\": \"bcrt1qj78scmtkax3er2z2kcu9cdxkejxu4lwxy3frah5jgxuvcgs3admqdd0pwu\",\n",
      "        \"type\": \"witness_v0_scripthash\"\n",
      "      }\n",
      "    }\n",
      "  ]\n",
      "}\n",
      "Bob Unsigned Commitment transaction\n",
      "{\n",
      "  \"txid\": \"2f3d0c57e2f2a830a9fffb3c97334aba9fb112ae4851f52b33a36069a71b7daa\",\n",
      "  \"hash\": \"2f3d0c57e2f2a830a9fffb3c97334aba9fb112ae4851f52b33a36069a71b7daa\",\n",
      "  \"version\": 2,\n",
      "  \"size\": 266,\n",
      "  \"vsize\": 266,\n",
      "  \"weight\": 1064,\n",
      "  \"locktime\": 541304428,\n",
      "  \"vin\": [\n",
      "    {\n",
      "      \"txid\": \"84cf5e7ec05490969e84e9e502b8dc580e0c78df18fe7002f7ab2d10044c7d91\",\n",
      "      \"vout\": 1,\n",
      "      \"scriptSig\": {\n",
      "        \"asm\": \"\",\n",
      "        \"hex\": \"\"\n",
      "      },\n",
      "      \"sequence\": 2159293437\n",
      "    }\n",
      "  ],\n",
      "  \"vout\": [\n",
      "    {\n",
      "      \"value\": \"0.00000330\",\n",
      "      \"n\": 0,\n",
      "      \"scriptPubKey\": {\n",
      "        \"asm\": \"0 34391c79ba78d594262aa91410f49d7200ef55e7551441659412aac47b543f04\",\n",
      "        \"desc\": \"addr(bcrt1qxsu3c7d60r2egf324y2ppayawgqw7408252yzev5z24vg7658uzqwq2zs5)#62txjpcp\",\n",
      "        \"hex\": \"002034391c79ba78d594262aa91410f49d7200ef55e7551441659412aac47b543f04\",\n",
      "        \"address\": \"bcrt1qxsu3c7d60r2egf324y2ppayawgqw7408252yzev5z24vg7658uzqwq2zs5\",\n",
      "        \"type\": \"witness_v0_scripthash\"\n",
      "      }\n",
      "    },\n",
      "    {\n",
      "      \"value\": \"0.00000330\",\n",
      "      \"n\": 1,\n",
      "      \"scriptPubKey\": {\n",
      "        \"asm\": \"0 56680a199b598b249d54e3b24fbf5a629228af306e3f587e8ab1b65233a581c4\",\n",
      "        \"desc\": \"addr(bcrt1q2e5q5xvmtx9jf825uweyl066v2fz3tesdcl4sl52kxm9yva9s8zq9pw5mq)#z5wzum6e\",\n",
      "        \"hex\": \"002056680a199b598b249d54e3b24fbf5a629228af306e3f587e8ab1b65233a581c4\",\n",
      "        \"address\": \"bcrt1q2e5q5xvmtx9jf825uweyl066v2fz3tesdcl4sl52kxm9yva9s8zq9pw5mq\",\n",
      "        \"type\": \"witness_v0_scripthash\"\n",
      "      }\n",
      "    },\n",
      "    {\n",
      "      \"value\": \"0.00500000\",\n",
      "      \"n\": 2,\n",
      "      \"scriptPubKey\": {\n",
      "        \"asm\": \"0 8fa0be377a59c48a6aab40e5113359cde211c18cd721a5e4a1572b4cb3eea1f5\",\n",
      "        \"desc\": \"addr(bcrt1q37studm6t8zg564tgrj3zv6eeh3prsvv6us6te9p2u45evlw586sr07gnx)#v87p30l4\",\n",
      "        \"hex\": \"00208fa0be377a59c48a6aab40e5113359cde211c18cd721a5e4a1572b4cb3eea1f5\",\n",
      "        \"address\": \"bcrt1q37studm6t8zg564tgrj3zv6eeh3prsvv6us6te9p2u45evlw586sr07gnx\",\n",
      "        \"type\": \"witness_v0_scripthash\"\n",
      "      }\n",
      "    },\n",
      "    {\n",
      "      \"value\": \"0.01000000\",\n",
      "      \"n\": 3,\n",
      "      \"scriptPubKey\": {\n",
      "        \"asm\": \"0 a1574ee61ea7a53637edb0038c79d979a78c1603b3a318d185936cb59e19670a\",\n",
      "        \"desc\": \"addr(bcrt1q59t5aes757jnvdldkqpcc7we0xncc9srkw3335v9jdktt8sevu9qx7tnlf)#7njej5k9\",\n",
      "        \"hex\": \"0020a1574ee61ea7a53637edb0038c79d979a78c1603b3a318d185936cb59e19670a\",\n",
      "        \"address\": \"bcrt1q59t5aes757jnvdldkqpcc7we0xncc9srkw3335v9jdktt8sevu9qx7tnlf\",\n",
      "        \"type\": \"witness_v0_scripthash\"\n",
      "      }\n",
      "    },\n",
      "    {\n",
      "      \"value\": \"0.03479900\",\n",
      "      \"n\": 4,\n",
      "      \"scriptPubKey\": {\n",
      "        \"asm\": \"0 475d024bb95e9a981632863d3b1a4b9308aa88e189196272735a3e3d47caf936\",\n",
      "        \"desc\": \"addr(bcrt1qgawsyjaet6dfs93jsc7nkxjtjvy24z8p3yvkyunntglr6372lymq8edt6d)#vxtm3r5t\",\n",
      "        \"hex\": \"0020475d024bb95e9a981632863d3b1a4b9308aa88e189196272735a3e3d47caf936\",\n",
      "        \"address\": \"bcrt1qgawsyjaet6dfs93jsc7nkxjtjvy24z8p3yvkyunntglr6372lymq8edt6d\",\n",
      "        \"type\": \"witness_v0_scripthash\"\n",
      "      }\n",
      "    }\n",
      "  ]\n",
      "}\n",
      "alice_commitment_tx_digest_preimage:  020000009767d377590956ea011f72fe64290f352a914b0bbe86b6d328e703a2947f8a71c6067e2ccbba74d4f24cc174be97c1ea7514cf7a20d616fbc7587a48964b2c95917d4c04102dabf70270fe18df780c0e58dcb802e5e9849e969054c07e5ecf840100000047522102245c997231079146616f70eae46dd43461b530cb55df50cac8ef321127adb96321032b057a643c7b928b7dc30e1f76c2a777a213fe3a7462215d10220844befe77c352ae404b4c0000000000fd33b48038b5ad712abbf7a5acfe5e208bee65064c63b0903cb7d72f674da2e622f1a5686ca6432001000000\n",
      "bob_commitment_tx_digest_preimage:  020000009767d377590956ea011f72fe64290f352a914b0bbe86b6d328e703a2947f8a71c6067e2ccbba74d4f24cc174be97c1ea7514cf7a20d616fbc7587a48964b2c95917d4c04102dabf70270fe18df780c0e58dcb802e5e9849e969054c07e5ecf840100000047522102245c997231079146616f70eae46dd43461b530cb55df50cac8ef321127adb96321032b057a643c7b928b7dc30e1f76c2a777a213fe3a7462215d10220844befe77c352ae404b4c0000000000fd33b4800f3a2027eb7b09a189bc4dc44b2656e8358d3b9ff080f7fc0c094428dce3c0cd6ca6432001000000\n",
      "Alice Signed Commitment Transaction:  02000000000101917d4c04102dabf70270fe18df780c0e58dcb802e5e9849e969054c07e5ecf840100000000fd33b480054a0100000000000022002034391c79ba78d594262aa91410f49d7200ef55e7551441659412aac47b543f044a0100000000000022002056680a199b598b249d54e3b24fbf5a629228af306e3f587e8ab1b65233a581c420a10700000000002200205337b1739305e8759631da30a34bd30ebb1379b484f3216a237ad009d21ded7440420f0000000000220020439fd0fb44bb93e02a87b92851c9e377612166d8ce4af46eb9f82899a8e8323d5c19350000000000220020978f0c6d76e9a391a84ab6385c34d6cc8dcafdc624523ede9241b8cc2211eb760400483045022100e5440444bf3ae1cac56027478bc8428635ac939727774d1dc6d52fe9c15ae2d602206f027788a8c679be150752dff42200347ef39c24d0c978442c0451ee569e7a1801483045022100a3f9ee9e198853e3b7775c41438ffd5d4fe8606a749f8c0d379a2568310224ad02207afbe6bc397dda2580acbd1771a0e6ec66daf01e2979f19b77d73fef3e879acc0147522102245c997231079146616f70eae46dd43461b530cb55df50cac8ef321127adb96321032b057a643c7b928b7dc30e1f76c2a777a213fe3a7462215d10220844befe77c352ae6ca64320\n",
      "Bob Signed Commitment Transaction:  02000000000101917d4c04102dabf70270fe18df780c0e58dcb802e5e9849e969054c07e5ecf840100000000fd33b480054a0100000000000022002034391c79ba78d594262aa91410f49d7200ef55e7551441659412aac47b543f044a0100000000000022002056680a199b598b249d54e3b24fbf5a629228af306e3f587e8ab1b65233a581c420a10700000000002200208fa0be377a59c48a6aab40e5113359cde211c18cd721a5e4a1572b4cb3eea1f540420f0000000000220020a1574ee61ea7a53637edb0038c79d979a78c1603b3a318d185936cb59e19670a5c19350000000000220020475d024bb95e9a981632863d3b1a4b9308aa88e189196272735a3e3d47caf9360400483045022100eee252c489dc921ca5948026805c372ed03ccae7cb9d9e7148a25c2d5da52e4e02201ee57ca1ce335268ead9b9920fbf194a4ddeac03a9865c8aa3496b959ea9645601473044022075afd4a75504356d5b6037d65bbd56e2a1f2c9943a27d38c03e167ae00badd260220580b92fdf1e46bd1c29e88b3e2be37f574299c72e355add8c7350542b2f76b8f0147522102245c997231079146616f70eae46dd43461b530cb55df50cac8ef321127adb96321032b057a643c7b928b7dc30e1f76c2a777a213fe3a7462215d10220844befe77c352ae6ca64320\n",
      "[{'txid': 'c64c1b253b0f1be139b199592be5f49fb703d76139f9458187b19f272a931c99', 'wtxid': 'ae527ae08d1bc6b5b48dcd413c9ff1d8e6eed1d02bb41a33140877815763d572', 'allowed': True, 'vsize': 322, 'fees': {'base': Decimal('0.00019440'), 'effective-feerate': Decimal('0.00060372'), 'effective-includes': ['ae527ae08d1bc6b5b48dcd413c9ff1d8e6eed1d02bb41a33140877815763d572']}}]\n",
      "[{'txid': '2f3d0c57e2f2a830a9fffb3c97334aba9fb112ae4851f52b33a36069a71b7daa', 'wtxid': 'b9bd42295192cdc16070fd77bb867f497d27888b3e4f212e42c7ad689ae0d30a', 'allowed': True, 'vsize': 322, 'fees': {'base': Decimal('0.00019440'), 'effective-feerate': Decimal('0.00060372'), 'effective-includes': ['b9bd42295192cdc16070fd77bb867f497d27888b3e4f212e42c7ad689ae0d30a']}}]\n",
      "Force Close txid ['3b6c790d1f1c8d681d13bb4342a903d88eb1aa7aeb9a3a40e6c88a565082a799']\n"
     ]
    }
   ],
   "source": [
    "# run notebook\n",
    "%run \"/home/pins-dev/Projects/lightning-tx-tutorial/Chapter 4 - Unilateral Closing Transaction/Unilateral Closing Transaction.ipynb\""
   ]
  },
  {
   "cell_type": "markdown",
   "id": "86e5e59e-a1c7-4715-9aee-72f34489eb54",
   "metadata": {},
   "source": [
    "### Creating the HTLC-Timeout and HTLC-Success Transactions\n",
    "\n",
    "Now that the commitment transaction, containing HTLC outputs, was published forcing close the channel, we can create the HTLC-Timeout and/or HTLC-Success Transactions to reclaim the funds locked on HTLCs.\n",
    "\n",
    "Let's start with simulating an HTLC Timeout transaction."
   ]
  },
  {
   "cell_type": "code",
   "execution_count": 2,
   "id": "7cc1634a-4777-4fe8-9486-eea6c6d4ede3",
   "metadata": {},
   "outputs": [
    {
     "name": "stdout",
     "output_type": "stream",
     "text": [
      "HTLC Output SPK: 0020978f0c6d76e9a391a84ab6385c34d6cc8dcafdc624523ede9241b8cc2211eb76\n",
      "unsigned_htlc_tx:  0200000001991c932a279fb1878145f93961d703b79ff4e52b5999b139e11b0f3b251b4cc60200000000010000000120a1070000000000220020978f0c6d76e9a391a84ab6385c34d6cc8dcafdc624523ede9241b8cc2211eb7600000000\n"
     ]
    }
   ],
   "source": [
    "# VERSION\n",
    "# version '2' indicates that we may use relative timelocks (BIP68)\n",
    "version = bytes.fromhex(\"0200 0000\")\n",
    "\n",
    "# MARKER\n",
    "marker = bytes.fromhex(\"00\")\n",
    "\n",
    "# FLAG\n",
    "flag = bytes.fromhex(\"01\")\n",
    "\n",
    "# INPUTS\n",
    "# We have just 1 input\n",
    "input_count = bytes.fromhex(\"01\")\n",
    "\n",
    "# Convert txid and index to bytes (little endian)\n",
    "txid = (bytes.fromhex(alice_signed_commitment_txid))[::-1]\n",
    "index = bytes.fromhex(\"0200 0000\")\n",
    "\n",
    "# For the unsigned transaction we use an empty scriptSig\n",
    "scriptsig = bytes.fromhex(\"\")\n",
    "\n",
    "# sequence: set to 1 for option_anchors\n",
    "sequence = bytes.fromhex(\"0100 0000\")\n",
    "\n",
    "inputs = (\n",
    "    txid\n",
    "    + index\n",
    "    + varint_len(scriptsig)\n",
    "    + scriptsig\n",
    "    + sequence\n",
    ")\n",
    "\n",
    "# OUTPUTS\n",
    "output_count = bytes.fromhex(\"01\")\n",
    "\n",
    "# OP_IF\n",
    "#   Penalty transaction\n",
    "#   <revocationpubkey>\n",
    "# OP_ELSE\n",
    "#    `to_self_delay`\n",
    "#    OP_CHECKSEQUENCEVERIFY\n",
    "#    OP_DROP\n",
    "#    <local_delayedpubkey>\n",
    "# OP_ENDIF\n",
    "# OP_CHECKSIG\n",
    "htlc_redeemScript = bytes.fromhex(\n",
    "    \"63\"   # OP_IF\n",
    "    + \"21\"\n",
    "    + bob_revocation_pubkey\n",
    "    + \"67\"   # OP_ELSE\n",
    "    + \"02\"   \n",
    "    + \"9000\" # to_self_delay of 144 blocks\n",
    "    + \"b2\"   # OP_CHECKSEQUENCEVERIFY\n",
    "    + \"75\"   # OP_DROP\n",
    "    + \"21\"\n",
    "    + alice_delayed_pubkey\n",
    "    + \"68\"  # OP_ENDIF\n",
    "    + \"ac\") # OP_CHECKSIG\n",
    "\n",
    "htlc_script_hash = sha256(htlc_redeemScript)\n",
    "htlc_output_spk = bytes.fromhex(\"0020\") + htlc_script_hash\n",
    "print(f\"HTLC Output SPK: {htlc_output_spk.hex()}\")\n",
    "\n",
    "outputs = (\n",
    "    alice_offered_htlc_output_value\n",
    "    + varint_len(htlc_output_spk)\n",
    "    + htlc_output_spk\n",
    ")\n",
    "\n",
    "# LOCKTIME\n",
    "locktime = bytes.fromhex(\"0000 0000\")\n",
    "\n",
    "unsigned_htlc_tx = (\n",
    "    version\n",
    "    + input_count\n",
    "    + inputs\n",
    "    + output_count\n",
    "    + outputs\n",
    "    + locktime\n",
    ")\n",
    "\n",
    "print(\"unsigned_htlc_tx: \", unsigned_htlc_tx.hex())\n",
    "\n"
   ]
  },
  {
   "cell_type": "markdown",
   "id": "536469cc-cddf-4099-ac9a-4be20a402a52",
   "metadata": {},
   "source": [
    "We can decode this raw transaction to inspect it and see that it has all the information we need apart from the segwit fields (version, marker, and witness).\n",
    "\n",
    "Just uncomment the lines below to do that."
   ]
  },
  {
   "cell_type": "code",
   "execution_count": 3,
   "id": "260a3001-e43a-40ce-bdf5-b4a8e489a736",
   "metadata": {},
   "outputs": [
    {
     "name": "stdout",
     "output_type": "stream",
     "text": [
      "{\n",
      "  \"txid\": \"95d43493eae4b20a34f4978deb182a288df2ac6cc64e8266fcfa97897d0d62f1\",\n",
      "  \"hash\": \"95d43493eae4b20a34f4978deb182a288df2ac6cc64e8266fcfa97897d0d62f1\",\n",
      "  \"version\": 2,\n",
      "  \"size\": 94,\n",
      "  \"vsize\": 94,\n",
      "  \"weight\": 376,\n",
      "  \"locktime\": 0,\n",
      "  \"vin\": [\n",
      "    {\n",
      "      \"txid\": \"c64c1b253b0f1be139b199592be5f49fb703d76139f9458187b19f272a931c99\",\n",
      "      \"vout\": 2,\n",
      "      \"scriptSig\": {\n",
      "        \"asm\": \"\",\n",
      "        \"hex\": \"\"\n",
      "      },\n",
      "      \"sequence\": 1\n",
      "    }\n",
      "  ],\n",
      "  \"vout\": [\n",
      "    {\n",
      "      \"value\": \"0.00500000\",\n",
      "      \"n\": 0,\n",
      "      \"scriptPubKey\": {\n",
      "        \"asm\": \"0 978f0c6d76e9a391a84ab6385c34d6cc8dcafdc624523ede9241b8cc2211eb76\",\n",
      "        \"desc\": \"addr(bcrt1qj78scmtkax3er2z2kcu9cdxkejxu4lwxy3frah5jgxuvcgs3admqdd0pwu)#j92lqkdq\",\n",
      "        \"hex\": \"0020978f0c6d76e9a391a84ab6385c34d6cc8dcafdc624523ede9241b8cc2211eb76\",\n",
      "        \"address\": \"bcrt1qj78scmtkax3er2z2kcu9cdxkejxu4lwxy3frah5jgxuvcgs3admqdd0pwu\",\n",
      "        \"type\": \"witness_v0_scripthash\"\n",
      "      }\n",
      "    }\n",
      "  ]\n",
      "}\n"
     ]
    }
   ],
   "source": [
    "decoded = node.decoderawtransaction(unsigned_htlc_tx.hex())\n",
    "print(json.dumps(decoded, indent=2, default=str))"
   ]
  },
  {
   "cell_type": "markdown",
   "id": "371e5d76-4959-4057-abbf-5d87004611e2",
   "metadata": {},
   "source": [
    "### Signing the HTLC-Timeout and HTLC-Success Transactions\n",
    "\n",
    "Segwit transactions have a signing scheme described in [BIP143](https://github.com/bitcoin/bips/blob/master/bip-0143.mediawiki). According to the sighash type (ALL, NONE, SINGLE, ANYONECANPAY), a transaction digest is generated with a double SHA256 of a serialized subset of the transaction (tx_digest_preimage), and the signature is verified against this digest with a given public key."
   ]
  },
  {
   "cell_type": "markdown",
   "id": "0f1cb1f5-024b-4738-b2cb-2486ca4008fa",
   "metadata": {},
   "source": [
    "#### Creating the Transaction Digest Preimage"
   ]
  },
  {
   "cell_type": "code",
   "execution_count": 4,
   "id": "ab6ecda6-b8eb-41d2-aea7-db4965b9677e",
   "metadata": {},
   "outputs": [
    {
     "name": "stdout",
     "output_type": "stream",
     "text": [
      "tx_digest_preimage:  020000002fa0db9956056486ab781937dc501561e279d26b4d1735554606900b29d47bda41f758f2e5cc078d3795b4fc0cb60c2d735fa92cc020572bdc982dd2d564d11b991c932a279fb1878145f93961d703b79ff4e52b5999b139e11b0f3b251b4cc6020000008876a9145aab2da71aa3e8e99c72c7b07b04fb3a689447d68763ac672103f0ce4fe88d9e1d79c449ced61ee6cfc9280b3e424a48f952667b7fd73a299aa17c820120876475527c2103f020b85b2f600cdba67ecb33ed2ed09bf1c0a0e67e839a9ca70766049a5f329852ae67a914c51b66bced5e4491001bd702669770dccf44098288ac6851b2756820a107000000000001000000c8537014c8acc06799c874db2786837f66e57129eff5f04fa0741ef6eaa722400000000001000000\n"
     ]
    }
   ],
   "source": [
    "hashPrevOuts = hash256(txid + index)\n",
    "hashSequence = hash256(sequence)\n",
    "hashOutputs = hash256(outputs)\n",
    "sighash_type = bytes.fromhex(\"0100 0000\") # SIGHASH_ALL\n",
    "\n",
    "tx_digest_preimage = (\n",
    "    version\n",
    "    + hashPrevOuts\n",
    "    + hashSequence\n",
    "    + txid\n",
    "    + index\n",
    "    + varint_len(alice_offered_htlc_redeemScript)\n",
    "    + alice_offered_htlc_redeemScript\n",
    "    + alice_offered_htlc_output_value\n",
    "    + sequence\n",
    "    + hashOutputs\n",
    "    + locktime\n",
    "    + sighash_type\n",
    ")\n",
    "print(\"tx_digest_preimage: \",tx_digest_preimage.hex())"
   ]
  }
 ],
 "metadata": {
  "kernelspec": {
   "display_name": "Python 3 (ipykernel)",
   "language": "python",
   "name": "python3"
  },
  "language_info": {
   "codemirror_mode": {
    "name": "ipython",
    "version": 3
   },
   "file_extension": ".py",
   "mimetype": "text/x-python",
   "name": "python",
   "nbconvert_exporter": "python",
   "pygments_lexer": "ipython3",
   "version": "3.12.3"
  }
 },
 "nbformat": 4,
 "nbformat_minor": 5
}
