{
 "cells": [
  {
   "cell_type": "markdown",
   "id": "4ca69be2-9ef5-4a4d-9ad7-c56a10a29671",
   "metadata": {},
   "source": [
    "# Creating a Closing Transaction\n",
    "\n",
    "In this section we'll create a Lightning Channel closing transaction from scratch in python. We'll go through each part of the transaction, how it's constructed, signed, and the message the peers exchange to send and get the needed information from each other to make it happen. We'll test it using bitcoin core in regtest mode.\n",
    "\n",
    "## Prerequisite knowledge\n",
    "### For all notebooks\n",
    "- A high level understanding of the bitcoin. e.g. [Mastering Bitcoin](https://github.com/bitcoinbook/bitcoinbook), in particular [Chapter 6](https://github.com/bitcoinbook/bitcoinbook/blob/develop/ch06.asciidoc).\n",
    "- A conceptual understanding of [hash functions](https://www.thesslstore.com/blog/what-is-a-hash-function-in-cryptography-a-beginners-guide).\n",
    "- [Hexadecimal notation](https://inst.eecs.berkeley.edu/~cs61bl/r//cur/bits/decimal-binary-hex.html?topic=lab28.topic&step=2&course=) and [endianness](https://www.freecodecamp.org/news/what-is-endianness-big-endian-vs-little-endian/).\n",
    "- A high level understanding of the lightning e.g. [Mastering Lightning Network](https://github.com/lnbook/lnbook), in particular [Chapter7](https://github.com/lnbook/lnbook/blob/develop/07_payment_channels.asciidoc), [Chapter 8](https://github.com/lnbook/lnbook/blob/develop/08_routing_htlcs.asciidoc) and [Chapter 9](https://github.com/lnbook/lnbook/blob/develop/09_channel_operation.asciidoc).\n",
    "\n",
    "### Specific to this notebook:\n",
    "- SHA256, HASH256, HASH160 - '[Hash Functions chapter](https://github.com/MPins/lightning-tx-tutorial/blob/main/appendix/hash-functions.ipynb)'\n",
    "- Bech32 addresses - '[Addresses chapter](https://github.com/MPins/lightning-tx-tutorial/blob/main/appendix/Addresses.ipynb)'\n",
    "- Bitcoin Script basics - '[Bitcoin Script chapter](https://github.com/MPins/lightning-tx-tutorial/blob/main/appendix/Bitcoin%20Script.ipynb)'\n",
    "- Lightning Network BOLT #2: '[Peer Protocol for Channel Management](https://github.com/lightning/bolts/blob/master/02-peer-protocol.md#channel-establishment-v1)'\n",
    "- Lightning Network Bolt #3: '[Funding Transaction Output](https://github.com/lightning/bolts/blob/master/03-transactions.md#funding-transaction-output)'"
   ]
  },
  {
   "cell_type": "markdown",
   "id": "ea243438-bd82-4532-86ed-5c147303d8b7",
   "metadata": {},
   "source": [
    "The Basis of Lightning Technology ([BOLT](https://github.com/lightning/bolts/blob/master/00-introduction.md)) defines the way to close a channel cooperativelly, lets focus on the legacy because most of the channels are closed using it.\n",
    "\n",
    "    +-----------+                              +---------+\n",
    "    |           |--(1)--  shutdown  ---------->|         |\n",
    "    |           |<-(2)--  shutdown  -----------|         |\n",
    "    |           |                              |         |\n",
    "    |   Alice   |--(3)--  closing_signed  ---->|   Bob   |\n",
    "    |           |<-(4)--  closing_signed  -----|         |\n",
    "    |           |                              |         |\n",
    "    |           |                              |         |\n",
    "    |           |                              |         |\n",
    "    +-----------+                              +---------+\n",
    "\n",
    "Alice send the [`shutdown`](https://github.com/lightning/bolts/blob/master/02-peer-protocol.md#closing-initiation-shutdown) message to Bob. This message initiate the closing process, along with the scriptpubkey it wants to be paid to:\n",
    "* channel_id\n",
    "* scriptpubkey\n",
    "\n",
    "Once shutdown is complete, the channel is empty of HTLCs, there are no commitments for which a revocation is owed, and all updates are included on both commitments, the final current commitment transactions will have no HTLCs, and closing fee negotiation begins. The funder chooses a fee it thinks is fair, and signs the closing transaction with the scriptpubkey fields from the shutdown messages (along with its chosen fee) and sends the [`closing_signed`](https://github.com/lightning/bolts/blob/master/02-peer-protocol.md#closing-negotiation-closing_signed) message; the other node then replies similarly, using a fee it thinks is fair. This exchange continues until both agree on the same fee or when one side fails the channel."
   ]
  },
  {
   "cell_type": "markdown",
   "id": "1536f81c-8973-4760-8c4f-bd9cbfaa8a9c",
   "metadata": {},
   "source": [
    "## The Legacy Closing Transaction\n",
    "\n",
    "- version: 2\n",
    "- locktime: 0\n",
    "- txin count: 1\n",
    "    - txin[0] outpoint: txid and output_index from funding_created message\n",
    "    - txin[0] sequence: 0xFFFFFFFF\n",
    "    - txin[0] script bytes: 0\n",
    "    - txin[0] witness: 0 <signature_for_pubkey1> <signature_for_pubkey2>\n",
    "- txout count: 1 or 2\n",
    "    - txout amount: final balance to be paid to one node (minus fee_satoshis from closing_signed, if this peer funded the channel)\n",
    "    - txout script: as specified in that node's scriptpubkey in its shutdown message\n",
    "\n",
    "## Setup \n",
    "### Requirements\n",
    "For this chapter we'll need the Bitcoin Core. This notebook has been tested with [v28.0](https://github.com/bitcoin/bitcoin/releases/tag/v28.0).\n",
    "\n",
    "Below, set the paths for:\n",
    "1. The bitcoin core functional test framework directory.\n",
    "2. The directory containing lightning-tx-tutorial.\n",
    "\n",
    "**You'll need to edit these next two lines for your local setup.**"
   ]
  },
  {
   "cell_type": "code",
   "execution_count": 1,
   "id": "68b2285d-53c3-4588-8a25-330530b024fa",
   "metadata": {},
   "outputs": [
    {
     "name": "stdout",
     "output_type": "stream",
     "text": [
      "Alice Per Commitment Seed 34b581ec20bf2c6cae3d4d4dcbfddc8a3727a1e9a57c55f3520e770607898c06\n",
      "Bob Per Commitment Seed 89c994b3ddad4698acee71e42d8bcace48eea739caaba371eb110e77663ec56d\n",
      "Alice Revocation Basepoint Private Key: c17ac3952ca414190074d1e59ea03fbae253196173908dc8b131af6bd2cc8161\n",
      "Alice Revocation Basepoint Public Key: 03649c4f865bec74b0a186deef4defad51cfdc141443e38074ea05a7835a953a49\n",
      "Alice HTLC Basepoint Private Key: 763ae49a20e6668c88602c782716dd83ba6c4cc0333b38810e2bcd7b22c871ac\n",
      "Alice HTLC Basepoint Public Key: 02816fde4150e4dfcac94eff0b821448fb70f57a56148ba2206cd9b2fd0cc20bdf\n",
      "Alice Payment Basepoint Private Key: 72d8c12971b58076a1f27eb7938ca442f0b210762b23637443ac2e99dac352a6\n",
      "Alice Payment Basepoint Public Key: 025f892a06124391e2f38ce35d943cdc09f63e203330dbd9cb6113a903e0738458\n",
      "Alice Delayed Payment Basepoint Private Key: 7cafce00c54e7241894dcc7c3beaca29dd354139fdb6182198d6c5f1063bfe8d\n",
      "Alice Delayed Payment Basepoint Public Key: 034aa35219136bb238e072341b20a4bf8fb44a83cdb73dd2bd973c123ac2dfd7ff\n",
      "Bob Revocation Basepoint Private Key: fa526e09b9ff7425552db1803d7e12cf4475d060db4cfb812adb07219a54baa0\n",
      "Bob Revocation Basepoint Public Key: 02536407aada57068f30b53c4126062d235967c3636147433e72b21ff93c8acdbf\n",
      "Bob HTLC Basepoint Private Key: 06d61bb059eef194a3d223992a028fbd31f2e8b289d5a10acd343671c9322155\n",
      "Bob HTLC Basepoint Public Key: 0306b11436efa058a86f997df6596ea4579241f3909175772d77df38a5255f52f4\n",
      "Bob Payment Basepoint Private Key: 5046024e716c479599350b7aee8139304d942360733d8dd79793917f9e33a334\n",
      "Bob Payment Basepoint Public Key: 02f98efd3f2b2fbe7bd83c419f5f64f8280798b8a9175fdb77c0091bbb95c79506\n",
      "Bob Delayed Payment Basepoint Private Key: d764d4c083cac97d34913bdf123c3dfef5379db9e9b0652897783e0d01880bb3\n",
      "Bob Delayed Payment Basepoint Public Key: 032a5869ac5eb30ba1e9c9addd3740822dac6f45a8de9b3d4e171f14c3abce2dae\n",
      "Alice Funding Private Key: ccd60731893309bb59a6030a581fc80984fa96129e10cf8342c0b0b800ffb51c\n",
      "Alice Funding Public Key: 02245c997231079146616f70eae46dd43461b530cb55df50cac8ef321127adb963\n",
      "Alice Change Private Key: 6c2bda7af1291da770d0041794bbc891ac27c2fbe6a8a825a8f14f3b904b1f4e\n",
      "Alice Change Public Key: 02f0006732c6db9e73522b31168bda043cbf7759c46e553eae9dede26ccd08a39b\n",
      "Bob Funding Private Key: ca62b96f01783d13a48be4e8a2ca9c48093f62b64537d4c3c33d45d7cb53a0a7\n",
      "Bob Funding Public Key: 032b057a643c7b928b7dc30e1f76c2a777a213fe3a7462215d10220844befe77c3\n",
      "Alice's funding p2wpkh address: bcrt1qt0vq5dj8qa720lfx3hhzyu9ygsng9js3g02lnl\n",
      "Alice's change p2wpkh address: bcrt1qt6ax8rh20h6zts0dcqmzdy9kte3pds4lrzwl6s\n",
      "2025-02-17T19:16:33.788000Z TestFramework (INFO): PRNG seed is: 7721635498097788314\n",
      "2025-02-17T19:16:33.790000Z TestFramework (INFO): Initializing test directory /tmp/bitcoin_func_test_0zxndhzt\n",
      "txid_to_spent: 452cf84c5befcb1f89c9d86dacc7ae2f4446f6b11b2b0903db532f340147c061, 1\n",
      "Alice pubkey is lexicographically lesser than Bob pubkey:\n",
      "02245c997231079146616f70eae46dd43461b530cb55df50cac8ef321127adb963 < 032b057a643c7b928b7dc30e1f76c2a777a213fe3a7462215d10220844befe77c3\n",
      "Redeem Script:\n",
      "522102245c997231079146616f70eae46dd43461b530cb55df50cac8ef321127adb96321032b057a643c7b928b7dc30e1f76c2a777a213fe3a7462215d10220844befe77c352ae\n",
      "channel_address:  bcrt1qhsn37ekwjgxlajuavyzne28yrahkyesgnr6qhxvzlw3807ttcjeqhcl6mc\n",
      "unsigned_channel_funding_tx:  020000000161c04701342f53db03092b1bb1f646442faec7ac6dd8c9891fcbef5b4cf82c450100000000ffffffff02c0e1e400000000001600145eba638eea7df425c1edc0362690b65e6216c2bf404b4c0000000000220020bc271f66ce920dfecb9d61053ca8e41f6f62660898f40b9982fba277f96bc4b200000000\n",
      "{\n",
      "  \"txid\": \"0bc68d2faceb2859c46edb8239ac928ba773771d0702a879782797580e88c0b3\",\n",
      "  \"hash\": \"0bc68d2faceb2859c46edb8239ac928ba773771d0702a879782797580e88c0b3\",\n",
      "  \"version\": 2,\n",
      "  \"size\": 125,\n",
      "  \"vsize\": 125,\n",
      "  \"weight\": 500,\n",
      "  \"locktime\": 0,\n",
      "  \"vin\": [\n",
      "    {\n",
      "      \"txid\": \"452cf84c5befcb1f89c9d86dacc7ae2f4446f6b11b2b0903db532f340147c061\",\n",
      "      \"vout\": 1,\n",
      "      \"scriptSig\": {\n",
      "        \"asm\": \"\",\n",
      "        \"hex\": \"\"\n",
      "      },\n",
      "      \"sequence\": 4294967295\n",
      "    }\n",
      "  ],\n",
      "  \"vout\": [\n",
      "    {\n",
      "      \"value\": \"0.15000000\",\n",
      "      \"n\": 0,\n",
      "      \"scriptPubKey\": {\n",
      "        \"asm\": \"0 5eba638eea7df425c1edc0362690b65e6216c2bf\",\n",
      "        \"desc\": \"addr(bcrt1qt6ax8rh20h6zts0dcqmzdy9kte3pds4lrzwl6s)#s9wdm0cm\",\n",
      "        \"hex\": \"00145eba638eea7df425c1edc0362690b65e6216c2bf\",\n",
      "        \"address\": \"bcrt1qt6ax8rh20h6zts0dcqmzdy9kte3pds4lrzwl6s\",\n",
      "        \"type\": \"witness_v0_keyhash\"\n",
      "      }\n",
      "    },\n",
      "    {\n",
      "      \"value\": \"0.05000000\",\n",
      "      \"n\": 1,\n",
      "      \"scriptPubKey\": {\n",
      "        \"asm\": \"0 bc271f66ce920dfecb9d61053ca8e41f6f62660898f40b9982fba277f96bc4b2\",\n",
      "        \"desc\": \"addr(bcrt1qhsn37ekwjgxlajuavyzne28yrahkyesgnr6qhxvzlw3807ttcjeqhcl6mc)#q3fvp06p\",\n",
      "        \"hex\": \"0020bc271f66ce920dfecb9d61053ca8e41f6f62660898f40b9982fba277f96bc4b2\",\n",
      "        \"address\": \"bcrt1qhsn37ekwjgxlajuavyzne28yrahkyesgnr6qhxvzlw3807ttcjeqhcl6mc\",\n",
      "        \"type\": \"witness_v0_scripthash\"\n",
      "      }\n",
      "    }\n",
      "  ]\n",
      "}\n",
      "tx_digest_preimage:  020000000883ba98f98dbc394cbe40bcf252bf53e5e376ab905371122de54dec6caeabd13bb13029ce7b1f559ef5e747fcac439f1455a2ec7c5f09b72290795e7066504461c04701342f53db03092b1bb1f646442faec7ac6dd8c9891fcbef5b4cf82c45010000001976a9145bd80a3647077ca7fd268dee2270a4442682ca1188aca0b3320100000000fffffffff024a453c206730b975be44da5987693c127c508aada9aabadc9455fb74b5fc60000000001000000\n",
      "Channel Funding Signed Transaction:  0200000000010161c04701342f53db03092b1bb1f646442faec7ac6dd8c9891fcbef5b4cf82c450100000000ffffffff02c0e1e400000000001600145eba638eea7df425c1edc0362690b65e6216c2bf404b4c0000000000220020bc271f66ce920dfecb9d61053ca8e41f6f62660898f40b9982fba277f96bc4b202483045022100edb899bec5f25459b32c7f1ae0bba927f8f196400e423a46dcc379c6d29860dd022030c171fbb9b3600bf14dc60bb3004e69dc042d7f046ea8f3bd9c8a4ceec21507012102245c997231079146616f70eae46dd43461b530cb55df50cac8ef321127adb96300000000\n",
      "[{'txid': '0bc68d2faceb2859c46edb8239ac928ba773771d0702a879782797580e88c0b3', 'wtxid': '8f3da84b1a9855333478af0d8f847b45e26fdb42b8e954bff0257bef5090ec2f', 'allowed': True, 'vsize': 153, 'fees': {'base': Decimal('0.00100000'), 'effective-feerate': Decimal('0.00653594'), 'effective-includes': ['8f3da84b1a9855333478af0d8f847b45e26fdb42b8e954bff0257bef5090ec2f']}}]\n",
      "Alice First Per Commitment Secret: 739d879e3b2502146546b9d6d51b1e05feb362397b7cf7ba13c7719b0a889dd9\n",
      "Alice First Per Commitment Point: 0368081a0a30ec118e662b71d222c383c5c9f495b4821fd0252452abf659250237\n",
      "Bob First Per Commitment Secret: 203f2c3e5cd6004ef0ea26e82c2ffeb2dc80036cedca92c210010cd73facd38a\n",
      "Bob First Per Commitment Point: 03ac685c74c0970c62f0e69ad332b6a5f6d61d3650128ef2a18e011cfd28d177b4\n",
      "Commitment Number Obscured: 0xb433fd43a66f\n",
      "Inputs: b3c0880e5897277879a802071d7773a78b92ac3982db6ec45928ebac2f8dc60b0100000000fd33b480\n",
      "Alice Delayed Pubkey: 03d6363615b3d00361158c0f48a4ef81ea12e214e8d56e24098759f6b4267dca8b\n",
      "Bob Revocation Pubkey: 03a0596fefba4b53489629115e8b360a95b900f1884306edb98428d5377478b9ac\n",
      "Alice Anchor Output SPK: 002034391c79ba78d594262aa91410f49d7200ef55e7551441659412aac47b543f04\n",
      "Alice Delayed Output SPK: 002010af48dee0428972563ba131e3d8aa35fd92537953d4755a84bc2a09c2bb53a5\n",
      "Alice Remote Output SPK: 0020f0447296bbb031d3f362b223a0ba7281bfcfeca9061820c9bdee400411fc01be\n",
      "Unsigned Alice Commitment Transaction:  0200000001b3c0880e5897277879a802071d7773a78b92ac3982db6ec45928ebac2f8dc60b0100000000fd33b480024a0100000000000022002034391c79ba78d594262aa91410f49d7200ef55e7551441659412aac47b543f041a084c000000000022002010af48dee0428972563ba131e3d8aa35fd92537953d4755a84bc2a09c2bb53a56fa64320\n",
      "Unsigned Bob Commitment Transaction:  0200000001b3c0880e5897277879a802071d7773a78b92ac3982db6ec45928ebac2f8dc60b0100000000fd33b480024a0100000000000022002034391c79ba78d594262aa91410f49d7200ef55e7551441659412aac47b543f041a084c0000000000220020f0447296bbb031d3f362b223a0ba7281bfcfeca9061820c9bdee400411fc01be6fa64320\n",
      "Alice Unsigned Commitment transaction\n",
      "{\n",
      "  \"txid\": \"8dc730597e35b384badcceb11a1930b2fdcba35bb3c09b0b8786f51315ac513a\",\n",
      "  \"hash\": \"8dc730597e35b384badcceb11a1930b2fdcba35bb3c09b0b8786f51315ac513a\",\n",
      "  \"version\": 2,\n",
      "  \"size\": 137,\n",
      "  \"vsize\": 137,\n",
      "  \"weight\": 548,\n",
      "  \"locktime\": 541304431,\n",
      "  \"vin\": [\n",
      "    {\n",
      "      \"txid\": \"0bc68d2faceb2859c46edb8239ac928ba773771d0702a879782797580e88c0b3\",\n",
      "      \"vout\": 1,\n",
      "      \"scriptSig\": {\n",
      "        \"asm\": \"\",\n",
      "        \"hex\": \"\"\n",
      "      },\n",
      "      \"sequence\": 2159293437\n",
      "    }\n",
      "  ],\n",
      "  \"vout\": [\n",
      "    {\n",
      "      \"value\": \"0.00000330\",\n",
      "      \"n\": 0,\n",
      "      \"scriptPubKey\": {\n",
      "        \"asm\": \"0 34391c79ba78d594262aa91410f49d7200ef55e7551441659412aac47b543f04\",\n",
      "        \"desc\": \"addr(bcrt1qxsu3c7d60r2egf324y2ppayawgqw7408252yzev5z24vg7658uzqwq2zs5)#62txjpcp\",\n",
      "        \"hex\": \"002034391c79ba78d594262aa91410f49d7200ef55e7551441659412aac47b543f04\",\n",
      "        \"address\": \"bcrt1qxsu3c7d60r2egf324y2ppayawgqw7408252yzev5z24vg7658uzqwq2zs5\",\n",
      "        \"type\": \"witness_v0_scripthash\"\n",
      "      }\n",
      "    },\n",
      "    {\n",
      "      \"value\": \"0.04982810\",\n",
      "      \"n\": 1,\n",
      "      \"scriptPubKey\": {\n",
      "        \"asm\": \"0 10af48dee0428972563ba131e3d8aa35fd92537953d4755a84bc2a09c2bb53a5\",\n",
      "        \"desc\": \"addr(bcrt1qzzh53hhqg2yhy43m5yc78k92xh7ey5me20282k5yhs4qns4m2wjsfkpzye)#fhg3my0v\",\n",
      "        \"hex\": \"002010af48dee0428972563ba131e3d8aa35fd92537953d4755a84bc2a09c2bb53a5\",\n",
      "        \"address\": \"bcrt1qzzh53hhqg2yhy43m5yc78k92xh7ey5me20282k5yhs4qns4m2wjsfkpzye\",\n",
      "        \"type\": \"witness_v0_scripthash\"\n",
      "      }\n",
      "    }\n",
      "  ]\n",
      "}\n",
      "Bob Unsigned Commitment transaction\n",
      "{\n",
      "  \"txid\": \"31e1b944b59340b9c4ee3405235893503a8e195ace5e124a22ed7ac4e9c7a944\",\n",
      "  \"hash\": \"31e1b944b59340b9c4ee3405235893503a8e195ace5e124a22ed7ac4e9c7a944\",\n",
      "  \"version\": 2,\n",
      "  \"size\": 137,\n",
      "  \"vsize\": 137,\n",
      "  \"weight\": 548,\n",
      "  \"locktime\": 541304431,\n",
      "  \"vin\": [\n",
      "    {\n",
      "      \"txid\": \"0bc68d2faceb2859c46edb8239ac928ba773771d0702a879782797580e88c0b3\",\n",
      "      \"vout\": 1,\n",
      "      \"scriptSig\": {\n",
      "        \"asm\": \"\",\n",
      "        \"hex\": \"\"\n",
      "      },\n",
      "      \"sequence\": 2159293437\n",
      "    }\n",
      "  ],\n",
      "  \"vout\": [\n",
      "    {\n",
      "      \"value\": \"0.00000330\",\n",
      "      \"n\": 0,\n",
      "      \"scriptPubKey\": {\n",
      "        \"asm\": \"0 34391c79ba78d594262aa91410f49d7200ef55e7551441659412aac47b543f04\",\n",
      "        \"desc\": \"addr(bcrt1qxsu3c7d60r2egf324y2ppayawgqw7408252yzev5z24vg7658uzqwq2zs5)#62txjpcp\",\n",
      "        \"hex\": \"002034391c79ba78d594262aa91410f49d7200ef55e7551441659412aac47b543f04\",\n",
      "        \"address\": \"bcrt1qxsu3c7d60r2egf324y2ppayawgqw7408252yzev5z24vg7658uzqwq2zs5\",\n",
      "        \"type\": \"witness_v0_scripthash\"\n",
      "      }\n",
      "    },\n",
      "    {\n",
      "      \"value\": \"0.04982810\",\n",
      "      \"n\": 1,\n",
      "      \"scriptPubKey\": {\n",
      "        \"asm\": \"0 f0447296bbb031d3f362b223a0ba7281bfcfeca9061820c9bdee400411fc01be\",\n",
      "        \"desc\": \"addr(bcrt1q7pz8994mkqca8umzkg36pwnjsxlulm9fqcvzpjdaaeqqgy0uqxlqphvsda)#f8xgy4gn\",\n",
      "        \"hex\": \"0020f0447296bbb031d3f362b223a0ba7281bfcfeca9061820c9bdee400411fc01be\",\n",
      "        \"address\": \"bcrt1q7pz8994mkqca8umzkg36pwnjsxlulm9fqcvzpjdaaeqqgy0uqxlqphvsda\",\n",
      "        \"type\": \"witness_v0_scripthash\"\n",
      "      }\n",
      "    }\n",
      "  ]\n",
      "}\n",
      "alice_tx_digest_preimage:  0200000096585dd0759f695848ea11b3c153832cc521ba515292601832c95799a90ffd05c6067e2ccbba74d4f24cc174be97c1ea7514cf7a20d616fbc7587a48964b2c95b3c0880e5897277879a802071d7773a78b92ac3982db6ec45928ebac2f8dc60b0100000047522102245c997231079146616f70eae46dd43461b530cb55df50cac8ef321127adb96321032b057a643c7b928b7dc30e1f76c2a777a213fe3a7462215d10220844befe77c352ae404b4c0000000000fd33b48095e26024f731d6ea5e1e1698c7a24bcb4453535c9f06b0e5cbeb259a12693f096fa6432001000000\n",
      "bob_tx_digest_preimage:  0200000096585dd0759f695848ea11b3c153832cc521ba515292601832c95799a90ffd05c6067e2ccbba74d4f24cc174be97c1ea7514cf7a20d616fbc7587a48964b2c95b3c0880e5897277879a802071d7773a78b92ac3982db6ec45928ebac2f8dc60b0100000047522102245c997231079146616f70eae46dd43461b530cb55df50cac8ef321127adb96321032b057a643c7b928b7dc30e1f76c2a777a213fe3a7462215d10220844befe77c352ae404b4c0000000000fd33b480cb541070b4f791ea30c33859048fe351357b6e71305de479d36b3b6dfd7c41396fa6432001000000\n",
      "Alice Signed Commitment Transaction:  02000000000101b3c0880e5897277879a802071d7773a78b92ac3982db6ec45928ebac2f8dc60b0100000000fd33b480024a0100000000000022002034391c79ba78d594262aa91410f49d7200ef55e7551441659412aac47b543f041a084c000000000022002010af48dee0428972563ba131e3d8aa35fd92537953d4755a84bc2a09c2bb53a504004730440220327efa9bf7e5defde336d958ac719dcb5a2e66e88432dd9c6930b5be51841e7002204cfbf57944e7583358bcd1e3845cb2e33437431fc31fa50b5d07d865313d280801483045022100c98f6abff41a726f868e6cde09e984982d4d633cc97b58340c70ca0ca1fb008a02207e41ff20f59bbffbf6e8610434df9f875691e23cbfa13b89507c7ec5c9709c9f0147522102245c997231079146616f70eae46dd43461b530cb55df50cac8ef321127adb96321032b057a643c7b928b7dc30e1f76c2a777a213fe3a7462215d10220844befe77c352ae6fa64320\n",
      "Bob Signed Commitment Transaction:  02000000000101b3c0880e5897277879a802071d7773a78b92ac3982db6ec45928ebac2f8dc60b0100000000fd33b480024a0100000000000022002034391c79ba78d594262aa91410f49d7200ef55e7551441659412aac47b543f041a084c0000000000220020f0447296bbb031d3f362b223a0ba7281bfcfeca9061820c9bdee400411fc01be0400473044022027bdab825ca1c7af02a859ee885c2a93a174cb0312c1c350773f9197a44a491202200ce136aee92f22062e1a4433de406c458c4b5dcba15a916a5e65f665186669dc0147304402200b904619448c2302ed5e8fe03e4f23db37a87e2b1c52719689ce6c367dd07aa6022042e059da3c1b1763bead3e2db7ebc436626ae628b0bcafe5a0027992c0e71d370147522102245c997231079146616f70eae46dd43461b530cb55df50cac8ef321127adb96321032b057a643c7b928b7dc30e1f76c2a777a213fe3a7462215d10220844befe77c352ae6fa64320\n",
      "[{'txid': '8dc730597e35b384badcceb11a1930b2fdcba35bb3c09b0b8786f51315ac513a', 'wtxid': 'b3b9c5af78f084107b6a5b0d744d77e470f5eacf980469654a146025adfc47df', 'allowed': True, 'vsize': 193, 'fees': {'base': Decimal('0.00016860'), 'effective-feerate': Decimal('0.00087357'), 'effective-includes': ['b3b9c5af78f084107b6a5b0d744d77e470f5eacf980469654a146025adfc47df']}}]\n",
      "[{'txid': '31e1b944b59340b9c4ee3405235893503a8e195ace5e124a22ed7ac4e9c7a944', 'wtxid': '8a306a5e98aa96ef43239aa777388febfa9dc108cd04689aeaddc55405605bb1', 'allowed': True, 'vsize': 192, 'fees': {'base': Decimal('0.00016860'), 'effective-feerate': Decimal('0.00087812'), 'effective-includes': ['8a306a5e98aa96ef43239aa777388febfa9dc108cd04689aeaddc55405605bb1']}}]\n",
      "Commitment Number Obscured: 0xb433fd43a66c\n",
      "Inputs: b3c0880e5897277879a802071d7773a78b92ac3982db6ec45928ebac2f8dc60b0100000000fd33b480\n",
      "Alice Per Commitment Secret: 7d474813d764ca1273ad85e3f36ca1926401a8f76e576533f0232801c96af14d\n",
      "Alice Per Commitment Point: 028a29fc294e5cc904c607cbe2d66bc3e3f0d5131ba3f9085eb01b25df0a5bdd4a\n",
      "Bob Per Commitment Secret: 3dec4e412d557115ad23549b60f2bb4fc8a1215bead2c8ade3ed2cf1d10450da\n",
      "Bob Per Commitment Point: 0267c6f101ca3ffa7d9e2aba0ca51e63af33a7b88b19e80a04a2deb9807447e963\n",
      "Alice Delayed Pubkey: 03eb397e72815b5221b63d2564593465b45c9f7fa6da6944e1371974557d2682fa\n",
      "Bob Delayed Pubkey: 02422c467da01480bef0191075e8823724ebb84b1a8fc502ca1e63d881ae723a4e\n",
      "Alice HTLC Pubkey: 03f020b85b2f600cdba67ecb33ed2ed09bf1c0a0e67e839a9ca70766049a5f3298\n",
      "Bob HTLC Pubkey: 03f0ce4fe88d9e1d79c449ced61ee6cfc9280b3e424a48f952667b7fd73a299aa1\n",
      "Bob Revocation Pubkey: 03280652b5b3abccd28174b226f3728cf31025f9188ff52eea5cf84fe129c77942\n",
      "Alice Revocation Pubkey: 02a63b41912d98c695eeb72b830d07588b6eaca078ecd39498e82e5b4b6f14aa90\n",
      "Alice Anchor Output SPK: 002034391c79ba78d594262aa91410f49d7200ef55e7551441659412aac47b543f04\n",
      "Bob Anchor Output SPK: 002056680a199b598b249d54e3b24fbf5a629228af306e3f587e8ab1b65233a581c4\n",
      "Alice Offered htlc Output SPK: 0020e41c944136e30b377fc245c71e2cf603e115a968b5b16a59e6c26dc50f69d1a8\n",
      "Bob Remote Output SPK: 0020439fd0fb44bb93e02a87b92851c9e377612166d8ce4af46eb9f82899a8e8323d\n",
      "Alice Delayed Output SPK: 0020a740481499c3a13952f3c1aab5bf7e76d07908e8c576902c192131adfe007ad6\n",
      "Bob Received htlc Output SPK: 00205083e7b1e0fba00f7d894d1ff9b8796bbc06d07c23f2d51c4d0bb3ef0a7ee40c\n",
      "Bob Delayed Output SPK: 00209dfff11a6f74c6a55241ceab93d40f04d9377608accd4be44eedd1031183e845\n",
      "Alice Remote Output SPK: 0020475d024bb95e9a981632863d3b1a4b9308aa88e189196272735a3e3d47caf936\n",
      "Unsigned Alice Commitment Transaction:  0200000001b3c0880e5897277879a802071d7773a78b92ac3982db6ec45928ebac2f8dc60b0100000000fd33b480054a0100000000000022002034391c79ba78d594262aa91410f49d7200ef55e7551441659412aac47b543f044a0100000000000022002056680a199b598b249d54e3b24fbf5a629228af306e3f587e8ab1b65233a581c420a1070000000000220020e41c944136e30b377fc245c71e2cf603e115a968b5b16a59e6c26dc50f69d1a840420f0000000000220020439fd0fb44bb93e02a87b92851c9e377612166d8ce4af46eb9f82899a8e8323d5c19350000000000220020a740481499c3a13952f3c1aab5bf7e76d07908e8c576902c192131adfe007ad66ca64320\n",
      "Unsigned Bob Commitment Transaction:  0200000001b3c0880e5897277879a802071d7773a78b92ac3982db6ec45928ebac2f8dc60b0100000000fd33b480054a0100000000000022002034391c79ba78d594262aa91410f49d7200ef55e7551441659412aac47b543f044a0100000000000022002056680a199b598b249d54e3b24fbf5a629228af306e3f587e8ab1b65233a581c420a10700000000002200205083e7b1e0fba00f7d894d1ff9b8796bbc06d07c23f2d51c4d0bb3ef0a7ee40cdc941600000000002200209dfff11a6f74c6a55241ceab93d40f04d9377608accd4be44eedd1031183e845e067350000000000220020475d024bb95e9a981632863d3b1a4b9308aa88e189196272735a3e3d47caf9366ca64320\n",
      "Alice Unsigned Commitment transaction\n",
      "{\n",
      "  \"txid\": \"25f4b3a406002b00a11057d960031040011ce890d2bb77cb379ffe34923534bc\",\n",
      "  \"hash\": \"25f4b3a406002b00a11057d960031040011ce890d2bb77cb379ffe34923534bc\",\n",
      "  \"version\": 2,\n",
      "  \"size\": 266,\n",
      "  \"vsize\": 266,\n",
      "  \"weight\": 1064,\n",
      "  \"locktime\": 541304428,\n",
      "  \"vin\": [\n",
      "    {\n",
      "      \"txid\": \"0bc68d2faceb2859c46edb8239ac928ba773771d0702a879782797580e88c0b3\",\n",
      "      \"vout\": 1,\n",
      "      \"scriptSig\": {\n",
      "        \"asm\": \"\",\n",
      "        \"hex\": \"\"\n",
      "      },\n",
      "      \"sequence\": 2159293437\n",
      "    }\n",
      "  ],\n",
      "  \"vout\": [\n",
      "    {\n",
      "      \"value\": \"0.00000330\",\n",
      "      \"n\": 0,\n",
      "      \"scriptPubKey\": {\n",
      "        \"asm\": \"0 34391c79ba78d594262aa91410f49d7200ef55e7551441659412aac47b543f04\",\n",
      "        \"desc\": \"addr(bcrt1qxsu3c7d60r2egf324y2ppayawgqw7408252yzev5z24vg7658uzqwq2zs5)#62txjpcp\",\n",
      "        \"hex\": \"002034391c79ba78d594262aa91410f49d7200ef55e7551441659412aac47b543f04\",\n",
      "        \"address\": \"bcrt1qxsu3c7d60r2egf324y2ppayawgqw7408252yzev5z24vg7658uzqwq2zs5\",\n",
      "        \"type\": \"witness_v0_scripthash\"\n",
      "      }\n",
      "    },\n",
      "    {\n",
      "      \"value\": \"0.00000330\",\n",
      "      \"n\": 1,\n",
      "      \"scriptPubKey\": {\n",
      "        \"asm\": \"0 56680a199b598b249d54e3b24fbf5a629228af306e3f587e8ab1b65233a581c4\",\n",
      "        \"desc\": \"addr(bcrt1q2e5q5xvmtx9jf825uweyl066v2fz3tesdcl4sl52kxm9yva9s8zq9pw5mq)#z5wzum6e\",\n",
      "        \"hex\": \"002056680a199b598b249d54e3b24fbf5a629228af306e3f587e8ab1b65233a581c4\",\n",
      "        \"address\": \"bcrt1q2e5q5xvmtx9jf825uweyl066v2fz3tesdcl4sl52kxm9yva9s8zq9pw5mq\",\n",
      "        \"type\": \"witness_v0_scripthash\"\n",
      "      }\n",
      "    },\n",
      "    {\n",
      "      \"value\": \"0.00500000\",\n",
      "      \"n\": 2,\n",
      "      \"scriptPubKey\": {\n",
      "        \"asm\": \"0 e41c944136e30b377fc245c71e2cf603e115a968b5b16a59e6c26dc50f69d1a8\",\n",
      "        \"desc\": \"addr(bcrt1quswfgsfkuv9nwl7zghr3ut8kq0s3t2tgkkck5k0xcfku2rmf6x5quhg9dd)#m3htkgr8\",\n",
      "        \"hex\": \"0020e41c944136e30b377fc245c71e2cf603e115a968b5b16a59e6c26dc50f69d1a8\",\n",
      "        \"address\": \"bcrt1quswfgsfkuv9nwl7zghr3ut8kq0s3t2tgkkck5k0xcfku2rmf6x5quhg9dd\",\n",
      "        \"type\": \"witness_v0_scripthash\"\n",
      "      }\n",
      "    },\n",
      "    {\n",
      "      \"value\": \"0.01000000\",\n",
      "      \"n\": 3,\n",
      "      \"scriptPubKey\": {\n",
      "        \"asm\": \"0 439fd0fb44bb93e02a87b92851c9e377612166d8ce4af46eb9f82899a8e8323d\",\n",
      "        \"desc\": \"addr(bcrt1qgw0ap76yhwf7q258hy59rj0rwasjzekcee90gm4elq5fn28gxg7sj0rdmv)#6a82l2ar\",\n",
      "        \"hex\": \"0020439fd0fb44bb93e02a87b92851c9e377612166d8ce4af46eb9f82899a8e8323d\",\n",
      "        \"address\": \"bcrt1qgw0ap76yhwf7q258hy59rj0rwasjzekcee90gm4elq5fn28gxg7sj0rdmv\",\n",
      "        \"type\": \"witness_v0_scripthash\"\n",
      "      }\n",
      "    },\n",
      "    {\n",
      "      \"value\": \"0.03479900\",\n",
      "      \"n\": 4,\n",
      "      \"scriptPubKey\": {\n",
      "        \"asm\": \"0 a740481499c3a13952f3c1aab5bf7e76d07908e8c576902c192131adfe007ad6\",\n",
      "        \"desc\": \"addr(bcrt1q5aqys9yecwsnj5hncx4tt0m7wmg8jz8gc4mfqtqeyyc6mlsq0ttqp4fyyl)#6zvzsd7c\",\n",
      "        \"hex\": \"0020a740481499c3a13952f3c1aab5bf7e76d07908e8c576902c192131adfe007ad6\",\n",
      "        \"address\": \"bcrt1q5aqys9yecwsnj5hncx4tt0m7wmg8jz8gc4mfqtqeyyc6mlsq0ttqp4fyyl\",\n",
      "        \"type\": \"witness_v0_scripthash\"\n",
      "      }\n",
      "    }\n",
      "  ]\n",
      "}\n",
      "Bob Unsigned Commitment transaction\n",
      "{\n",
      "  \"txid\": \"ead8d37e9a4862168f771c66d7613e15fc1a2754fdc4af1ce9438eee77ce17c4\",\n",
      "  \"hash\": \"ead8d37e9a4862168f771c66d7613e15fc1a2754fdc4af1ce9438eee77ce17c4\",\n",
      "  \"version\": 2,\n",
      "  \"size\": 266,\n",
      "  \"vsize\": 266,\n",
      "  \"weight\": 1064,\n",
      "  \"locktime\": 541304428,\n",
      "  \"vin\": [\n",
      "    {\n",
      "      \"txid\": \"0bc68d2faceb2859c46edb8239ac928ba773771d0702a879782797580e88c0b3\",\n",
      "      \"vout\": 1,\n",
      "      \"scriptSig\": {\n",
      "        \"asm\": \"\",\n",
      "        \"hex\": \"\"\n",
      "      },\n",
      "      \"sequence\": 2159293437\n",
      "    }\n",
      "  ],\n",
      "  \"vout\": [\n",
      "    {\n",
      "      \"value\": \"0.00000330\",\n",
      "      \"n\": 0,\n",
      "      \"scriptPubKey\": {\n",
      "        \"asm\": \"0 34391c79ba78d594262aa91410f49d7200ef55e7551441659412aac47b543f04\",\n",
      "        \"desc\": \"addr(bcrt1qxsu3c7d60r2egf324y2ppayawgqw7408252yzev5z24vg7658uzqwq2zs5)#62txjpcp\",\n",
      "        \"hex\": \"002034391c79ba78d594262aa91410f49d7200ef55e7551441659412aac47b543f04\",\n",
      "        \"address\": \"bcrt1qxsu3c7d60r2egf324y2ppayawgqw7408252yzev5z24vg7658uzqwq2zs5\",\n",
      "        \"type\": \"witness_v0_scripthash\"\n",
      "      }\n",
      "    },\n",
      "    {\n",
      "      \"value\": \"0.00000330\",\n",
      "      \"n\": 1,\n",
      "      \"scriptPubKey\": {\n",
      "        \"asm\": \"0 56680a199b598b249d54e3b24fbf5a629228af306e3f587e8ab1b65233a581c4\",\n",
      "        \"desc\": \"addr(bcrt1q2e5q5xvmtx9jf825uweyl066v2fz3tesdcl4sl52kxm9yva9s8zq9pw5mq)#z5wzum6e\",\n",
      "        \"hex\": \"002056680a199b598b249d54e3b24fbf5a629228af306e3f587e8ab1b65233a581c4\",\n",
      "        \"address\": \"bcrt1q2e5q5xvmtx9jf825uweyl066v2fz3tesdcl4sl52kxm9yva9s8zq9pw5mq\",\n",
      "        \"type\": \"witness_v0_scripthash\"\n",
      "      }\n",
      "    },\n",
      "    {\n",
      "      \"value\": \"0.00500000\",\n",
      "      \"n\": 2,\n",
      "      \"scriptPubKey\": {\n",
      "        \"asm\": \"0 5083e7b1e0fba00f7d894d1ff9b8796bbc06d07c23f2d51c4d0bb3ef0a7ee40c\",\n",
      "        \"desc\": \"addr(bcrt1q2zp70v0qlwsq7lvff50lnwredw7qd5ruy0ed28zdpwe77zn7usxqhwqq4q)#wvqrjtcw\",\n",
      "        \"hex\": \"00205083e7b1e0fba00f7d894d1ff9b8796bbc06d07c23f2d51c4d0bb3ef0a7ee40c\",\n",
      "        \"address\": \"bcrt1q2zp70v0qlwsq7lvff50lnwredw7qd5ruy0ed28zdpwe77zn7usxqhwqq4q\",\n",
      "        \"type\": \"witness_v0_scripthash\"\n",
      "      }\n",
      "    },\n",
      "    {\n",
      "      \"value\": \"0.01479900\",\n",
      "      \"n\": 3,\n",
      "      \"scriptPubKey\": {\n",
      "        \"asm\": \"0 9dfff11a6f74c6a55241ceab93d40f04d9377608accd4be44eedd1031183e845\",\n",
      "        \"desc\": \"addr(bcrt1qnhllzxn0wnr225jpe64e84q0qnvnwasg4nx5hezwahgsxyvrapzsmxrkgp)#dx24dv0f\",\n",
      "        \"hex\": \"00209dfff11a6f74c6a55241ceab93d40f04d9377608accd4be44eedd1031183e845\",\n",
      "        \"address\": \"bcrt1qnhllzxn0wnr225jpe64e84q0qnvnwasg4nx5hezwahgsxyvrapzsmxrkgp\",\n",
      "        \"type\": \"witness_v0_scripthash\"\n",
      "      }\n",
      "    },\n",
      "    {\n",
      "      \"value\": \"0.03500000\",\n",
      "      \"n\": 4,\n",
      "      \"scriptPubKey\": {\n",
      "        \"asm\": \"0 475d024bb95e9a981632863d3b1a4b9308aa88e189196272735a3e3d47caf936\",\n",
      "        \"desc\": \"addr(bcrt1qgawsyjaet6dfs93jsc7nkxjtjvy24z8p3yvkyunntglr6372lymq8edt6d)#vxtm3r5t\",\n",
      "        \"hex\": \"0020475d024bb95e9a981632863d3b1a4b9308aa88e189196272735a3e3d47caf936\",\n",
      "        \"address\": \"bcrt1qgawsyjaet6dfs93jsc7nkxjtjvy24z8p3yvkyunntglr6372lymq8edt6d\",\n",
      "        \"type\": \"witness_v0_scripthash\"\n",
      "      }\n",
      "    }\n",
      "  ]\n",
      "}\n",
      "alice_commitment_tx_digest_preimage:  0200000096585dd0759f695848ea11b3c153832cc521ba515292601832c95799a90ffd05c6067e2ccbba74d4f24cc174be97c1ea7514cf7a20d616fbc7587a48964b2c95b3c0880e5897277879a802071d7773a78b92ac3982db6ec45928ebac2f8dc60b0100000047522102245c997231079146616f70eae46dd43461b530cb55df50cac8ef321127adb96321032b057a643c7b928b7dc30e1f76c2a777a213fe3a7462215d10220844befe77c352ae404b4c0000000000fd33b480e458bb1b8fb86ac77a0469f19671a58e9b790954288f02e779e28d1142e05a886ca6432001000000\n",
      "bob_commitment_tx_digest_preimage:  0200000096585dd0759f695848ea11b3c153832cc521ba515292601832c95799a90ffd05c6067e2ccbba74d4f24cc174be97c1ea7514cf7a20d616fbc7587a48964b2c95b3c0880e5897277879a802071d7773a78b92ac3982db6ec45928ebac2f8dc60b0100000047522102245c997231079146616f70eae46dd43461b530cb55df50cac8ef321127adb96321032b057a643c7b928b7dc30e1f76c2a777a213fe3a7462215d10220844befe77c352ae404b4c0000000000fd33b48081f691f3a1a09e8ef8831e1f5f94bbde79143db92325f5fc763ca140663099fe6ca6432001000000\n",
      "Alice Signed Commitment Transaction:  02000000000101b3c0880e5897277879a802071d7773a78b92ac3982db6ec45928ebac2f8dc60b0100000000fd33b480054a0100000000000022002034391c79ba78d594262aa91410f49d7200ef55e7551441659412aac47b543f044a0100000000000022002056680a199b598b249d54e3b24fbf5a629228af306e3f587e8ab1b65233a581c420a1070000000000220020e41c944136e30b377fc245c71e2cf603e115a968b5b16a59e6c26dc50f69d1a840420f0000000000220020439fd0fb44bb93e02a87b92851c9e377612166d8ce4af46eb9f82899a8e8323d5c19350000000000220020a740481499c3a13952f3c1aab5bf7e76d07908e8c576902c192131adfe007ad604004830450221009433f46369d6a8e024f97736ba94681c8098e12807521b3e597b21a0fefc469d02207cee3d9140d9d9825ac4e8f8094ec9711e57f53c54a7e3033bb6282107ca858601483045022100a882fd0f011007d8ff8d98c540b15c5611efb302c2676f5be748221f1fff511d02204de8ec1c63b7bbcef4f8fc3cbb8f5b5c956f22347c428e6b7e60afcf3e4e9cde0147522102245c997231079146616f70eae46dd43461b530cb55df50cac8ef321127adb96321032b057a643c7b928b7dc30e1f76c2a777a213fe3a7462215d10220844befe77c352ae6ca64320\n",
      "Bob Signed Commitment Transaction:  02000000000101b3c0880e5897277879a802071d7773a78b92ac3982db6ec45928ebac2f8dc60b0100000000fd33b480054a0100000000000022002034391c79ba78d594262aa91410f49d7200ef55e7551441659412aac47b543f044a0100000000000022002056680a199b598b249d54e3b24fbf5a629228af306e3f587e8ab1b65233a581c420a10700000000002200205083e7b1e0fba00f7d894d1ff9b8796bbc06d07c23f2d51c4d0bb3ef0a7ee40cdc941600000000002200209dfff11a6f74c6a55241ceab93d40f04d9377608accd4be44eedd1031183e845e067350000000000220020475d024bb95e9a981632863d3b1a4b9308aa88e189196272735a3e3d47caf936040047304402207b1ea13678cbd1399e88987388f4633b875231c862cd2fbd146eea5e55dc35e902202b35215f7948ed7b29d6861c4e26c3595b47be450b9b606bc2698efa454c666b0147304402202e4a236209b1b2ee02770b610666bdb2b1ec463b9dd33085d912723a7868775802206d03a5928872fe40f257c652e59a051da53b8a1dacf39c13f01bdfdbbf7f55e80147522102245c997231079146616f70eae46dd43461b530cb55df50cac8ef321127adb96321032b057a643c7b928b7dc30e1f76c2a777a213fe3a7462215d10220844befe77c352ae6ca64320\n",
      "[{'txid': '25f4b3a406002b00a11057d960031040011ce890d2bb77cb379ffe34923534bc', 'wtxid': 'd3ad5cbe9d96a54e3ed41ad4dea08714625b58199551cfb9b7c2b7cd992f3115', 'allowed': True, 'vsize': 322, 'fees': {'base': Decimal('0.00019440'), 'effective-feerate': Decimal('0.00060372'), 'effective-includes': ['d3ad5cbe9d96a54e3ed41ad4dea08714625b58199551cfb9b7c2b7cd992f3115']}}]\n",
      "[{'txid': 'ead8d37e9a4862168f771c66d7613e15fc1a2754fdc4af1ce9438eee77ce17c4', 'wtxid': '4529cddd972b5a48db152feacbb4c08545923e04bc28fea5b5c929bf7ce5a678', 'allowed': False, 'reject-reason': 'bad-txns-in-belowout'}]\n"
     ]
    }
   ],
   "source": [
    "# run notebook\n",
    "%run \"/home/pins-dev/Projects/lightning-tx-tutorial/Chapter 2 - Commitment Transactions/Commitment Transactions with HTLC in Transit.ipynb\""
   ]
  },
  {
   "cell_type": "code",
   "execution_count": 2,
   "id": "39036f53-4b28-4b93-b65b-9b255fa8eefd",
   "metadata": {},
   "outputs": [],
   "source": [
    "# Determine our output scriptPubkeys and amounts (in satoshis)\n",
    "# Alice pay for the fees\n",
    "alice_output_value_sat = 3500000 - 500\n",
    "alice_output_spk = bytes.fromhex(\"76a914\") + hash160(bytes.fromhex(alice_funding_pubkey)) + bytes.fromhex(\"88ac\")\n",
    "bob_output_value_sat = 1500000\n",
    "bob_output_spk = bytes.fromhex(\"76a914\") + hash160(bytes.fromhex(bob_funding_pubkey)) + bytes.fromhex(\"88ac\")"
   ]
  },
  {
   "cell_type": "code",
   "execution_count": 3,
   "id": "dc200beb-78dc-4e03-b242-c0f8a58d9df7",
   "metadata": {},
   "outputs": [
    {
     "name": "stdout",
     "output_type": "stream",
     "text": [
      "Inputs: b3c0880e5897277879a802071d7773a78b92ac3982db6ec45928ebac2f8dc60b0100000000ffffffff\n",
      "unsigned_tx:  0200000001b3c0880e5897277879a802071d7773a78b92ac3982db6ec45928ebac2f8dc60b0100000000ffffffff02ec653500000000001976a9145bd80a3647077ca7fd268dee2270a4442682ca1188ac60e31600000000001976a914b256d67c5f0170d88e6ff0dae453152e16df4de988ac00000000\n"
     ]
    }
   ],
   "source": [
    "# VERSION\n",
    "# version '2' indicates that we may use relative timelocks (BIP68)\n",
    "version = bytes.fromhex(\"0200 0000\")\n",
    "\n",
    "# MARKER\n",
    "marker = bytes.fromhex(\"00\")\n",
    "\n",
    "# FLAG\n",
    "flag = bytes.fromhex(\"01\")\n",
    "\n",
    "# INPUTS\n",
    "# We have just 1 input\n",
    "input_count = bytes.fromhex(\"01\")\n",
    "\n",
    "# Calculate the txid of the funding channel tx created on the previous notebook\n",
    "channel_funding_txid = hash256(unsigned_channel_funding_tx)\n",
    "# The index of the funding channel tx createt on the previous notebook\n",
    "channel_funding_txindex = 1\n",
    "# Convert index to bytes (little endian)\n",
    "# Since the txid was already calculated, there is no need to invert the bytes to little-endian.\n",
    "channel_funding_txindex = channel_funding_txindex.to_bytes(4, byteorder=\"little\", signed=False)\n",
    "\n",
    "# For the unsigned transaction we use an empty scriptSig\n",
    "scriptsig = bytes.fromhex(\"\")\n",
    "\n",
    "# use 0xffffffff unless you are using OP_CHECKSEQUENCEVERIFY, locktime, or rbf\n",
    "sequence = bytes.fromhex(\"ffff ffff\")\n",
    "\n",
    "inputs = (\n",
    "    channel_funding_txid\n",
    "    + channel_funding_txindex\n",
    "    + varint_len(scriptsig)\n",
    "    + scriptsig\n",
    "    + sequence\n",
    ")\n",
    "print(\"Inputs: \" + inputs.hex())\n",
    "\n",
    "# OUTPUTS\n",
    "# 0x02 for out two outputs\n",
    "output_count = bytes.fromhex(\"02\")\n",
    " \n",
    "alice_output_value = alice_output_value_sat.to_bytes(8, byteorder=\"little\", signed=True)\n",
    "\n",
    "bob_output_value = bob_output_value_sat.to_bytes(8, byteorder=\"little\", signed=True)\n",
    "\n",
    "outputs = (\n",
    "    alice_output_value\n",
    "    + pushbytes(alice_output_spk)\n",
    "    + bob_output_value\n",
    "    + pushbytes(bob_output_spk)\n",
    ")\n",
    "\n",
    "# LOCKTIME\n",
    "locktime = bytes.fromhex(\"0000 0000\")\n",
    "\n",
    "unsigned_tx = (\n",
    "    version\n",
    "    + input_count\n",
    "    + inputs\n",
    "    + output_count\n",
    "    + outputs\n",
    "    + locktime\n",
    ")\n",
    "print(\"unsigned_tx: \", unsigned_tx.hex())"
   ]
  },
  {
   "cell_type": "code",
   "execution_count": 4,
   "id": "751aa483-481e-46e4-aae5-eccedbeaf3c9",
   "metadata": {},
   "outputs": [
    {
     "name": "stdout",
     "output_type": "stream",
     "text": [
      "{\n",
      "  \"txid\": \"fbaad7d8e1033241143aea2a21a411da4d2afc082bdfbfcb0de1f203753cee66\",\n",
      "  \"hash\": \"fbaad7d8e1033241143aea2a21a411da4d2afc082bdfbfcb0de1f203753cee66\",\n",
      "  \"version\": 2,\n",
      "  \"size\": 119,\n",
      "  \"vsize\": 119,\n",
      "  \"weight\": 476,\n",
      "  \"locktime\": 0,\n",
      "  \"vin\": [\n",
      "    {\n",
      "      \"txid\": \"0bc68d2faceb2859c46edb8239ac928ba773771d0702a879782797580e88c0b3\",\n",
      "      \"vout\": 1,\n",
      "      \"scriptSig\": {\n",
      "        \"asm\": \"\",\n",
      "        \"hex\": \"\"\n",
      "      },\n",
      "      \"sequence\": 4294967295\n",
      "    }\n",
      "  ],\n",
      "  \"vout\": [\n",
      "    {\n",
      "      \"value\": \"0.03499500\",\n",
      "      \"n\": 0,\n",
      "      \"scriptPubKey\": {\n",
      "        \"asm\": \"OP_DUP OP_HASH160 5bd80a3647077ca7fd268dee2270a4442682ca11 OP_EQUALVERIFY OP_CHECKSIG\",\n",
      "        \"desc\": \"addr(motabE2LNUacCFkp2eaoTyzpJg1PQm8RUb)#7x6ps8y0\",\n",
      "        \"hex\": \"76a9145bd80a3647077ca7fd268dee2270a4442682ca1188ac\",\n",
      "        \"address\": \"motabE2LNUacCFkp2eaoTyzpJg1PQm8RUb\",\n",
      "        \"type\": \"pubkeyhash\"\n",
      "      }\n",
      "    },\n",
      "    {\n",
      "      \"value\": \"0.01500000\",\n",
      "      \"n\": 1,\n",
      "      \"scriptPubKey\": {\n",
      "        \"asm\": \"OP_DUP OP_HASH160 b256d67c5f0170d88e6ff0dae453152e16df4de9 OP_EQUALVERIFY OP_CHECKSIG\",\n",
      "        \"desc\": \"addr(mwmvboG667nejqfcjM2hEjvecysypsraQT)#3k6p9g4u\",\n",
      "        \"hex\": \"76a914b256d67c5f0170d88e6ff0dae453152e16df4de988ac\",\n",
      "        \"address\": \"mwmvboG667nejqfcjM2hEjvecysypsraQT\",\n",
      "        \"type\": \"pubkeyhash\"\n",
      "      }\n",
      "    }\n",
      "  ]\n",
      "}\n"
     ]
    }
   ],
   "source": [
    "decoded = node.decoderawtransaction(unsigned_tx.hex())\n",
    "print(json.dumps(decoded, indent=2, default=str))"
   ]
  },
  {
   "cell_type": "code",
   "execution_count": 5,
   "id": "e26df5ac-9936-4583-aa7a-9731df2ef936",
   "metadata": {},
   "outputs": [
    {
     "name": "stdout",
     "output_type": "stream",
     "text": [
      "0200000096585dd0759f695848ea11b3c153832cc521ba515292601832c95799a90ffd053bb13029ce7b1f559ef5e747fcac439f1455a2ec7c5f09b72290795e70665044b3c0880e5897277879a802071d7773a78b92ac3982db6ec45928ebac2f8dc60b0100000047522102245c997231079146616f70eae46dd43461b530cb55df50cac8ef321127adb96321032b057a643c7b928b7dc30e1f76c2a777a213fe3a7462215d10220844befe77c352ae404b4c0000000000ffffffffb9bf0a970b99e17300fefe8083c196d7b461b7138eb8b019ee2eb70ad06d75650000000001000000\n"
     ]
    }
   ],
   "source": [
    "scriptcode = redeemScript\n",
    "\n",
    "# value of the funding channel output transaction (Output2)\n",
    "value = output2_value_sat.to_bytes(8, byteorder=\"little\", signed=False)\n",
    "\n",
    "hashPrevOuts = hash256(channel_funding_txid + channel_funding_txindex)\n",
    "hashSequence = hash256(sequence)\n",
    "hashOutputs = hash256(outputs)\n",
    "sighash_type = bytes.fromhex(\"0100 0000\") # SIGHASH_ALL\n",
    "\n",
    "tx_digest_preimage = (\n",
    "    version\n",
    "    + hashPrevOuts\n",
    "    + hashSequence\n",
    "    + channel_funding_txid\n",
    "    + channel_funding_txindex\n",
    "    + varint_len(scriptcode)\n",
    "    + scriptcode\n",
    "    + value\n",
    "    + sequence\n",
    "    + hashOutputs\n",
    "    + locktime\n",
    "    + sighash_type\n",
    ")\n",
    "print(tx_digest_preimage.hex())"
   ]
  },
  {
   "cell_type": "code",
   "execution_count": 6,
   "id": "de90d01e-d2d0-4b74-826c-1578103cab91",
   "metadata": {},
   "outputs": [
    {
     "name": "stdout",
     "output_type": "stream",
     "text": [
      "Signed Closing Transaction:  02000000000101b3c0880e5897277879a802071d7773a78b92ac3982db6ec45928ebac2f8dc60b0100000000ffffffff02ec653500000000001976a9145bd80a3647077ca7fd268dee2270a4442682ca1188ac60e31600000000001976a914b256d67c5f0170d88e6ff0dae453152e16df4de988ac040047304402207ccfb6960385d7081b7f0e12b7b784dfad6c8634a65c11b95986672ee2457be302200f12c6ba85b109ff6407e5918cb60f061e22d2a8702ccd45f1fe2ad29cf8286001483045022100af749205d99119d173526c4b98f260d2207cec02563b619acf2ce74687b54a1802207b452f4d126f7f939a4a6fc6d95a90248fcb31c113902f2c4b6fc6dc582117e70147522102245c997231079146616f70eae46dd43461b530cb55df50cac8ef321127adb96321032b057a643c7b928b7dc30e1f76c2a777a213fe3a7462215d10220844befe77c352ae00000000\n"
     ]
    }
   ],
   "source": [
    "# SIGN ALICE COMMITMENT TRANSACTION\n",
    "# Sign the sigHash with the input privkey1\n",
    "# Create sigHash to be signed\n",
    "tx_sighash = hash256(tx_digest_preimage)\n",
    "alice_signing_key = ecdsa.SigningKey.from_string(bytes.fromhex(alice_funding_privkey), curve=ecdsa.SECP256k1) \n",
    "alice_signature = alice_signing_key.sign_digest(tx_sighash, sigencode=ecdsa.util.sigencode_der_canonize)\n",
    "\n",
    "# Append SIGHASH_ALL to the signature\n",
    "alice_signature = alice_signature + bytes.fromhex(\"01\")\n",
    "\n",
    "# Sign the sigHash with the input privkey2\n",
    "bob_signing_key = ecdsa.SigningKey.from_string(bytes.fromhex(bob_funding_privkey), curve=ecdsa.SECP256k1) \n",
    "bob_signature = bob_signing_key.sign_digest(tx_sighash, sigencode=ecdsa.util.sigencode_der_canonize)\n",
    "\n",
    "# Append SIGHASH_ALL to the signature\n",
    "bob_signature = bob_signature + bytes.fromhex(\"01\")\n",
    "\n",
    "witness = (\n",
    "    # indicate the number of stack items\n",
    "    bytes.fromhex(\"04\")\n",
    "    + bytes.fromhex(\"00\") # Add an extra \"00\" for the CheckMultiSig bug\n",
    "    + varint_len(alice_signature)\n",
    "    + alice_signature\n",
    "    + varint_len(bob_signature)\n",
    "    + bob_signature\n",
    "    + varint_len(redeemScript)\n",
    "    + redeemScript\n",
    ")\n",
    "\n",
    "# the final signed transaction\n",
    "signed_closing_tx = (\n",
    "    version\n",
    "    + marker\n",
    "    + flag\n",
    "    + input_count\n",
    "    + inputs\n",
    "    + output_count\n",
    "    + outputs\n",
    "    + witness\n",
    "    + locktime\n",
    ")\n",
    "\n",
    "print(\"Signed Closing Transaction: \",signed_closing_tx.hex())\n"
   ]
  },
  {
   "cell_type": "code",
   "execution_count": 7,
   "id": "ab9a7573-b0a6-457c-bb55-b178ee4e1d4f",
   "metadata": {},
   "outputs": [
    {
     "name": "stdout",
     "output_type": "stream",
     "text": [
      "[{'txid': 'fbaad7d8e1033241143aea2a21a411da4d2afc082bdfbfcb0de1f203753cee66', 'wtxid': '9e93f80ca79aa488738a76be39bceec09338a2aee45e249f47f21e162dbffe99', 'allowed': True, 'vsize': 175, 'fees': {'base': Decimal('0.00000500'), 'effective-feerate': Decimal('0.00002857'), 'effective-includes': ['9e93f80ca79aa488738a76be39bceec09338a2aee45e249f47f21e162dbffe99']}}]\n"
     ]
    }
   ],
   "source": [
    "print(node.testmempoolaccept(rawtxs=[signed_closing_tx.hex()]))"
   ]
  },
  {
   "cell_type": "code",
   "execution_count": null,
   "id": "2227900a-b7bd-4272-a775-811193fe6752",
   "metadata": {},
   "outputs": [],
   "source": []
  }
 ],
 "metadata": {
  "kernelspec": {
   "display_name": "Python 3 (ipykernel)",
   "language": "python",
   "name": "python3"
  },
  "language_info": {
   "codemirror_mode": {
    "name": "ipython",
    "version": 3
   },
   "file_extension": ".py",
   "mimetype": "text/x-python",
   "name": "python",
   "nbconvert_exporter": "python",
   "pygments_lexer": "ipython3",
   "version": "3.12.3"
  }
 },
 "nbformat": 4,
 "nbformat_minor": 5
}
